S0140000494D555F4672656552544F532E73726563FC
S214400000604700205945400051454000514540005A
S2144000105145400051454000514540000000000019
S214400020000000000000000000000000814A400080
S21440003051454000000000006D4B4000A94B400079
S2144000405145400051454000514540005145400013
S2144000505145400051454000514540005145400003
S21440006075214000852140005145400089394000B7
S214400070A1394000B9394000514540005145400043
S214400080514540005145400051454000011B40004D
S214400090111B4000190140005145400051454000A9
S2144000A051454000514540005145400051454000B3
S2144000B051454000514540005145400051454000A3
S2144000C05145400010B5054C237833B9044B13B165
S2144000D00448AFF300800123237010BDD8090020E8
S2144000E00000000028EE400008B5064B1BB106484D
S2144000F00649AFF300800648036813B1054B03B1C9
S214400100984708BD0000000028EE4000DC090020AB
S21440011028EE40000000000080B500AF014B984735
S21440012080BD00BF0D2E400090B583B000AF274B7A
S214400130B0221A60254BDC225A60244B00229A607B
S214400140224B6FF07F42DA60214B98471F48214B85
S21440015098470820204B9847204B98474FF6FF700B
S2144001601F4B98470023FB712AE0FC7901200421AD
S21440017000221C4B984702461B4B43F82420FA7932
S214400180194B53F82230002B03D11920174B9847B0
S214400190FEE7FC79012004210022124B98470246D4
S2144001A0134B43F82420FA79114B53F82230002B96
S2144001B003D119200D4B9847FEE7FB790133FB71BD
S2144001C0FB79022BD1D90C37BD4690BDA83E002006
S2144001D0E5274000C92B40005D274000412E4000E7
S2144001E0C12E4000814F40009C3E00209926400092
S2144001F08C3E00202DE9B04398B004AF78600023D1
S21440020087F84F300020674B984705200A21664AFA
S214400210664B98474FF4FA70654B984707F13C0396
S214400220184600210C22634B9847002387F84F302E
S2144002301DE097F84F20604B53F8222097F84F3038
S21440024007F13C019B000B44104619464FF0FF3225
S21440025001235A4CA047B864BB6C012B02D0002047
S214400260574B984797F84F30013387F84F3097F8F9
S2144002704F30022BDDD907F13003184600210C22FF
S2144002804C4B9847002387F84F301DE097F84F2097
S2144002904C4B53F8222097F84F3007F130019B0023
S2144002A00B44104619464FF0FF320123434CA047FB
S2144002B0B864BB6C012B02D00020414B984797F89E
S2144002C04F30013387F84F3097F84F30022BDDD947
S2144002D06FF07F40334B984700201E21B022DC232E
S2144002E0394CA04700202F4B9847FA6B374B1046A7
S2144002F0984704460D463A6C344B1046984780461D
S21440030089467A6C314B1046984702460B4607F1B1
S2144003100801CDE90089CDE9022308462C4922464A
S2144003202B462C4CA04707F1080305201E211A46F1
S2144003301E4B98473A6B254B1046984704460D4649
S2144003407A6B224B1046984780468946BA6B1F4BBD
S2144003501046984702460B4607F10801CDE900894A
S214400360CDE9022308461C4922462B46194CA04795
S21440037007F1080305206E211A460C4B9847174B89
S2144003809847034607F10802104615491A46114B8E
S214400390984707F108030520BE211A46034B9847A5
S2144003A038E700BF692E400014E240009931400013
S2144003B0F95940006D8540009C3E00202D5340007A
S2144003C04D5940008C3E0020FD2F4000797940007A
S2144003D024E240001187400048E24000614D400062
S2144003E06CE2400080B483B000AF78607B68072B37
S2144003F025D801A252F823F0190440001F044000FB
S214400400250440002B0440002F04400033044000E5
S214400410370440003B0440004FF4FA4310E04FF4EA
S21440042000430DE04FF400430AE0084B08E0084B59
S21440043006E0084B04E0074B02E0064B00E00023D2
S21440044018460C37BD465DF8047B704700093D00F2
S21440045000127A00001BB70080B500AF0620034BA1
S21440046098470346DB00184680BD00BFE5034000C2
S21440047080B500AF024B984703465B08184680BDE0
S2144004805904400080B582B000AF78607868024B6F
S21440049098470837BD4680BDF93B400080B58CB0D4
S2144004A000AF78603960314B984703467B623B68C3
S2144004B01B68BB623B689B68FB623B681B68FB60D3
S2144004C03B685B683B613B689B687B613B68DB687D
S2144004D0BB610023FB617A68254B9A4208D108200D
S2144004E0244B984707F1240378681946224B9847CF
S2144004F07A68224B9A4208D109201E4B984707F14A
S2144005002403786819461C4B98477A681C4B9A42D5
S21440051012D10E20174B9847144B9847034607F1C5
S2144005200C02786811461A46164B98477868164B60
S21440053098477868154B98477A68154B9A4212D177
S2144005400F200C4B9847094B9847034607F10C027F
S214400550786811461A460B4B984778680A4B984776
S21440056078680A4B98473037BD4680BD71044000D6
S21440057000060E40850440002141400000080E4021
S21440058000400240AD4340003144400061444000DA
S2144005900080024080B582B000AF78600B46FB70AA
S2144005A07A68204B9A420AD100BFFB787868194691
S2144005B01D4B98470346002BF7D101232DE07A6860
S2144005C01A4B9A420AD100BFFB7878681946164BF8
S2144005D098470346002BF7D101231EE07A68144B58
S2144005E09A420AD100BFFB7878681946114B984763
S2144005F00346002BF7D101230FE07A680E4B9A4250
S2144006000AD100BFFB78786819460A4B98470346DC
S214400610002BF7D1012300E0002318460837BD46DB
S21440062080BD00BF00060E406942400000080E40F4
S21440063000400240C94440000080024080B584B07B
S21440064000AF786039600023FB607A681E4B9A42A0
S21440065007D100BF786839681C4B98470346002B83
S214400660F8D17A681A4B9A4207D100BF7868396841
S214400670164B98470346002BF8D17A68154B9A429A
S2144006800DD100BF07F10C0378681946124B984706
S2144006900346002BF6D1FB68DAB23B681A707A68DC
S2144006A00E4B9A420DD100BF07F10C0378681946ED
S2144006B0094B98470346002BF6D1FB68DAB23B68F5
S2144006C01A701037BD4680BD00060E409942400065
S2144006D000080E4000400240FD44400000800240BA
S2144006E080B582B000AF786039600F4B7A681A6088
S2144006F00E4B0F4A1A600F4B0F4A1A6078683968DB
S2144007000E4B98470E4B1B689B68184600210D4BB6
S21440071098470B4B1B685B6818460021094B984767
S2144007200837BD4680BD00BF143F0020103F002064
S214400730950540000C3F00203D0640009D044000CB
S21440074060050020018640000FB490B5A5B002AF0A
S2144007500023C7F8843007F19C033B603B1D1846D6
S214400760D7F898103A680C4B98470346C7F8843039
S2144007700A4B1A683B1D0021009110461946D7F8CF
S21440078084204FF0FF33064CA0478C37BD46BDE86B
S214400790904004B0704700BF7DAA4000FC3E002059
S2144007A0F51D400090B58DB000AF1B4B07F12004FF
S2144007B00FCB84E80F00194B3B61194B1B687B61DC
S2144007C00A23BB6101233B7703237B77154B98476E
S2144007D003467B604FF4E133BB604FF40063FB603D
S2144007E007F1200310481946104B98473A1D07F169
S2144007F010030D4811461A460D4B984702460D4BBE
S2144008001A600C4B1B68002B03D10B4B984700BF5C
S214400810FDE73437BD4690BD7CE24000BC3E00203C
S214400820240100207104400000060E40E10640000E
S214400830211B4000FC3E0020514B40002DE9B04FAC
S214400840C0B00AAFF86107F1200296231046002197
S2144008501A46684B9847002387F8D730122387F804
S214400860D630654B1B68184600214FF0FF320023F8
S214400870624CA04707F1C403184600210C225D4B8A
S2144008809847002387F8D7301FE097F8D7205C4B6F
S21440089053F8222097F8D73007F1C4019B000B4449
S2144008A0104619464FF0FF320123544CA047C7F874
S2144008B0D000D7F8D030012B02D00020514B9847BB
S2144008C097F8D730013387F8D73097F8D730022BD0
S2144008D0DBD907F1B803184600210C22454B984750
S2144008E0002387F8D7301FE097F8D720464B53F8B9
S2144008F0222097F8D73007F1B8019B000B441046EA
S21440090019464FF0FF3201233C4CA047C7F8D000B1
S214400910D7F8D030012B02D000203A4B984797F8B2
S214400920D730013387F8D73097F8D730022BDBD94A
S214400930D7F8C420354B1046984704460D46D7F89E
S214400940C820324B10469847C7E90401D7F8CC2058
S2144009502E4B10469847C7E90201D7F8B8202B4BD4
S2144009601046984782468B46D7F8BC20274B104601
S214400970984780468946D7F8C020244B104698476B
S214400980C7E9000107F12001D7E90423CDE9002398
S214400990D7E90223CDE90223CDE904ABCDE90689A8
S2144009A0D7E90023CDE908230846194922462B46B5
S2144009B0184CA047184B1C6807F120031846174BE5
S2144009C09847034607F12002002100912046114631
S2144009D01A464FF0FF33124CA047034687F8D630EE
S2144009E097F9D630002B03D019200E4B984738E79E
S2144009F037E700BF6D854000983E00202D534000ED
S214400A009C3E00204D5940008C3E002079794000A5
S214400A108CE2400011874000FC3E00205D8740008D
S214400A20F51D40008135400080B582B000AF78604B
S214400A307B68072B30D801A252F823F0990A400071
S214400A405D0A4000650A40006D0A4000750A400095
S214400A507D0A4000850A40008F0A40000020104B67
S214400A60984719E001200E4B984715E000200D4BA3
S214400A70984711E010200B4B98470DE02020094B7B
S214400A80984709E000203E21074B984704E00120A4
S214400A903E21054B984700BF0837BD4680BD00BF86
S214400AA0553A4000C13A4000313B400080B582B0E4
S214400AB000AF78607B68072B26D801A252F823F057
S214400AC0E10A4000E50A4000E50A4000F70A400017
S214400AD0F70A4000F70A4000F70A4000F70A4000CD
S214400AE0012312E00B4B98470346002B0CBF002314
S214400AF00123DBB209E0084B98470346002B0CBFA6
S214400B0000230123DBB200E0002318460837BD4629
S214400B1080BD00BF8D3A4000A93B400080B483B002
S214400B2000AF78607B68072B25D801A252F823F0E7
S214400B30510B4000570B40005D0B4000630B4000DC
S214400B40670B40006B0B40006F0B4000730B400080
S214400B504FF4FA4310E04FF400430DE04FF40043E7
S214400B600AE0084B08E0084B06E0084B04E0074B59
S214400B7002E0064B00E0002318460C37BD465DF801
S214400B80047B704700093D0000127A00001BB70046
S214400B9080B582B000AF0346FB7100BFFB791846B4
S214400BA0054B9847034683F00103DBB2002BF5D193
S214400BB00837BD4680BD00BFAD0A400080B586B050
S214400BC000AFF8607A603B600B46FB72FB7A1846D3
S214400BD00D4B984702467B68B2FBF3F37B617B691B
S214400BE03A6802FB03F37B613B68013B1A04074B00
S214400BF013407A68D2B2134343F47C52FB681A60BF
S214400C001837BD4680BD00BF1D0B40000000FF07E3
S214400C1080B582B000AF786039603B68002B07D162
S214400C20054B9847054B7A68126842F000529A6224
S214400C300837BD4680BD00BFC53B400000040E409F
S214400C4080B582B000AF78607B68002B03D1044B40
S214400C509847034600E0002318460837BD4680BD47
S214400C60DD3B400080B582B000AF0346FB71FB79A8
S214400C70033B042B08D8FB791846054B9847FB796D
S214400C801846044B984700E000BF0837BD4680BD75
S214400C90290A4000910B400080B582B000AF7860D2
S214400CA000BF7868044B98470346002BF9D00023D2
S214400CB018460837BD4680BD410C400080B500AFA1
S214400CC00620034B98470346DB00184680BD00BF0E
S214400CD01D0B400080B500AF024B984703465B08AB
S214400CE0184680BDBD0C400090B583B000AF11489B
S214400CF0114B98470620114B98473B1D1846062136
S214400D00012208230E4CA0473B1D184600210D4BE0
S214400D10984700200C4B984710200C4B98470C4B9C
S214400D2098470C4B984703461846034B98470C3752
S214400D30BD4690BD006CDC02C5000020650C40003E
S214400D40BD0B4000110C4000990C4000D1394000CA
S214400D5001464000D50C400080B483B000AF034647
S214400D60FB71084B97F907205209F97901F01F01EA
S214400D70012000FA01F143F822100C37BD465DF819
S214400D80047B704700E100E080B483B000AF0346C8
S214400D90FB71094B97F907205209F97901F01F01B9
S214400DA0012000FA01F1603243F822100C37BD46AC
S214400DB05DF8047B704700BF00E100E080B483B07C
S214400DC000AF03463960FB7197F90730002B0BDA0A
S214400DD00D49FB7903F00F03043B3A68D2B2120187
S214400DE0D2B20B441A7609E0084997F907303A68B8
S214400DF0D2B21201D2B20B4483F800230C37BD4660
S214400E005DF8047B704700BF00ED00E000E100E0C5
S214400E1080B487B000AFF860B9607A6000237B6129
S214400E200BE07B691B01FA6813441A687B689A4298
S214400E3000D106E07B6901337B617A69BB689A42E0
S214400E40EFD37B6918461C37BD465DF8047B704778
S214400E5080B487B000AF0346B9607A60FB73002366
S214400E60FB7500233B610CE03B69BA6813441B7872
S214400E70FA7B9A4202D10123FB7506E03B690133B7
S214400E803B613A697B689A42EEDBFB7D18461C372D
S214400E90BD465DF8047B704790B585B000AF03460D
S214400EA0B9607A60FB73FB7B03F00103002B0DD027
S214400EB00120364B98470246BB685A60BB685B6861
S214400EC0002B03D1324B984700BFFDE7FB7B03F076
S214400ED00403002B24D00120002103222D4B9847E9
S214400EE00246BB681A60BB681B68002B07D0BB680D
S214400EF01B681846002100220023274CA047BB68E9
S214400F001B68002B03D1224B984700BFFDE7BB6808
S214400F101B681846002100220023204CA04702E010
S214400F20BB6800221A60FB7B03F00803002B27D027
S214400F307B68002B24D0012000210322154B9847C4
S214400F4002467B681A607B681B68002B07D07B686C
S214400F501B6818460021002200230F4CA0477B68E0
S214400F601B68002B03D10A4B984700BFFDE77B6800
S214400F701B681846002100220023084CA04702E0C8
S214400F807B6800221A601437BD4690BD1950400059
S214400F90514B4000814F4000015140002D534000CE
S214400FA080B582B000AF03463960FB713B680F2BBB
S214400FB003D90F4B984700BFFDE73B68092B03D882
S214400FC00B4B984700BFFDE797F907301846094B8B
S214400FD0984797F9073018463968074B984797F966
S214400FE007301846054B98470837BD4680BD00BFBA
S214400FF0514B4000890D4000BD0D4000590D40004A
S21440100090B587B000AF786039600023FB757B6889
S2144010105B68002B20D007F10C031846114B98470D
S2144010207B685A683B681B68104600211A460023B6
S2144010300D4CA0470346002B02D1FD23FB750BE069
S21440104007F10C0318463968084B98470346012BAE
S21440105002D13B6800221A60FB7D5BB218461C3703
S214401060BD4690BD096040002D53400041604000A1
S21440107090B587B000AFF860B9607A603B60BB6AF5
S214401080002B02D0FB68BA6A1A60FB681B68002B0C
S21440109007D0FB681B681846002100220023174C27
S2144010A0A047BB683B617B687B6197F82C30002B80
S2144010B011D038684FF40071114B984707F1100370
S2144010C03868194600220F4B984738684FF48071AD
S2144010D00D4B98470EE038680221094B984707F1B8
S2144010E01003386819460022084B98473868012193
S2144010F0054B98471C37BD4690BD00BF2D5340005A
S214401100A1324000F9314000813240003D3240007B
S21440111090B587B000AFF860B9607A600023FB7581
S214401120BB68002B10D1FB681B68002B0CD0FB68FB
S2144011301B68184600217A680023064CA0470346E1
S214401140012B01D0FD23FB75FB7D5BB218461C3797
S214401150BD4690BD2D53400080B586B000AF786048
S214401160396003233B734D4801217A684C4B9847BE
S21440117038613B681A7B07F10C031046194601227A
S214401180484B98470346FB733B69002B7EDCFB7B52
S214401190002B7BD03B69DA00434B13441846434947
S2144011A00822434B98470346002B03D0414B9847B1
S2144011B000BFFDE73B69DA003F4B134418463B4906
S2144011C008223B4B98470346002B03D0394B9847A1
S2144011D000BFFDE7314A3B691B01134408331B68D7
S2144011E01846364B98472D4A3B691B0113445B68AB
S2144011F0184640F20221324B9847284A3B691B0169
S21440120013441B6818464FF0FF312E4B9847234A2D
S2144012103B691B0113441B6818462B4B98473B6899
S2144012201B7B032B00D008E01C4A3B691B01134480
S2144012301B681846254B984700BF3B68597B3B695F
S214401240DA00194B1A443B69D8001B4B0344084646
S21440125011461A461E4B9847104A3B691B011344D9
S2144012601B6818464FF450711A4B98470B4A3B6917
S2144012701B01134408331A793B689B6852B21046E8
S2144012801946154B98477B687B6101E000237B61DC
S2144012907B6918461837BD4680BD00BFE0E2400077
S2144012A0110E4000510E4000F4090020D8E24000E4
S2144012B019844000514B4000FC090020F93B400097
S2144012C0A13240009940400005414000E93F4000BF
S2144012D0990E40007D404000A10F400090B58DB073
S2144012E002AFF860B9607A603B6000233B62FB68FF
S2144012F0BB6181480121BA69804B984778617B6918
S214401300002B00F3EF80BB68DB68002B00F0EA8020
S2144013107B69DA007A4B1A443B1D10461946794BD6
S2144013209847034687F8273097F92730002B40F038
S214401330D880BB6900225A60BB681B7C1B0403F440
S214401340FE02BB685B681B0203F440731A43BB692A
S2144013505A60BB685B68002B1AD0BB681B783B6240
S214401360BB685B68012B07D93B6A1B023B62BB68C4
S2144013705B783A6A13433B62BB685B68022B07D9CB
S2144013803B6A1B023B62BB689B783A6A13433B62EC
S214401390BB693A6ADA60BB68DB68012B6DD1002313
S2144013A0FB61554A7B691B0113441B6818464FF482
S2144013B05071554B9847BB689B681B781A46BB696B
S2144013C05A63BB691B6A3B613B6903F48073002B1D
S2144013D016D0494A7B691B0113441B6818464FF4D4
S2144013E050714A4B9847464A7B69DB0013445B681A
S2144013F01846002100220023454CA047F62376E0FD
S2144014003B6903F00403002B00D00BE0FB6901337B
S214401410FB61FB69B3F1FF3F03D1FD2387F827301B
S21440142000E0CEE7BB6902221A600AE0FB6901339E
S214401430FB61FB69B3F1FF3F03D1FD2387F82730FB
S21440144005E0BB691B6A03F00103002BEED02A4A75
S2144014507B691B0113441B6818464FF450712B4B95
S2144014609847274A7B69DB0013445B68184600218F
S21440147000220023264CA04733E0BB689968254BE2
S2144014807A6943F83210BB68DA6822497B69DB0028
S2144014900B445A607B69DA00194BD018BB689968D0
S2144014A0BB68DB685A1E144C7B691B0123445B688F
S2144014B03C68009401240194174CA047B8694FF447
S2144014C00051124B98477B69DA000D4B1A447B68F3
S2144014D0104639681A46114B9847034687F8273016
S2144014E003E002E0F82387F8273097F827305BB20E
S2144014F018462C37BD4690BDE0E24000110E400035
S214401500F409002001104000994040007D40400012
S21440151001514000040A00207110400011114000A3
S21440152090B591B002AFF860B9607A603B60002336
S2144015303B63FB68FB619B480121FA699A4B9847DD
S214401540B861BB69002B00F32381BB68DB68002BC6
S21440155000F01E81BB69DA00944B1A443B1D1046CE
S2144015601946934B9847034687F8373097F93730F4
S214401570002B40F00C81F8698E4B9847FB6900229F
S2144015805A60BB681B7C1B0403F4FE02BB685B68A6
S2144015901B0203F44073134343F48052FB695A60C2
S2144015A0BB685B68002B1AD0BB681B783B63BB6884
S2144015B05B68012B07D93B6B1B023B63BB685B78C0
S2144015C03A6B13433B63BB685B68022B07D93B6BA4
S2144015D01B023B63BB689B783A6B13433B63FB69D8
S2144015E03A6BDA60BB68DB68022B00F299806D4A82
S2144015F0BB691B0113441B6818464FF450716E4B71
S2144016009847002387F82F30BB68DB68BB62BB680F
S2144016109B687B6200233B62BB6A012B06D1FB6959
S21440162003221A60012387F82F304CE0FB69012221
S2144016301A6048E0FB691B6A7B617B6903F4807330
S214401640002B16D0574ABB691B0113441B6818462B
S2144016504FF45071594B9847544ABB69DB001344CA
S2144016605B681846002100220023554CA047F6230D
S21440167093E0BB6A012B09D197F82F30002B05D198
S214401680FB6902221A60012387F82F307B6903F03A
S2144016900203002B0BD13B6A01333B623B6AB3F13A
S2144016A0FF3F03D1FD2387F837300FE00BE07B6A1E
S2144016B05A1C7A62FA69126BD2B21A70BB6A013B44
S2144016C0BB6200233B62BB6A002BB3D100233B6264
S2144016D00AE03B6A01333B623B6AB3F1FF3F03D10A
S2144016E0FD2387F8373005E0FB691B6A03F00103EA
S2144016F0002BEED02B4ABB691B0113441B681846CF
S2144017004FF450712D4B9847284ABB69DB00134471
S2144017105B681846002100220023294CA04736E08B
S214401720BB689968274BBA6943F83210BB68DA68D9
S2144017302449BB69DB000B445A60BB69DA00224B84
S214401740D018BB689968BB68DB689A1E154CBB69A5
S2144017501B0123445B683C680094002401941B4CA6
S214401760A047FB6901221A60F8694FF48051134B79
S2144017709847BB69DA00144B1A447B6810463968B0
S2144017801A46134B9847034687F8373003E002E083
S214401790F82387F8373097F837305BB218463C372F
S2144017A0BD4690BDE0E24000110E4000F409002026
S2144017B001104000E9404000994040007D40400014
S2144017C001514000040A0020FC090020711040002E
S2144017D01111400090B58BB000AF78600023BB601D
S2144017E0002387F82730814A7B681B0113441B6817
S2144017F0BB61B8697E4B98477861B8697D4B98471E
S21440180003467A6913407B617B6903F40053002BDF
S21440181076D0764A7B681B0113445B6818464FF4C3
S2144018200071754B9847B8694FF40051734B984711
S21440183000233B62BB691B6AFB74FB7C03F004031A
S214401840002B00D00BE03B6A01333B623B6AB3F1AE
S214401850FF3F03D1012387F8273000E0EAE7BB6962
S21440186002221A60664B7A6853F8322064497B68D5
S214401870DB000B445B68013B13441B781A46BB698C
S2144018805A63BB691B6AFB74FB7C03F00103002BA5
S21440189000D00BE03B6A01333B623B6AB3F1FF3F4B
S2144018A003D1012387F8273000E0EAE7554A7B68F2
S2144018B0DB0013445B68002B0CD0524A7B68DB008D
S2144018C013445A6807F10803104600211A460023BD
S2144018D04D4CA0473B6AB3F1FF3F11D0494B7A6865
S2144018E053F83230002B0BD0464B7A6853F83220F0
S2144018F007F10803104600211A460023424CA04731
S2144019007B6903F48053002B00F0AA800023FB6120
S214401910364A7B681B0113445B6818460221364BE7
S2144019209847B8694FF48051344B9847BB691B6A57
S214401930FB60FB6803F00203002B00D008E0FB6965
S2144019400133FB61FB69B3F1FF3F00D100E0EDE7F7
S214401950BB6902221A602A4B7A6853F8322028491B
S2144019607B68DB000B445B68023B1344BA69126B2E
S214401970D2B21A70BB691B6AFB60FB6803F00203B5
S214401980002B00D008E0FB690133FB61FB69B3F133
S214401990FF3F00D100E0EDE7FB69B3F1FF3F35D0F4
S2144019A0174B7A6853F8322015497B68DB000B44A6
S2144019B05B68013B1344BA69126BD2B21A700023BB
S2144019C0FB61BB691B6AFB60FB6803F00103002BED
S2144019D000D01BE0FB690133FB61FB69B3F1FF3FBD
S2144019E003D1012387F8273010E0EAE7E0E2400021
S2144019F0B9404000D1404000A132400099404000EC
S214401A00040A0020F409002071524000354A7B68E1
S214401A10DB0013445B68002B0CD0324A7B68DB004B
S214401A2013445A6807F10803104600211A4600235B
S214401A302D4CA047FB69B3F1FF3F11D02B4B7A6882
S214401A4053F83230002B0BD0284B7A6853F83220AC
S214401A5007F10803104600211A460023224CA047EF
S214401A607B6903F45073002B03D197F82730002B83
S214401A702FD01F4A7B681B0113445B68184640F210
S214401A8002211C4B98477B6903F48073002B02D1DC
S214401A90BB6902221A60B8694FF40051164B98474A
S214401AA0B8694FF48051144B98470E4A7B68DB0068
S214401AB013445B68002B0CD00A4A7B68DB00134457
S214401AC05A6807F10803104600211A460023064CC0
S214401AD0A047BB68002B01D0084B98472C37BD4623
S214401AE090BD00BFF409002071524000FC09002060
S214401AF0E0E24000A132400099404000F54A4000F4
S214401B0080B500AF0020014B984780BDD5174000F8
S214401B1080B500AF0120014B984780BDD5174000E7
S214401B2080B588B000AFF860B9607A6001233B7535
S214401B309B480121FA689B4B9847B8617B681A7BA3
S214401B4007F11403104619460122974B984703465F
S214401B50FB75BB69002B00F31B81FB7D002B00F05F
S214401B6017819249BA691346DB009B1A9B000B44C7
S214401B7018331B68002B03D08D4B984700BFFDE7FA
S214401B80F8688C4B9847F8688B4B9847844ABB69F3
S214401B901B0113445B68184640F20221874B984766
S214401BA07F4ABB691B01134408331B681846844BA5
S214401BB098477B681B7B012B00D004E0F868B96827
S214401BC0804B984700BFF8684FF0FF317E4B9847F0
S214401BD07B685A7BBB69D9007C4B0B441046194640
S214401BE000227B4B98477B681B68002B00F0A78041
S214401BF04FF0FF300021774B984701466B48BA6953
S214401C001346DB009B1A9B00034410331960674958
S214401C10BA691346DB009B1A9B000B4410331B68C3
S214401C20002B03D1624B984700BFFDE77B681B68DB
S214401C3019465E48BA691346DB009B1A9B0003446C
S214401C40083319607B6859685848BA691346DB0000
S214401C509B1A9B00034408335960514ABB691B01D9
S214401C6013445968BA691346DB009B1A9B0003F17C
S214401C7008024E4B1344084619460022564B9847D6
S214401C807B6819684948BA691346DB009B1A9B0073
S214401C900344183319604549BA691346DB009B1A5A
S214401CA09B000B44083319684048BA691346DB006A
S214401CB09B1A9B00034419603C49BA691346DB00F3
S214401CC09B1A9B000B441A687B685B68D1183748A0
S214401CD0BA691346DB009B1A9B00034459607B6835
S214401CE05B7B03F00203002B1BD001203B4B984745
S214401CF001462E48BA691346DB009B1A9B000344F4
S214401D00103359602949BA691346DB009B1A9B0079
S214401D100B4410335B68002B03D1254B984700BF1C
S214401D20FDE7F86809212E4B98471D4ABB691B0101
S214401D3013445B68184601212A4B984709E01B4923
S214401D40BA691346DB009B1A9B000B4418330122EA
S214401D501A60134ABB691B01134408331A797B681F
S214401D609B6852B2104619461F4B98470C4ABB69AF
S214401D701B0113441B681846E021194B9847F86826
S214401D801A4B9847F8681A4B9847FB68FB6101E086
S214401D900023FB61FB6918462037BD4680BD00BF67
S214401DA0F0E24000110E4000510E40000C0A0020A8
S214401DB0514B40009D414000CD414000A132400083
S214401DC0F93B40002141400001424000280A0020E3
S214401DD0990E4000BD5040003D3240001950400032
S214401DE0E541400081324000A10F4000854140005F
S214401DF0B541400090B58BB002AFF860B9607A60EC
S214401E003B60FB68BB6121480121BA69204B98477B
S214401E1078617B69002B31DC7B69DA001D4B1A4404
S214401E203B46104619461C4B98470346FB7797F9A6
S214401E301F30002B24D17B69DA00164B1A44134915
S214401E407B691B010B445B68396B00910121019152
S214401E501046B9687A68114CA047B8691021104BF3
S214401E6098477B69DA000B4B1A443B681046396B3F
S214401E701A460C4B98470346FB7701E0F823FB775E
S214401E80FB7F5BB218462437BD4690BDF0E240006B
S214401E90110E4000280A002001104000711040003A
S214401EA0E54140001111400080B584B000AF786035
S214401EB00B46FB707A681346DB009B1A9B00364A3B
S214401EC01344FB60FB689B691A46FB689B689A4212
S214401ED00ED1FB78002B03D1FB680022DA601EE0AF
S214401EE0FB685A68FB689B68D21AFB68DA6016E0A3
S214401EF0FB689B691A46FB689B689A4208D9FB6850
S214401F009B691A46FB689B68D21AFB68DA6006E053
S214401F10FB685A68FB689B68D21AFB68DA60FB6805
S214401F209A68FB68DB681A44FB685B689A4203D988
S214401F301A4B984700BFFDE7FB68DB68002B1ED0B6
S214401F40174A7B681B0113445A68FB6808331046DF
S214401F5019460022134B9847114A7B681B011344CD
S214401F605B6818460121104B98470D4A7B681B0159
S214401F7013441B68184609210C4B984708E0084A4A
S214401F807B681B0113441B6818460921084B984779
S214401F901037BD4680BD00BF0C0A0020514B4000A4
S214401FA0F0E240003D32400081324000E5414000D2
S214401FB00142400090B587B000AF78600023FB60D8
S214401FC0614A7B681B0113441B6818465F4B984761
S214401FD078615D4A7B681B0113441B6818465C4B5E
S214401FE0984703467A6913407B617A681346DB005C
S214401FF09B1A9B00574A13443B617B6903F01003CE
S214402000002B2ED0504A7B681B0113441B68184691
S2144020101021514B9847514A7B68DB0013445B685C
S214402020002B0CD04D4A7B68DB0013445A6807F1FE
S2144020300C03104600211A460023494CA047474B44
S2144020407A6853F83230002B0BD0444B7A6853F8FA
S214402050322007F10C03104600211A460023404C5C
S214402060A0477B6903F00803002B33D03B699B698C
S214402070002B03D13B4B984700BFFDE73B699B696C
S214402080012B03D1374B984700BFFDE73B699A6861
S2144020903B69DB681A443B699A603B699A683B69CE
S2144020A05B689A4203D33B691A683B699A607B68CF
S2144020B0184600212C4B98473B691B69002B09D0DA
S2144020C03B691A6907F10C03104600211A460023A3
S2144020D0234CA0477B69002B0DD13B691B69002B25
S2144020E009D03B691A6907F10C03104600211A46CD
S2144020F000231B4CA0477B6903F0E003002B1BD05A
S214402100114A7B681B0113441B681846174B9847B7
S214402110124A7B68DB0013445B68002B0CD00F4AE6
S2144021207B68DB0013445A6807F10C031046002115
S2144021301A4600230A4CA047FB68002B01D00C4BE4
S21440214098471C37BD4690BDF0E2400035424000FF
S2144021501D4240000C0A002001424000280A002090
S21440216071524000514B4000A91E40004D42400075
S214402170F54A400080B500AF0020014B984780BD2F
S214402180B51F400080B500AF0120014B984780BD89
S214402190B51F400080B483B000AF78607B68072BE3
S2144021A025D801A252F823F0C9214000CF21400093
S2144021B0D5214000DB214000DF214000E3214000E4
S2144021C0E7214000EB2140004FF4FA4310E04FF483
S2144021D000430DE04FF400430AE0084B08E0084B8C
S2144021E006E0084B04E0074B02E0064B00E0002305
S2144021F018460C37BD465DF8047B704700093D0025
S21440220000127A00001BB70080B500AF0620034BD3
S21440221098470346DB00184680BD00BF9521400026
S21440222080B500AF024B984703465B08184680BD12
S2144022300922400080B483B000AF78607B6880227B
S2144022401A600C37BD465DF8047B704780B483B097
S21440225000AF78607B685B6843F001027B685A6039
S2144022600C37BD465DF8047B704700BF80B483B032
S21440227000AF78607B685B6823F002027B685A6038
S2144022800C37BD465DF8047B704700BF80B483B012
S21440229000AF78607B685B6823F004027B685A6016
S2144022A00C37BD465DF8047B704700BF80B483B0F2
S2144022B000AF78607B685B6803F00403002B01D0B6
S2144022C0012300E0002318460C37BD465DF8047B2A
S2144022D0704700BF80B483B000AF78607B685B68AF
S2144022E043F010027B685A600C37BD465DF8047BAD
S2144022F0704700BF80B483B000AF78607B685B688F
S21440230023F080027B685A600C37BD465DF8047B3C
S214402310704700BF80B582B000AF786078680F4BDA
S214402320984778680E4B984778680E4B9847786879
S2144023300D4B984778680D4B9847786800210C4BB2
S214402340984778680B4B984778680B4B984778685F
S21440235000210A4B98470837BD4680BD893C40005F
S214402360352240004D224000D5224000F522400054
S214402370A13C40006D2240008D224000D53C4000EC
S21440238090B587B000AFF860B9603B601346FB710C
S214402390214B9847034638681946204B98470346D2
S2144023A0FB82BB681B68F8681946002200231C4C59
S2144023B0A047BB681B68F86819460822194B98471F
S2144023C0BB681A68FB8ADBB2F86811461A46164B99
S2144023D09847BB681B68F86819460822134B98470D
S2144023E0BB681A68FB795B08DBB2F86811461A4688
S2144023F00F4B9847BB681A68FB7903F00103002B24
S21440240014BF00230123DBB2F86811461A46094B75
S21440241098471C37BD4690BD21224000053F4000EE
S214402420953F4000BD3E4000453F4000193E4000BD
S214402430793D4000C93D400080B582B000AF78602D
S21440244039607868104B98470346002B0AD03B68A3
S2144024501B680F2B14D83B681B68786819460B4BD3
S21440246098470DE03B681B68032B09D83B681B6800
S214402470012202FA03F3DB4378681946034B984778
S2144024800837BD4680BD00BFAD224000A13C40009D
S21440249080B586B000AFF860B9607A6000237B6193
S2144024A0FB68002B02D04FF0FF3314E00FE00C4BDC
S2144024B01B680C4A12681046B9689847BB680133D7
S2144024C0BB607B6901337B617B68013B7B607B68DB
S2144024D0002BECDC7B6918461837BD4680BD00BF34
S2144024E00C3F0020143F002080B586B000AFF86057
S2144024F0B9607A6000237B61FB68012B08D0FB68DB
S214402500022B05D0FB68032B02D04FF0FF331BE0B5
S21440251016E00F4B1A680F4B1968BB68581CB8601A
S2144025201B780846194690470346002B02DA4FF0C0
S214402530FF3309E07B6901337B617B68013B7B604D
S2144025407B68002BE5D17B6918461837BD4680BDB1
S214402550103F0020143F002080B582B000AF786066
S2144025607868024B98470837BD4680BDF93B400027
S21440257080B500AF0B20044B98470C20024B984781
S2144025800D20014B984780BD5925400080B500AFCF
S2144025903A4B4FF400425A60394B984717204FF059
S2144025A06051384B98472E204FF06051354B984736
S2144025B019204FF06051334B98470F203249314B2A
S2144025C09847102031492F4B984731484FF4C06107
S2144025D04FF000622F4B984700204FF08051294B18
S2144025E0984708204FF08051264B984703204FF0DD
S2144025F00061244B984704204FF00061214B9847D8
S2144026000C204FF000611F4B98470D204FF00061A3
S2144026101C4B98470E204FF000611A4B98471F20DE
S2144026204FF00061174B98471E204FF08051154BD6
S21440263098470C204FF00061124B98470D204FF002
S2144026400061104B98470E204FF000610D4B9847A5
S2144026501E204FF080510B4B98471C204FF0605186
S214402660084B98471D204FF06051064B98474D2029
S2144026704FF06051034B984780BD00BF50140E404A
S21440268071254000D93540007900002859000028BF
S214402690000E0E408D37400080B584B000AF7860A5
S2144026A00023FB6017E00F4BFA6853F832207B6834
S2144026B09A420DD10B4AFB68DB0013445B68012B42
S2144026C003D17868084B984702E07868074B9847EC
S2144026D0FB680133FB60FB68032BE4D91037BD462B
S2144026E080BD00BF00E3400029354000553540001E
S2144026F080B48BB000AF78600B46FB707B687B6223
S214402700FB7887F823307B6AFB61FB69BB61BB695A
S2144027105B097B617B6903F5001303F207735B0279
S2144027203B6197F82330002B09D07B6AFB60FB683F
S21440273003F01F0301229A403B691A6308E07B6A54
S214402740BB60BB6803F01F0301229A403B695A6393
S2144027502C37BD465DF8047B704700BF80B584B01B
S21440276000AF78607B68C3F111037B607B68102BF9
S21440277028BF10237B607B68002B01D07B6800E07D
S21440278001237B600023FB601AE04D200021144BA0
S21440279098471823BB6000BFBB685A1EBA60002B20
S2144027A0FAD14D2001210E4B98471823BB6000BF3D
S2144027B0BB685A1EBA60002BFAD1FB680133FB6037
S2144027C0FA687B689A42E0D34FF40033BB6000BFA0
S2144027D0BB685A1EBA60002BFAD11037BD4680BD82
S2144027E0F126400080B582B000AF4D200021074B57
S2144027F098474FF400337B6000BF7B685A1E7A6070
S214402800002BFAD10837BD4680BD00BFF1264000F8
S21440281080B483B000AF0346FB71084B97F907209E
S2144028205209F97901F01F01012000FA01F143F83D
S21440283022100C37BD465DF8047B704700E100E08F
S21440284080B483B000AF0346FB71094B97F907206D
S2144028505209F97901F01F01012000FA01F12032F6
S21440286043F822100C37BD465DF8047B704700BF26
S21440287000E100E080B483B000AF0346FB71094B33
S21440288097F907205209F97901F01F01012000FA53
S21440289001F1603243F822100C37BD465DF8047BE8
S2144028A0704700BF00E100E080B483B000AF03464D
S2144028B03960FB7197F90730002B0BDA0D49FB792D
S2144028C003F00F03043B3A68D2B21201D2B20B4473
S2144028D01A7609E0084997F907303A68D2B21201E9
S2144028E0D2B20B4483F800230C37BD465DF8047B18
S2144028F0704700BF00ED00E000E100E080B483B028
S21440290000AF78607B6880221A600C37BD465DF861
S214402910047B704780B483B000AF78607B68012248
S2144029201A600C37BD465DF8047B704780B483B0B0
S21440293000AF78607B6802221A600C37BD465DF8AF
S214402940047B704780B483B000AF78607B684FF0FC
S21440295080721A600C37BD465DF8047B704700BF36
S21440296080B483B000AF786039607B683A685A615B
S2144029700C37BD465DF8047B704700BF80B483B01B
S21440298000AF786039607B683A689A610C37BD461C
S2144029905DF8047B704700BF80B483B000AF7860BA
S2144029A07B68DB6918460C37BD465DF8047B70478C
S2144029B090B583B000AF0346FB710F48022100225A
S2144029C00E4B98470C480E4B98471C200D4B98478B
S2144029D0FB799BB208481946022200230A4CA047BE
S2144029E005480A4B9847044802218022034B9847E3
S2144029F00C37BD4690BD00BF00800040BD3E400045
S214402A001529400055354000053D40002D29400021
S214402A1080B500AF2220014B984780BDB1294000C9
S214402A2090B583B000AF0346FB800948094B9847F2
S214402A301C20094B9847FB8805481946022200236C
S214402A40064CA0470248064B98470C37BD4690BDFB
S214402A50008000401529400029354000053D4000D3
S214402A602D29400090B585B000AF786039603B684E
S214402A70002B00D11DE01048104B98471C20104BEF
S214402A8098470023FB600DE0FB685B007A681344C0
S214402A901B8809481946022200230A4CA047FB68B7
S214402AA00133FB60FA683B689A42EDD30248064B16
S214402AB098471437BD4690BD008000401529400019
S214402AC029354000053D40002D29400080B582B0A4
S214402AD000AF02460B46FA71BB80FB791846044BA2
S214402AE09847BB881846034B98470837BD4680BD75
S214402AF0B1294000212A400080B485B000AF7860FC
S214402B000023FB600CE00023FB6002E0FB6801331F
S214402B10FB60FA68074B9A42F8D9FB680133FB60C2
S214402B20FA687B689A42EED31437BD465DF8047B5C
S214402B30704700BF9F86010080B487B000AFF86042
S214402B40B9607A603B60FB681B68AF2B02D9FB68B4
S214402B50AF221A607B681B68AF2B02D97B68AF2216
S214402B601A60BB681B68DB2B02D9BB68DB221A6085
S214402B703B681B68DB2B02D93B68DB221A60FB688C
S214402B801A687B681B689A4209D9FB681B687B6198
S214402B907B681A68FB681A607B687A691A60BB684B
S214402BA01A683B681B689A4209D9BB681B687B61F8
S214402BB03B681A68BB681A603B687A691A601C37BB
S214402BC0BD465DF8047B704790B587B002AF78602D
S214402BD00223FB601D20774B98470220764B984790
S214402BE01D20764B98471420734B98471D20714BF9
S214402BF098473220704B98477148724B98477048B8
S214402C00714B98476E48714B98471520704B9847C4
S214402C101520704B9847152000216F4B984715207C
S214402C206E4B984766486E4B984707F10C03002258
S214402C3000926348194600226A4B6B4CA04707F146
S214402C400C035F481946694B98475D48684B984760
S214402C505B480121674B9847674B984701204FF4E4
S214402C608E71664B984702204FF48071634B9847AD
S214402C70032041F23001614B9847082040F6080196
S214402C805E4B98470C2001215C4B98470F2040F63E
S214402C9001215A4B98472020B021584B9847212075
S214402CA0DC21564B984710204FF42061534B9847F1
S214402CB0112041F23801514B984732203E4B9847FD
S214402CC0122041F221114D4B984713204E214B4B79
S214402CD09847142046F26F71484B984730200021A1
S214402CE0464B98473120DB21444B98473220002101
S214402CF0424B984733200021404B98473420DB21F5
S214402D003E4B9847352000213C4B98473620B02113
S214402D103A4B984737200021384B98473820DC21DB
S214402D20364B984739200021344B98475020002195
S214402D30324B9847512040F20A61304B9847522018
S214402D4040F60A512D4B9847532040F203312B4B07
S214402D509847542040F60D21284B9847552040F67A
S214402D600621264B984756200021244B984757204B
S214402D7040F20331214B9847582000211F4B98477B
S214402D80592000211D4B98477B681A687B685B6812
S214402D90002000211A4CA0477B689B681846194BB8
S214402DA0984700200021184B9847002318461437B0
S214402DB0BD4690BD29354000F92A400055354000B3
S214402DC0008000402D294000FD2840004529400055
S214402DD04128400075284000A9284000112840009E
S214402DE01523400020BCBE0081234000392440000B
S214402DF01529400061294000552E4000CD2A40004C
S214402E00052F4000692E4000752F400080B582B0E7
S214402E1000AF0748074B9847786005487968064BE7
S214402E209847064B01221A700837BD4680BD00BF42
S214402E3000800040992940007D294000900B0020EA
S214402E4080B500AF072041F21701014B984780BD7F
S214402E50CD2A400080B500AF07200021014B98479F
S214402E6080BD00BFCD2A400080B485B000AF7860FA
S214402E707B6803F478031B0A9AB27B6803F47C43AE
S214402E805B099BB213439AB27B6803F0F803DB08F6
S214402E909BB213437B810023FB6007E0074BFA6835
S214402EA0798923F81210FB680133FB60FB68AF2B6F
S214402EB0F4D91437BD465DF8047B7047300A0020CD
S214402EC080B584B000AF0346FB80002000210A4B4B
S214402ED098470A4B984749F24073FB6006E0FB88E8
S214402EE01846074B9847FB68013BFB60FB68002B86
S214402EF0F5D11037BD4680BD752F4000112A4000E1
S214402F00212A400080B584B000AFF860B9607A608E
S214402F103B60FB689AB27B689BB213449BB2013B12
S214402F209BB2DBB29BB236201946114B9847FB68E2
S214402F309BB2DBB29BB2372019460D4B9847BB6815
S214402F409AB23B689BB213449BB2013B9BB2DBB246
S214402F509BB238201946064B9847BB689BB2DBB2FB
S214402F609BB239201946024B98471037BD4680BD64
S214402F70CD2A400080B582B000AF02460B46FA80AC
S214402F80BB80FB88DBB29BB220201946054B984796
S214402F90BB88DBB29BB221201946024B98470837C4
S214402FA0BD4680BDCD2A400080B582B000AF786077
S214402FB039607B68AF2B02D83B68DB2B01D90123F5
S214402FC00FE07B689AB23B689BB210461946074BA7
S214402FD09847074B9847074B1B881846064B984719
S214402FE0002318460837BD4680BD00BF752F4000F9
S214402FF0112A4000300A0020212A400090B587B0B0
S21440300000AFF860B9607A603B6007F10C0007F1EA
S21440301008013A1D3B46244CA047F868B9687A68D0
S214403020FB68D31A5A1C3C68BB68E31A01331F4C32
S214403030A047FB689AB2BB689BB2104619461C4B29
S21440304098471C4B98477A68FB68D31A013339680F
S214403050BA688A1A013202FB03F33B613A69164B9F
S214403060A3FB0213DB097B6103E01448B021144B39
S21440307098477B695A1E7A61002BF6D13A690E4B07
S214403080A3FB0213DB09B02101FB03F3D31A0B4861
S21440309019460B4B984700200021B022DC23034CF6
S2144030A0A0471C37BD4690BD392B4000052F400039
S2144030B0752F4000112A4000A38B2EBA300A0020FC
S2144030C0652A400080B58AB000AFF860B960134604
S2144030D0FB71FA7913469B0013449B00A3F52073BB
S2144030E0FB6100233B624DE03B6A5A00FB69134498
S2144030F0BB61BB6901337B6100237B621AE0244AD3
S214403100BB6913441B781A467B6AC3F1070342FA2D
S21440311003F303F00103002B09D0FA683B6A1A4414
S214403120B9687B6A0B44104619461A4B98477B6A27
S21440313001337B627B6A072BE1D900237B621BE06D
S214403140134A7B6913441B781A467B6AC3F107030C
S21440315042FA03F303F00103002B0AD0FA683B6AF5
S2144031601A44B9687B6A0B44083310461946094B23
S21440317098477B6A01337B627B6A052BE0D93B6AC2
S21440318001333B623B6A092BAED92837BD4680BD2A
S21440319020E34000A92F400080B586B000AFF8601D
S2144031A0B9607A60FB687B611CE07B681B780A2B01
S2144031B008D10E231A46BB6813440233BB607B69B2
S2144031C0FB600CE07B681B78F868B9681A46094BC8
S2144031D098470A231A46FB6813440233FB607B6811
S2144031E001337B607B681B78002BDED11837BD46E9
S2144031F080BD00BFC530400080B485B000AFF860E9
S214403200B9607A60BB68002B07D0BB681A68FB6859
S2144032109A60BB685A68FB68DA607B68002B07D008
S2144032207B681A68FB689A617B685A68FB68DA6153
S2144032301437BD465DF8047B704700BF80B485B048
S21440324000AFF860B9607A60BB68002B07D0BB68F7
S2144032501A68FB681A60BB685A68FB685A607B68E5
S214403260002B07D07B681A68FB681A617B685A682F
S214403270FB685A611437BD465DF8047B704700BF53
S21440328080B483B000AF786039603A6840F201138A
S21440329013407A6813620C37BD465DF8047B70476E
S2144032A080B483B000AF786039603A6840F2022359
S2144032B013407A6813620C37BD465DF8047B70474E
S2144032C080B485B000AFF860B9607A607B68002B48
S2144032D003D0FB68BA685A6602E0FB68BA681A66AA
S2144032E01437BD465DF8047B704700BF80B487B096
S2144032F000AFF860B9607A60FB687A685A64BB6869
S214403300B3F1C05F4AD0B3F1C05F08D8B3F1006FE5
S21440331016D0B3F1805F2CD0002B69D064E0B3F1B7
S214403320205F65D0B3F1205F03D8B3F1005F4AD089
S2144033305AE0B3F1405F5BD0B3F1605F58D053E0E2
S214403340FB681B6F7B61FB681A6F7B68D9437B69A0
S2144033500B401A40FB681A67FB685B6F7B61FB6833
S2144033605A6F7B68D9437B690B401A40FB685A67A3
S2144033703AE0FB681B6F7B617A687B691A43FB689F
S2144033801A67FB685B6F7B61FB685A6F7B68D94343
S2144033907B690B401A40FB685A6725E0FB681B6F49
S2144033A07B61FB681A6F7B68D9437B690B401A4088
S2144033B0FB681A67FB685B6F7B617A687B691A43B8
S2144033C0FB685A6710E0FB681B6F7B617A687B6915
S2144033D01A43FB681A67FB685B6F7B617A687B6998
S2144033E01A43FB685A6700BFFB687A685A6000E079
S2144033F000BF1C37BD465DF8047B704780B584B07F
S21440340000AFF860B9607A60F868B968184B9847BA
S2144034107B6803F00103F868B9681A46154B98476D
S2144034207B6803F00A03002B03D0FB68BA681A6275
S21440343002E0FB68BA685A627B6803F00203002B1E
S21440344004D0FB68BA68C3F8802008E07B6803F0C5
S2144034500803002B03D0FB68BA68C3F88420FB68D7
S214403460BA685A61FB68BA681A601037BD4680BDB4
S214403470DD344000C132400080B584B000AFF86013
S214403480B9607A603B60F868B968124B9847F8684C
S214403490B968BA69104B98473B68002B03D0FB6865
S2144034A0BA681A6502E0FB68BA685A657B68002B02
S2144034B003D0FB68BA681A6302E0FB68BA685A63CE
S2144034C0FB68BA681A61FB68BA681A601037BD466E
S2144034D080BD00BFDD344000C132400080B483B0C0
S2144034E000AF786039607B683A685A640C37BD46EE
S2144034F05DF8047B704700BF80B483B000AF78604F
S2144035007B68DB6C18460C37BD465DF8047B70471D
S21440351080B483B000AF78607B689B6C18460C37ED
S214403520BD465DF8047B704780B584B000AF7860D8
S2144035307868074B9847F8607B6803F01F030122C2
S21440354002FA03F31A46FB681A631037BD4680BD7D
S214403550B538400080B584B000AF78607868074BD7
S2144035609847F8607B6803F01F03012202FA03F3D2
S2144035701A46FB685A631037BD4680BDB5384000D2
S21440358080B584B000AF78607868124B9847F86092
S214403590FB689A6B7B6803F01F03012101FA03F373
S2144035A01340002B09D07B6803F01F03012202FA68
S2144035B003F31A46FB685A6308E07B6803F01F0370
S2144035C0012202FA03F31A46FB681A631037BD4617
S2144035D080BD00BFB538400090B587B002AF786078
S2144035E039607868644B9847F8603B6803F0F0436E
S2144035F0B3F1005F6BD0B3F1005F09D8B3F1805FE1
S2144036002DD0B3F1C05F46D0B3F1006F0BD0ACE025
S214403610B3F1405F00F08380B3F1605F7FD0B3F1D9
S214403620205F70D0A1E07B6803F01F03012202FAFE
S21440363003F3F8684FF000611A46504B98477B6892
S21440364003F01F03012202FA03F31A463B6803F015
S2144036500103F86811461A46494B984787E07B684D
S21440366003F01F03012202FA03F3F8684FF080517B
S2144036701A46424B98477B6803F01F03012202FA22
S21440368003F31A463B6803F00103F86811461A46EE
S2144036903B4B98476BE07B6803F01F03012202FA1E
S2144036A003F3F8684FF0C0511A46344B98477B688E
S2144036B003F01F03012202FA03F31A463B6803F0A5
S2144036C00103F86811461A462D4B98474FE07B6831
S2144036D003F01F03012202FA03F3F8684FF000518B
S2144036E01A46264B98477B6803F01F03012202FACE
S2144036F003F31A463B6803F00103F86811461A467E
S2144037001F4B984733E07B6803F01F03012202FA01
S21440371003F3F86819463A681A4B984727E07B68DF
S21440372003F01F03012202FA03F319463B6803F035
S2144037306053B3F1605F14BF00230123DBB21A4627
S2144037403B6803F00403002B0CBF00230123DBB2CD
S214403750386800F0010000280CBF00200120C0B2ED
S2144037600090F868084CA04701E0002300E00123E1
S21440377018461437BD4690BDB5384000ED3240007F
S214403780C1324000FD3340007934400090B587B0E8
S21440379002AFF860B9607A607B6803F0F043B3F13B
S2144037A0005F43D0B3F1005F09D8B3F1805F1FD00C
S2144037B0B3F1C05F2BD0B3F1006F0AD06BE0B3F12A
S2144037C0405F48D0B3F1605F45D0B3F1205F3CD056
S2144037D061E0F8684FF00061BA68324B98477B6802
S2144037E003F00103F868B9681A462F4B984754E02F
S2144037F0F8684FF08051BA682A4B98477B6803F0C8
S2144038000103F868B9681A46274B984745E0F868B8
S2144038104FF0C051BA68234B98477B6803F00103CA
S214403820F868B9681A46204B984736E0F8684FF073
S2144038300051BA681B4B98477B6803F00103F86851
S214403840B9681A46184B984727E0F868B9687A6806
S214403850164B984721E07B6803F06053B3F1605FF6
S21440386014BF00230123DBB21A467B6803F004032F
S214403870002B0CBF00230123DBB2796801F0010165
S21440388000290CBF00210121C9B20091F868B9682F
S214403890074CA04701E0002300E0012318461437F8
S2144038A0BD4690BDED324000C1324000FD33400081
S2144038B07934400080B485B000AF78607B685B099F
S2144038C003F5001303F207735B02FB60FB681846C0
S2144038D01437BD465DF8047B704700BF80B584B0A2
S2144038E000AF786039607868244B9847F86078680D
S2144038F0234B98470346FA681340FB60FB68002B4F
S21440390039D00023BB6033E01E4ABB681B0113441A
S2144039101A683B689A4224D11A4ABB681B01134472
S2144039205A68FB681340002B1BD0164ABB681B0125
S214403930134408335B681349BA6812010A44116895
S2144039401048BA6812010244526808461146984721
S2144039500C4ABB681B0113445B68DB43FA681340A0
S214403960FB60BB680133BB60BB68062B00D902E036
S214403970FB68002BC8D11037BD4680BDF9344000E7
S21440398011354000940B002080B500AF02480B2153
S214403990024B984780BD00BF000E0E40DD38400009
S2144039A080B500AF02480C21024B984780BD00BF4F
S2144039B000100E40DD38400080B500AF02480D21B3
S2144039C0024B984780BD00BF00120E40DD384000D5
S2144039D080B485B000AF78601D4B1D4A126B22F054
S2144039E070017A680A431A634FF40063FB6007E08D
S2144039F0FB68002B01D1012323E0FB68013BFB6001
S214403A00134B9B6E03F00803002BF1D0104B104A6B
S214403A10126B22F0030242F002021A634FF4006374
S214403A20FB6007E0FB68002B01D1012309E0FB683F
S214403A30013BFB60064B9B6E03F00803002BF1D066
S214403A40002318461437BD465DF8047B704700BF18
S214403A5000040E4080B483B000AF78607B68012BD2
S214403A6007D1084A074B9B6843F0254343F480132D
S214403A709360044B044A1A600C37BD465DF8047BDD
S214403A80704700BF10140E40080000A580B400AF79
S214403A90094B5B6903F08003002B07D0074B9B6EF6
S214403AA003F08003002B01D0012300E000231846DA
S214403AB0BD465DF8047B704710140E4000040E406F
S214403AC080B483B000AF7860184A184B1B6A43F442
S214403AD05C1343F00803136200BF144B9B6E03F461
S214403AE00033002BF9D0114A104B1B6A23F45C13A9
S214403AF023F0700379680B4343F45C13136200BFF2
S214403B000A4B9B6E03F40033002BF9D0074A074B51
S214403B101B6A23F09B7323F4803343F45C131362D5
S214403B200C37BD465DF8047B704700BF00040E406E
S214403B3080B483B000AF786039607B68002B08D0D3
S214403B401649164B1B6A164A1A40164B13430B620D
S214403B501EE0124A114B1B6A23F45C1323F0030346
S214403B603968090289B20B4343F45C1343F00103FE
S214403B70136200BF094B9B6E03F00103002BF9D084
S214403B80064A064B1B6A43F09B7343F4803313622A
S214403B900C37BD465DF8047B704700BF00040E40FE
S214403BA0FCFFC8FE0200370180B400AF044B9B6E9A
S214403BB003F480331846BD465DF8047B704700BF6B
S214403BC000040E4080B400AF034B4FF000529A62A0
S214403BD0BD465DF8047B704700040E4080B400AFDD
S214403BE0044B9B6E03F002031846BD465DF8047B0B
S214403BF0704700BF00040E4080B483B000AF7860CA
S214403C007B681F2B01D9012316E07B681F2B12D837
S214403C100C4B9A697B68012101FA03F31A407B68D2
S214403C20012101FA03F39A4205D0064B7A68012136
S214403C3001FA02F21A61002318460C37BD465DF8B9
S214403C40047B704700040E4080B483B000AF7860B9
S214403C507B685B6803F00203002B01D0012300E081
S214403C60002318460C37BD465DF8047B704700BFFE
S214403C7080B582B000AF78607868024B98470837C6
S214403C80BD4680BDF93B400080B582B000AF78604D
S214403C901520024B98470837BD4680BD713C400012
S214403CA080B483B000AF786039607B685B6823F48B
S214403CB070227B685A607B685A683B681B0403F432
S214403CC070231A437B685A600C37BD465DF8047B08
S214403CD0704700BF80B483B000AF786039607B68BF
S214403CE05B6823F07F427B685A607B685A683B6813
S214403CF01B061A437B685A600C37BD465DF8047B4A
S214403D00704700BF80B584B000AF786079807A7025
S214403D103B7043F69823FB6006E0FB685A1EFA6049
S214403D20002B01D1012320E07B681B6903F00203CE
S214403D30002BF2D078680F4B98470346002B0ED0E6
S214403D407A887B781B0403F470231343BB603B786C
S214403D50002B06D0BB6843F08073BB6001E07B88D5
S214403D60BB607B68BA68DA6000235BB218461037DF
S214403D70BD4680BD493C400080B485B000AFF86089
S214403D80B9607A607B68002B0CD0FB68BA680C324E
S214403D9053F8223043F00101FB68BA680C3243F80E
S214403DA022100BE0FB68BA680C3253F8223023F03E
S214403DB00101FB68BA680C3243F822101437BD463E
S214403DC05DF8047B704700BF80B485B000AFF860F4
S214403DD0B9607A607B68002B0CD0FB68BA680C32FE
S214403DE053F8223043F00201FB68BA680C3243F8BD
S214403DF022100BE0FB68BA680C3253F8223023F0EE
S214403E000201FB68BA680C3243F822101437BD46EC
S214403E105DF8047B704700BF80B485B000AFF860A3
S214403E20B9607A607B68042B18D1FB68BA680C329C
S214403E3053F8223023F00801FB68BA680C3243F886
S214403E402210FB68BA680C3253F8223043F0040163
S214403E50FB68BA680C3243F822102AE07B68002BD5
S214403E6018D1FB68BA680C3253F8223023F00801A8
S214403E70FB68BA680C3243F82210FB68BA680C320A
S214403E8053F8223023F00401FB68BA680C3243F83A
S214403E9022100EE07B68082B0BD1FB68BA680C3208
S214403EA053F8223043F00801FB68BA680C3243F8F6
S214403EB022101437BD465DF8047B704780B485B049
S214403EC000AFF860B9607A60FB68BA680C3253F8A5
S214403ED0223023F0F001FB68BA680C3243F8221017
S214403EE0FB68BA680C3253F822207B6842EA03012A
S214403EF0FB68BA680C3243F822101437BD465DF8AA
S214403F00047B704780B485B000AF786039603A680B
S214403F107B6813445A1E7B68B2FBF3F3FB60FB6876
S214403F20002B02DDFB68FF2B02DD4FF6FF7301E03E
S214403F30FB689BB21BB218461437BD465DF8047B3F
S214403F40704700BF80B485B000AFF860B9601346D4
S214403F50FB71FB68BA680C3253F8223023F47F4179
S214403F60FB68BA680C3243F82210FB68BA680C3219
S214403F7053F82220FB791B029BB242EA0301FB68FE
S214403F80BA680C3243F822101437BD465DF8047BFD
S214403F90704700BF80B485B000AFF860B960FA7172
S214403FA0BB71FB68BA680C3253F8223099B2FB6892
S214403FB0BA680C3243F82210FB68BA680C3253F8E1
S214403FC02220FB791B0403F47F01BB791B060B43BD
S214403FD042EA0301FB68BA680C3243F822101437F1
S214403FE0BD465DF8047B704780B483B000AF786010
S214403FF07B6808221A607B6820221A607B6804224D
S2144040001A600C37BD465DF8047B704780B487B0B5
S21440401000AFF860B9607A6000237B61BA68164BDF
S2144040209A4201D9012321E0BB685B007A68B2FB63
S214404030F3F3043B3B6105E07B6901337B613B69FD
S2144040405B083B613B69FF2B02D97B69062BF3D9A2
S2144040503B69DAB23B691B029BB21A437B691B047D
S21440406003F4E0231A43FB681A61002318461C3702
S214404070BD465DF8047B7047801A060080B483B066
S21440408000AF786039607B683A685A620C37BD4644
S2144040905DF8047B704700BF80B483B000AF7860A3
S2144040A039607B683A689A627B681B6A0C37BD4603
S2144040B05DF8047B704700BF80B483B000AF786083
S2144040C07B681B6A18460C37BD465DF8047B704714
S2144040D080B483B000AF78607B68DB6A18460C37E4
S2144040E0BD465DF8047B704780B483B000AF78600F
S2144040F07B681B6BDBB218460C37BD465DF8047B0D
S214404100704700BF80B483B000AF78607B68802281
S2144041101A607B681B6B0C37BD465DF8047B7047A6
S21440412080B485B000AF786039600023FB607B6860
S214404130AC221A603B681A683B685B68B2FBF3F3D4
S2144041401B09FB60FB68002B03D0FB68B3F5803F80
S21440415001D301230FE07B68FA681A623B689A68CD
S2144041607B685A607B6840F20222C3F820217B6855
S21440417050221A60002318461437BD465DF8047B6B
S214404180704700BF80B483B000AF78607B68402241
S2144041901A600C37BD465DF8047B704780B483B028
S2144041A000AF78607B6880221A600C37BD465DF8A9
S2144041B0047B704780B483B000AF78607B68102281
S2144041C01A600C37BD465DF8047B704780B483B0F8
S2144041D000AF78607B6820221A600C37BD465DF8D9
S2144041E0047B704780B483B000AF786039607B68EA
S2144041F03A689A600C37BD465DF8047B704700BF4E
S21440420080B483B000AF786039607B683A68DA6023
S2144042100C37BD465DF8047B704700BF80B483B062
S21440422000AF78607B681B6918460C37BD465DF862
S214404230047B704780B483B000AF78607B685B696E
S21440424018460C37BD465DF8047B704780B483B093
S21440425000AF78607B684FF480721A600C37BD46BA
S2144042605DF8047B704700BF80B483B000AF7860D1
S2144042700B46FB707B685B6903F00203002B01D1A1
S214404280012303E0FA787B68DA61002318460C378E
S214404290BD465DF8047B704780B483B000AF78605D
S2144042A039607B685B6903F00103002B01D1012371
S2144042B005E07B689B69DAB23B681A7000231846B3
S2144042C00C37BD465DF8047B704700BF80B489B0AC
S2144042D000AFF860B9607A60BB681A017B689A42A2
S2144042E002D81023FB6101E00823FB617B68DA00FB
S2144042F0FB69B96801FB03F35B081A44FB69B968BC
S21440430001FB03F3B2FBF3F3BB61BB69DB087B61E4
S214404310BB6903F007033B617B69002B03D07B69D5
S214404320B3F5803F01D301230FE0FB69082B05D18D
S214404330FB685B6843F40022FB685A603B691A04DA
S2144043407B691A43FB681A62002318462437BD4629
S2144043505DF8047B704700BF80B582B000AF7860E0
S21440436078680D4B98477B6800225A607B6800222D
S2144043705A627B6800229A627868084B9847786849
S214404380074B98477868074B98477868064B984796
S2144043900837BD4680BD00BF314540004944400017
S2144043A07944400091444000AD44400080B584B01C
S2144043B000AFF860B9607A60F8681A4B98471A4BB5
S2144043C000221A60BB68002B09D0BB681B68F868DF
S2144043D019467A68154B98470346002B01D00123AF
S2144043E01BE0BB685A68BB689B681A43BB681B697E
S2144043F01A43BB68DB681A430B4B1B681A430A4BCD
S2144044001A60094B1A68084B1A60FB685A68064BD4
S2144044101B681A43FB685A60002318461037BD468F
S21440442080BD00BF59434000040C0020CD424000F0
S21440443080B483B000AF78607B6840221A600C3747
S214404440BD465DF8047B704780B483B000AF7860AB
S2144044507B6888221A600C37BD465DF8047B70473F
S21440446080B483B000AF78607B6810221A600C3747
S214404470BD465DF8047B704780B483B000AF78607B
S2144044807B6824221A600C37BD465DF8047B704773
S21440449080B483B000AF78607B684FF480721A6057
S2144044A00C37BD465DF8047B704700BF80B483B0D0
S2144044B000AF78607B684FF400221A600C37BD4628
S2144044C05DF8047B704700BF80B483B000AF78606F
S2144044D039607B685B6903F00203002B01D101233E
S2144044E005E03B68C3F308027B68DA6100231846A0
S2144044F00C37BD465DF8047B704700BF80B483B080
S21440450000AF786039607B685B6903F00103002B7D
S21440451001D1012306E07B689B69C3F308023B6830
S2144045201A60002318460C37BD465DF8047B70477A
S21440453080B483B000AF78607B68044AC3F8E42058
S2144045400C37BD465DF8047B704700BF00415355AD
S21440455080B400AFFEE700BF80B582B000AF1E4B10
S2144045607B601E4B3B607A683B689A420CD007E003
S2144045703B681A1D3A607A68111D796012681A60A5
S2144045803A68174B9A42F3D3164B3B6004E03B68BD
S2144045901A1D3A6000221A603A68134B9A42F6D3C4
S2144045A0124B7B60124A7B6823F0604323F07F0304
S2144045B093607B68B3F1005F09D37A680D4B9A42EB
S2144045C005D80B4B0A4A926842F000529A600A4B52
S2144045D098470A4B9847FEE728EE40000000002028
S2144045E0D4090020D8090020603F00200000400089
S2144045F000ED00E0FF5F0020A183400065754000AD
S21440460080B400AF4E4B1B6B03F00303012B14D05A
S214404610012B02D3022B38D074E04A4B5B6903F07F
S2144046208003002B04D0484B4FF400421A6069E0E8
S214404630454B4FF4FA421A6064E0414B1B6A03F064
S2144046408073002B03D0404B404A1A601CE03E4B20
S2144046503F4A1A603A4B1B6A03F07003102B04D093
S214404660202B08D0002B0ED00EE0374B1B685A008C
S214404670354B1A6008E0344B1A6813465B001A4400
S214404680314B1A6000E000BF3CE02D4B1B6A03F044
S2144046908073002B03D02C4B2C4A1A601CE02A4B0C
S2144046A02B4A1A60264B1B6A03F07003102B04D06B
S2144046B0202B08D0002B0ED00EE0234B1B685A0050
S2144046C0214B1A6008E0204B1A6813465B001A44D8
S2144046D01D4B1A6000E000BF194B9A6A1D4B1340F1
S2144046E01B0C0133184A126802FB03F2164B1A6081
S2144046F0154B1A68124B9B6ADBB2B2FBF3F2124BB5
S2144047001A6000BF0E4B1B6B03F07003702B08D172
S2144047100D4B1A68104BA3FB02135A080A4B1A603B
S21440472009E0094B1A68064B1B6B03F070031B0924
S214404730DA40054B1A60BD465DF8047B704700BF03
S21440474000040E4010140E4028010020001BB70045
S21440475000093D000000FF07ABAAAAAA80B485B0B6
S21440476000AF7860104BFB60104B1B68002B02D1EB
S2144047700E4B0F4A1A600D4B1B68BB60BA687B68CD
S2144047801A44FB689A4202DD4FF0FF3306E0074BBF
S2144047901A687B681A44054B1A60BB68184614377B
S2144047A0BD465DF8047B7047FC5F0020080C002087
S2144047B06047002080B483B000AF78604FF0FF338E
S2144047C018460C37BD465DF8047B704780B483B00E
S2144047D000AF786039603B684FF400525A6000235F
S2144047E018460C37BD465DF8047B704780B483B0EE
S2144047F000AF7860012318460C37BD465DF8047B51
S214404800704700BF80B485B000AFF860B9607A608A
S214404810002318461437BD465DF8047B704700BF3A
S21440482080B483B000AF78607B6803F108027B6891
S2144048305A607B684FF0FF329A607B6803F108024B
S2144048407B68DA607B6803F108027B681A617B68E4
S21440485000221A600C37BD465DF8047B704700BFE7
S21440486080B483B000AF78607B6800221A610C3752
S214404870BD465DF8047B704780B485B000AF786075
S21440488039607B685B68FB60FB685A683B685A60C7
S2144048907B685A683B689A60FB685B683A689A60CF
S2144048A0FB683A685A607B683A685A603B687A6840
S2144048B01A617B681B685A1C7B681A601437BD46B1
S2144048C05DF8047B704700BF80B485B000AF786069
S2144048D039603B681B68BB60BB68B3F1FF3F03D1E0
S2144048E07B681B69FB600CE07B680833FB6002E07A
S2144048F0FB685B68FB60FB685B681A68BB689A424B
S214404900F6D9FB685A683B685A603B685B683A6809
S2144049109A603B68FA689A60FB683A685A603B68F7
S2144049207A681A617B681B685A1C7B681A60143761
S214404930BD465DF8047B704780B485B000AF7860B4
S2144049407B685B687A6892689A607B689B687A68DE
S21440495052685A607B681B69FB60FB685A687B68D4
S2144049609A4203D17B689A68FB685A607B6800224B
S2144049701A61FB681B685A1EFB681A60FB681B6856
S21440498018461437BD465DF8047B704780B483B044
S21440499000AF78607B68072B25D801A252F823F039
S2144049A0C1494000C7494000CD494000D349400076
S2144049B0D7494000DB494000DF494000E34940001A
S2144049C04FF4FA4310E04FF400430DE04FF4004339
S2144049D00AE0084B08E0084B06E0084B04E0074BAB
S2144049E002E0064B00E0002318460C37BD465DF853
S2144049F0047B704700093D0000127A00001BB70098
S214404A0080B500AF0620034B98470346DB001846A8
S214404A1080BD00BF8D49400080B500AF024B98472F
S214404A2003465B08184680BD014A400080B485B006
S214404A3000AFF860B9607A60FB68043BFB60FB68D7
S214404A404FF080721A60FB68043BFB60BA68FB68F4
S214404A501A60FB68043BFB60FB6800221A60FB6838
S214404A60143BFB607A68FB681A60FB68203BFB607F
S214404A70FB6818461437BD465DF8047B704700BF98
S214404A80064B19680868B0E8F00F80F309884FF0C5
S214404A90000080F311884EF00D0E70470C3D00204C
S214404AA003480068006880F3088862B600DF00BFED
S214404AB008ED00E080B500AF0A4B0A4A126842F49F
S214404AC070021A60074B074A126842F070421A603A
S214404AD0054B9847054B00221A60054B9847002324
S214404AE0184680BD20ED00E0D54B40002C0100204C
S214404AF0A14A400080B400AF034B4FF080521A608A
S214404B00BD465DF8047B704704ED00E080B500AF1D
S214404B10034B9847034B1B685A1C024B1A6080BDD8
S214404B20514B40002C01002080B500AF064B1B685F
S214404B305A1E054B1A60044B1B68002B02D10020FE
S214404B40024B984780BD00BF2C010020654B4000BB
S214404B50EFF311804FF0A00181F3118870470023D6
S214404B60184600BF80F31188704700BFEFF30980F6
S214404B700C4B1A6820E9F00F10602DE908404FF002
S214404B80A00080F3118801F00BF94FF0000080F38D
S214404B901188BDE8084019680868B0E8F00F80F34F
S214404BA0098870470C3D002080B500AF054B4FF09C
S214404BB080521A60044B9847044B98470020044B99
S214404BC0984780BD04ED00E0514B4000455C4000F6
S214404BD0654B400098B500AF064C074B98470246D9
S214404BE0064BA3FB02139B09013B2360044B0722A1
S214404BF01A6098BD14E000E0194A4000D34D621098
S214404C0010E000E080B586B000AF78600023FB601F
S214404C10364B9847364B1B68002B01D1354B98478F
S214404C207B68002B0DD010237A6813447B607B682A
S214404C3003F00703002B04D07B6823F007030833F8
S214404C407B607B68002B45D043F2F0037A689A423B
S214404C5040D2294B3B61284B1B687B6104E07B6953
S214404C603B617B691B687B617B695A687B689A42BB
S214404C7003D27B691B68002BF1D11D4B1B687A69F8
S214404C809A4227D03B691A6810231344FB607B691D
S214404C901A683B691A607B695A687B68D21A102387
S214404CA05B009A420FD97A697B681344BB607B6984
S214404CB05A687B68D21ABB685A607B697A685A60C1
S214404CC0B8680E4B98470E4B1A687B695B68D21AD9
S214404CD00B4B1A600B4B9847FB68002B01D10A4BD5
S214404CE09847FB6818461837BD4680BDDD5A4000D9
S214404CF0083D0020794D4000003D0020094E400010
S214404D0030010020F95A40003575400080B584B027
S214404D1000AF78607B68FB607B68002B14D0102364
S214404D205B42FA681344FB60FB68BB60084B9847DD
S214404D30BB685A68074B1B681A44064B1A60B8682B
S214404D40054B9847054B98471037BD4680BD00BF7A
S214404D50DD5A400030010020094E4000F95A40001C
S214404D6080B400AF034B1B681846BD465DF8047B15
S214404D70704700BF3001002080B582B000AF1D4BA9
S214404D801D4A1A601B4B00225A6043F2F0021A4B2F
S214404D9013447B6010235B427A6813447B60174B56
S214404DA07A681A60154B1B6803F00703002B03D084
S214404DB0134B984700BFFDE7104B1B6800225A6014
S214404DC00E4B1B6800221A600B4B3B6043F2F0020E
S214404DD01023D21A3B685A60084B1A683B681A6020
S214404DE0084B1A681023D21A064B1A600837BD467D
S214404DF080BD00BF003D0020100C0020083D002074
S214404E00514B40003001002080B485B000AF786040
S214404E10274BFB6002E0FB681B68FB60FB681A6878
S214404E207B689A42F7D3FB68BB60FB685B68BA68EE
S214404E301A447B689A4208D1FB685A687B685B686C
S214404E401A44FB685A60FB687B607B68BB607B6883
S214404E505B68BA681A44FB681B689A4218D1FB68BC
S214404E601A68144B1B689A420DD07B685A68FB68D8
S214404E701B685B681A447B685A60FB681B681A6844
S214404E807B681A6008E00B4B1A687B681A6003E080
S214404E90FB681A687B681A60FA687B689A4202D098
S214404EA0FB687A681A601437BD465DF8047B704725
S214404EB0003D0020083D002080B582B000AF7860FD
S214404EC039607B68002B03D1274B984700BFFDE72E
S214404ED0264B98477B681A687B68DB6B7968096C59
S214404EE001FB03F31A447B685A607B6800229A638E
S214404EF07B681A687B689A607B681A687B68DB6B9D
S214404F00013B7968096C01FB03F31A447B68DA605D
S214404F107B684FF0FF325A647B684FF0FF329A64EA
S214404F203B68002B0ED17B681B69002B14D07B6836
S214404F30103318460E4B98470346012B0CD10D4BA9
S214404F40984709E07B68103318460B4B98477B68B8
S214404F5024331846084B9847084B98470123184671
S214404F600837BD4680BD00BF514B40000D4B40004A
S214404F704D5F4000F54A400021484000294B400024
S214404F8080B588B000AFF860B9601346FB71002367
S214404F90FB61FB68002B2AD050201B4B9847B8611A
S214404FA0BB69002B23D0FB68BA6802FB03F30133CE
S214404FB07B617869144B98470246BB691A60BB69A7
S214404FC01B68002B10D0BB69FA68DA63BB69BA6805
S214404FD01A64B86901210D4B9847BB69FA7983F882
S214404FE04D20BB69FB6102E0B869094B9847FB69F5
S214404FF0002B03D1074B984700BFFDE7FB691846D7
S2144050002037BD4680BD00BF054C4000B94E40002D
S2144050100D4D4000514B400090B585B000AF034663
S214405020FB715020214B9847F860FB68002B30D02E
S214405030FB6800225A60FB6800221A60FB68002268
S2144050409A60FB680022DA60FB6800229A63FB687D
S2144050500122DA63FB6800221A64FB684FF0FF32D5
S2144050605A64FB684FF0FF329A64FB68FA7983F81B
S2144050704D20FB68103318460D4B9847FB68243389
S21440508018460B4B9847F868002100220023094C2D
S214405090A047FB68002B03D1074B984700BFFDE7AE
S2144050A0FB6818461437BD4690BD00BF054C40000F
S2144050B02148400001514000514B400080B584B02B
S2144050C000AF786039607868002102220A4B984722
S2144050D0F860FB68002B02D0FB683A689A63FB686E
S2144050E0002B03D1054B984700BFFDE7FB681846E9
S2144050F01037BD4680BD00BF814F4000514B400039
S21440510080B588B000AFF860B9607A603B60002335
S214405110FB61FB68002B03D1484B984700BFFDE777
S214405120BB68002B03D1FB681B6C002B01D101230D
S21440513000E00023002B03D1404B984700BFFDE71B
S2144051403F4B9847FB689A6BFB68DB6B9A4216D2DC
S214405150F868B9683A683B4B9847FB685B6A002B2F
S21440516009D0FB6824331846374B98470346012B33
S21440517001D1364B9847364B9847012359E07B6818
S214405180002B03D1324B9847002352E0FB69002B9B
S21440519006D107F1140318462E4B98470123FB61AE
S2144051A02B4B98472C4B9847254B9847FB685B6C96
S2144051B0B3F1FF3F02D1FB6800225A64FB689B6C48
S2144051C0B3F1FF3F02D1FB6800229A64204B984718
S2144051D007F114023B1D10461946204B98470346DC
S2144051E0002B1ED1F8681E4B98470346002B12D062
S2144051F0FB6803F110027B6810461946194B984726
S214405200F868194B9847194B98470346002B0FD11F
S2144052100E4B98470CE0F868134B9847134B98474B
S2144052208EE7F868104B9847104B9847002300E0ED
S21440523086E718462037BD4680BD00BF514B40002C
S2144052400D4B4000055540004D5F4000F54A40007C
S214405250294B400009604000DD5A40004160400054
S214405260F15640006D5E400015564000F95A400029
S21440527080B586B000AFF860B9607A603B60FB6886
S214405280002B03D1254B984700BFFDE7BB68002B9A
S21440529003D1FB681B6C002B01D1012300E00023E7
S2144052A0002B03D11D4B984700BFFDE71B4B98478B
S2144052B03861FB689A6BFB68DB6B9A4224D2F868CD
S2144052C0B9683A68164B9847FB689B6CB3F1FF3F4A
S2144052D012D1FB685B6A002B13D0FB682433184658
S2144052E0104B98470346002B0BD07B68002B08D00A
S2144052F07B6801221A6004E0FB689B6C5A1CFB68C2
S2144053009A6401237B6101E000237B613869064B88
S21440531098477B6918461837BD4680BD514B4000BC
S214405320055540004D5F4000654B400080B588B055
S21440533000AFF860B9607A603B600023FB61FB68B1
S214405340002B03D1604B984700BFFDE7BB68002B9E
S21440535003D1FB681B6C002B01D1012300E0002326
S214405360002B03D1584B984700BFFDE7574B984753
S214405370FB689B6B002B3BD0FB68DB68BB61F86827
S214405380B968534B98473B68002B1CD1FB689B6B16
S2144053905A1EFB689A63FB681B68002B04D14D4B72
S2144053A098470246FB685A60FB681B69002B1BD077
S2144053B0FB6810331846484B98470346012B13D1D9
S2144053C0464B984710E0FB68BA69DA60FB685B6A50
S2144053D0002B09D0FB68243318463F4B98470346BA
S2144053E0002B01D03D4B98473D4B9847012366E044
S2144053F07B68002B03D13A4B984700235FE0FB695C
S214405400002B06D107F110031846364B9847012368
S214405410FB61334B9847344B98472C4B9847FB6877
S2144054205B6CB3F1FF3F02D1FB6800225A64FB6815
S2144054309B6CB3F1FF3F02D1FB6800229A64284B75
S214405440984707F110023B1D10461946274B9847D0
S2144054500346002B2BD1F868254B98470346002B74
S2144054601FD0FB681B68002B08D1184B9847FB6879
S2144054705B6818461F4B9847194B9847FB6803F1E3
S21440548024027B68104619461B4B9847F8681B4B0E
S21440549098471B4B98470346002B0FD10F4B984716
S2144054A00CE0F868154B9847154B98475EE7F86848
S2144054B0124B9847124B9847002300E056E7184691
S2144054C02037BD4680BD00BF514B40000D4B4000CD
S2144054D0C5554000C16340004D5F4000F54A40005E
S2144054E0294B400009604000DD5A400041604000C2
S2144054F0BD5640001D6440006D5E4000155640009D
S214405500F95A400080B584B000AFF860B9607A6060
S214405510FB681B6C002B0CD1FB681B68002B45D12D
S214405520FB685B681846254B9847FB6800225A6024
S2144055303CE07B68002B1AD1FB689A68FB681B6CC2
S2144055401046B9681A461E4B9847FB689A68FB682F
S2144055501B6C1A44FB689A60FB689A68FB685B6839
S2144055609A4223D3FB681A68FB689A601EE0FB6881
S214405570DA68FB681B6C1046B9681A46104B9847A9
S214405580FB68DA68FB681B6C5B421A44FB68DA60AF
S214405590FB68DA68FB681B689A4207D2FB685A6861
S2144055A0FB681B6C5B421A44FB68DA60FB689B6BCB
S2144055B05A1CFB689A631037BD4680BDCD644000D8
S2144055C08184400080B582B000AF786039607B68E7
S2144055D01B68002B19D07B68DA687B681B6C1A4402
S2144055E07B68DA607B68DA687B685B689A4203D3DC
S2144055F07B681A687B68DA607B68DA687B681B6C55
S214405600386811461A46024B98470837BD4680BD53
S2144056108184400080B582B000AF7860234B9847C5
S21440562014E07B685B6A002B0FD07B6824331846F7
S2144056301F4B98470346002B01D01E4B98477B686C
S2144056409B6C5A1E7B689A6400E003E07B689B6C08
S214405650002BE6DC7B684FF0FF329A64164B984787
S214405660124B984714E07B681B69002B0FD07B6871
S214405670103318460E4B98470346002B01D00D4B6F
S21440568098477B685B6C5A1E7B685A6400E003E070
S2144056907B685B6C002BE6DC7B684FF0FF325A641D
S2144056A0054B98470837BD4680BD00BF0D4B4000B0
S2144056B04D5F4000F5604000294B400080B584B007
S2144056C000AF7860084B98477B689B6B002B14BFF5
S2144056D000230123DBB2FB60044B9847FB68184667
S2144056E01037BD4680BD00BF0D4B4000294B4000E3
S2144056F080B584B000AF7860094B98477B689A6B5A
S2144057007B68DB6B9A4214BF00230123DBB2FB604D
S214405710044B9847FB6818461037BD4680BD00BF0F
S2144057200D4B4000294B400080B582B000AF7860FA
S2144057303960124B98477B685B6CB3F1FF3F02D1F0
S2144057407B6800225A647B689B6CB3F1FF3F02D1B2
S2144057507B6800229A640A4B98477B689B6B002BB9
S21440576005D17B68243318463968064B98477868D5
S214405770054B98470837BD4680BD00BF0D4B4000DF
S214405780294B4000ED5E40001556400090B58BB06A
S21440579002AFF860B9603B601346FB80FB68002BA5
S2144057A003D15A4B984700BFFDE73B6B052B03D907
S2144057B0564B984700BFFDE7FB881846B96B544BDD
S2144057C09847B861BB69002B00F08880BB691A6BAC
S2144057D0FB8803F18043013B9B0013447B617B695C
S2144057E023F007037B617B6903F00703002B03D09C
S2144057F0464B984700BFFDE7FB880093B869B968F9
S2144058003A6BFB6B434CA0477869F9683A68424B61
S21440581098470246BB691A60BB691B6803F00703DA
S214405820002B03D0394B984700BFFDE77B6B002B1E
S21440583002D07B6BBA691A60384B9847384B1B6866
S2144058405A1C374B1A60374B1B68002B09D1354B17
S214405850BA691A60324B1B68012B0FD1324B9847FE
S2144058600CE0324B1B68002B08D12E4B1B68DA6AC3
S2144058703B6B9A4202D82B4BBA691A60BB69DA6A0C
S2144058802B4B1B689A4203D9BB69DA6A284B1A60CD
S214405890284B1A68BB691A64264B1B685A1C254B52
S2144058A01A60BB69DA6A244B1B689A4203D9BB6903
S2144058B0DA6A214B1A60BB69DA6A13469B001344C6
S2144058C09B001E4A1A44BB690433104619461C4BBB
