:020000040040BA
:10000000604E0020E95D4000E15D4000E15D4000A0
:10001000E15D4000E15D4000E15D40000000000066
:10002000000000000000000000000000116340001C
:10003000E15D400000000000FD63400039644000C5
:10004000E15D4000E15D4000E15D4000E15D4000B8
:10005000E15D4000E15D4000E15D4000E15D4000A8
:100060003139400041394000E15D4000C15240005B
:10007000D9524000F1524000E15D4000E15D400096
:10008000E15D4000E15D4000E15D400099304000ED
:10009000A930400031184000E15D4000E15D4000C2
:1000A000E15D4000E15D4000E15D4000E15D400058
:1000B000E15D4000E15D4000E15D4000E15D400048
:1000C000E15D400010B5054C237833B9044B13B102
:1000D0000448AFF300800123237010BD180A0020EC
:1000E0000000000080454100084B10B51BB10849D5
:1000F0000848AFF300800848036803B910BD074BF8
:10010000002BFBD0BDE81040184700BF00000000E6
:100110001C0A00208045410080454100000000008D
:1001200080B584B000AF786039600023FB603B6825
:1001300000221A603B6800221A713B684FF00002EF
:100140009A603B217868294B98470346002B43D09F
:1001500027497868274B9847B86039E0FB685A1CF4
:10016000FA60012B0BD0012B02D3022B19D02AE00D
:10017000B868214B984702463B681A6023E0B8688C
:100180001E4B98470346002B07D0B8681C4B984776
:100190000346DAB23B681A7115E03B6800221A7117
:1001A00011E0B868154B98470346002B06D0B86895
:1001B000144B984702463B689A6003E03B684FF057
:1001C00000029A6000BF0A4900200A4B9847B860B5
:1001D000BB68002BC2D105E07868074B9847024600
:1001E0003B681A6000BF1037BD4680BD55B3400064
:1001F0008C34410019CC400009024000BD0240008F
:10020000F1AE4000E9AE400080B584B000AF786048
:100210000023FB601AE0FA681346DB0013449B00DE
:10022000134A134419467868124B98470346002B2B
:1002300009D10F49FA681346DB0013449B000B44B5
:1002400020331B680FE0FB680133FB600849FA6844
:100250001346DB0013449B000B4420331B68064A03
:100260009342D8D1044B18461037BD4680BD00BF1D
:100270004C32410025B440000903400090B587B0DE
:1002800000AF786007F10C0319467868094B98476E
:10029000FB68002B06D0FC6807F10C0393E807000D
:1002A000A04702E07868044B984700BF1C37BD4662
:1002B00090BD00BF210140002D03400080B483B0F9
:1002C00000AF786013E00F4B1A687B681B7801332E
:1002D00013441B7803F00403002B05D17B681B78C3
:1002E0002E2B01D0002307E07B6801337B607B6805
:1002F0001B78002BE7D1012318460C37BD4680BC84
:10030000704700BF7001002080B584B000AF3B1D76
:1003100083E807000348044B984700BF1037BD46E9
:1003200080BD00BF903441000917400080B582B005
:1003300000AF786079680348034B984700BF0837DF
:10034000BD4680BDA43441000917400090B585B07A
:1003500000AFC7E900010023FB73104C4FF000020F
:100360004FF00003D7E90001A0470346002B10D04F
:100370000B4C4FF000020B4BD7E90001A04703469E
:10038000002B06D0084AD7E90034C2E90034012323
:10039000FB73FB7B18461437BD4690BDBDA74000DC
:1003A000A9A740000000F03F2801002090B400AF52
:1003B000034B18CB18462146BD4690BC704700BF82
:1003C0002801002090B589B000AF0346FB7107F10A
:1003D0000802FB7911461846064B984707F10803B7
:1003E0001846054B984703460C46184621462437C5
:1003F000BD4690BD590F4000510E40002DE9F0431D
:1004000087B000AFF860B9607A60B868224B98474F
:10041000C7E90401FB68D3E900457B681033D3E9E1
:1004200000011E4ED7E90E23B04702460B461C4E74
:1004300020462946B04703460C4618462146194B2C
:1004400018CB164D1A462346A84703460C46984635
:10045000A146144B18CB144D1A4623464FF000000A
:100460001249A84703460C46184621460B4CD7E9CB
:100470000423A04703460C461A462346084C404630
:100480004946A04703460C46FA68C2E9003400BF5B
:100490001C37BD46BDE8F083510E4000B1A24000BC
:1004A0004D9F400028010020499F40000000F03F80
:1004B00080B483B000AF78607B68D3E900231C4927
:1004C000C1E900237B68D3E902231A49C1E900236B
:1004D0007B68D3E904231849C1E900237B68D3E989
:1004E00006231649C1E900237B68D3E90823144990
:1004F000C1E900237B68D3E90A231249C1E900233B
:100500007B68D3E90E230F49C1E904237B68D3E953
:100510000C230C49C1E902237B68D3E91023094964
:10052000C1E906230C37BD465DF8047B704700BF68
:10053000380A0020400A0020480A0020500A002003
:10054000580A0020600A00202DE9F04393B000AF64
:10055000F860B9607A607F4BB86898477E4BD3E902
:1005600000237E4CA04702460B46C7E91023794B77
:100570007868984702460B46794C10461946D7E9E9
:100580001023A04702460B4610461946754BD3E987
:100590000023754CA04702460B467249C1E900236F
:1005A000724BD3E900456B4B786898478046894683
:1005B000684B786898476D4BD3E90623684EB0477F
:1005C00002460B4610461946684BD3E90223634E98
:1005D000B04702460B4610461946644BD3E9042344
:1005E0005E4EB04702460B4610461946604BD3E9B3
:1005F00000235D4EB04702460B46594E40464946E1
:10060000B04702460B46584E20462946B0470246A0
:100610000B465649C1E90023544BD3E902454D4BE3
:1006200078689847514BD3E906234D4EB0470246B0
:100630000B464A4E20462946B04702460B464B49D8
:10064000C1E90223494BD3E90445424B78689847F6
:10065000464BD3E90623424EB04702460B463F4E77
:1006600020462946B04702460B464049C1E90423CB
:100670003E4BD3E90645374B786898473D4BD3E965
:100680000023374EB04702460B46374E20462946D8
:10069000B04702460B463549C1E90623334BD3E93F
:1006A0000001354BD3E900232F4CA04702460B46EF
:1006B000C7E90E232D4BD3E90023304C10461946D1
:1006C000D7E90E23A04702460B46C7E90423274B70
:1006D000D3E90423294C10461946D7E90E23A04735
:1006E00002460B46C7E906231A4BF86898471D4B8C
:1006F000D3E90023194CA04702460B46C7E90C2357
:10070000D7E90423164C10461946D7E90C23A04715
:1007100002460B4610461946124BD3E90023124CF1
:10072000A04702460B460F49C1E90023D7E906233B
:100730000B4C10461946D7E90C23A04702460B463E
:1007400010461946044BD3E90023074CA047024644
:100750000B4615E009A24000580A0020499F4000BE
:10076000B1A24000500A00204D9F4000600A0020C6
:10077000380A0020400A0020480A002005A5400051
:100780003649C1E90023364BD3E90023C7E90A23E0
:10079000334BD3E90223C7E90823314BD3E90045A2
:1007A000D7E904232F4E10461946D7E90A23B0474C
:1007B00002460B462C4E20462946B04702460B46C1
:1007C0002749C1E90023264BD3E90245D7E9042391
:1007D000244E10461946D7E90823B04702460B4677
:1007E000214E20462946B04702460B461C49C1E926
:1007F00002231B4BD3E90445D7E90623194E1046C3
:100800001946D7E90A23B04702460B46164E204642
:100810002946B04702460B461149C1E90423104B53
:10082000D3E90645D7E906230E4E10461946D7E907
:100830000823B04702460B460B4E20462946B047D8
:1008400002460B460649C1E90623084BD3E90023BB
:10085000104619464C37BD46BDE8F083580A0020C3
:10086000600A0020B1A24000499F4000500A0020C9
:1008700080B400AF064B00221A60064B00221A60BB
:10088000054B00221A60BD465DF8047B704700BF2F
:100890008C45002090450020884500200000000085
:1008A00090B585B000AF0146C7E900230B46FB7346
:1008B000FB7B002B19D01E4CD7E900014FF0000242
:1008C0001C4BA04702460B461B4C104619464FF0E6
:1008D00000021A4BA04702460B46194C1046194617
:1008E000A0470246174B1A6018E0114CD7E90001E7
:1008F0000DA3D3E90023A04702460B460E4C104639
:1009000019464FF000020D4BA04702460B460C4C17
:1009100010461946A04702460A4B1A601437BD46D6
:1009200090BD00BFAFF30080182D4454FB21194047
:1009300005A5400000807640B1A240000000904034
:1009400011A840008C45002090B585B000AF03464B
:10095000FB714FF00002244BC7E90223FB79002B07
:100960001BD0224B1A68224B1046984702460B4672
:10097000204C104619464FF000021F4BA04702467C
:100980000B461E4C104619464FF000021C4BA04768
:1009900002460B46C7E902231AE0144B1A68144BAF
:1009A0001046984702460B46124C104619464FF027
:1009B0000002114BA04702460B46104C1046194648
:1009C00007A3D3E90023A04702460B46C7E9022349
:1009D000D7E90223104619461437BD4690BD00BF23
:1009E000182D4454FB211940000079C08C4500208B
:1009F000E5A1400005A5400000009040B1A24000E4
:100A000000807640AFF3008080B483B000AF7860A0
:100A100039607B680B2B2CD13B68B3F5003F13D0BA
:100A2000B3F5802F1ED0B3F5803F22D1134B1B6846
:100A3000002B05D0124B1B685A1C114B1A6018E092
:100A4000104B01221A6014E00E4B1B68002B05D0DE
:100A50000B4B1B685A1E0A4B1A600AE0074B012217
:100A60001A6006E0054B00221A60064B00221A604D
:100A700000BF0C37BD465DF8047B704788450020F9
:100A80008C4500209045002090B583B002AF2948E6
:100A90004FF480310022284B984726484FF480318C
:100AA0000122264B9847264B009322480B214FF4F6
:100AB00080327023234CA0471E484FF48031224BD4
:100AC00098471C484FF4003100221B4B98471948A7
:100AD0004FF400310122194B9847194B00931548E8
:100AE0000B214FF400327023164CA04711484FF4ED
:100AF0000031154B98470F484FF4802100220E4BD0
:100B000098470C484FF4802101220C4B98470C4B1E
:100B1000009308480B214FF480225023094CA04732
:100B200004484FF48021084B9847084B98470437F6
:100B3000BD4690BD000E0E40114C4000F14C4000EF
:100B4000090A4000595240008D4D40007108400094
:100B500090B585B002AF78603223A3F1300213461E
:100B60009B0013445B001A463023303B1A44134663
:100B70009B0013445B001A463123303B1A44134652
:100B80009B0013445B001A463623303B1344A3F505
:100B9000FA633C4A02FB03F276236E2B06D16F23E5
:100BA000612B01D1384B2FE0384B2DE07623622B9F
:100BB00029D07623722B06D14E234D2B01D1344BF5
:100BC00022E0344B20E07623792B1AD076236C2B4D
:100BD00015D07623672B10D07623702B0BD076237D
:100BE000742B06D07623762B01D12B4B0CE02B4BAC
:100BF0000AE02B4B08E02B4B06E02B4B04E02B4B81
:100C000002E02B4B00E02B4BD1183123202B08D0D6
:100C10003123A3F1300213469B0013445B001A46B4
:100C200000E000223623303B134442F2107202FBF4
:100C300003F319443223A3F1300213469B001344FB
:100C40005B001A463323303B1344642202FB03F358
:100C500019443223A3F1300213469B0013445B0076
:100C60001A463423303B13440B4401930223009370
:100C70000023002210497868104CA04700BF0C37B1
:100C8000BD4690BD00E1F50540420F00808D5B0040
:100C9000C0C62D0000093D00C0D8A700001BB7004A
:100CA000809698004054890000127A00C0CF6A00F4
:100CB000404B4C0080841E00BC344100C9B240004F
:100CC00080B483B000AF78607B68072B25D801A281
:100CD00052F823F0F50C4000FB0C4000010D4000E1
:100CE000070D40000B0D40000F0D4000130D40009C
:100CF000170D40004FF4FA4310E04FF400430DE0AD
:100D00004FF400430AE0084B08E0084B06E0084BAC
:100D100004E0074B02E0064B00E0002318460C37C6
:100D2000BD4680BC704700BF00093D0000127A003C
:100D3000001BB70080B500AF0620034B9847034661
:100D4000DB00184680BD00BFC10C400080B500AF7D
:100D5000024B984703465B08184680BD350D40009E
:100D600080B584B000AF03463960FB710023FB738C
:100D70000C4B0D49386898470346002B0DD00B4BA0
:100D80000B49386898470346002B06D0FB79094980
:100D90003A6841F823200123FB73FB7B1846103788
:100DA000BD4680BD95AE40000000FAC459AE40007B
:100DB0000000FA443001002080B483B000AF034645
:100DC000FB71FB79034A52F8233018460C37BD46B5
:100DD00080BC70473001002080B584B000AF03466E
:100DE0003960FB710023FB730C4B0D493868984741
:100DF0000346002B0DD00B4B0B4938689847034630
:100E0000002B06D0FB7909493A6841F823200123D9
:100E1000FB73FB7B18461037BD4680BD95AE400086
:100E20000000FAC459AE40000000FA443C01002022
:100E300080B483B000AF0346FB71FB79034A52F8DC
:100E4000233018460C37BD4680BC70473C0100205B
:100E50002DE9F04385B000AF78604FF000034FF00C
:100E60000004C7E902347B68D3E900457B68083396
:100E7000D3E900017B680833D3E90023304EB04743
:100E800002460B46904699467B681033D3E9000131
:100E90007B681033D3E90023294EB04702460B4646
:100EA000284E40464946B04702460B469046994672
:100EB0007B68D3E900017B68D3E90023204EB0476B
:100EC00002460B461F4E40464946B04702460B4677
:100ED000104619461C4B984702460B461B4E2046AF
:100EE0002946B04703460C4618462146184B9847FA
:100EF000134C11A3D3E90023A04703460C46C7E9CE
:100F000002347B680833D3E90001124C4FF0000231
:100F10004FF00003A0470346002B05D0BB68BB6021
:100F2000FB6883F00043FB60D7E902341846214692
:100F30001437BD46BDE8F083F8C1631ADCA54C4008
:100F4000B1A240004D9F40003D98400005A54000E3
:100F50008D97400095A740002DE9F04F87B000AF76
:100F600003463960FB7103224B4938684B4B984765
:100F700007F10C0300221A609A800023BB82002331
:100F8000FB7507F10C01F87906233B22444EB0476C
:100F90000346FB7497F91330002B74D10023FB75C3
:100FA0006DE0FB7D5B0007F11802134413F80C3C65
:100FB0001B021AB2FB7D5B00013307F118010B44E1
:100FC00013F80C3C1BB213431BB2BB82B7F91430AD
:100FD000002B16DBFB7DDB003A68D618BA8A314B52
:100FE000104698470246304B104698472F4B1C46F8
:100FF00027A3D3E90023A04702460B46C6E90023F6
:101000001EE0BB8A5B429BB2C3F30E03BB82FB7D37
:10101000DB003A68D618BA8A224B10469847024637
:10102000214B10469847214B1C4619A3D3E90023B6
:10103000A04702460B46924683F0004BC6E900AB40
:10104000FB7DDB003A68D618FB7DDB003A68134471
:10105000D3E90089FB7D164A52F82320124B104633
:10106000984702460B4613490C4640464946A0475E
:1010700002460B46C6E90023FB7D0133FB75FB7D71
:10108000022B8ED900E000BF1C37BD46BDE8F08FB3
:10109000FCA9F1D24D62304080C1FFFFCDB04000CD
:1010A0003D1440006DAA400009A2400005A5400083
:1010B000300100204D9F4000F0B589B000AF0346DD
:1010C000B960FB7303224949B868494B984707F157
:1010D000140300221A609A800023BB830023FB774D
:1010E00007F11401F87B06234322424CA047034634
:1010F000FB7697F91B30002B73D10023FB776CE054
:10110000FB7F5B0007F12002134413F80C3C1B0229
:101110001AB2FB7F5B00013307F120010B4413F887
:101120000C3C1BB213431BB2BB83B7F91C30002B22
:1011300016DBFB7FDB00BA68D518BA8B2E4B104646
:10114000984702462D4B2E491046984703461A46AB
:101150002C4B1046984703460C46C5E900341CE06A
:10116000BB8B5B429BB2C3F30E03BB83FB7FDB00F5
:10117000BA68D518BA8B204B1046984702461F4BC9
:101180001F4910469847034683F000421D4B104606
:10119000984703460C46C5E90034FB7FDB00BA687C
:1011A000D618FB7FDB00BA681344D3E90045FB7F08
:1011B000154A52F82320134B1046984702460B4617
:1011C00012497960204629467C68A04703460C46B0
:1011D000C6E90034FB7F0133FB77FB7F022B8FD9FD
:1011E00000E000BF2437BD46F0BD00BF80C1FFFF57
:1011F000CDB040003D1440006DAA400085AC4000D9
:101200000000034309A240003C0100204D9F400024
:1012100080B582B000AF164B98470346002B05D02F
:101220001448154B98474FF0FF331DE068211348D1
:10123000134B98470346FB7197F90730002B02D0F8
:1012400097F9073010E068200E4B98470346FB7172
:1012500097F90730002B05D00B48074B984797F9B3
:10126000073001E097F9073018460837BD4680BDC2
:101270008D124000C8344100091740000080014031
:10128000B5594000FD124000D834410090B587B0F8
:1012900000AF124B3C1D0FCB84E80F003B1D1946DD
:1012A0000F48104B984702460F4B1A600E4B1B68B5
:1012B000002B03D10D4B984700BFFDE70C4B98471F
:1012C00003461A460B4906480B4B98470346FB75E5
:1012D000FB7D18461C37BD4690BD00BFEC34410075
:1012E00000800140F126400094450020E163400069
:1012F0004D0D4000801A06004559400080B584B06D
:1013000000AF0346FB71FB79192200211846314BCF
:1013100098470346FB7397F90F30002B01D0FB7BF6
:1013200053E0FB791A22002118462A4B98470346BE
:10133000FB7397F90F30002B01D0FB7B45E0FB7965
:101340001B2200211846234B98470346FB7397F94D
:101350000F30002B01D0FB7B37E0FB791C220021F2
:1013600018461C4B98470346FB7397F90F30002B28
:1013700001D0FB7B29E0FB79382200211846154B70
:1013800098470346FB7397F90F30002B01D0FB7B86
:101390001BE0FB796A22002118460E4B9847034652
:1013A000FB7397F90F30002B01D0FB7B0DE0FB792D
:1013B0006B2200211846074B98470346FB7397F9A9
:1013C0000F30002B01D0FB7BFFE718461037BD46DE
:1013D00080BD00BFD913400090B589B000AF03466F
:1013E000FB710B46BB7113467B7107F108030022AA
:1013F0001A605A609A60DA601A617B793B72012345
:10140000FB60BB1D3B6101237B61FB793B761223B3
:10141000FB77084B186807F1080100234FF0FF32F3
:10142000054CA0470346FB7797F91F301846243731
:10143000BD4690BD944500207528400090B589B008
:1014400000AF396011461A460346FB710B46BB716B
:1014500013467B7107F1080300221A605A609A60F4
:10146000DA601A61BB793B720123FB603B683B6128
:101470007B797B61FB793B761223FB77084B1868FD
:1014800007F1080100234FF0FF32064CA047034646
:10149000FB7797F91F3018462437BD4690BD00BF33
:1014A00094450020B92A400080B483B000AF786032
:1014B0007B68072B25D801A252F823F0DD144000E9
:1014C000E3144000E9144000EF144000F31440001E
:1014D000F7144000FB144000FF1440004FF4FA439F
:1014E00010E04FF400430DE04FF400430AE0084BD6
:1014F00008E0084B06E0084B04E0074B02E0064B0F
:1015000000E0002318460C37BD4680BC704700BF82
:1015100000093D0000127A00001BB70080B500AF43
:101520000620034B98470346DB00184680BD00BFEA
:10153000A914400080B500AF024B984703465B08F2
:10154000184680BD1D15400080B582B000AF7860A0
:101550000B46FB707B68204A93420AD100BFFB78A0
:10156000194678681D4B98470346002BF7D1012395
:101570002DE07B681A4A93420AD100BFFB781946D6
:101580007868164B98470346002BF7D101231EE0DD
:101590007B68144A93420AD100BFFB7819467868E9
:1015A000114B98470346002BF7D101230FE07B68CE
:1015B0000E4A93420AD100BFFB78194678680A4B5D
:1015C00098470346002BF7D1012300E0002318467B
:1015D0000837BD4680BD00BF00060E40155D4000C7
:1015E00000080E4000400240795D4000008002404B
:1015F00080B584B000AF786039600023FB607B6801
:101600001F4A934207D100BF396878681D4B98473D
:101610000346002BF8D17B681B4A934207D100BFD9
:1016200039687868174B98470346002BF8D17B68D8
:10163000164A93420DD100BF07F10C031946786892
:10164000134B98470346002BF6D1FB68DAB23B6890
:101650001A707B680F4A93420DD100BF07F10C034B
:10166000194678680A4B98470346002BF6D1FB6869
:10167000DAB23B681A7000BF1037BD4680BD00BFAC
:1016800000060E40455D400000080E40004002404C
:10169000AD5D40000080024090B587B002AF786039
:1016A0003960F123FB73094B1868002300934FF056
:1016B000FF333A687968064CA0470346FB7397F9F5
:1016C0000F3018461437BD4690BD00BFCC450020F2
:1016D0008D33400090B585B000AF7860396000234D
:1016E000FB60074B18684FF0FF333A687968054C88
:1016F000A047F860FB6818461437BD4690BD00BF90
:10170000CC450020413440000FB480B584B000AF18
:10171000F123FB7340F20440104B9847B86000235C
:101720007B6007F11C033B603A68B969B8680C4BF1
:10173000984703467B607968B8680A4B9847034628
:10174000FB73B868084B984797F90F301846103765
:10175000BD46BDE8804004B0704700BF95644000BE
:1017600029F44000991640009D65400080B588B07E
:1017700000AF214B3B61214B1B687B610A23BB619E
:1017800001233B7703237B771D4B984703467B6000
:101790004FF4E133BB604FF40063FB60194B1A4A0E
:1017A0001A601A4B1A4A1A601A4B1B4A1A601B4BD2
:1017B0001B689B6800211846194B9847174B1B68FC
:1017C0005B6800211846164B984707F110023B1D35
:1017D00019460D48134B98470246134B1A60124B9B
:1017E0001B68002B03D1114B984700BFFDE700BFDA
:1017F0002037BD4680BD00BF98450020480100202D
:1018000035154000EC45002000060E40E84500205C
:1018100049154000E4450020F1154000A0050020D6
:1018200069B14000B9304000CC450020E163400080
:1018300080B500AF014B984700BF80BD21464000F6
:1018400080B500AF0E4BB0221A600D4BDC225A60FF
:101850000B4B00229A600A4B6FF07F42DA60094B13
:1018600098470748084B98470820084B9847084B6B
:1018700098474FF6FF70074B984700BF80BD00BFE9
:10188000D4450020F93F4000DD434000713F400057
:1018900055464000D5464000F0B5A5B004AF78608D
:1018A000674B9847002387F87F300020654B9847A7
:1018B000654A0A210520654B98474FF4FA70644B3E
:1018C000984707F16003182200211846614B98479A
:1018D000002387F87F301BE097F87F305E4A52F88C
:1018E000230097F87F3007F16002DB00D118012355
:1018F0004FF0FF32594CA047B867BB6F012B02D0A5
:101900000020574B984797F87F30013387F87F3096
:1019100097F87F30022BDFD907F148031822002106
:1019200018464C4B9847002387F87F301BE097F808
:101930007F304C4A52F8230097F87F3007F1480275
:10194000DB00D11801234FF0FF32444CA047B867A9
:10195000BB6F012B02D00020414B984797F87F3096
:10196000013387F87F3097F87F30022BDFD907F1FA
:101970003003182200211846364B9847002387F879
:101980007F301BE097F87F30374A52F8230097F8F2
:101990007F3007F13002DB00D11801234FF0FF3216
:1019A0002E4CA047B867BB6F012B02D000202C4BF8
:1019B000984797F87F30013387F87F3097F87F306A
:1019C000022BDFD96FF07F401E4B9847DC23B022FB
:1019D0001E210020254CA04700201A4B9847D7E92C
:1019E0001856D7E91A34D7E9101207F10800CDE9E3
:1019F0000212CDE900342A4633461D491D4CA0474A
:101A000007F108031A461E210520104B9847D7E915
:101A10001256D7E91434D7E9161207F10800CDE9B8
:101A20000212CDE900342A4633461349114CA0472F
:101A300007F108031A466E210520044B98473CE73E
:101A4000411840007D464000FC344100AD49400053
:101A500089724000CDB0400044460020BD6B40007C
:101A6000DD714000F8450020044600201148400088
:101A70000C354100C9B240003C35410080B582B010
:101A800000AF78602E20074B9847074B01221A7051
:101A9000064B1B681846064B984700BF0837BD46E3
:101AA00080BD00BF553E4000800A0020D045002088
:101AB000F173400090B587B000AF3B1D83E807008D
:101AC000FB687B613B7A002B38D0012B00D04CE0C7
:101AD000284B4FF00001786998470346002B22D02D
:101AE000254B26497869984703461A46244B1046E9
:101AF00098470246234B1A60224B1A68224B104625
:101B000098470246214B1D491046984703461A46FE
:101B10001F4B1046984703460C461A4623461D485D
:101B20001D49884721E01A4B7869984703460C46BF
:101B30001A46234619481849884716E0114B1A6877
:101B4000114B104698470246104B0C4910469847D7
:101B500003461A460E4B1046984703460C461A4653
:101B600023460C480C49884700BF00BF1C37BD46C0
:101B700090BD00BF95AE40001DAB400000007A4410
:101B8000A9AE40004C0100206DAA400085AC400089
:101B900009A240008835410009174000A0354100E6
:101BA00090B587B002AF3B1D83E807000E4B1B6862
:101BB000002B15D00D4B1B6818460D4B98472E2057
:101BC0000C4B98470C4B1868074B1A684FF0FF33C3
:101BD000009300230221094CA047094B02221A70EE
:101BE00000BF1437BD4690BD4C010020D0450020F9
:101BF000ED724000AD3E400070450020798240000B
:101C0000800A00202DE9F04FCFB012AF786307F1C2
:101C10003C036422002118467C4B9847002387F838
:101C2000EF30002387F8EE30794B1B78012B0DD174
:101C3000784B186800234FF0FF320021764CA04704
:101C4000734B00221A707548754B9847714B186892
:101C500000234FF0FF3200216F4CA04707F1D00363
:101C6000182200211846694B9847002387F8EF3067
:101C70001DE097F8EF306B4A52F8230097F8EF30E9
:101C800007F1D002DB00D11801234FF0FF32624C84
:101C9000A047C7F8E800D7F8E830012B02D0192098
:101CA000614B984797F8EF30013387F8EF3097F89A
:101CB000EF30022BDDD907F1B803182200211846B6
:101CC000524B9847002387F8EF301DE097F8EF302C
:101CD000564A52F8230097F8EF3007F1B802DB00BC
:101CE000D11801234FF0FF324B4CA047C7F8E80052
:101CF000D7F8E830012B02D019204B4B984797F8C2
:101D0000EF30013387F8EF3097F8EF30022BDDD951
:101D100007F1A0031822002118463C4B98470023E6
:101D200087F8EF301DE097F8EF30414A52F8230072
:101D300097F8EF3007F1A002DB00D11801234FF034
:101D4000FF32354CA047C7F8E800D7F8E830012B40
:101D500002D01920344B984797F8EF30013387F8B9
:101D6000EF3097F8EF30022BDDD9D7E93434C7E9EB
:101D70000A34D7E936ABD7E93812C7E90812D7E9F0
:101D80002801C7E90601D7E92A45C7E90445D7E98B
:101D90002C56C7E90256D7E92E89C7E90089D7E949
:101DA0003089D7E932560120224B984703460C462A
:101DB000CDE91034CDE90E56CDE90C89D7E900897B
:101DC000CDE90A89D7E90256CDE90856D7E9044595
:101DD000CDE90645D7E90601CDE90401D7E90812A6
:101DE000CDE90212CDE900ABD7E90A2312480C492C
:101DF0008847034687F8EE3097F9EE30002B3FF422
:101E000013AF1920084B98470EE700BFCDB0400034
:101E1000800A002074450020BD6B4000BC354100A5
:101E20000917400044460020514E4000F84500206C
:101E30000446002049094000C435410090B595B0E2
:101E400002AF786007F10C03322200211846204BC4
:101E5000984700237B6400233B641E4B00930023C0
:101E600000224FF47A711C481C4CA04702461C4BC0
:101E70001A6007F13F03012118461A4B984738644E
:101E80003B6C012BF5D197F83F300D2B0ED107F1AC
:101E90000C031846144B984707F10C03322200211B
:101EA00018460B4B984700237B64E2E77B6C5A1C77
:101EB0007A6497F83F2007F148010B4403F83C2C63
:101EC00007F10C027B6C134400221A70D1E700BFAB
:101ED000CDB040007D1A400004364100FD81400035
:101EE00070450020D51640007D02400080B582B0CC
:101EF00000AF78607B68072B30D801A252F823F03E
:101F00005D1F4000211F4000291F4000311F40007D
:101F1000391F4000411F4000491F4000531F40002F
:101F20000020104B984719E001200E4B984715E010
:101F300000200D4B984711E010200B4B98470DE007
:101F40002020094B984709E000203E21074B984785
:101F500004E001203E21054B984700BF0837BD46ED
:101F600080BD00BF8D534000F953400069544000CC
:101F700080B582B000AF78607B68072B26D801A2BD
:101F800052F823F0A51F4000A91F4000A91F4000E0
:101F9000BB1F4000BB1F4000BB1F4000BB1F4000D9
:101FA000BB1F4000012312E00B4B98470346002B58
:101FB0000CBF00230123DBB209E0084B984703461E
:101FC000002B0CBF00230123DBB200E000231846E6
:101FD0000837BD4680BD00BFC5534000E1544000F6
:101FE00080B483B000AF78607B68072B25D801A24E
:101FF00052F823F0152040001B2040002120400013
:10200000272040002B2040002F204000332040009C
:10201000372040004FF4FA4310E04FF400430DE046
:102020004FF400430AE0084B08E0084B06E0084B79
:1020300004E0074B02E0064B00E0002318460C3793
:10204000BD465DF8047B704700093D0000127A0030
:10205000001BB70080B582B000AF0346FB7100BF24
:10206000FB791846054B9847034683F00103DBB222
:10207000002BF5D10837BD4680BD00BF711F400061
:1020800080B586B000AFF8607A603B600B46FB72AB
:10209000FB7A18460D4B984702467B68B2FBF3F378
:1020A0007B617B693A6802FB03F37B613B68013B20
:1020B0001A04074B13407A68D2B2134343F47C529C
:1020C000FB681A601837BD4680BD00BFE11F4000A5
:1020D0000000FF0780B582B000AF786039603B68D0
:1020E000002B07D1054B9847054B7A68126842F0E0
:1020F00000529A620837BD4680BD00BFFD544000C3
:1021000000040E4080B582B000AF78607B68002B81
:1021100003D1044B9847034600E0002318460837D4
:10212000BD4680BD1555400080B582B000AF034666
:10213000FB71FB79033B042B08D8FB791846054B50
:102140009847FB791846044B984700E000BF0837D2
:10215000BD4680BDED1E40005520400080B582B0D8
:1021600000AF786000BF7868044B98470346002BA7
:10217000F9D0002318460837BD4680BD0521400030
:1021800080B500AF0620034B98470346DB00184696
:1021900080BD00BFE11F400080B500AF024B9847F3
:1021A00003465B08184680BD8121400090B583B08E
:1021B00000AF1148114B98470620114B98473B1D23
:1021C00018460621012208230E4CA0473B1D184645
:1021D00000210D4B984700200C4B984710200C4BCA
:1021E00098470C4B98470C4B984703461846034BAF
:1021F00098470C37BD4690BD006CDC02C50000203E
:102200002921400081204000D52040005D21400070
:1022100009534000915E40009921400080B483B092
:1022200000AF0346FB71084B97F907205209F97973
:1022300001F01F01012000FA01F143F822100C37D0
:10224000BD465DF8047B704700E100E080B483B0D8
:1022500000AF0346FB71094B97F907205209F97942
:1022600001F01F01012000FA01F1603243F8221051
:102270000C37BD465DF8047B704700BF00E100E00D
:1022800080B483B000AF03463960FB7197F9073023
:10229000002B0BDA0D49FB7903F00F03043B3A687E
:1022A000D2B21201D2B20B441A7609E0084997F96A
:1022B00007303A68D2B21201D2B20B4483F800233D
:1022C0000C37BD465DF8047B704700BF00ED00E0B1
:1022D00000E100E080B487B000AFF860B9607A60D8
:1022E00000237B610BE07B691B01FA6813441A68C9
:1022F0007B689A4200D106E07B6901337B617A6991
:10230000BB689A42EFD37B6918461C37BD465DF81F
:10231000047B704780B487B000AF0346B9607A6031
:10232000FB730023FB7500233B610CE03B69BA683B
:1023300013441B78FA7B9A4202D10123FB7506E015
:102340003B6901333B613A697B689A42EEDBFB7D76
:1023500018461C37BD465DF8047B704790B585B0C4
:1023600000AF0346B9607A60FB73FB7B03F00103A7
:10237000002B0DD00120364B98470246BB685A60AF
:10238000BB685B68002B03D1324B984700BFFDE769
:10239000FB7B03F00403002B24D001200021032247
:1023A0002D4B98470246BB681A60BB681B68002B20
:1023B00007D0BB681B681846002100220023274C69
:1023C000A047BB681B68002B03D1224B984700BF76
:1023D000FDE7BB681B681846002100220023204C43
:1023E000A04702E0BB6800221A60FB7B03F00803F1
:1023F000002B27D07B68002B24D001200021032252
:10240000154B984702467B681A607B681B68002B57
:1024100007D07B681B6818460021002200230F4C60
:10242000A0477B681B68002B03D10A4B984700BF6D
:10243000FDE77B681B681846002100220023084C3A
:10244000A04702E07B6800221A601437BD4690BDA9
:10245000A9684000E16340001168400091694000B4
:10246000BD6B400080B582B000AF03463960FB71A0
:102470003B680F2B03D90F4B984700BFFDE73B6824
:10248000092B03D80B4B984700BFFDE797F907309E
:102490001846094B984797F9073018463968074B93
:1024A000984797F907301846054B98470837BD46B7
:1024B00080BD00BFE16340004D224000812240000A
:1024C0001D22400090B587B000AFF860B9607A6017
:1024D0003B60FB689B693B61BA683B699A420CD1DF
:1024E000FB68DB68002B05D1FB685A683B69D31A8F
:1024F0007B6110E000237B610DE0BA683B699A4282
:1025000004D9BA683B69D31A7B6104E0FB685A6856
:102510003B69D31A7B613A687B699A4202D97B692D
:102520003B600BE03A687B699A4207D0FB681B6905
:102530001846002100220023134CA047FB689B692A
:10254000786819463A68114B98473A693B681344D2
:102550003B61FB685A683B699A4209D80C4B984723
:10256000FB681B681A46FB689A610A4B984706E0AD
:10257000074B98473A69FB689A61064B98473B6856
:1025800018461C37BD4690BD91694000E1AF400040
:102590009D634000B963400090B587B000AF78609C
:1025A00039600023FB757B685B68002B20D007F146
:1025B0000C031846114B98477B685A683B681B68A8
:1025C000104600211A4600230D4CA0470346002B5D
:1025D00002D1FD23FB750BE007F10C0318463968A7
:1025E000084B98470346012B02D13B6800221A6032
:1025F000FB7D5BB218461C37BD4690BD617B400039
:10260000BD6B4000997B400090B587B000AFF8608B
:10261000B9607A603B60BB6A002B02D0FB68BA6A83
:102620001A60FB681B68002B07D0FB681B68184604
:10263000002100220023174CA047BB683B617B6848
:102640007B6197F82C30002B11D038684FF4007163
:10265000114B984707F110033868194600220F4BB9
:10266000984738684FF480710D4B98470EE03868F2
:102670000221094B984707F11003386819460022D8
:10268000084B984738680121054B98471C37BD46D1
:1026900090BD00BFBD6B4000B54A40000D4A4000F0
:1026A000954A4000514A400090B587B000AFF860AD
:1026B000B9607A600023FB75BB68002B10D1FB6802
:1026C0001B68002B0CD0FB681B68184600217A6839
:1026D0000023064CA0470346012B01D0FD23FB75C8
:1026E000FB7D5BB218461C37BD4690BDBD6B4000FC
:1026F00080B586B000AF7860396003233B734D48E6
:1027000001217A684C4B984738613B681A7B07F186
:102710000C03104619460122484B98470346FB73A9
:102720003B69002B7EDCFB7B002B7BD03B69DA0016
:10273000434B1344184643490822434B98470346EA
:10274000002B03D0414B984700BFFDE73B69DA00FF
:102750003F4B134418463B4908223B4B98470346DE
:10276000002B03D0394B984700BFFDE7314A3B6946
:102770001B01134408331B681846364B98472D4AF3
:102780003B691B0113445B68184640F20221324B3F
:102790009847284A3B691B0113441B6818464FF0B1
:1027A000FF312E4B9847234A3B691B0113441B689A
:1027B00018462B4B98473B681B7B032B00D008E047
:1027C0001C4A3B691B0113441B681846254B98475C
:1027D00000BF3B68597B3B69DA00194B1A443B69DF
:1027E000D8001B4B0344084611461A461E4B984717
:1027F000104A3B691B0113441B6818464FF4507183
:102800001A4B98470B4A3B691B01134408331A794A
:102810003B689B6852B210461946154B98477B6837
:102820007B6101E000237B617B6918461837BD4658
:1028300080BD00BF18364100D5224000152340005E
:10284000840A0020103641007DAF4000E163400063
:102850008C0A002031554000B54A4000455B4000DD
:10286000B15B4000215940005D234000295B4000DE
:102870006524400090B58DB002AFF860B9607A6011
:102880003B6000233B62FB68BB6181480121BA6960
:10289000804B984778617B69002B00F3EF80BB6821
:1028A000DB68002B00F0EA807B69DA007A4B1A447F
:1028B0003B1D10461946794B9847034687F8273049
:1028C00097F92730002B40F0D880BB6900225A606E
:1028D000BB681B7C1B0403F4FE02BB685B681B0225
:1028E00003F440731A43BB695A60BB685B68002BF2
:1028F0001AD0BB681B783B62BB685B68012B07D9A9
:102900003B6A1B023B62BB685B783A6A13433B62DB
:10291000BB685B68022B07D93B6A1B023B62BB6842
:102920009B783A6A13433B62BB693A6ADA60BB68D8
:10293000DB68012B6DD10023FB61554A7B691B01CC
:1029400013441B6818464FF45071554B9847BB68A9
:102950009B681B781A46BB695A63BB691B6A3B615B
:102960003B6903F48073002B16D0494A7B691B0135
:1029700013441B6818464FF450714A4B9847464A17
:102980007B69DB0013445B681846002100220023AA
:10299000454CA047F62376E03B6903F00403002B87
:1029A00000D00BE0FB690133FB61FB69B3F1FF3F32
:1029B00003D1FD2387F8273000E0CEE7BB69022270
:1029C0001A600AE0FB690133FB61FB69B3F1FF3F69
:1029D00003D1FD2387F8273005E0BB691B6A03F0AC
:1029E0000103002BEED02A4A7B691B0113441B68AC
:1029F00018464FF450712B4B9847274A7B69DB00F0
:102A000013445B681846002100220023264CA0478F
:102A100033E0BB689968254B7A6943F83210BB688C
:102A2000DA6822497B69DB000B445A607B69DA0073
:102A3000194BD018BB689968BB68DB685A1E144CE8
:102A40007B691B0123445B683C680094012401946A
:102A5000174CA047B8694FF40051124B98477B6957
:102A6000DA000D4B1A447B68104639681A46114B40
:102A70009847034687F8273003E002E0F82387F8F9
:102A8000273097F827305BB218462C37BD4690BDEB
:102A900018364100D5224000840A002099254000C4
:102AA000455B4000295B400091694000940A00208A
:102AB00009264000A926400090B591B002AFF86009
:102AC000B9607A603B6000233B63FB68FB619B4815
:102AD0000121FA699A4B9847B861BB69002B00F352
:102AE0002381BB68DB68002B00F01E81BB69DA0024
:102AF000944B1A443B1D10461946934B9847034686
:102B000087F8373097F93730002B40F00C81F8699F
:102B10008E4B9847FB6900225A60BB681B7C1B04E4
:102B200003F4FE02BB685B681B0203F440731343AB
:102B300043F48052FB695A60BB685B68002B1AD073
:102B4000BB681B783B63BB685B68012B07D93B6B99
:102B50001B023B63BB685B783A6B13433B63BB6808
:102B60005B68022B07D93B6B1B023B63BB689B78FE
:102B70003A6B13433B63FB693A6BDA60BB68DB6813
:102B8000022B00F299806D4ABB691B0113441B683C
:102B900018464FF450716E4B9847002387F82F303A
:102BA000BB68DB68BB62BB689B687B6200233B62DF
:102BB000BB6A012B06D1FB6903221A60012387F847
:102BC0002F304CE0FB6901221A6048E0FB691B6A68
:102BD0007B617B6903F48073002B16D0574ABB6975
:102BE0001B0113441B6818464FF45071594B98470A
:102BF000544ABB69DB0013445B681846002100227D
:102C00000023554CA047F62393E0BB6A012B09D162
:102C100097F82F30002B05D1FB6902221A6001239F
:102C200087F82F307B6903F00203002B0BD13B6A3E
:102C300001333B623B6AB3F1FF3F03D1FD2387F8C9
:102C400037300FE00BE07B6A5A1C7A62FA69126B2C
:102C5000D2B21A70BB6A013BBB6200233B62BB6A03
:102C6000002BB3D100233B620AE03B6A01333B6295
:102C70003B6AB3F1FF3F03D1FD2387F8373005E00E
:102C8000FB691B6A03F00103002BEED02B4ABB69E2
:102C90001B0113441B6818464FF450712D4B984785
:102CA000284ABB69DB0013445B68184600210022F8
:102CB0000023294CA04736E0BB689968274BBA69C6
:102CC00043F83210BB68DA682449BB69DB000B4467
:102CD0005A60BB69DA00224BD018BB689968BB68A0
:102CE000DB689A1E154CBB691B0123445B683C687A
:102CF0000094002401941B4CA047FB6901221A6038
:102D0000F8694FF48051134B9847BB69DA00144BB4
:102D10001A447B68104639681A46134B9847034695
:102D200087F8373003E002E0F82387F8373097F868
:102D300037305BB218463C37BD4690BD183641006F
:102D4000D5224000840A002099254000955B400070
:102D5000455B4000295B400091694000940A0020D7
:102D60008C0A002009264000A926400090B58BB0AF
:102D700000AF78600023BB60002387F82730814ACA
:102D80007B681B0113441B68BB61B8697E4B984785
:102D90007861B8697D4B984703467A6913407B6137
:102DA0007B6903F40053002B76D0764A7B681B01C5
:102DB00013445B6818464FF40071754B9847B86927
:102DC0004FF40051734B984700233B62BB691B6A69
:102DD000FB74FB7C03F00403002B00D00BE03B6A88
:102DE00001333B623B6AB3F1FF3F03D1012387F814
:102DF000273000E0EAE7BB6902221A60664B7A6876
:102E000053F8322064497B68DB000B445B68013B6C
:102E100013441B781A46BB695A63BB691B6AFB746F
:102E2000FB7C03F00103002B00D00BE03B6A013375
:102E30003B623B6AB3F1FF3F03D1012387F82730A0
:102E400000E0EAE7554A7B68DB0013445B68002B2F
:102E50000CD0524A7B68DB0013445A6807F1080320
:102E6000104600211A4600234D4CA0473B6AB3F19F
:102E7000FF3F11D0494B7A6853F83230002B0BD00A
:102E8000464B7A6853F8322007F1080310460021B8
:102E90001A460023424CA0477B6903F48053002B61
:102EA00000F0AA800023FB61364A7B681B011344B3
:102EB0005B6818460221364B9847B8694FF4805139
:102EC000344B9847BB691B6AFB60FB6803F0020345
:102ED000002B00D008E0FB690133FB61FB69B3F113
:102EE000FF3F00D100E0EDE7BB6902221A602A4BE8
:102EF0007A6853F8322028497B68DB000B445B6812
:102F0000023B1344BA69126BD2B21A70BB691B6AD6
:102F1000FB60FB6803F00203002B00D008E0FB69B4
:102F20000133FB61FB69B3F1FF3F00D100E0EDE746
:102F3000FB69B3F1FF3F35D0174B7A6853F8322065
:102F400015497B68DB000B445B68013B1344BA699D
:102F5000126BD2B21A700023FB61BB691B6AFB6063
:102F6000FB6803F00103002B00D01BE0FB69013379
:102F7000FB61FB69B3F1FF3F03D1012387F82730E1
:102F800010E0EAE718364100655B40007D5B4000D9
:102F9000B54A4000455B4000940A0020840A0020A6
:102FA000016B4000354A7B68DB0013445B68002BF3
:102FB0000CD0324A7B68DB0013445A6807F10803DF
:102FC000104600211A4600232D4CA047FB69B3F19F
:102FD000FF3F11D02B4B7A6853F83230002B0BD0C7
:102FE000284B7A6853F8322007F108031046002175
:102FF0001A460023224CA0477B6903F45073002B30
:1030000003D197F82730002B2FD01F4A7B681B0174
:1030100013445B68184640F202211C4B98477B69B9
:1030200003F48073002B02D1BB6902221A60B869D5
:103030004FF40051164B9847B8694FF48051144B28
:1030400098470E4A7B68DB0013445B68002B0CD06A
:103050000A4A7B68DB0013445A6807F108031046EC
:1030600000211A460023064CA047BB68002B01D064
:10307000084B98472C37BD4690BD00BF840A0020FE
:10308000016B40008C0A002018364100B54A400010
:10309000455B40008563400080B500AF0020014BD8
:1030A000984780BD6D2D400080B500AF0120014BD9
:1030B000984780BD6D2D400080B588B000AFF860A6
:1030C000B9607A6001233B759B480121FA689B4BEC
:1030D0009847B8617B681A7B07F1140310461946BC
:1030E0000122974B98470346FB75BB69002B00F301
:1030F0001B81FB7D002B00F017819249BA691346B2
:10310000DB009B1A9B000B4418331B68002B03D079
:103110008D4B984700BFFDE7F8688C4B9847F868DF
:103120008B4B9847844ABB691B0113445B68184664
:1031300040F20221874B98477F4ABB691B01134429
:1031400008331B681846844B98477B681B7B012B10
:1031500000D004E0F868B968804B984700BFF86871
:103160004FF0FF317E4B98477B685A7BBB69D90093
:103170007C4B0B441046194600227B4B98477B68DA
:103180001B68002B00F0A7804FF0FF300021774B29
:10319000984701466B48BA691346DB009B1A9B00AF
:1031A0000344103319606749BA691346DB009B1A60
:1031B0009B000B4410331B68002B03D1624B9847D4
:1031C00000BFFDE77B681B6819465E48BA69134675
:1031D000DB009B1A9B000344083319607B68596825
:1031E0005848BA691346DB009B1A9B000344083316
:1031F0005960514ABB691B0113445968BA691346A7
:10320000DB009B1A9B0003F108024E4B1344084657
:1032100019460022564B98477B6819684948BA6995
:103220001346DB009B1A9B00034418331960454981
:10323000BA691346DB009B1A9B000B4408331968DC
:103240004048BA691346DB009B1A9B00034419608F
:103250003C49BA691346DB009B1A9B000B441A6871
:103260007B685B68D1183748BA691346DB009B1A44
:103270009B00034459607B685B7B03F00203002BD7
:103280001BD001203B4B984701462E48BA69134694
:10329000DB009B1A9B000344103359602949BA692B
:1032A0001346DB009B1A9B000B4410335B68002B1A
:1032B00003D1254B984700BFFDE7F86809212E4B45
:1032C00098471D4ABB691B0113445B6818460121DE
:1032D0002A4B984709E01B49BA691346DB009B1A41
:1032E0009B000B44183301221A60134ABB691B016F
:1032F000134408331A797B689B6852B2104619460A
:103300001F4B98470C4ABB691B0113441B681846A6
:10331000E021194B9847F8681A4B9847F8681A4B00
:103320009847FB68FB6101E00023FB61FB691846DD
:103330002037BD4680BD00BF28364100D522400061
:10334000152340009C0A0020E1634000495C4000D6
:10335000795C4000B54A400031554000CD5B4000EB
:10336000AD5C4000B80A00205D2340004D6940007C
:10337000514A4000A9684000915C4000954A4000D5
:1033800065244000315C4000615C400090B58BB02A
:1033900002AFF860B9607A603B60FB68BB612148AE
:1033A0000121BA69204B984778617B69002B31DC99
:1033B0007B69DA001D4B1A443B46104619461C4BEC
:1033C00098470346FB7797F91F30002B24D17B6980
:1033D000DA00164B1A4413497B691B010B445B68E6
:1033E000396B0091012101911046B9687A68114C3E
:1033F000A047B8691021104B98477B69DA000B4B46
:103400001A443B681046396B1A460C4B98470346E2
:10341000FB7701E0F823FB77FB7F5BB2184624378C
:10342000BD4690BD28364100D5224000B80A002094
:103430009925400009264000915C4000A9264000E3
:1034400090B58BB000AFF860B9607A603B60002344
:103450003B62FB68FB6177480121FA69764B98472C
:10346000B8617649BA691346DB009B1A9B000B448E
:1034700018331B68002B03D1714B984700BFFDE741
:103480006E49BA691346DB009B1A9B000B44183344
:103490001B68012B03D16A4B984700BFFDE7BB694E
:1034A000002B00F3C2806549BA691346DB009B1A02
:1034B0009B000B4459686148BA691346DB009B1AAC
:1034C0009B0003441B68CA1A7B689A42C0F0AD8017
:1034D00007F1100318465B4B98475849BA691346E1
:1034E000DB009B1A9B000B4410335B68002B2FD032
:1034F0005249BA691346DB009B1A9B000B441033F8
:103500005A683B68104600211A4600234E4CA047DB
:1035100078627B6A012B1DD107F110023B461046F1
:1035200019464A4B98470346012B13D100237B626F
:103530004249BA691346DB009B1A9B000B441033C7
:103540005B681846002100220023414CA04701E09F
:1035500001237B627B6A012B67D13849BA69134624
:10356000DB009B1A9B000B4410331A683B68104623
:1035700000211A460023344CA047BA691346DB00E9
:103580009B1A9B002D4A98182A4ABB691B011344B9
:103590005B681968BA683B6A1A447C683B6AE31A3C
:1035A0002C4CA04703463A6A13443B623B6A002B0B
:1035B00013D0294B98472149BA691346DB009B1A5F
:1035C0009B000B4408335B68002B04D1BB69184691
:1035D0000121224B9847224B98473A6A7B689A42CE
:1035E00009D207F110023B4610461946174B98477F
:1035F0000346002BB1D01149BA691346DB009B1A70
:103600009B000B4410335B68002B0ED00B49BA694A
:103610001346DB009B1A9B000B4410335B68184673
:103620000021002200230A4CA0473B6A18462C3791
:10363000BD4690BD28364100D52240009C0A00209E
:10364000E1634000617B4000BD6B4000997B40001E
:1036500091694000C52440009D63400065364000EC
:10366000B963400080B584B000AF78600B46FB7052
:103670007A681346DB009B1A9B00364A1344FB60B2
:10368000FB689B691A46FB689B689A420ED1FB78DF
:10369000002B03D1FB680022DA601EE0FB685A6849
:1036A000FB689B68D21AFB68DA6016E0FB689B69CE
:1036B0001A46FB689B689A4208D9FB689B691A46C0
:1036C000FB689B68D21AFB68DA6006E0FB685A6800
:1036D000FB689B68D21AFB68DA60FB689A68FB6833
:1036E000DB681A44FB685B689A4203D91A4B984717
:1036F00000BFFDE7FB68DB68002B1ED0174A7B6824
:103700001B0113445A68FB6808331046194600220F
:10371000134B9847114A7B681B0113445B6818469A
:103720000121104B98470D4A7B681B0113441B680D
:10373000184609210C4B984708E0084A7B681B0192
:1037400013441B6818460921084B98471037BD469B
:1037500080BD00BF9C0A0020E16340002836410084
:10376000514A4000954A4000915C4000AD5C4000E9
:1037700090B587B000AF78600023FB60614A7B683A
:103780001B0113441B6818465F4B984778615D4ADC
:103790007B681B0113441B6818465C4B9847034623
:1037A0007A6913407B617A681346DB009B1A9B00A1
:1037B000574A13443B617B6903F01003002B2ED062
:1037C000504A7B681B0113441B6818461021514B5B
:1037D0009847514A7B68DB0013445B68002B0CD090
:1037E0004D4A7B68DB0013445A6807F10C0310460E
:1037F00000211A460023494CA047474B7A6853F8EA
:103800003230002B0BD0444B7A6853F8322007F14A
:103810000C03104600211A460023404CA0477B6948
:1038200003F00803002B33D03B699B69002B03D1C5
:103830003B4B984700BFFDE73B699B69012B03D1D8
:10384000374B984700BFFDE73B699A683B69DB68E7
:103850001A443B699A603B699A683B695B689A4283
:1038600003D33B691A683B699A607B68184600215C
:103870002C4B98473B691B69002B09D03B691A699F
:1038800007F10C03104600211A460023234CA047E1
:103890007B69002B0DD13B691B69002B09D03B696B
:1038A0001A6907F10C03104600211A4600231B4C2D
:1038B000A0477B6903F0E003002B1BD0114A7B6813
:1038C0001B0113441B681846174B9847124A7B6824
:1038D000DB0013445B68002B0CD00F4A7B68DB00D5
:1038E00013445A6807F10C03104600211A460023BE
:1038F0000A4CA047FB68002B01D00C4B98471C37A3
:10390000BD4690BD28364100E15C4000C95C4000E6
:103910009C0A0020AD5C4000B80A0020016B40000A
:10392000E163400065364000F95C4000856340007B
:1039300080B500AF0020014B984780BD7137400033
:1039400080B500AF0120014B984780BD7137400022
:1039500080B483B000AF78607B68072B25D801A2C4
:1039600052F823F0853940008B39400091394000EE
:10397000973940009B3940009F394000A3394000EF
:10398000A73940004FF4FA4310E04FF400430DE034
:103990004FF400430AE0084B08E0084B06E0084BF0
:1039A00004E0074B02E0064B00E0002318460C370A
:1039B000BD465DF8047B704700093D0000127A00A7
:1039C000001BB70080B500AF0620034B98470346A5
:1039D000DB00184680BD00BF5139400080B500AF04
:1039E000024B984703465B08184680BDC539400026
:1039F00080B483B000AF78607B6880221A600C3797
:103A0000BD465DF8047B704780B483B000AF78603A
:103A10007B685B6843F001027B685A600C37BD46E7
:103A20005DF8047B704700BF80B483B000AF78605E
:103A30007B685B6823F002027B685A600C37BD46E6
:103A40005DF8047B704700BF80B483B000AF78603E
:103A50007B685B6823F004027B685A600C37BD46C4
:103A60005DF8047B704700BF80B483B000AF78601E
:103A70007B685B6803F00403002B01D0012300E0A6
:103A8000002318460C37BD465DF8047B704700BF25
:103A900080B483B000AF78607B685B6843F010024D
:103AA0007B685A600C37BD465DF8047B704700BFE9
:103AB00080B483B000AF78607B685B6823F08002DD
:103AC0007B685A600C37BD465DF8047B704700BFC9
:103AD00080B582B000AF786078680F4B98477868FF
:103AE0000E4B984778680E4B984778680D4B98476F
:103AF00078680D4B9847786800210C4B9847786898
:103B00000B4B984778680B4B9847786800210A4B15
:103B100098470837BD4680BDC1554000F139400087
:103B2000093A4000913A4000B13A4000D95540006E
:103B3000293A4000493A40000D56400090B587B000
:103B400000AFF860B9603B601346FB71214B9847AA
:103B5000034638681946204B98470346FB82BB68EA
:103B60001B68F8681946002200231C4CA047BB685C
:103B70001B68F86819460822194B9847BB681A68F1
:103B8000FB8ADBB2F86811461A46164B9847BB68A9
:103B90001B68F86819460822134B9847BB681A68D7
:103BA000FB795B08DBB2F86811461A460F4B984761
:103BB000BB681A68FB7903F00103002B14BF0023D4
:103BC0000123DBB2F86811461A46094B98471C37A7
:103BD000BD4690BDDD3940003D584000CD58400005
:103BE000F55740007D58400051574000B156400005
:103BF0000157400080B582B000AF786039607868C6
:103C0000104B98470346002B0AD03B681B680F2BCC
:103C100014D83B681B68786819460B4B98470DE031
:103C20003B681B68032B09D83B681B68012202FA1A
:103C300003F3DB4378681946034B98470837BD46C2
:103C400080BD00BF693A4000D955400080B586B0BC
:103C500000AFF860B9607A6000237B61FB68002BDD
:103C600002D04FF0FF3314E00FE00C4B1B680C4AFE
:103C700012681046B9689847BB680133BB607B691E
:103C800001337B617B68013B7B607B68002BECDC54
:103C90007B6918461837BD4680BD00BFE44500204B
:103CA000EC45002080B586B000AFF860B9607A605E
:103CB00000237B61FB68012B08D0FB68022B05D039
:103CC000FB68032B02D04FF0FF331BE016E00F4BD5
:103CD0001A680F4B1968BB68581CB8601B780846F7
:103CE000194690470346002B02DA4FF0FF3309E0F4
:103CF0007B6901337B617B68013B7B607B68002BC8
:103D0000E5D17B6918461837BD4680BDE8450020DF
:103D1000EC45002080B582B000AF78607868024B37
:103D200098470837BD4680BD3155400080B500AF8B
:103D30000B20044B98470C20024B98470D20014B59
:103D4000984780BD153D400080B500AF3A4B4FF419
:103D500000425A60394B984717204FF06051384B5A
:103D600098472E204FF06051354B984719204FF05F
:103D70006051334B98470F203249314B9847102000
:103D800031492F4B984731484FF4C0614FF00062E2
:103D90002F4B984700204FF08051294B984708201F
:103DA0004FF08051264B984703204FF00061244B81
:103DB000984704204FF00061214B98470C204FF0AA
:103DC00000611F4B98470D204FF000611C4B984736
:103DD0000E204FF000611A4B98471F204FF00061F2
:103DE000174B98471E204FF08051154B98470C20D9
:103DF0004FF00061124B98470D204FF00061104BBF
:103E000098470E204FF000610D4B98471E204FF051
:103E100080510B4B98471C204FF06051084B98473E
:103E20001D204FF06051064B98474D204FF06051D8
:103E3000034B984780BD00BF50140E402D3D4000FD
:103E4000A94E40007900002859000028000E0E40BD
:103E50005D50400080B584B000AF78600023FB6007
:103E600017E00F4BFA6853F832207B689A420DD165
:103E70000B4AFB68DB0013445B68012B03D17868B5
:103E8000084B984702E07868074B9847FB68013376
:103E9000FB60FB68032BE4D91037BD4680BD00BF33
:103EA00038364100254E4000F94D400080B584B0C1
:103EB00000AF78600023FB6017E00F4BFA6853F8FF
:103EC00032207B689A420DD10B4AFB68DB00134419
:103ED0005B68012B03D17868084B984702E078684B
:103EE000074B9847FB680133FB60FB68032BE4D961
:103EF0001037BD4680BD00BF38364100F94D400047
:103F0000254E400080B48BB000AF78600B46FB704C
:103F10007B687B62FB7887F823307B6AFB61FB69F7
:103F2000BB61BB695B097B617B6903F5001303F22D
:103F300007735B023B6197F82330002B09D07B6A43
:103F4000FB60FB6803F01F0301229A403B691A6380
:103F500008E07B6ABB60BB6803F01F0301229A4044
:103F60003B695A632C37BD465DF8047B704700BF40
:103F700080B584B000AF78607B68C3F111037B60CB
:103F80007B68102B28BF10237B607B68002B01D03F
:103F90007B6800E001237B600023FB601AE04D207A
:103FA0000021144B98471823BB6000BFBB685A1E02
:103FB000BA60002BFAD14D2001210E4B98471823EF
:103FC000BB6000BFBB685A1EBA60002BFAD1FB6809
:103FD0000133FB60FA687B689A42E0D34FF4003308
:103FE000BB6000BFBB685A1EBA60002BFAD1103705
:103FF000BD4680BD053F400080B582B000AF4D207A
:104000000021074B98474FF400337B6000BF7B686B
:104010005A1E7A60002BFAD10837BD4680BD00BF1A
:10402000053F400080B483B000AF0346FB71084BEE
:1040300097F907205209F97901F01F01012000FAD0
:1040400001F143F822100C37BD465DF8047B704740
:1040500000E100E080B483B000AF0346FB71094B80
:1040600097F907205209F97901F01F01012000FAA0
:1040700001F1203243F822100C37BD465DF8047B75
:10408000704700BF00E100E080B483B000AF03469A
:10409000FB71094B97F907205209F97901F01F01CB
:1040A000012000FA01F1603243F822100C37BD46BE
:1040B0005DF8047B704700BF00E100E080B483B08E
:1040C00000AF03463960FB7197F90730002B0BDA1C
:1040D0000D49FB7903F00F03043B3A68D2B2120199
:1040E000D2B20B441A7609E0084997F907303A68CA
:1040F000D2B21201D2B20B4483F800230C37BD4672
:104100005DF8047B704700BF00ED00E000E100E0D7
:1041100080B483B000AF78607B6880221A600C376F
:10412000BD465DF8047B704780B483B000AF786013
:104130007B6801221A600C37BD465DF8047B70472E
:1041400080B483B000AF78607B6802221A600C37BD
:10415000BD465DF8047B704780B483B000AF7860E3
:104160007B684FF080721A600C37BD465DF8047BA7
:10417000704700BF80B483B000AF786039607B685F
:104180003A685A610C37BD465DF8047B704700BF42
:1041900080B483B000AF786039607B683A689A6118
:1041A0000C37BD465DF8047B704700BF80B483B018
:1041B00000AF78607B68DB6918460C37BD465DF858
:1041C000047B704790B583B000AF0346FB710F4886
:1041D000022100220E4B98470C480E4B98471C209A
:1041E0000D4B9847FB799BB20848194602220023E1
:1041F0000A4CA04705480A4B9847044802218022F0
:10420000034B98470C37BD4690BD00BF008000406F
:10421000F557400029414000254E40003D564000E2
:104220004141400080B500AF2220014B984780BD3E
:10423000C541400090B583B000AF0346FB800948FC
:10424000094B98471C20094B9847FB88054819469D
:1042500002220023064CA0470248064B98470C3721
:10426000BD4690BD0080004029414000F94D40000E
:104270003D5640004141400090B585B000AF7860A8
:1042800039603B68002B00D11DE01048104B984767
:104290001C20104B98470023FB600DE0FB685B007F
:1042A0007A6813441B8809481946022200230A4CE5
:1042B000A047FB680133FB60FA683B689A42EDD384
:1042C0000248064B98471437BD4690BD0080004019
:1042D00029414000F94D40003D5640004141400019
:1042E00080B582B000AF02460B46FA71BB80FB7905
:1042F0001846044B9847BB881846034B9847083725
:10430000BD4680BDC54140003542400080B485B007
:1043100000AF78600023FB600CE00023FB6002E04C
:10432000FB680133FB60FA68074B9A42F8D9FB68D7
:104330000133FB60FA687B689A42EED31437BD46BE
:104340005DF8047B704700BF9F86010080B487B092
:1043500000AFF860B9607A603B60FB681B68AF2B08
:1043600002D9FB68AF221A607B681B68AF2B02D9A9
:104370007B68AF221A60BB681B68DB2B02D9BB6865
:10438000DB221A603B681B68DB2B02D93B68DB220F
:104390001A60FB681A687B681B689A4209D9FB6837
:1043A0001B687B617B681A68FB681A607B687A69A6
:1043B0001A60BB681A683B681B689A4209D9BB68D7
:1043C0001B687B613B681A68BB681A603B687A6946
:1043D0001A601C37BD465DF8047B704790B587B006
:1043E00002AF78600223FB601D20774B98470220C4
:1043F000764B98471D20764B98471420734B98476F
:104400001D20714B98473220704B98477148724B72
:1044100098477048714B98476E48714B98471520E4
:10442000704B98471520704B9847152000216F4B13
:10443000984715206E4B984766486E4B984707F192
:104440000C03002200926348194600226A4B6B4C11
:10445000A04707F10C035F481946694B98475D4830
:10446000684B98475B480121674B9847674B9847D3
:1044700001204FF48E71664B984702204FF48071F3
:10448000634B9847032041F23001614B9847082065
:1044900040F608015E4B98470C2001215C4B984781
:1044A0000F2040F601215A4B98472020B021584B4D
:1044B00098472120DC21564B984710204FF420616B
:1044C000534B9847112041F23801514B9847322005
:1044D0003E4B9847122041F221114D4B9847132033
:1044E0004E214B4B9847142046F26F71484B98472A
:1044F00030200021464B98473120DB21444B984720
:1045000032200021424B984733200021404B9847EE
:104510003420DB213E4B9847352000213C4B984707
:104520003620B0213A4B984737200021384B984726
:104530003820DC21364B984739200021344B9847EE
:1045400050200021324B9847512040F20A61304BF5
:104550009847522040F60A512D4B9847532040F27D
:1045600003312B4B9847542040F60D21284B984798
:10457000552040F60621264B984756200021244B13
:104580009847572040F20331214B9847582000218B
:104590001F4B9847592000211D4B98477B681A688C
:1045A0007B685B68002000211A4CA0477B689B68F1
:1045B0001846194B984700200021184B98470023B4
:1045C00018461437BD4690BDF94D40000D434000DC
:1045D000254E400000800040414140001141400014
:1045E000594140005540400089404000BD404000D6
:1045F00025404000D13A400020BCBE003D3B400079
:10460000F53B4000294140007541400069464000AB
:10461000E1424000194740007D4640008947400084
:1046200080B582B000AF0748074B984778600548CF
:104630007968064B9847064B01221A700837BD4629
:1046400080BD00BF00800040AD414000914140006E
:10465000200C002080B500AF072041F21701014B6C
:10466000984780BDE142400080B500AF072000219F
:10467000014B984780BD00BFE142400080B485B047
:1046800000AF78607B6803F478031B0A9AB27B68FA
:1046900003F47C435B099BB213439AB27B6803F03B
:1046A000F803DB089BB213437B810023FB6007E028
:1046B000074BFA68798923F81210FB680133FB6015
:1046C000FB68AF2BF4D91437BD465DF8047B704707
:1046D000C00A002080B584B000AF0346FB800020F4
:1046E00000210A4B98470A4B984749F24073FB60F8
:1046F00006E0FB881846074B9847FB68013BFB60C8
:10470000FB68002BF5D11037BD4680BD89474000BE
:10471000254240003542400080B584B000AFF860CB
:10472000B9607A603B60FB689AB27B689BB21344C5
:104730009BB2013B9BB2DBB29BB236201946114BB8
:104740009847FB689BB2DBB29BB2372019460D4BF2
:104750009847BB689AB23B689BB213449BB2013B3B
:104760009BB2DBB29BB238201946064B9847BB6818
:104770009BB2DBB29BB239201946024B98471037E7
:10478000BD4680BDE142400080B582B000AF024628
:104790000B46FA80BB80FB88DBB29BB22020194617
:1047A000054B9847BB88DBB29BB221201946024BD0
:1047B00098470837BD4680BDE142400080B582B0D1
:1047C00000AF786039607B68AF2B02D83B68DB2B89
:1047D00001D901230FE07B689AB23B689BB2104677
:1047E0001946074B9847074B9847074B1B881846B5
:1047F000064B9847002318460837BD4680BD00BFCA
:104800008947400025424000C00A00203542400050
:1048100090B587B000AFF860B9607A603B6007F18F
:104820000C0007F108013A1D3B46244CA047F868EC
:10483000B9687A68FB68D31A5A1C3C68BB68E31AEB
:1048400001331F4CA047FB689AB2BB689BB210466D
:1048500019461C4B98471C4B98477A68FB68D31A3B
:1048600001333968BA688A1A013202FB03F33B61EB
:104870003A69164BA3FB0213DB097B6103E0144882
:10488000B021144B98477B695A1E7A61002BF6D1F0
:104890003A690E4BA3FB0213DB09B02101FB03F3C2
:1048A000D31A0B4819460B4B984700200021B02221
:1048B000DC23034CA0471C37BD4690BD4D43400050
:1048C000194740008947400025424000A38B2EBA7B
:1048D000C00A00207942400080B58AB000AFF8607D
:1048E000B9601346FB71FA7913469B0013449B0091
:1048F000A3F52073FB6100233B624DE03B6A5A0045
:10490000FB691344BB61BB6901337B6100237B629C
:104910001AE0244ABB6913441B781A467B6AC3F128
:10492000070342FA03F303F00103002B09D0FA68EE
:104930003B6A1A44B9687B6A0B44104619461A4B05
:1049400098477B6A01337B627B6A072BE1D900239E
:104950007B621BE0134A7B6913441B781A467B6A0F
:10496000C3F1070342FA03F303F00103002B0AD05B
:10497000FA683B6A1A44B9687B6A0B4408331046EC
:104980001946094B98477B6A01337B627B6A052B8A
:10499000E0D93B6A01333B623B6A092BAED9283729
:1049A000BD4680BD58364100BD47400080B586B049
:1049B00000AFF860B9607A60FB687B611CE07B68DF
:1049C0001B780A2B08D10E231A46BB681344023306
:1049D000BB607B69FB600CE07B681B78F868B9689A
:1049E0001A46094B98470A231A46FB6813440233B8
:1049F000FB607B6801337B607B681B78002BDED11A
:104A00001837BD4680BD00BFD948400080B485B08E
:104A100000AFF860B9607A60BB68002B07D0BB6854
:104A20001A68FB689A60BB685A68FB68DA607B6842
:104A3000002B07D07B681A68FB689A617B685A680C
:104A4000FB68DA611437BD465DF8047B704700BF30
:104A500080B485B000AFF860B9607A60BB68002BA5
:104A600007D0BB681A68FB681A60BB685A68FB68A5
:104A70005A607B68002B07D07B681A68FB681A6154
:104A80007B685A68FB685A611437BD465DF8047B41
:104A9000704700BF80B483B000AF786039603A6877
:104AA00040F2011313407A6813620C37BD465DF87B
:104AB000047B704780B483B000AF786039603A6897
:104AC00040F2022313407A6813620C37BD465DF84A
:104AD000047B704780B485B000AFF860B9607A603D
:104AE0007B68002B03D0FB68BA685A6602E0FB685B
:104AF000BA681A661437BD465DF8047B704700BF7C
:104B000080B487B000AFF860B9607A60FB687A68FB
:104B10005A64BB68B3F1C05F4AD0B3F1C05F08D834
:104B2000B3F1006F16D0B3F1805F2CD0002B69D0A9
:104B300064E0B3F1205F65D0B3F1205F03D8B3F137
:104B4000005F4AD05AE0B3F1405F5BD0B3F1605FE1
:104B500058D053E0FB681B6F7B61FB681A6F7B6862
:104B6000D9437B690B401A40FB681A67FB685B6F8F
:104B70007B61FB685A6F7B68D9437B690B401A40A5
:104B8000FB685A673AE0FB681B6F7B617A687B6958
:104B90001A43FB681A67FB685B6F7B61FB685A6F9F
:104BA0007B68D9437B690B401A40FB685A6725E054
:104BB000FB681B6F7B61FB681A6F7B68D9437B695D
:104BC0000B401A40FB681A67FB685B6F7B617A6871
:104BD0007B691A43FB685A6710E0FB681B6F7B61B7
:104BE0007A687B691A43FB681A67FB685B6F7B61B5
:104BF0007A687B691A43FB685A6700BFFB687A686A
:104C00005A6000E000BF1C37BD465DF8047B70476A
:104C100080B584B000AFF860B9607A60F868B968B0
:104C2000184B98477B6803F00103F868B9681A4687
:104C3000154B98477B6803F00A03002B03D0FB68F1
:104C4000BA681A6202E0FB68BA685A627B6803F0CD
:104C50000203002B04D0FB68BA68C3F8802008E088
:104C60007B6803F00803002B03D0FB68BA68C3F825
:104C70008420FB68BA685A61FB68BA681A6010370A
:104C8000BD4680BDAD4D4000D54A400080B584B0E2
:104C900000AFF860B9607A603B60F868B968124BA1
:104CA0009847F868B968BA69104B98473B68002B79
:104CB00003D0FB68BA681A6502E0FB68BA685A65F7
:104CC0007B68002B03D0FB68BA681A6302E0FB68BC
:104CD000BA685A63FB68BA681A61FB68BA681A60F6
:104CE0001037BD4680BD00BFAD4D4000D54A4000E5
:104CF00080B485B000AFF860B9607A607B68002B43
:104D000004D0FB68BA68C3F8942003E0FB68BA6873
:104D1000C3F890201437BD465DF8047B704700BF90
:104D200080B485B000AFF860B9607A607B6803F04A
:104D30001003002B20D0FB68BA68C3F8B0207B6852
:104D400003F02003002B04D0FB68BA68C3F8D4201A
:104D500003E0FB68BA68C3F8D0207B6803F0400327
:104D6000002B04D0FB68BA68C3F8C02008E0FB68D9
:104D7000BA68C3F8C42003E0FB68BA68C3F8B4207B
:104D80001437BD465DF8047B704700BF80B483B024
:104D900000AF786039607B68DB6C7B683A681A64C6
:104DA0000C37BD465DF8047B704700BF80B483B00C
:104DB00000AF786039607B683A685A640C37BD464A
:104DC0005DF8047B704700BF80B483B000AF7860AB
:104DD0007B68DB6C18460C37BD465DF8047B70477A
:104DE00080B483B000AF78607B689B6C18460C374A
:104DF000BD465DF8047B704780B584B000AF786035
:104E00007868074B9847F8607B6803F01F0301221E
:104E100002FA03F31A46FB681A631037BD4680BDD9
:104E20008551400080B584B000AF78607868074B4A
:104E30009847F8607B6803F01F03012202FA03F32E
:104E40001A46FB685A631037BD4680BD8551400045
:104E500080B584B000AF78607868124B9847F860EE
:104E6000FB689A6B7B6803F01F03012101FA03F3CF
:104E70001340002B09D07B6803F01F03012202FAC4
:104E800003F31A46FB685A6308E07B6803F01F03CC
:104E9000012202FA03F31A46FB681A631037BD4673
:104EA00080BD00BF8551400090B587B002AF7860EB
:104EB00039607868644B9847F8603B6803F0F043CA
:104EC000B3F1005F6BD0B3F1005F09D8B3F1805F3D
:104ED0002DD0B3F1C05F46D0B3F1006F0BD0ACE082
:104EE000B3F1405F00F08380B3F1605F7FD0B3F136
:104EF000205F70D0A1E07B6803F01F03012202FA5B
:104F000003F3F8684FF000611A46504B98477B68EE
:104F100003F01F03012202FA03F31A463B6803F071
:104F20000103F86811461A46494B984787E07B68A9
:104F300003F01F03012202FA03F3F8684FF08051D7
:104F40001A46424B98477B6803F01F03012202FA7E
:104F500003F31A463B6803F00103F86811461A464A
:104F60003B4B98476BE07B6803F01F03012202FA7A
:104F700003F3F8684FF0C0511A46344B98477B68EA
:104F800003F01F03012202FA03F31A463B6803F001
:104F90000103F86811461A462D4B98474FE07B688D
:104FA00003F01F03012202FA03F3F8684FF00051E7
:104FB0001A46264B98477B6803F01F03012202FA2A
:104FC00003F31A463B6803F00103F86811461A46DA
:104FD0001F4B984733E07B6803F01F03012202FA5E
:104FE00003F3F86819463A681A4B984727E07B683C
:104FF00003F01F03012202FA03F319463B6803F092
:105000006053B3F1605F14BF00230123DBB21A4683
:105010003B6803F00403002B0CBF00230123DBB229
:10502000386800F0010000280CBF00200120C0B249
:105030000090F868084CA04701E0002300E001233D
:1050400018461437BD4690BD85514000014B4000C5
:10505000D54A4000114C40008D4C400090B587B0BF
:1050600002AFF860B9607A607B6803F0F043B3F197
:10507000005F43D0B3F1005F09D8B3F1805F1FD068
:10508000B3F1C05F2BD0B3F1006F0AD06BE0B3F186
:10509000405F48D0B3F1605F45D0B3F1205F3CD0B2
:1050A00061E0F8684FF00061BA68324B98477B685E
:1050B00003F00103F868B9681A462F4B984754E08B
:1050C000F8684FF08051BA682A4B98477B6803F024
:1050D0000103F868B9681A46274B984745E0F86815
:1050E0004FF0C051BA68234B98477B6803F0010327
:1050F000F868B9681A46204B984736E0F8684FF0D0
:105100000051BA681B4B98477B6803F00103F868AD
:10511000B9681A46184B984727E0F868B9687A6862
:10512000164B984721E07B6803F06053B3F1605F52
:1051300014BF00230123DBB21A467B6803F004038B
:10514000002B0CBF00230123DBB2796801F00101C1
:1051500000290CBF00210121C9B20091F868B9688B
:10516000074CA04701E0002300E001231846143754
:10517000BD4690BD014B4000D54A4000114C400057
:105180008D4C400080B485B000AF78607B685B09CF
:1051900003F5001303F207735B02FB60FB6818461C
:1051A0001437BD465DF8047B704700BF80B584B0FE
:1051B00000AF786039607868244B9847F860786869
:1051C000234B98470346FA681340FB60FB68002BAB
:1051D00039D00023BB6033E01E4ABB681B01134477
:1051E0001A683B689A4224D11A4ABB681B011344CF
:1051F0005A68FB681340002B1BD0164ABB681B0182
:10520000134408335B681349BA6812010A441168F1
:105210001048BA681201024452680846114698477D
:105220000C4ABB681B0113445B68DB43FA681340FC
:10523000FB60BB680133BB60BB68062B00D902E092
:10524000FB68002BC8D11037BD4680BDC94D40005A
:10525000E14D4000240C002080B586B000AFF8601E
:10526000B9607A603B60134B1B68062B01D90123A0
:105270001CE0104B1B681A010F4B13447B617B69C8
:10528000BA681A607B697A685A607B693A689A6082
:105290007B693A6ADA60074B1B685A1C054B1A6037
:1052A000F86879683A68054B98470023184618371C
:1052B000BD4680BD940C0020240C0020214D4000F0
:1052C00080B500AF02480B21024B984780BD00BF5C
:1052D000000E0E40AD51400080B500AF02480C21D9
:1052E000024B984780BD00BF00100E40AD514000FA
:1052F00080B500AF02480D21024B984780BD00BF2A
:1053000000120E40AD51400080B485B000AF78600F
:105310001D4B1D4A126B22F070017A680A431A6312
:105320004FF40063FB6007E0FB68002B01D1012311
:1053300023E0FB68013BFB60134B9B6E03F008030B
:10534000002BF1D0104B104A126B22F0030242F0F6
:1053500002021A634FF40063FB6007E0FB68002B56
:1053600001D1012309E0FB68013BFB60064B9B6E0A
:1053700003F00803002BF1D0002318461437BD4674
:105380005DF8047B704700BF00040E4080B483B01A
:1053900000AF78607B68012B07D1084A074B9B68F8
:1053A00043F0254343F480139360044B044A1A608E
:1053B0000C37BD465DF8047B704700BF10140E40EB
:1053C000080000A580B400AF094B5B6903F08003BF
:1053D000002B07D0074B9B6E03F08003002B01D0FE
:1053E000012300E000231846BD465DF8047B7047AA
:1053F00010140E4000040E4080B483B000AF7860FB
:10540000184A184B1B6A43F45C1343F008031362F9
:1054100000BF144B9B6E03F40033002BF9D0114AEC
:10542000104B1B6A23F45C1323F0700379680B4361
:1054300043F45C13136200BF0A4B9B6E03F400330A
:10544000002BF9D0074A074B1B6A23F09B7323F408
:10545000803343F45C1313620C37BD465DF8047B64
:10546000704700BF00040E4080B483B000AF786086
:1054700039607B68002B08D01649164B1B6A164A08
:105480001A40164B13430B621EE0124A114B1B6A63
:1054900023F45C1323F003033968090289B20B4338
:1054A00043F45C1343F00103136200BF094B9B6E8E
:1054B00003F00103002BF9D0064A064B1B6A43F0A8
:1054C0009B7343F4803313620C37BD465DF8047B55
:1054D000704700BF00040E40FCFFC8FE0200370109
:1054E00080B400AF044B9B6E03F480331846BD4676
:1054F0005DF8047B704700BF00040E4080B400AF2D
:10550000034B4FF000529A62BD465DF8047B704732
:1055100000040E4080B400AF044B9B6E03F0020306
:105520001846BD465DF8047B704700BF00040E407E
:1055300080B483B000AF78607B681F2B01D9012352
:1055400016E07B681F2B12D80C4B9A697B680121EF
:1055500001FA03F31A407B68012101FA03F39A422E
:1055600005D0064B7A68012101FA02F21A61002384
:1055700018460C37BD465DF8047B704700040E40AA
:1055800080B483B000AF78607B685B6803F002038F
:10559000002B01D0012300E0002318460C37BD4644
:1055A0005DF8047B704700BF80B582B000AF7860C3
:1055B0007868024B98470837BD4680BD315540009A
:1055C00080B582B000AF78601520024B984708374D
:1055D000BD4680BDA955400080B483B000AF78605F
:1055E00039607B685B6823F470227B685A607B6853
:1055F0005A683B681B0403F470231A437B685A60A3
:105600000C37BD465DF8047B704700BF80B483B0A3
:1056100000AF786039607B685B6823F07F427B680D
:105620005A607B685A683B681B061A437B685A605D
:105630000C37BD465DF8047B704700BF80B584B071
:1056400000AF786079807A703B7043F69823FB60F6
:1056500006E0FB685A1EFA60002B01D1012320E00E
:105660007B681B6903F00203002BF2D078680F4BB4
:1056700098470346002B0ED07A887B781B0403F4EE
:1056800070231343BB603B78002B06D0BB6843F00C
:105690008073BB6001E07B88BB607B68BA68DA60BE
:1056A00000235BB218461037BD4680BD81554000CF
:1056B00080B485B000AFF860B9607A607B68002B79
:1056C0000CD0FB68BA680C3253F8223043F0010169
:1056D000FB68BA680C3243F822100BE0FB68BA682A
:1056E0000C3253F8223023F00101FB68BA680C3207
:1056F00043F822101437BD465DF8047B704700BFA5
:1057000080B485B000AFF860B9607A607B68002B28
:105710000CD0FB68BA680C3253F8223043F0020117
:10572000FB68BA680C3243F822100BE0FB68BA68D9
:105730000C3253F8223023F00201FB68BA680C32B5
:1057400043F822101437BD465DF8047B704700BF54
:1057500080B485B000AFF860B9607A607B68042BD4
:1057600018D1FB68BA680C3253F8223023F00801D4
:10577000FB68BA680C3243F82210FB68BA680C3236
:1057800053F8223043F00401FB68BA680C3243F846
:1057900022102AE07B68002B18D1FB68BA680C3213
:1057A00053F8223023F00801FB68BA680C3243F842
:1057B0002210FB68BA680C3253F8223023F004013F
:1057C000FB68BA680C3243F822100EE07B68082BA5
:1057D0000BD1FB68BA680C3253F8223043F0080151
:1057E000FB68BA680C3243F822101437BD465DF8E6
:1057F000047B704780B485B000AFF860B9607A6010
:10580000FB68BA680C3253F8223023F0F001FB68D1
:10581000BA680C3243F82210FB68BA680C3253F8AD
:1058200022207B6842EA0301FB68BA680C3243F825
:1058300022101437BD465DF8047B704780B485B0F4
:1058400000AF786039603A687B6813445A1E7B6801
:10585000B2FBF3F3FB60FB68002B02DDFB68FF2B60
:1058600002DD4FF6FF7301E0FB689BB21BB21846E6
:105870001437BD465DF8047B704700BF80B485B027
:1058800000AFF860B9601346FB71FB68BA680C3270
:1058900053F8223023F47F41FB68BA680C3243F896
:1058A0002210FB68BA680C3253F82220FB791B02E5
:1058B0009BB242EA0301FB68BA680C3243F822103B
:1058C0001437BD465DF8047B704700BF80B485B0D7
:1058D00000AFF860B960FA71BB71FB68BA680C324E
:1058E00053F8223099B2FB68BA680C3243F82210A0
:1058F000FB68BA680C3253F82220FB791B0403F4CE
:105900007F01BB791B060B4342EA0301FB68BA68BF
:105910000C3243F822101437BD465DF8047B704703
:1059200080B483B000AF78607B6808221A607B681F
:1059300020221A607B6804221A600C37BD465DF88D
:10594000047B704780B487B000AFF860B9607A60BC
:1059500000237B61BA68164B9A4201D9012321E0EA
:10596000BB685B007A68B2FBF3F3043B3B6105E084
:105970007B6901337B613B695B083B613B69FF2BC2
:1059800002D97B69062BF3D93B69DAB23B691B026A
:105990009BB21A437B691B0403F4E0231A43FB68A0
:1059A0001A61002318461C37BD465DF8047B70471A
:1059B000801A060080B588B000AF78600B46FB7097
:1059C0000023FB7207F10B037B610123BB61FB78B2
:1059D0003B7700233B7300233B6107F10C0378689E
:1059E0001946034B9847034618462037BD4680BDED
:1059F0004D5A400080B485B000AF786039603B6894
:105A0000002B01D100231BE07B681B78FB603B6807
:105A1000012B08DDFB681B02FB607B6801331B78F0
:105A2000FA681343FB603B68022B08DDFB681B022E
:105A3000FB607B6802331B78FA681343FB60FB68EA
:105A400018461437BD465DF8047B704780B586B0B4
:105A500000AF786039603B68DB687B613B689B68BE
:105A60003B617B69002B01D1012356E07B6800225A
:105A70005A603B681B7C1B0403F4FE023B685B68B6
:105A80001B0203F440731A437B685A607B68002250
:105A9000DA603A683B685B6810461946214B9847C4
:105AA00002467B68DA6019E07B681B6AFB60FB6872
:105AB00003F48073002B01D005232EE0FB6803F074
:105AC0000403002B00D109E03B695A1C3A611B78A2
:105AD0001A467B685A637B69013B7B617B69002BBB
