S0140000494D555F4672656552544F532E73726563FC
S214400000584E00209D5D4000955D4000955D400047
S214400010955D4000955D4000955D40000000000005
S214400020000000000000000000000000B962400030
S214400030955D400000000000B1634000F163400061
S214400040955D4000955D4000955D4000955D4000A3
S214400050955D4000955D4000955D4000955D400093
S214400060A9384000BD384000955D400079524000B8
S21440007091524000A9524000955D4000955D400079
S214400080955D4000955D4000955D40001D30400008
S21440009031304000D9174000955D4000955D4000E6
S2144000A0955D4000955D4000955D4000955D400043
S2144000B0955D4000955D4000955D4000955D400033
S2144000C0955D400010B5054C237833B9044B13B109
S2144000D00448AFF300800123237010BD100A0020AF
S2144000E00000000000524100084B10B51BB1084903
S2144000F00848AFF300800848036803B910BD074BB3
S214400100002BFBD0BDE81040184700BF00000000A1
S214400110140A002000524100005241000000000036
S21440012080B584B000AF786039600023FB603B68E0
S21440013000221A603B6800221A713B684FF00002AA
S2144001409A603B217868294B98470346002B43D05A
S21440015027497868274B9847B86039E0FB685A1CAF
S214400160FA60012B0BD0012B02D3022B19D02AE0C8
S214400170B868214B984702463B681A6023E0B86847
S2144001801E4B98470346002B07D0B8681C4B984731
S2144001900346DAB23B681A7115E03B6800221A71D2
S2144001A011E0B868154B98470346002B06D0B86850
S2144001B0144B984702463B689A6003E03B684FF012
S2144001C000029A6000BF0A4900200A4B9847B86070
S2144001D0BB68002BC2D105E07868074B98470246BB
S2144001E03B681A6000BF1037BD4680BDA1BD4000C9
S2144001F0083F410069D6400009024000BD02400069
S21440020049B9400041B9400080B584B000AF78603D
S2144002100023FB601AE0FA681346DB0013449B0099
S214400220134A134419467868124B98470346002BE6
S21440023009D10F49FA681346DB0013449B000B4470
S21440024020331B680FE0FB680133FB600849FA68FF
S2144002501346DB0013449B000B4420331B68064ABE
S2144002609342D8D1044B18461037BD4680BD00BFD8
S214400270C83C410071BE40000903400090B587B0BD
S21440028000AF786007F10C0319467868094B984729
S214400290FB68002B06D0FC6807F10C0393E80700C8
S2144002A0A04702E07868044B984700BF1C37BD461D
S2144002B090BD00BF210140002D03400080B483B0B4
S2144002C000AF786013E00F4B1A687B681B780133E9
S2144002D013441B7803F00403002B05D17B681B787E
S2144002E02E2B01D0002307E07B6801337B607B68C0
S2144002F01B78002BE7D1012318460C37BD4680BC3F
S214400300704700BF6C01002080B584B000AF3B1D35
S21440031083E807000348044B984700BF1037BD46A4
S21440032080BD00BF0C3F4100B116400080B582B092
S21440033000AF786079680348034B984700BF08379A
S214400340BD4680BD203F4100B116400090B585B007
S21440035000AFC7E900010023FB73104C4FF00002CA
S2144003604FF00003D7E90001A0470346002B10D00A
S2144003700B4C4FF000020B4BD7E90001A047034659
S214400380002B06D0084AD7E90034C2E900340123DE
S214400390FB73FB7B18461437BD4690BD41B2400008
S2144003A02DB240000000F03F2801002090B400AF7E
S2144003B0034B18CB18462146BD4690BC704700BF3D
S2144003C02801002090B589B000AF0346FB7107F1C5
S2144003D00802FB7911461846064B984707F1080372
S2144003E01846054B984703460C4618462146243780
S2144003F0BD4690BDC10E4000510E40002DE9F04371
S21440040087B000AFF860B9607A60B868224B98470A
S214400410C7E90401FB68D3E900457B681033D3E99C
S21440042000011E4ED7E90E23B04702460B461C4E2F
S21440043020462946B04703460C4618462146194BE7
S21440044018CB164D1A462346A84703460C469846F0
S214400450A146144B18CB144D1A4623464FF00000C5
S2144004601249A84703460C46184621460B4CD7E986
S2144004700423A04703460C461A462346084C4046EB
S2144004804946A04703460C46FA68C2E9003400BF16
S2144004901C37BD46BDE8F083510E400035AD4000E8
S2144004A0D1A9400028010020CDA940000000F03F1F
S2144004B090B482B000AF78607B6818CB234AC2E91C
S2144004C000347B6803F10804D4E90034204AC2E9CA
S2144004D000347B6803F11004D4E900341D4AC2E9B5
S2144004E000347B6803F11804D4E900341A4AC2E9A0
S2144004F000347B6803F12004D4E90034174AC2E98B
S21440050000347B6803F12804D4E90034144AC2E975
S21440051000347B6803F13804D4E90034104AC2E959
S21440052004347B6803F13004D4E900340C4AC2E951
S21440053002347B6803F14004D4E90034084AC2E937
S214400540063400BF0837BD4690BC7047300A0020CE
S214400550380A0020400A0020480A0020500A00209E
S214400560580A00202DE9F04393B000AFF860B96018
S2144005707A60934BB8689847924B18CB924D1A4680
S2144005802346A84703460C46C7E910348C4B786888
S21440059098478E4CD7E91023A04703460C4618468A
S2144005A021468B4B18CB8B4D1A462346A84703460D
S2144005B00C46874AC2E90034874BD3E90045804B56
S2144005C078689847804689467D4B78689847824B3E
S2144005D0D3E906237D4EB04702460B4610461946E1
S2144005E07D4BD3E90223784EB04702460B46104671
S2144005F01946794BD3E90423734EB04702460B465F
S21440060010461946754BD3E90023724EB047024652
S2144006100B466E4E40464946B04702460B466D4E28
S21440062020462946B04703460C466B4AC2E900348A
S214400630694BD3E90245624B78689847664BD3E9E5
S2144006400623624EB04702460B465F4E204629467A
S214400650B04703460C46604AC2E902345E4BD3E9D3
S2144006600445574B786898475B4BD3E90623574E6B
S214400670B04702460B46544E20462946B0470346EE
S2144006800C46554AC2E90434534BD3E906454C4B15
S21440069078689847524BD3E900234C4EB047024601
S2144006A00B464C4E20462946B04703460C464A4A1F
S2144006B0C2E90634484BD3E900014A4B18CB454DB6
S2144006C01A462346A84703460C46C7E90E34424B13
S2144006D0D3E90001444CD7E90E23A04703460C4615
S2144006E0C7E904343C4BD3E904013F4CD7E90E2319
S2144006F0A04703460C46C7E90634314BF86898478E
S214400700334B18CB304D1A462346A84703460C4673
S214400710C7E90C34D7E904012C4CD7E90C23A04791
S21440072003460C4618462146294B18CB294D1A46F7
S2144007302346A84703460C46254AC2E90034D7E973
S2144007400601224CD7E90C23A04703460C46184620
S21440075021461C4B18CB1F4D1A462346A847034636
S2144007600C46184AC2E900341B4B18CBC7E90A347A
S214400770194B03F10804D4E90034C7E90834164B92
S214400780D3E90045D7E90401104ED7E90A23B0471C
S21440079002460B460C4E20462946B04703460C46BA
S2144007A00D4AC2E900340C4BD3E90245D7E90401AF
S2144007B0064ED7E90823B04702460B4616E000BF70
S2144007C08DAC4000500A0020CDA9400035AD400019
S2144007D0480A0020D1A94000580A0020300A0020CC
S2144007E0380A0020400A002089AF40001C4E2046B0
S2144007F02946B04703460C461A4AC2E90234194B0A
S214400800D3E90445D7E90601174ED7E90A23B0478E
S21440081002460B46124E20462946B04703460C4633
S214400820104AC2E904340F4BD3E90645D7E906011E
S2144008300D4ED7E90823B04702460B46084E2046E1
S2144008402946B04703460C46064AC2E90634074BDB
S21440085018CB184621464C37BD46BDE8F08300BF4E
S214400860CDA94000580A002035AD4000480A002077
S21440087080B400AF064B00221A60064B00221A6076
S214400880054B00221A6000BFBD4680BC704700BFC3
S2144008908445002088450020804500200000000058
S2144008A090B585B000AF0146C7E900230B46FB7301
S2144008B0FB7B002B1BD0204C4FF000021F4BD7E990
S2144008C00001A04703460C46184621461C4C4FF0F4
S2144008D000021C4BA04703460C46194622461A4BBC
S2144008E00846114698470246184B1A601AE0124CC2
S2144008F00FA3D3E90023D7E90001A04703460C46DF
S214400900184621460E4C4FF000020E4BA0470346B9
S2144009100C46194622460C4B084611469847024656
S2144009200A4B1A6000BF1437BD4690BDAFF3008037
S214400930182D4454FB21194089AF40000080764072
S21440094035AD40000000904069B24000844500202C
S21440095090B585B000AF0346FB714FF00003204CC6
S214400960C7E90234FB79002B17D01E4B1A681E4B82
S214400970104698471D4C4FF000021D4BA0470346BB
S2144009800C46184621461B4C4FF000021A4BA04717
S21440099003460C46C7E9023416E0124B1A68124B5F
S2144009A010469847114C4FF00002114BA0470346A3
S2144009B00C46184621460F4C07A3D3E90023A04710
S2144009C003460C46C7E90234D7E9023418462146A6
S2144009D01437BD4690BD00BF182D4454FB21194026
S2144009E0000079C08445002069AC400089AF4000D3
S2144009F00000904035AD40000080764080B483B023
S214400A0000AF786039607B680B2B2DD13B68B3F51F
S214400A10003F14D0B3F5802F1FD0B3F5803F00D0F1
S214400A2022E0144B1B68002B05D0134B1B68013388
S214400A30114A136018E0114B01221A6014E00F4B64
S214400A401B68002B05D00C4B1B68013B0A4A136001
S214400A500AE0084B01221A6006E0064B00221A60A4
S214400A60064B00221A6000BF00BF0C37BD4680BC54
S214400A70704700BF80450020844500208845002000
S214400A8090B583B002AF00224FF480312848294BFE
S214400A90984701224FF480312548274B9847274BEB
S214400AA0009370234FF480320B212148244CA047FA
S214400AB04FF480311E48234B984700224FF40031B4
S214400AC01B481C4B984701224FF4003118481A4BDC
S214400AD098471A4B009370234FF400320B2114486A
S214400AE0174CA0474FF400311148164B9847002248
S214400AF04FF480210E480F4B984701224FF4802137
S214400B000B480D4B98470D4B009350234FF48022D3
S214400B100B2107480A4CA0474FF480210448094B54
S214400B209847094B984700BF0437BD4690BD00BF65
S214400B30000E0E40B94B40009D4C4000FD09400061
S214400B4011524000394D40007108400090B585B0C4
S214400B5002AF78603223A3F1300213469B00134461
S214400B605B001A463023303B1A4413469B0013441E
S214400B705B001A463123303B1A4413469B0013440D
S214400B805B001A463723303B1344A3F5FA633C4ACE
S214400B9002FB03F26E236E2B06D16123612B01D13B
S214400BA0384B2FE0384B2DE06E23622B29D06E2336
S214400BB0722B06D14A234D2B01D1344B22E0344BC5
S214400BC020E06E23792B1AD06E236C2B15D06E2323
S214400BD0672B10D06E23702B0BD06E23742B06D051
S214400BE06E23762B01D12B4B0CE02B4B0AE02B4B84
S214400BF008E02B4B06E02B4B04E02B4B02E02B4B44
S214400C0000E02B4BD1183123202B08D03123A3F101
S214400C10300213469B0013445B001A4600E0002255
S214400C203723303B134442F2107202FB03F319445D
S214400C303223A3F1300213469B0013445B001A464E
S214400C403323303B1344642202FB03F3194433231B
S214400C50A3F1300213469B0013445B001A46392327
S214400C60303B13440B44019303230093002300229C
S214400C7010497868104CA04700BF0C37BD4690BD61
S214400C8000E1F50540420F00808D5B00C0C62D0098
S214400C9000093D00C0D8A700001BB700809698000A
S214400CA04054890000127A00C0CF6A00404B4C0086
S214400CB080841E00383F410015BD400080B483B09C
S214400CC000AF78607B68072B25D801A252F823F046
S214400CD0F10C4000F70C4000FD0C4000030D4000B6
S214400CE0070D40000B0D40000F0D4000130D400057
S214400CF04FF4FA4310E04FF400430DE04FF4004346
S214400D000AE0084B08E0084B06E0084B04E0074BB7
S214400D1002E0064B00E0002318460C37BD4680BC78
S214400D20704700BF00093D0000127A00001BB70064
S214400D3080B500AF0620034B98470346DB001846B5
S214400D4080BD00BFBD0C400080B500AF024B984749
S214400D5003465B08184680BD310D400080B584B020
S214400D6000AF03463960FB710023FB730C4B0D4903
S214400D70386898470346002B0DD00B4B0B49386814
S214400D8098470346002B06D0FB7909493A6841F854
S214400D9023200123FB73FB7B18461037BD4680BDDE
S214400DA0EDB840000000FAC4B1B840000000FA4474
S214400DB03001002080B483B000AF0346FB71FB795E
S214400DC0034A52F8233018460C37BD4680BC70475D
S214400DD03001002080B584B000AF03463960FB7117
S214400DE00023FB730C4B0D49386898470346002B8D
S214400DF00DD00B4B0B49386898470346002B06D05E
S214400E00FB7909493A6841F823200123FB73FB7BB1
S214400E1018461037BD4680BDEDB840000000FAC405
S214400E20B1B840000000FA443C01002080B483B0D2
S214400E3000AF0346FB71FB79034A52F8233018464D
S214400E400C37BD4680BC70473C01002000000000C7
S214400E50B0B584B000AF78604FF000034FF00004A8
S214400E60C7E902347B680833D3E900017B6818CBB6
S214400E700F4D1A462346A84703460C4618462146B9
S214400E800C4B98470C4C08A3D3E90023A0470346D5
S214400E900C46C7E90234D7E90234184621461037D3
S214400EA0BD46B0BDAFF30080F8C1631ADCA54C4028
S214400EB089AF40004597400035AD40000000000037
S214400EC02DE9F04F87B000AF03463960FB7103222F
S214400ED04B4938684B4B984707F10C0300221A6081
S214400EE09A800023BB820023FB7507F10C01F8793A
S214400EF006233B22444EB0470346FB7497F9133013
S214400F00002B74D10023FB756DE0FB7D5B0007F181
S214400F101802134413F80C3C1B021AB2FB7D5B000C
S214400F20013307F118010B4413F80C3C1BB2134372
S214400F301BB2BB82B7F91430002B16DBFB7DDB00FF
S214400F403A68D618BA8A314B104698470246304B14
S214400F50104698472F4B1C4627A3D3E90023A047AB
S214400F6002460B46C6E900231EE0BB8A5B429BB2A4
S214400F70C3F30E03BB82FB7DDB003A68D618BA8A01
S214400F80224B104698470246214B10469847214B25
S214400F901C4619A3D3E90023A04702460B469246B7
S214400FA083F0004BC6E900ABFB7DDB003A68D61801
S214400FB0FB7DDB003A681344D3E90089FB7D164A83
S214400FC052F82320124B1046984702460B461349C8
S214400FD00C4640464946A04702460B46C6E9002313
S214400FE0FB7D0133FB75FB7D022B8ED900E000BFF5
S214400FF01C37BD46BDE8F08FFCA9F1D24D623040AB
S21440100080C1FFFF19BB4000E5134000C5B4400057
S2144010108DAC400089AF400030010020D1A940008F
S214401020F0B589B000AF0346B960FB730322494967
S214401030B868494B984707F1140300221A609A8013
S2144010400023BB830023FB7707F11401F87B0623BC
S2144010504322424CA0470346FB7697F91B30002BB1
S21440106073D10023FB776CE0FB7F5B0007F1200227
S214401070134413F80C3C1B021AB2FB7F5B0001338F
S21440108007F120010B4413F80C3C1BB213431BB270
S214401090BB83B7F91C30002B16DBFB7FDB00BA683E
S2144010A0D518BA8B2E4B1046984702462D4B2E49E4
S2144010B01046984703461A462C4B10469847034618
S2144010C00C46C5E900341CE0BB8B5B429BB2C3F3C5
S2144010D00E03BB83FB7FDB00BA68D518BA8B204B68
S2144010E01046984702461F4B1F49104698470346EE
S2144010F083F000421D4B1046984703460C46C5E910
S2144011000034FB7FDB00BA68D618FB7FDB00BA688A
S2144011101344D3E90045FB7F154A52F82320134B6E
S2144011201046984702460B461249796020462946A3
S2144011307C68A04703460C46C6E90034FB7F013373
S214401140FB77FB7F022B8FD900E000BF2437BD46DC
S214401150F0BD00BF80C1FFFF19BB4000E513400053
S214401160C5B44000DDB64000000003438DAC4000EF
S2144011703C010020D1A9400080B582B000AFFF23DB
S214401180FB7103233B60204B98470346002B05D05A
S2144011901E481F4B98474FF0FF3331E068211D48EB
S2144011A01D4B984738603B68002B0CD168201B4B82
S2144011B098470346FB7197F90730002B06D018482E
S2144011C0134B984702E01748114B9847692111483E
S2144011D0114B984738603B68002B0CD169200F4B69
S2144011E098470346FB7197F90730002B06D00E4808
S2144011F0074B984702E00D48054B984797F907304C
S21440120018460837BD4680BD31124000443F410075
S214401210B11640000080014075594000A1124000C0
S214401220543F41006C3F4100803F41009C3F41009D
S21440123090B587B000AF124B3C1D0FCB84E80F0033
S2144012403B1D19460F48104B984702460F4B1A60F5
S2144012500E4B1B68002B03D10D4B984700BFFDE794
S2144012600C4B984703461A460B4906480B4B984783
S2144012700346FB75FB7D18461C37BD4690BD00BF38
S214401280B03F410000800140892640008C45002048
S21440129095634000490D4000801A060005594000FD
S2144012A080B584B000AF0346FB710023FB73FB7927
S2144012B0192200211846314B98470346FB7397F98D
S2144012C00F30002B01D0FB7B54E0FB791A22002123
S2144012D018462A4B98470346FB7397F90F30002B66
S2144012E001D0FB7B46E0FB791B2200211846234BAE
S2144012F098470346FB7397F90F30002B01D0FB7BD2
S21440130038E0FB791C22002118461C4B98470346C0
S214401310FB7397F90F30002B01D0FB7B2AE0FB795B
S214401320382200211846154B98470346FB7397F919
S2144013300F30002B01D0FB7B1CE0FB796A2200219A
S21440134018460E4B98470346FB7397F90F30002B11
S21440135001D0FB7B0EE0FB796B2200211846074B41
S21440136098470346FB7397F90F30002B01D0FB7B61
S21440137000E0FB7B18461037BD4680BD8113400019
S21440138090B589B000AF0346FB710B46BB71134660
S2144013907B7107F1080300221A605A609A60DA608F
S2144013A01A617B793B720123FB60BB1D3B610123C5
S2144013B07B61FB793B761223FB77084B186807F175
S2144013C0080100234FF0FF32054CA0470346FB7749
S2144013D097F91F3018462437BD4690BD8C450020EF
S2144013E00928400090B589B000AF396011461A46CA
S2144013F00346FB710B46BB7113467B7107F108032E
S21440140000221A605A609A60DA601A61BB793B72B1
S2144014100123FB603B683B617B797B61FB793B76D4
S2144014201223FB77084B186807F1080100234FF09A
S214401430FF32064CA0470346FB7797F91F30184605
S2144014402437BD4690BD00BF8C4500204D2A400045
S21440145080B483B000AF78607B68072B25D801A2A4
S21440146052F823F0851440008B144000911440003D
S214401470971440009B1440009F144000A314400063
S214401480A71440004FF4FA4310E04FF400430DE039
S2144014904FF400430AE0084B08E0084B06E0084BD0
S2144014A004E0074B02E0064B00E0002318460C37EA
S2144014B0BD4680BC704700BF00093D0000127A0060
S2144014C0001BB70080B500AF0620034B9847034685
S2144014D0DB00184680BD00BF5114400080B500AF09
S2144014E0024B984703465B08184680BDC51440002B
S2144014F080B582B000AF78600B46FB707B68204AB0
S21440150093420AD100BFFB78194678681D4B98472E
S2144015100346002BF7D101232DE07B681A4A9342FD
S2144015200AD100BFFB7819467868164B98470346A1
S214401530002BF7D101231EE07B68144A93420AD160
S21440154000BFFB7819467868114B98470346002B36
S214401550F7D101230FE07B680E4A93420AD100BFC1
S214401560FB78194678680A4B98470346002BF7D114
S214401570012300E0002318460837BD4680BD00BF63
S21440158000060E40D15C400000080E40004002407D
S214401590315D40000080024080B584B000AF786086
S2144015A039600023FB607B681F4A934207D100BF27
S2144015B0396878681D4B98470346002BF8D17B68FE
S2144015C01B4A934207D100BF39687868174B984743
S2144015D00346002BF8D17B68164A93420DD100BFD4
S2144015E007F10C0319467868134B98470346002BBF
S2144015F0F6D1FB68DAB23B681A707B680F4A9342B2
S2144016000DD100BF07F10C03194678680A4B98477E
S2144016100346002BF6D1FB68DAB23B681A7000BF6F
S2144016201037BD4680BD00BF00060E40015D40003D
S21440163000080E4000400240615D400000800240CD
S21440164090B587B002AF78603960F123FB73094BE1
S2144016501868002300934FF0FF333A687968064CC9
S214401660A0470346FB7397F90F3018461437BD461C
S21440167090BD00BFC44500201533400090B585B0EE
S21440168000AF786039600023FB60074B18684FF066
S214401690FF333A687968054CA047F860FB681846FF
S2144016A01437BD4690BD00BFC4450020C933400036
S2144016B00FB480B584B000AFF123FB7340F2044012
S2144016C0104B9847B86000237B6007F11C033B60D3
S2144016D03A68B969B8680C4B984703467B607968A6
S2144016E0B8680A4B98470346FB73B868084B984758
S2144016F097F90F3018461037BD46BDE8804004B015
S214401700704700BF5564400079FE400041164000D7
S2144017106165400080B588B000AF214B3B61214BEE
S2144017201B687B610A23BB6101233B7703237B77DE
S2144017301D4B984703467B604FF4E133BB604FF444
S2144017400063FB60194B1A4A1A601A4B1A4A1A6011
S2144017501A4B1B4A1A601B4B1B689B680021184695
S214401760194B9847174B1B685B6800211846164B69
S214401770984707F110023B1D19460D48134B9847F2
S2144017800246134B1A60124B1B68002B03D1114BB9
S214401790984700BFFDE700BF2037BD4680BD00BF6D
S2144017A09045002048010020DD144000E44500201C
S2144017B000060E40E0450020F1144000DC450020C5
S2144017C09915400098050020B5BB400045304000C4
S2144017D0C44500209563400080B500AF014B984754
S2144017E000BF80BDA945400080B500AF0E4BB0227B
S2144017F01A600D4BDC225A600B4B00229A600A4B53
S2144018006FF07F42DA60094B98470748084B984785
S2144018100820084B9847084B98474FF6FF70074BF1
S214401820984700BF80BD00BFCC450020793F4000B0
S21440183065434000ED3E4000DD4540006D464000BB
S214401840F0B5A5B004AF7860674B9847002387F89B
S2144018507F300020654B9847654A0A210520654B36
S21440186098474FF4FA70644B984707F16003182284
S21440187000211846614B9847002387F87F301BE0CD
S21440188097F87F305E4A52F8230097F87F3007F18A
S2144018906002DB00D11801234FF0FF32594CA047BD
S2144018A0B867BB6F012B02D00020574B984797F87C
S2144018B07F30013387F87F3097F87F30022BDFD9AF
S2144018C007F148031822002118464C4B984700233E
S2144018D087F87F301BE097F87F304C4A52F8230059
S2144018E097F87F3007F14802DB00D11801234FF00C
S2144018F0FF32444CA047B867BB6F012B02D0002094
S214401900414B984797F87F30013387F87F3097F8F8
S2144019107F30022BDFD907F130031822002118460A
S214401920364B9847002387F87F301BE097F87F3088
S214401930374A52F8230097F87F3007F13002DB0031
S214401940D11801234FF0FF322E4CA047B867BB6F2B
S214401950012B02D000202C4B984797F87F3001335C
S21440196087F87F3097F87F30022BDFD96FF07F40C3
S2144019701E4B9847DC23B0221E210020254CA04752
S21440198000201A4B9847D7E91856D7E91A34D7E9B2
S214401990101207F10800CDE90212CDE900342A46BC
S2144019A033461D491D4CA04707F108031A461E2121
S2144019B00520104B9847D7E91256D7E91434D7E993
S2144019C0161207F10800CDE90212CDE900342A4686
S2144019D033461349114CA04707F108031A466E21B7
S2144019E00520044B98473CE7E9174000094640006D
S2144019F0C03F4100554940003D72400019BB400081
S214401A003C460020756B400091714000F045002038
S214401A10FC450020B5474000D03F410015BD400082
S214401A200040410080B582B000AF78602E20074B62
S214401A309847074B01221A70064B1B681846064B00
S214401A40984700BF0837BD4680BD00BFD13D400027
S214401A50780A0020C8450020AD73400090B587B096
S214401A6000AF3B1D83E80700FB687B613B7A002B99
S214401A7038D0012B00D04CE0284B4FF0000178695D
S214401A8098470346002B22D0254B2649786998472D
S214401A9003461A46244B104698470246234B1A6084
S214401AA0224B1A68224B104698470246214B1D4946
S214401AB01046984703461A461F4B1046984703461B
S214401AC00C461A4623461D481D49884721E01A4BB6
S214401AD07869984703460C461A46234619481849DB
S214401AE0884716E0114B1A68114B10469847024635
S214401AF0104B0C491046984703461A460E4B104664
S214401B00984703460C461A4623460C480C498847D5
S214401B1000BF00BF1C37BD4690BD00BFEDB84000BB
S214401B2075B5400000007A4401B940004C010020E1
S214401B30C5B44000DDB640008DAC40004C4041008E
S214401B40B11640006440410090B587B002AF3B1DDF
S214401B5083E807000E4B1B68002B15D00D4B1B6807
S214401B6018460D4B98472E200C4B98470C4B186840
S214401B70074B1A684FF0FF33009300230221094CAD
S214401B80A047094B02221A7000BF1437BD4690BDCD
S214401B904C010020C8450020A5724000293E400068
S214401BA06845002055824000780A00202DE9F04F15
S214401BB0B5B012AF7863002387F88730002387F8E4
S214401BC08630784B1B78012B0DD1774B1868002355
S214401BD04FF0FF320021754CA047724B00221A701E
S214401BE07348744B9847704B186800234FF0FF3289
S214401BF000216E4CA04707F16803182200211846C2
S214401C006D4B9847002387F887301DE097F887305C
S214401C106A4A52F8230097F8873007F16802DB00DB
S214401C20D11801234FF0FF32604CA047C7F8800020
S214401C30D7F88030012B02D01920614B984797F88F
S214401C408730013387F8873097F88730022BDDD905
S214401C5007F15003182200211846574B9847002397
S214401C6087F887301DE097F88730564A52F82300A9
S214401C7097F8873007F15002DB00D11801234FF068
S214401C80FF324A4CA047C7F88000D7F88030012B77
S214401C9002D019204A4B984797F88730013387F887
S214401CA0873097F88730022BDDD907F138031822A2
S214401CB000211846404B9847002387F887301DE0A0
S214401CC097F88730404A52F8230097F8873007F154
S214401CD03802DB00D11801234FF0FF32334CA047C7
S214401CE0C7F88000D7F88030012B02D01920344B3B
S214401CF0984797F88730013387F8873097F88730CA
S214401D00022BDDD9D7E91A34C7E90A34D7E91CAB28
S214401D10D7E91E12C7E90812D7E90E01C7E906013E
S214401D20D7E91045C7E90445D7E91256C7E9025630
S214401D30D7E91489C7E90089D7E91689D7E918563B
S214401D400120224B984703460C46CDE91034CDE996
S214401D500E56CDE90C89D7E90089CDE90A89D7E93D
S214401D600256CDE90856D7E90445CDE90645D7E9F8
S214401D700601CDE90401D7E90812CDE90212CDE902
S214401D8000ABD7E90A2312480A498847034687F832
S214401D90863097F98630002B3FF413AF1920084B56
S214401DA098470EE7780A00206C450020756B400087
S214401DB080404100B116400019BB40003C46002020
S214401DC0054E4000F0450020FC45002051094000EB
S214401DD08840410090B595B002AF786007F10C039B
S214401DE0322200211846204B984700237B6400236C
S214401DF03B641E4B0093002300224FF47A711C482C
S214401E001C4CA04702461C4B1A6007F13F030121B9
S214401E1018461A4B984738643B6C012BF5D197F817
S214401E203F300D2B0ED107F10C031846144B984744
S214401E3007F10C033222002118460B4B984700232B
S214401E407B64E2E77B6C5A1C7A6497F83F2007F184
S214401E5048010B4403F83C2C07F10C027B6C1344FE
S214401E6000221A70D1E700BF19BB4000251A400077
S214401E70C8404100D9814000684500207D1640009A
S214401E807D02400080B582B000AF78607B68072B4B
S214401E9031D801A252F823F0F51E4000B91E40008A
S214401EA0C11E4000C91E4000D11E4000D91E400041
S214401EB0E11E4000EB1E40000020114B98471AE000
S214401EC001200F4B984716E000200E4B984712E033
S214401ED010200C4B98470EE020200A4B98470AE00B
S214401EE03E210020084B984705E03E210120064B46
S214401EF0984700E000BF00BF0837BD4680BD00BF22
S214401F0041534000AD5340001D54400080B582B060
S214401F1000AF78607B68072B26D801A252F823F0E2
S214401F20411F4000451F4000451F4000571F4000CE
S214401F30571F4000571F4000571F4000571F400084
S214401F40012312E00B4B98470346002B14BF012396
S214401F500023DBB209E0084B98470346002B14BF2A
S214401F6001230023DBB200E0002318460837BD46B5
S214401F7080BD00BF795340009554400080B483B084
S214401F8000AF78607B68072B25D801A252F823F073
S214401F90B11F4000B71F4000BD1F4000C31F400098
S214401FA0C71F4000CB1F4000CF1F4000D31F40003C
S214401FB04FF4FA4310E04FF400430DE04FF4004373
S214401FC00AE0084B08E0084B06E0084B04E0074BE5
S214401FD002E0064B00E0002318460C37BD4680BCA6
S214401FE0704700BF00093D0000127A00001BB70092
S214401FF080B582B000AF0346FB7100BFFB79184640
S214402000054B9847034683F00103DBB2002BF5D11E
S21440201000BF0837BD4680BD0D1F400080B586B066
S21440202000AFF8607A603B600B46FB72FB7A18465E
S2144020300D4B984702467B68B2FBF3F37B617B69A6
S2144020403A6802FB03F37B613B68013B1A04074B8B
S21440205013407A68D2B2134343F47C52FB681A604A
S21440206000BF1837BD4680BD7D1F40000000FF07FB
S21440207080B582B000AF786039603B68002B07D1EE
S214402080054B9847054A7B681B6843F000539362AC
S21440209000BF0837BD4680BDAD54400000040E402A
S2144020A080B582B000AF78607B68002B03D1044BCC
S2144020B09847034600E0002318460837BD4680BDD3
S2144020C0C554400080B582B000AF0346FB71FB7933
S2144020D0033B042B08D8FB791846064B9847FB79F8
S2144020E01846054B984700E000BF00BF0837BD467E
S2144020F080BD00BF851E4000F11F400080B582B005
S21440210000AF786000BF7868044B98470346002BC2
S214402110F9D0002318460837BD4680BDA1204000B0
S21440212080B500AF0620034B98470346DB001846B1
S21440213080BD00BF7D1F400080B500AF024B984772
S21440214003465B08184680BD2121400090B583B009
S21440215000AF1148114B98470620114B9847381D41
S2144021600823012206210F4CA0473B1D002118469C
S2144021700D4B984700200D4B984710200C4B984726
S2144021800C4B98470C4B984703461846034B9847CA
S21440219000BF0C37BD4690BD006CDC02C500002079
S2144021A0C52040001D20400071204000FD2040001A
S2144021B0C1524000455E40003921400080B483B0A3
S2144021C000AF0346FB71084997F907305B09FA7977
S2144021D002F01F02012000FA02F241F8232000BF5D
S2144021E00C37BD4680BC704700E100E080B483B049
S2144021F000AF0346FB71094997F907305B09FA7946
S21440220002F01F02012000FA02F2603341F8232058
S21440221000BF0C37BD4680BC704700BF00E100E001
S21440222080B483B000AF03463960FB7197F907303E
S214402230002B0BDA0D49FB7903F00F03043B3A6899
S214402240D2B21201D2B20B441A7609E0084997F985
S21440225007303A68D2B21201D2B20B4483F8002358
S21440226000BF0C37BD4680BC704700BF00ED00E0A5
S21440227000E100E080B487B000AFF860B9607A60F3
S21440228000237B610AE07B691B01FA6813441A68E5
S2144022907B689A4207D07B6901337B617A69BB6869
S2144022A09A42F0D300E000BF7B6918461C37BD4613
S2144022B080BC704780B487B000AF0346B9607A6090
S2144022C0FB730023FB7500233B610CE03B69BA6857
S2144022D013441B78FA7B9A4202D10123FB7506E031
S2144022E03B6901333B613A697B689A42EEDBFB7D92
S2144022F018461C37BD4680BC704700BF90B585B0B9
S21440230000AF0346B9607A60FB73FB7B03F00103C2
S214402310002B0DD00120354B98470246BB685A60CB
S214402320BB685B68002B03D1314B984700BFFDE785
S214402330FB7B03F00403002B22D003220021012064
S2144023402C4B98470246BB681A60BB681B68002B3C
S21440235006D0BB681868002300220021264CA04700
S214402360BB681B68002B03D1214B984700BFFDE795
S214402370BB681868002300220021204CA04702E0DA
S214402380BB6800221A60FB7B03F00803002B25D0B5
S2144023907B68002B22D0032200210120154B984752
S2144023A002467B681A607B681B68002B06D07B68F9
S2144023B018680023002200210F4CA0477B681B684A
S2144023C0002B03D10A4B984700BFFDE77B6818688F
S2144023D0002300220021094CA04702E07B6800222F
S2144023E01A6000BF1437BD4690BD00BF6968400004
S2144023F095634000D167400051694000756B4000CE
S21440240080B582B000AF03463960FB713B680F2B46
S21440241003D90F4B984700BFFDE73B68092B03D80D
S2144024200B4B984700BFFDE797F907301846094B16
S214402430984797F9073039681846074B984797F9F1
S21440244007301846054B984700BF0837BD4680BD45
S21440245095634000ED21400021224000BD21400010
S21440246090B587B000AFF860B9607A603B60FB68B3
S2144024709B693B61BA683B699A420CD1FB68DB6852
S214402480002B05D1FB685A683B69D31A7B6110E084
S21440249000237B610DE0BA683B699A4204D9BA686A
S2144024A03B69D31A7B6104E0FB685A683B69D31AE0
S2144024B07B613A687B699A4202D97B693B600AE055
S2144024C03A687B699A4206D0FB6818690023002266
S2144024D00021144CA047FB689B693A681946786807
S2144024E0114B98473A693B6813443B61FB685A680E
S2144024F03B699A4209D80D4B9847FB681B681A46B9
S214402500FB689A610A4B984706E0084B98473A6939
S214402510FB689A61064B98473B6818461C37BD4691
S21440252090BD00BF516940002DBA40004D63400049
S2144025306D63400090B587B000AF78603960002387
S214402540FB757B685B68002B1ED007F10C031846B2
S214402550104B98477B6858683B681A6800230021F0
S2144025600D4CA0470346002B02D1FD23FB750BE024
S21440257007F10C0339681846084B98470346012B69
S21440258002D13B6800221A6097F9173018461C376C
S214402590BD4690BD297B4000756B4000657B400082
S2144025A090B587B000AFF860B9607A603B60BB6AB0
S2144025B0002B02D0FB68BA6A1A60FB681B68002BC7
S2144025C006D0FB681868002300220021174CA0475D
S2144025D0BB683B617B687B6197F82C30002B11D041
S2144025E04FF400713868124B984707F110030022E9
S2144025F0194638680F4B98474FF4807138680E4B31
S21440260098470EE002213868094B984707F11003B7
S214402610002219463868094B984701213868064B0E
S214402620984700BF1C37BD4690BD00BF756B400045
S2144026305D4A4000B54940003D4A4000F9494000E7
S21440264090B587B000AFF860B9607A600023FB753C
S214402650BB68002B0FD1FB681B68002B0BD0FB68B8
S214402660186800237A680021064CA0470346012BD1
S21440267001D0FD23FB7597F9173018461C37BD4629
S21440268090BD00BF756B400080B586B000AF7860E7
S214402690396003233B737A6801214B484B4B98477C
S2144026A038613B681B7B07F10C0101221846484BFA
S2144026B098470346FB733B69002B7DDCFB7B002B76
S2144026C07AD03B69DB00434A134408224249184605
S2144026D0424B98470346002B03D0414B984700BFD8
S2144026E0FDE73B69DB003F4A134408223A49184657
S2144026F03A4B98470346002B03D0394B984700BFC8
S214402700FDE7314A3B691B01134408331B681846F2
S214402710354B98472C4A3B691B01134404331B68CE
S21440272040F202211846314B9847274A3B691B0125
S21440273013441B684FF0FF3118462D4B9847224AEA
S2144027403B691B0113441B6818462A4B98473B6855
S2144027501B7B032B00D008E01B4A3B691B0113443C
S2144027601B681846244B984700BF3B68587B3B691C
S214402770DB00184A99183B69DB001A4A13441A468C
S2144027801E4B9847104A3B691B0113441B684FF485
S214402790507118461A4B98470B4A3B691B01134425
S2144027A00C3393F900203B689B6819461046154B3E
S2144027B098477B687B6101E000237B617B69184614
S2144027C01837BD4680BD00BFDC4041007522400042
S2144027D0B52240007C0A0020D4404100C9B94000E0
S2144027E095634000840A0020DD5440005D4A400066
S2144027F0095B4000715B4000E1584000FD2240000C
S214402800ED5A40000124400090B58DB002AFF8600C
S214402810B9607A603B6000233B62FB68BB61BA6983
S21440282001218048804B984778617B69002B00F3F4
S214402830F080BB68DB68002B00F0EB807B69DB0038
S2144028407A4A13443A1D11461846794B9847034630
S21440285087F8273097F92730002B40F0DD80BB699A
S21440286000225A60BB681B7C1B0403F4FE02BB6854
S2144028705B681B0203F440731A43BB695A60BB682B
S2144028805B68002B1CD0BB681B783B62BB685B68F0
S214402890012B08D93B6A1B023B62BB685B781A4631
S2144028A03B6A13433B62BB685B68022B08D93B6AB2
S2144028B01B023B62BB689B781A463B6A13433B62EB
S2144028C0BB693A6ADA60BB68DB68012B6BD10023D0
S2144028D0FB61544A7B691B0113441B684FF45071DB
S2144028E01846544B9847BB689B681B781A46BB698A
S2144028F05A63BB691B6A3B613B6903F48073002BD8
S21440290016D0484A7B691B0113441B684FF450712C
S2144029101846494B9847454A7B69DB00134458683C
S214402920002300220021454CA0476FF0090375E0C4
S2144029303B6903F00403002B0AD1FB690133FB61BA
S214402940FB69B3F1FF3FD4D1FD2387F8273000E081
S21440295000BFBB6902221A600AE0FB690133FB61D3
S214402960FB69B3F1FF3F03D1FD2387F8273005E02D
S214402970BB691B6A03F00103002BEED0294A7B6932
S2144029801B0113441B684FF4507118462A4B984756
S214402990264A7B69DB001344586800230022002146
S2144029A0264CA04738E0BB689A6825497B6941F8C1
S2144029B03320BB68DA6822497B69DB000B445A60E7
S2144029C07B69DB00194A9818BB689968BB68DB6866
S2144029D05C1E144A7B691B01134404331A680123A6
S2144029E001933B68009313462246164CA0474FF48B
S2144029F00051B869104B98477B69DB000B4A13447B
S214402A007A6839681846104B9847034687F8273047
S214402A1002E0F82387F8273097F9273018462C37F6
S214402A20BD4690BDDC404100752240007C0A002037
S214402A3035254000095B4000ED5A40005169400092
S214402A408C0A0020A12540004126400090B591B058
S214402A5002AFF860B9607A603B6000233B63FB6876
S214402A60FB61FA6901219A489A4B9847B861BB695D
S214402A70002B00F32481BB68DB68002B00F01F812D
S214402A80BB69DB00944A13443A1D11461846934BE3
S214402A909847034687F8373097F93730002B40F091
S214402AA01181F8698E4B9847FB6900225A60BB68D3
S214402AB01B7C1B0403F4FE02BB685B681B0203F42A
S214402AC04073134343F48052FB695A60BB685B68AB
S214402AD0002B1CD0BB681B783B63BB685B68012B34
S214402AE008D93B6B1B023B63BB685B781A463B6B63
S214402AF013433B63BB685B68022B08D93B6B1B02E6
S214402B003B63BB689B781A463B6B13433B63FB694E
S214402B103A6BDA60BB68DB68022B00F297806C4A3F
S214402B20BB691B0113441B684FF4507118466D4B2C
S214402B309847002387F82F30BB68DB68BB62BB68CA
S214402B409B687B6200233B62BB6A012B06D1FB6914
S214402B5003221A60012387F82F304BE0FB690122DD
S214402B601A6047E0FB691B6A7B617B6903F48073EC
S214402B70002B16D0564ABB691B0113441B684FF402
S214402B8050711846584B9847534ABB69DB0013446C
S214402B905868002300220021544CA0476FF00903D8
S214402BA092E0BB6A012B09D197F82F30002B05D154
S214402BB0FB6902221A60012387F82F307B6903F0F5
S214402BC00203002B0AD13B6A01333B623B6AB3F1F6
S214402BD0FF3F0FD1FD2387F837300EE07B6A5A1C43
S214402BE07A62FA69126BD2B21A70BB6A013BBB6258
S214402BF000233B62BB6A002BB4D100233B620AE051
S214402C003B6A01333B623B6AB3F1FF3F03D1FD238E
S214402C1087F8373005E0FB691B6A03F00103002B99
S214402C20EED02B4ABB691B0113441B684FF450710E
S214402C3018462D4B9847284ABB69DB001344586812
S214402C40002300220021294CA0473BE0BB689A683D
S214402C502749BB6941F83320BB68DA682449BB6919
S214402C60DB000B445A60BB69DB00224A9818BB68FD
S214402C709968BB68DB689C1E154ABB691B011344F8
S214402C8004331A68002301933B6800931346224698
S214402C90194CA047FB6901221A604FF48051F8692D
S214402CA0114B9847BB69DB00124A13447A6839686F
S214402CB01846124B9847034687F8373002E0F82309
S214402CC087F8373097F9373018463C37BD4690BDC1
S214402CD0DC404100752240007C0A0020352540003B
S214402CE0595B4000095B4000ED5A40005169400086
S214402CF08C0A0020840A0020A1254000412640007E
S214402D0090B58BB000AF78600023BB60002387F897
S214402D1027307F4A7B681B0113441B68BB61B86938
S214402D207C4B98477861B8697B4B984702467B69ED
S214402D3013407B617B6903F40053002B71D0744AC7
S214402D407B681B01134404331B684FF4007118461C
S214402D50724B98474FF40051B869714B984700231F
S214402D603B62BB691B6AFB74FB7C03F00403002BCD
S214402D700AD13B6A01333B623B6AB3F1FF3FF0D175
S214402D80012387F8273000E000BFBB6902221A60A3
S214402D90644A7B6852F8332062497B68DB000B4408
S214402DA05B68013B13441B781A46BB695A63BB6990
S214402DB01B6AFB74FB7C03F00103002B0AD13B6AC1
S214402DC001333B623B6AB3F1FF3FF0D1012387F802
S214402DD0273000E000BF544A7B68DB0013445B6842
S214402DE0002B0AD0504A7B68DB001344586807F132
S214402DF00802002300214D4CA0473B6AB3F1FF3F39
S214402E000FD0494A7B6852F83330002B09D0464AE7
S214402E107B6852F8330007F1080200230021434C38
S214402E20A0477B6903F48053002B00F0A880002362
S214402E30FB61374A7B681B01134404331B6802213D
S214402E401846364B98474FF48051B869344B9847EC
S214402E50BB691B6AFB60FB6803F00203002B07D1CB
S214402E60FB690133FB61FB69B3F1FF3F02D0EFE73B
S214402E7000BF00E000BFBB6902221A60294A7B6897
S214402E8052F8332027497B68DB000B445B68023BE3
S214402E901344BA69126BD2B21A70BB691B6AFB60E4
S214402EA0FB6803F00203002B07D1FB690133FB618B
S214402EB0FB69B3F1FF3F02D0EFE700BF00E000BF81
S214402EC0FB69B3F1FF3F34D0164A7B6852F8332093
S214402ED014497B68DB000B445B68013B1344BA69CA
S214402EE0126BD2B21A700023FB61BB691B6AFB608F
S214402EF0FB6803F00103002B1AD1FB690133FB6129
S214402F00FB69B3F1FF3FF0D1012387F8273010E08B
S214402F10DC404100295B4000415B40005D4A400088
S214402F20095B40008C0A00207C0A0020B96A4000F9
S214402F3000BF334A7B68DB0013445B68002B0AD033
S214402F402F4A7B68DB001344586807F108020023C9
S214402F5000212C4CA047FB69B3F1FF3F0FD02A4A13
S214402F607B6852F83330002B09D0274A7B6852F8EA
S214402F70330007F1080200230021224CA0477B695A
S214402F8003F45073002B03D197F82730002B2ED034
S214402F901E4A7B681B01134404331B6840F202211F
S214402FA018461B4B98477B6903F48073002B02D16D
S214402FB0BB6902221A604FF40051B869154B984716
S214402FC04FF48051B869134B98470D4A7B68DB0035
S214402FD013445B68002B0AD0094A7B68DB00134425
S214402FE0586807F1080200230021064CA047BB683A
S214402FF0002B01D0084B984700BF2C37BD4690BDEC
S2144030007C0A0020B96A4000840A0020DC40410067
S2144030105D4A4000095B40003563400080B500AF24
S2144030200020024B984700BF80BD00BF012D4000E6
S21440303080B500AF0120024B984700BF80BD00BF5F
S214403040012D400080B588B000AFF860B9607A6066
S21440305001233B75FA68012199489A4B9847B86115
S2144030607B681B7B07F1140101221846964B984754
S2144030700346FB75BB69002B00F31A81FB7D002BD2
S21440308000F016819149BA691346DB009B1A9B00F3
S2144030900B4418331B68002B03D08D4B984700BF5A
S2144030A0FDE7F8688B4B9847F8688B4B9847844AFF
S2144030B0BB691B01134404331B6840F202211846C7
S2144030C0864B98477E4ABB691B01134408331B68EE
S2144030D01846834B98477B681B7B012B00D004E047
S2144030E0B968F8687F4B984700BF4FF0FF31F868E3
S2144030F07D4B98477B68587BBB69DB007B4A134413
S214403100002219467A4B98477B681B68002B00F0D4
S214403110A68000214FF0FF30764B98476B49BA693E
S2144031201346DB009B1A9B000B441033186067491C
S214403130BA691346DB009B1A9B000B4410331B688E
S214403140002B03D1624B984700BFFDE77B681B68A6
S21440315018465E49BA691346DB009B1A9B000B442F
S214403160083318607B6859685848BA691346DB00CC
S2144031709B1A9B0003440C331960514ABB691B01E0
S214403180134404331868BA691346DB009B1A9B0045
S21440319008334E4A134400221946574B98477B68DB
S2144031A019684A48BA691346DB009B1A9B000344D9
S2144031B0183319604549BA691346DB009B1A9B00D1
S2144031C00B44083319684148BA691346DB009B1A1A
S2144031D09B00034419603D49BA691346DB009B1ABD
S2144031E09B000B441A687B685B68D1183748BA69FD
S2144031F01346DB009B1A9B000344043319607B682C
S2144032005B7B03F00203002B1AD001203B4B984710
S2144032102E49BA691346DB009B1A9B000B441433B5
S21440322018602A49BA691346DB009B1A9B000B4478
S21440323014331B68002B03D1254B984700BFFDE78E
S2144032400921F8682E4B98471D4ABB691B01134459
S21440325004331B68012118462A4B984709E01B494E
S214403260BA691346DB009B1A9B000B4418330122B5
S2144032701A60134ABB691B0113440C3393F90020B0
S2144032807B689B68194610461F4B98470C4ABB699B
S2144032901B0113441B68E0211846194B9847F868F1
S2144032A01A4B9847F8681A4B9847FB68FB6101E051
S2144032B00023FB61FB6918462037BD4680BD00BF32
S2144032C0EC40410075224000B5224000940A0020A0
S2144032D095634000055C4000355C40005D4A400018
S2144032E0DD5440008D5B4000695C4000B00A002021
S2144032F0FD2240000D694000F949400069684000E1
S2144033004D5C40003D4A400001244000ED5B4000DB
S2144033101D5C400090B58BB002AFF860B9607A6033
S2144033203B60FB68BB61BA6901212048204B984747
S21440333078617B69002B31DC7B69DB001D4A1344D6
S2144033403A46114618461C4B98470346FB7797F972
S2144033501F30002B24D17B69DB00164A9818134A8D
S2144033607B691B01134404331A68012301933B6BAA
S214403370009313467A68B968104CA0471021B86984
S2144033800F4B98477B69DB000A4A13443A68396B0F
S21440339018460C4B98470346FB7701E0F823FB772B
S2144033A097F91F3018462437BD4690BDEC40410083
S2144033B075224000B00A002035254000A125400077
S2144033C04D5C40004126400090B58BB000AFF860A1
S2144033D0B9607A603B6000233B62FB68FB61FA6938
S2144033E001217548754B9847B8617549BA691346C7
S2144033F0DB009B1A9B000B4418331B68002B03D141
S214403400704B984700BFFDE76D49BA691346DB002D
S2144034109B1A9B000B4418331B68012B03D1694B46
S214403420984700BFFDE7BB69002B00F3BF806449A7
S214403430BA691346DB009B1A9B000B440433196899
S2144034405F48BA691346DB009B1A9B0003441B681F
S214403450CA1A7B689A42C0F0A98007F11003184642
S214403460594B98475649BA691346DB009B1A9B004E
S2144034700B4414331B68002B2CD05149BA691346B1
S214403480DB009B1A9B000B44143318683A680023F1
S21440349000214E4CA04778627B6A012B1CD13A46ED
S2144034A007F1100311461846494B98470346012B2F
S2144034B012D100237B624249BA691346DB009B1A4D
S2144034C09B000B4414331868002300220021414C13
S2144034D0A04701E001237B627B6A012B66D1384915
S2144034E0BA691346DB009B1A9B000B4410331868DE
S2144034F03A6800230021354CA047BA691346DB00E2
S2144035009B1A9B002E4A98182B4ABB691B011344F2
S21440351004331B681968BA683B6AD4187A683B6AF1
S214403520D31A22462C4CA04702463B6A13443B62C1
S2144035303B6A002B13D0294B98472149BA6913465A
S214403540DB009B1A9B000B440C331B68002B04D1FA
S214403550BB6901211846224B9847224B98473A6A46
S2144035607B689A4209D23A4607F11003114618463C
S214403570174B98470346002BB1D01149BA691346FA
S214403580DB009B1A9B000B4414331B68002B0DD0AA
S2144035900B49BA691346DB009B1A9B000B44143355
S2144035A018680023002200210A4CA0473B6A1846B0
S2144035B02C37BD4690BD00BFEC4041007522400010
S2144035C0940A002095634000297B4000756B4000BC
S2144035D0657B400051694000612440004D634000D7
S2144035E0E93540006D63400080B584B000AF786038
S2144035F00B46FB707A681346DB009B1A9B00374AE3
S2144036001344FB60FB689B691A46FB689B689A42BA
S2144036100ED1FB78002B03D1FB680022DA601EE057
S214403620FB685A68FB689B68D21AFB68DA6016E04B
S214403630FB689B691A46FB689B689A4208D9FB68F8
S2144036409B691A46FB689B68D21AFB68DA6006E0FC
S214403650FB685A68FB689B68D21AFB68DA60FB68AE
S2144036609A68FB68DB681A44FB685B689A4203D931
S2144036701B4B984700BFFDE7FB68DB68002B1FD05D
S214403680184A7B681B01134404331868FB680833E8
S21440369000221946144B9847124A7B681B01134474
S2144036A004331B6801211846104B98470D4A7B6827
S2144036B01B0113441B68092118460D4B984708E028
S2144036C0084A7B681B0113441B6809211846094BAE
S2144036D0984700BF1037BD4680BD00BF940A002003
S2144036E095634000EC404100F94940003D4A4000A7
S2144036F04D5C4000695C400090B587B000AF786094
S2144037000023FB605D4A7B681B0113441B68184618
S2144037105B4B98477861594A7B681B0113441B688A
S2144037201846584B984702467B6913407B617A6837
S2144037301346DB009B1A9B00534A13443B617B694C
S21440374003F01003002B2AD04C4A7B681B0113441D
S2144037501B68102118464D4B98474D4A7B68DB0046
S21440376013445B68002B0AD0494A7B68DB0013444D
S214403770586807F10C0200230021464CA047444AF3
S2144037807B6852F83330002B09D0414A7B6852F8A8
S214403790330007F10C02002300213E4CA0477B6912
S2144037A003F00803002B31D03B699B69002B03D103
S2144037B0394B984700BFFDE73B699B69012B03D116
S2144037C0354B984700BFFDE73B699A683B69DB6825
S2144037D01A443B699A603B699A683B695B689A42BF
S2144037E003D33B691A683B699A607B680021184698
S2144037F02A4B98473B691B69002B07D03B691869E1
S21440380007F10C0200230021224CA0477B69002BC5
S2144038100BD13B691B69002B07D03B69186907F140
S2144038200C02002300211B4CA0477B6903F0E003F9
S214403830002B19D0114A7B681B0113441B6818469D
S214403840174B9847124A7B68DB0013445B68002B93
S2144038500AD00F4A7B68DB001344586807F10C0215
S214403860002300210B4CA047FB68002B01D00D4BDA
S214403870984700BF1C37BD4690BD00BFEC40410096
S2144038809D5C4000855C4000940A0020695C4000D6
S214403890B00A0020B96A400095634000E935400010
S2144038A0B55C40003563400080B500AF0020024B59
S2144038B0984700BF80BD00BFF936400080B500AFD6
S2144038C00120024B984700BF80BD00BFF93640003C
S2144038D080B483B000AF78607B68072B25D801A200
S2144038E052F823F0053940000B39400011394000AA
S2144038F0173940001B3940001F394000233940002B
S214403900273940004FF4FA4310E04FF400430DE0EF
S2144039104FF400430AE0084B08E0084B06E0084B2B
S21440392004E0074B02E0064B00E0002318460C3745
S214403930BD4680BC704700BF00093D0000127A00BB
S214403940001BB70080B500AF0620034B98470346E0
S214403950DB00184680BD00BFD138400080B500AFC0
S214403960024B984703465B08184680BD45394000E1
S21440397080B483B000AF78607B6880221A6000BF56
S2144039800C37BD4680BC704780B483B000AF7860CB
S2144039907B685B6843F001027B685A6000BF0C3767
S2144039A0BD4680BC704700BF80B483B000AF78602F
S2144039B07B685B6823F002027B685A6000BF0C3766
S2144039C0BD4680BC704700BF80B483B000AF78600F
S2144039D07B685B6823F004027B685A6000BF0C3744
S2144039E0BD4680BC704700BF80B483B000AF7860EF
S2144039F07B685B6803F00403002B01D0012300E0E2
S214403A00002318460C37BD4680BC704780B483B050
S214403A1000AF78607B685B6843F010027B685A6052
S214403A2000BF0C37BD4680BC704700BF80B483B033
S214403A3000AF78607B685B6823F080027B685A60E2
S214403A4000BF0C37BD4680BC704700BF80B582B013
S214403A5000AF78607868104B984778680F4B984767
S214403A6078680F4B984778680E4B984778680E4BA7
S214403A709847002178680D4B984778680C4B9847D4
S214403A8078680C4B9847002178680B4B984700BFE6
S214403A900837BD4680BD00BF6D55400071394000B7
S214403AA0893940000D3A40002D3A40008955400083
S214403AB0A9394000C9394000BD55400090B587B08F
S214403AC000AFF860B9603B601346FB71204B9847E7
S214403AD00346194638681F4B98470346FB82BB6827
S214403AE0196800230022F8681B4CA047BB681B6877
S214403AF008221946F868194B9847BB681B68FA8A2B
S214403B00D2B21946F868164B9847BB681B6808221D
S214403B101946F868134B9847BB681968FB795B08E9
S214403B20DBB21A46F868104B9847BB681968FB79B1
S214403B3003F00103002B0CBF01230023DBB21A461F
S214403B40F8680A4B984700BF1C37BD4690BD00BF7B
S214403B505D394000F957400085584000B157400055
S214403B60355840000D5740006D564000BD56400049
S214403B7080B582B000AF786039607868104B98475F
S214403B800346002B0AD03B681B680F2B14D83B68B3
S214403B901B68194678680B4B98470DE03B681B68D6
S214403BA0032B09D83B681B68012202FA03F3DB4368
S214403BB019467868034B984700BF0837BD4680BD16
S214403BC0E93940008955400080B586B000AFF860BE
S214403BD0B9607A6000237B61FB68002B12D04FF0FF
S214403BE0FF3313E00B4B1B680B4A1268B96810464C
S214403BF09847BB680133BB607B6901337B617B6858
S214403C00013B7B607B68002BECDC7B6918461837F1
S214403C10BD4680BDDC450020E445002080B586B02A
S214403C2000AFF860B9607A6000237B61FB68012BC7
S214403C301ED0FB68022B1BD0FB68032B18D04FF01E
S214403C40FF3319E00E4B1A680E4B1868BB68591CB8
S214403C50B9601B78194690470346002B02DA4FF0AE
S214403C60FF3309E07B6901337B617B68013B7B6006
S214403C707B68002BE6D17B6918461837BD4680BD69
S214403C80E0450020E445002080B582B000AF786073
S214403C907868034B984700BF0837BD4680BD00BFD5
S214403CA0DD54400080B500AF0B20054B98470C20F4
S214403CB0034B98470D20024B984700BF80BD00BF7E
S214403CC0893C400080B500AF3A4B4FF400425A6002
S214403CD0394B98474FF060511720384B98474FF074
S214403CE060512E20354B98474FF060511920334B8A
S214403CF0984733490F20314B9847324910202F4B75
S214403D0098474FF000624FF4C0612F482F4B9847BA
S214403D104FF080510020294B98474FF080510820A3
S214403D20264B98474FF000610320244B98474FF0AE
S214403D3000610420214B98474FF000610C201F4B38
S214403D4098474FF000610D201C4B98474FF000619C
S214403D500E201A4B98474FF000611F20174B98478C
S214403D604FF080511E20154B98474FF000610C20B5
S214403D70124B98474FF000610D20104B98474FF07C
S214403D8000610E200D4B98474FF080511E200B4B84
S214403D9098474FF060511C20084B98474FF06051B1
S214403DA01D20064B98474FF060514D20034B9847D7
S214403DB000BF80BD50140E40A53C40005D4E400004
S214403DC07900002859000028000E0E400D50400093
S214403DD080B584B000AF78600023FB6017E00F4AE0
S214403DE0FB6852F833207B689A420DD10B4AFB6839
S214403DF0DB0013445B68012B03D17868084B984777
S214403E0002E07868074B9847FB680133FB60FB6825
S214403E10032BE4D900BF1037BD4680BDFC404100AF
S214403E20D54D4000A54D400080B584B000AF7860C9
S214403E300023FB6017E00F4AFB6852F833207B688C
S214403E409A420DD10B4AFB68DB0013445B68012B9A
S214403E5003D17868084B984702E07868074B984744
S214403E60FB680133FB60FB68032BE4D900BF1037C7
S214403E70BD4680BDFC404100A54D4000D54D4000AC
S214403E8080B48BB000AF78600B46FB707B687B627B
S214403E90FB7887F823307B6AFB61FB69BB61BB69B3
S214403EA05B097B617B6903F5001303F207735B02D2
S214403EB03B6197F82330002B09D07B6AFB60FB6898
S214403EC003F01F0301229A403B691A6308E07B6AAD
S214403ED0BB60BB6803F01F0301229A403B695A63EC
S214403EE000BF2C37BD4680BC704700BF80B584B04D
S214403EF000AF78607B68C3F111037B607B68102B52
S214403F0028BF10237B607B68002B01D07B6800E0D5
S214403F1001237B600023FB601AE000214D20154BF7
S214403F2098471823BB6000BFBB685A1EBA60002B78
S214403F30FAD101214D200F4B98471823BB6000BF94
S214403F40BB685A1EBA60002BFAD1FB680133FB608F
S214403F50FA687B689A42E0D34FF40033BB6000BFF8
S214403F60BB685A1EBA60002BFAD100BF1037BD4658
S214403F7080BD00BF813E400080B582B000AF0021CA
S214403F804D20074B98474FF400337B6000BF7B685B
S214403F905A1E7A60002BFAD100BF0837BD4680BD56
S214403FA0813E400080B483B000AF0346FB710849B1
S214403FB097F907305B09FA7902F01F02012000FAF0
S214403FC002F241F8232000BF0C37BD4680BC704744
S214403FD000E100E080B483B000AF0346FB710949BE
S214403FE097F907305B09FA7902F01F02012000FAC0
S214403FF002F2203341F8232000BF0C37BD4680BC78
S214404000704700BF00E100E080B483B000AF0346D5
S214404010FB71094997F907305B09FA7902F01F02EC
S214404020012000FA02F2603341F8232000BF0C372B
S214404030BD4680BC704700BF00E100E080B483B05E
S21440404000AF03463960FB7197F90730002B0BDA57
S2144040500D49FB7903F00F03043B3A68D2B21201D4
S214404060D2B20B441A7609E0084997F907303A6805
S214404070D2B21201D2B20B4483F8002300BF0C37F1
S214404080BD4680BC704700BF00ED00E000E100E0A8
S21440409080B483B000AF78607B6880221A6000BF2F
S2144040A00C37BD4680BC704780B483B000AF7860A4
S2144040B07B6801221A6000BF0C37BD4680BC704743
S2144040C080B483B000AF78607B6802221A6000BF7D
S2144040D00C37BD4680BC704780B483B000AF786074
S2144040E07B684FF080721A6000BF0C37BD4680BCBC
S2144040F0704700BF80B483B000AF786039607B689B
S2144041003A685A6100BF0C37BD4680BC704700BF56
S21440411080B483B000AF786039607B683A689A6153
S21440412000BF0C37BD4680BC704700BF80B483B02C
S21440413000AF78607B68DB6918460C37BD4680BCAC
S214404140704700BF90B583B000AF0346FB710022B6
S21440415002210E480E4B98470C480E4B98471C20A1
S2144041600D4B9847FB7999B20023022207480B4C27
S214404170A04706480A4B9847802202210348044B32
S214404180984700BF0C37BD4690BD00BF008000403A
S214404190B1574000A9404000D54D4000ED55400085
S2144041A0C140400080B500AF2220024B984700BF78
S2144041B080BD00BF4541400090B583B000AF034688
S2144041C0FB800948094B98471C20094B9847F988BB
S2144041D0002302220448074CA0470348064B984752
S2144041E000BF0C37BD4690BD00800040A94040004F
S2144041F0A54D4000ED554000C140400090B585B00B
S21440420000AF786039603B68002B1DD01048114BDA
S21440421098471C20104B98470023FB600CE0FB6837
S2144042205B007A68134419880023022208480B4C26
S214404230A047FB680133FB60FA683B689A42EED3BE
S2144042400348074B984700E000BF1437BD4690BD73
S21440425000800040A9404000A54D4000ED5540007C
S214404260C140400080B582B000AF03460A46FB71AD
S2144042701346BB80FB791846044B9847BB881846C4
S214404280034B984700BF0837BD4680BD45414000B8
S214404290B941400080B485B000AF78600023FB6031
S2144042A00CE00023FB6002E0FB680133FB60FB6828
S2144042B0074A9342F8D9FB680133FB60FA687B688B
S2144042C09A42EED300BF1437BD4680BC704700BF4D
S2144042D09F86010080B487B000AFF860B9607A600E
S2144042E03B60FB681B68AF2B02D9FB68AF221A60A5
S2144042F07B681B68AF2B02D97B68AF221A60BB680D
S2144043001B68DB2B02D9BB68DB221A603B681B6844
S214404310DB2B02D93B68DB221A60FB681A687B6895
S2144043201B689A4209D9FB681B687B617B681A68E0
S214404330FB681A607B687A691A60BB681A683B68D3
S2144043401B689A4209D9BB681B687B613B681A6840
S214404350BB681A603B687A691A6000BF1C37BD4666
S21440436080BC704790B587B002AF78600223FB6090
S2144043701D20774B98470220764B98471D20764B5A
S21440438098471420734B98471D20714B984732200E
S214404390704B98477148724B98477048714B984796
S2144043A06E48714B98471520704B98471520704BB8
S2144043B09847002115206F4B984715206E4B98471D
S2144043C066486E4B984707F10C01002300936C4BF0
S2144043D0002262486B4CA04707F10C0319465F4821
S2144043E0694B98475D48694B984701215B48684B45
S2144043F09847684B98474FF48E710120664B984714
S2144044004FF480710220644B984741F230010320FC
S214404410614B984740F6080108205F4B98470121BA
S2144044200C205D4B984740F601210F205A4B984789
S214404430B0212020584B9847DC212120564B9847E6
S2144044404FF420611020544B984741F23801112018
S214404450514B984732203F4B984741F2211112204A
S2144044604D4B98474E2113204B4B984746F26F7161
S2144044701420494B984700213020474B9847DB2172
S2144044803120454B984700213220434B9847002126
S2144044903320414B9847DB2134203F4B984700213F
S2144044A035203D4B9847B02136203B4B984700215E
S2144044B03720394B9847DC213820374B9847002126
S2144044C03920354B984700215020334B984740F2CF
S2144044D00A615120304B984740F60A5152202E4BE5
S2144044E0984740F2033153202B4B984740F60D2116
S2144044F05420294B984740F606215520264B98478E
S21440450000215620244B984740F203315720224B37
S214404510984700215820204B9847002159201E4B91
S21440452098477B681A687B685B68002100201B4CB4
S214404530A0477B689B681846194B98470021002087
S214404540184B9847002318461437BD4690BD00BF09
S214404550A54D400095424000D54D400000800040AB
S214404560C140400091404000D9404000D53F400007
S214404570094040003D404000A53F40004D3A4000C5
S21440458020BCBE00BD3A4000713B4000A940400000
S214404590F5404000F545400065424000B5464000C5
S2144045A0094640002947400080B582B000AF074822
S2144045B0074B9847786079680448064B9847064BFF
S2144045C001221A7000BF0837BD4680BD00800040FB
S2144045D02D41400011414000180C002080B500AF2E
S2144045E041F217010720024B984700BF80BD00BF2D
S2144045F06542400080B500AF00210720014B984738
S21440460000BF80BD6542400080B485B000AF786092
S2144046107B681B0A9BB223F4FF6323F007039AB21E
S2144046207B685B099BB203F4FC639BB213439AB26C
S2144046307B68DB089BB203F01F039BB213437B816E
S2144046400023FB6007E00849FB687A8921F81320BD
S214404650FB680133FB60FB68AF2BF4D900BF14370F
S214404660BD4680BC704700BFB80A002080B584B005
S21440467000AF0346FB80002100200B4B98470B4BB6
S214404680984749F24073FB6006E0FB881846084BA3
S2144046909847FB68013BFB60FB68002BF5D100BFE9
S2144046A01037BD4680BD00BF29474000A5414000A9
S2144046B0B941400080B584B000AFF860B9607A6018
S2144046C03B60FB689AB27B689BB213449BB2013B4B
S2144046D09BB2DBB29BB219463620124B9847FB681A
S2144046E09BB2DBB29BB2194637200E4B9847BB684D
S2144046F09AB23B689BB213449BB2013B9BB2DBB27F
S2144047009BB219463820074B9847BB689BB2DBB232
S2144047109BB219463920034B984700BF1037BD4619
S21440472080BD00BF6542400080B582B000AF034602
S2144047300A46FB801346BB80FB88DBB29BB2194619
S2144047402020064B9847BB88DBB29BB219462120F7
S214404750024B984700BF0837BD4680BD65424000C3
S21440476080B582B000AF786039607B68AF2B02D8E6
S2144047703B68DB2B01D901230FE07B689BB23A688C
S21440478092B211461846074B9847074B9847074B37
S2144047901B881846064B9847002318460837BD46E0
S2144047A080BD00BF29474000A5414000B80A002010
S2144047B0B941400090B587B000AFF860B9607A6004
S2144047C03B603B463A1D07F1080107F10C00254CBB
S2144047D0A047F868B9687A68FB68D31A5C1C3A68E0
S2144047E0BB68D31A013322461F4CA047FB689BB2D6
S2144047F0BA6892B2114618461C4B98471C4B9847CD
S2144048007A68FB68D31A01333968BA688A1A013263
S21440481002FB03F33B613B69164AA2FB0323DB0919
S2144048207B6103E0B0211448144B98477B695A1EBD
S2144048307A61002BF6D13A690E4BA3FB0213DB09D3
S214404840B02101FB03F3D31A19460B480B4B98478C
S214404850DC23B02200210020034CA04700BF1C37B9
S214404860BD4690BDD5424000B54640002947400071
S214404870A5414000A38B2EBAB80A0020FD41400057
S21440488080B58AB000AFF860B9601346FB71FA791C
S21440489013469B0013449B00A3F52073FB61002343
S2144048A03B624BE03B6A5A00FB691344BB61BB6901
S2144048B001337B6100237B6219E0244ABB691344C1
S2144048C01B781A467B6AC3F1070342FA03F303F0E8
S2144048D00103002B08D0FA683B6AD018BA687B6A96
S2144048E0134419461A4B98477B6A01337B627B6AAE
S2144048F0072BE2D900237B621AE0144A7B691344F3
S2144049001B781A467B6AC3F1070342FA03F303F0A7
S2144049100103002B09D0FA683B6AD018BA687B6A54
S2144049201344083319460A4B98477B6A01337B6227
S2144049307B6A052BE1D93B6A01333B623B6A092B14
S214404940B0D900BF2837BD4680BD00BF1C414100DE
S2144049506147400080B586B000AFF860B9607A60C5
S214404960FB687B611CE07B681B780A2B08D10E2312
S2144049701A46BB6813440233BB607B69FB600CE09D
S2144049807B681B781A46B968F868094B98470A232B
S2144049901A46FB6813440233FB607B6801337B6036
S2144049A07B681B78002BDED100BF1837BD4680BD24
S2144049B08148400080B485B000AFF860B9607A6046
S2144049C0BB68002B07D0BB681A68FB689A60BB6858
S2144049D05A68FB68DA607B68002B07D07B681A68E9
S2144049E0FB689A617B685A68FB68DA6100BF1437D7
S2144049F0BD4680BC704700BF80B485B000AFF8604D
S214404A00B9607A60BB68002B07D0BB681A68FB6841
S214404A101A60BB685A68FB685A607B68002B07D0F0
S214404A207B681A68FB681A617B685A68FB685A613B
S214404A3000BF1437BD4680BC704700BF80B483B00B
S214404A4000AF786039603A6840F2011313407A68E4
S214404A50136200BF0C37BD4680BC704780B483B03D
S214404A6000AF786039603A6840F2022313407A68B3
S214404A70136200BF0C37BD4680BC704780B485B01B
S214404A8000AFF860B9607A607B68002B03D0FB68A3
S214404A90BA685A6602E0FB68BA681A6600BF1437FE
S214404AA0BD4680BC704700BF80B487B000AFF8609A
S214404AB0B9607A60FB687A685A64BB68B3F1C05FD5
S214404AC04AD0B3F1C05F08D8B3F1006F16D0B3F147
S214404AD0805F2CD0002B69D064E0B3F1205F65D0B6
S214404AE0B3F1205F03D8B3F1005F4AD05AE0B3F188
S214404AF0405F5BD0B3F1605F58D053E0FB681B6FFC
S214404B007B61FB681A6F7B68D9437B690B401A4010
S214404B10FB681A67FB685B6F7B61FB685A6F7B6854
S214404B20D9437B690B401A40FB685A673AE0FB68FA
S214404B301B6F7B617A687B691A43FB681A67FB6860
S214404B405B6F7B61FB685A6F7B68D9437B690B4020
S214404B501A40FB685A6725E0FB681B6F7B61FB6861
S214404B601A6F7B68D9437B690B401A40FB681A670B
S214404B70FB685B6F7B617A687B691A43FB685A67A0
S214404B8010E0FB681B6F7B617A687B691A43FB68A1
S214404B901A67FB685B6F7B617A687B691A43FB68C0
S214404BA05A6700BFFB687A685A6000E000BF1C374F
S214404BB0BD4680BC704700BF80B584B000AFF8608B
S214404BC0B9607A60B968F868194B98477B6803F013
S214404BD001031A46B968F868164B98477B6803F095
S214404BE00A03002B03D0FB68BA681A6202E0FB682F
S214404BF0BA685A627B6803F00203002B04D0FB6855
S214404C00BA68C3F8802008E07B6803F00803002BEE
S214404C1003D0FB68BA68C3F88420FB68BA685A6158
S214404C20FB68BA681A6000BF1037BD4680BD00BF3B
S214404C30594D40007D4A400080B584B000AFF860D2
S214404C40B9607A603B60B968F868124B9847BA69B1
S214404C50B968F868104B98473B68002B03D0FB6850
S214404C60BA681A6502E0FB68BA685A657B68002B2A
S214404C7003D0FB68BA681A6302E0FB68BA685A63F6
S214404C80FB68BA681A61FB68BA681A6000BF1037DA
S214404C90BD4680BD594D40007D4A400080B485B039
S214404CA000AFF860B9607A607B68002B04D0FB6880
S214404CB0BA68C3F8942003E0FB68BA68C3F890204B
S214404CC000BF1437BD4680BC704700BF80B485B077
S214404CD000AFF860B9607A607B6803F01003002B81
S214404CE020D0FB68BA68C3F8B0207B6803F0200386
S214404CF0002B04D0FB68BA68C3F8D42003E0FB68F6
S214404D00BA68C3F8D0207B6803F04003002B04D079
S214404D10FB68BA68C3F8C02008E0FB68BA68C3F806
S214404D20C42003E0FB68BA68C3F8B42000BF143759
S214404D30BD4680BC704700BF80B483B000AF78608B
S214404D4039607B68DB6C7B683A681A6400BF0C3756
S214404D50BD4680BC704700BF80B483B000AF78606B
S214404D6039607B683A685A6400BF0C37BD4680BCE1
S214404D70704700BF80B483B000AF78607B68DB6C60
S214404D8018460C37BD4680BC704700BF80B483B021
S214404D9000AF78607B689B6C18460C37BD4680BC7D
S214404DA0704700BF80B584B000AF78607868084B25
S214404DB09847F8607B6803F01F03012202FA03F36A
S214404DC01A46FB681A6300BF1037BD4680BD00BF59
S214404DD03951400080B584B000AF78607868084BA1
S214404DE09847F8607B6803F01F03012202FA03F33A
S214404DF01A46FB685A6300BF1037BD4680BD00BFE9
S214404E003951400080B584B000AF78607868124B66
S214404E109847F860FB689B6B7A6802F01F02012196
S214404E2001FA02F21340002B09D07B6803F01F03FF
S214404E30012202FA03F31A46FB685A6308E07B68CD
S214404E4003F01F03012202FA03F31A46FB681A63B3
S214404E5000BF1037BD4680BD3951400090B587B081
S214404E6002AF786039607868634B9847F8603B6873
S214404E7003F0F043B3F1005F67D0B3F1005F09D8A9
S214404E80B3F1805F2BD0B3F1C05F43D0B3F1006F76
S214404E900AD0A9E0B3F1405F7ED0B3F1605F7BD02B
S214404EA0B3F1205F6CD09FE07B6803F01F030122C4
S214404EB002FA03F31A464FF00061F8684F4B9847E2
S214404EC07B6803F01F03012202FA03F319463B688E
S214404ED003F001031A46F868494B984786E07B681A
S214404EE003F01F03012202FA03F31A464FF08051E3
S214404EF0F868424B98477B6803F01F03012202FA8A
S214404F0003F319463B6803F001031A46F8683C4B26
S214404F1098476BE07B6803F01F03012202FA03F315
S214404F201A464FF0C051F868344B98477B6803F0F8
S214404F301F03012202FA03F319463B6803F00103FC
S214404F401A46F8682E4B984750E07B6803F01F03DC
S214404F50012202FA03F31A464FF00051F868274B35
S214404F6098477B6803F01F03012202FA03F31946B1
S214404F703B6803F001031A46F868214B984735E032
S214404F807B6803F01F03012202FA03F33A681946CE
S214404F90F8681C4B984729E07B6803F01F03012202
S214404FA002FA03F319463B6803F06053B3F1605FBF
S214404FB00CBF01230023DBB21A463B6803F0040310
S214404FC0002B14BF01230023DBB218463B6803F0D6
S214404FD00103002B14BF01230023DBB200930346DA
S214404FE0F868094CA04701E0002300E0012318467A
S214404FF01437BD4690BD00BF39514000A94A400015
S2144050007D4A4000B94B4000394C400090B587B0CF
S21440501002AFF860B9607A607B6803F0F043B3F1A2
S214405020005F43D0B3F1005F09D8B3F1805F1FD073
S214405030B3F1C05F2BD0B3F1006F0AD06DE0B3F18F
S214405040405F48D0B3F1605F45D0B3F1205F3CD0BD
S21440505063E0BA684FF00061F868334B98477B6866
S21440506003F001031A46B968F868304B984756E093
S214405070BA684FF08051F8682B4B98477B6803F02E
S21440508001031A46B968F868284B984747E0BA685B
S2144050904FF0C051F868244B98477B6803F00103F3
S2144050A01A46B968F868214B984738E0BA684FF016
S2144050B00051F8681C4B98477B6803F001031A467A
S2144050C0B968F868194B984729E07A68B968F8686B
S2144050D0174B984723E07B6803F06053B3F1605F5B
S2144050E00CBF01230023DBB21A467B6803F004039F
S2144050F0002B14BF01230023DBB219467B6803F064
S2144051000103002B14BF01230023DBB200930B46A0
S214405110B968F868074CA04701E0002300E0012387
S21440512018461437BD4690BDA94A40007D4A400007
S214405130B94B4000394C400080B485B000AF786031
S2144051407B685B0903F5001303F207735B02FB60A1
S214405150FB6818461437BD4680BC704780B584B09F
S21440516000AF786039607868264B9847F860786872
S214405170254B98470246FB681340FB60FB68002BB4
S2144051803CD00023BB6034E0204ABB681B0113447C
S2144051901A683B689A4226D11C4ABB681B011344D6
S2144051A004331A68FB681340002B1CD0174ABB68B0
S2144051B01B0113440C331B681449BA6812010A4495
S2144051C010681249BA6812010A440432126811463D
S2144051D098470E4ABB681B01134404331B68DB43E5
S2144051E0FA681340FB60BB680133BB60BB68062BA4
S2144051F003D8FB68002BC7D100E000BF00BF1037C4
S214405200BD4680BD754D40008D4D40001C0C0020B5
S21440521080B586B000AFF860B9607A603B60134BEB
S2144052201B68062B01D901231CE0104B1B681B0191
S2144052300F4A13447B617B69BA681A607B697A6857
S2144052405A607B693A689A607B693A6ADA60074BCB
S2144052501B680133054A13603A687968F868054B5D
S2144052609847002318461837BD4680BD8C0C002052
S2144052701C0C0020CD4C400080B500AF0B210248EE
S214405280024B984700BF80BD000E0E405D51400067
S21440529080B500AF0C210248024B984700BF80BD46
S2144052A000100E405D51400080B500AF0D21024811
S2144052B0024B984700BF80BD00120E405D51400033
S2144052C080B485B000AF78601C491C4B1B6B23F044
S2144052D070027B6813430B634FF40063FB6007E088
S2144052E0FB68002B01D1012323E0FB68013BFB60F8
S2144052F0124B9B6E03F00803002BF1D00F4A0F4B66
S2144053001B6B23F0030343F0020313634FF4006365
S214405310FB6007E0FB68002B01D1012309E0FB6836
S214405320013BFB60054B9B6E03F00803002BF1D05E
S214405330002318461437BD4680BC704700040E4014
S21440534080B483B000AF78607B68012B07D1084AF1
S214405350074B9B6843F0254343F480139360044B0C
S214405360044A1A6000BF0C37BD4680BC704700BF79
S21440537010140E40080000A580B400AF094B5B69CE
S21440538003F08003002B07D0074B9B6E03F080038F
S214405390002B01D0012300E000231846BD4680BC08
S2144053A0704700BF10140E4000040E4080B483B017
S2144053B000AF7860184A184B1B6A43F45C1343F0FE
S2144053C00803136200BF144B9B6E03F40033002B9C
S2144053D0F9D01149104B1B6A23F45C1323F0700379
S2144053E07A68134343F45C130B6200BF0A4B9B6E10
S2144053F003F40033002BF9D0074A074B1B6A23F00F
S2144054009B7323F4803343F45C13136200BF0C3762
S214405410BD4680BC704700BF00040E4080B483B0D9
S21440542000AF786039607B68002B08D01649164B71
S2144054301B6A164A1A40164B13430B621EE012496B
S214405440114B1B6A23F45C1323F003033A681202E1
S21440545092B2134343F45C1343F001030B6200BF64
S214405460094B9B6E03F00103002BF9D0064A064B0E
S2144054701B6A43F09B7343F48033136200BF0C37C0
S214405480BD4680BC704700BF00040E40FCFFC8FE0F
S2144054900200370180B400AF034B9B6E03F48033A9
S2144054A01846BD4680BC704700040E4080B400AF2E
S2144054B0034B4FF000529A6200BFBD4680BC704717
S2144054C000040E4080B400AF034B9B6E03F0020313
S2144054D01846BD4680BC704700040E4080B483B07A
S2144054E000AF78607B681F2B01D9012316E07B68EC
S2144054F01F2B12D80C4B9A6901217B6801FA03F3E3
S2144055001A4001217B6801FA03F39A4205D0064A05
S21440551001217B6801FA03F31361002318460C3718
S214405520BD4680BC704700BF00040E4080B483B0C8
S21440553000AF78607B685B6803F00203002B01D005
S214405540012300E0002318460C37BD4680BC704758
S21440555080B582B000AF78607868034B984700BF4C
S2144055600837BD4680BD00BFDD54400080B582B0E0
S21440557000AF78601520034B984700BF0837BD46FC
S21440558080BD00BF5155400080B483B000AF786006
S21440559039607B685B6823F470227B685A607B685E
S2144055A05A683B681B0403F470231A437B685A60AE
S2144055B000BF0C37BD4680BC704700BF80B483B088
S2144055C000AF786039607B685B6823F07F427B6819
S2144055D05A607B685A683B681B061A437B685A6069
S2144055E000BF0C37BD4680BC704700BF80B584B056
S2144055F000AF7860084611461A4603467B800B4645
S2144056007B7013463B7043F69823FB6006E0FB68CE
S2144056105A1EFA60002B01D1012320E07B681B69EB
S21440562003F00203002BF2D078680F4B98470346EE
S214405630002B0ED07A887B781B0403F47023134328
S214405640BB603B78002B06D0BB6843F08073BB60E2
S21440565001E07B88BB607B68BA68DA600023184646
S2144056601037BD4680BD00BF2D55400080B485B084
S21440567000AFF860B9607A607B68002B0CD0FB689E
S214405680BA680C3253F8223043F00101FB68BA681E
S2144056900C3243F822100BE0FB68BA680C3253F821
S2144056A0223023F00101FB68BA680C3243F822101E
S2144056B000BF1437BD4680BC704700BF80B485B07D
S2144056C000AFF860B9607A607B68002B0CD0FB684E
S2144056D0BA680C3253F8223043F00201FB68BA68CD
S2144056E00C3243F822100BE0FB68BA680C3253F8D1
S2144056F0223023F00201FB68BA680C3243F82210CD
S21440570000BF1437BD4680BC704700BF80B485B02C
S21440571000AFF860B9607A607B68042B18D1FB68EC
S214405720BA680C3253F8223023F00801FB68BA6896
S2144057300C3243F82210FB68BA680C3253F8223019
S21440574043F00401FB68BA680C3243F822102AE0A2
S2144057507B68002B18D1FB68BA680C3253F82230AD
S21440576023F00801FB68BA680C3243F82210FB6845
S214405770BA680C3253F8223023F00401FB68BA684A
S2144057800C3243F822100EE07B68082B0BD1FB68E6
S214405790BA680C3253F8223043F00801FB68BA6806
S2144057A00C3243F8221000BF1437BD4680BC704709
S2144057B080B485B000AFF860B9607A60FB68BA68BC
S2144057C00C3253F8223023F0F001FB68BA680C32F2
S2144057D043F82210FB68BA680C3253F822207B68E4
S2144057E042EA0301FB68BA680C3243F8221000BF55
S2144057F01437BD4680BC704780B485B000AF786033
S21440580039603A687B6813445A1E7B68B2FBF3F3F0
S214405810FB60FB68002B02DDFB68FF2B02DD4FF0D0
S214405820FF3301E0FB681BB218461437BD4680BC08
S214405830704700BF80B485B000AFF860B9601346CB
S214405840FB71FB68BA680C3253F8223023F47F4170
S214405850FB68BA680C3243F82210FB68BA680C3210
S21440586053F82220FB791B029BB242EA0301FB68F5
S214405870BA680C3243F8221000BF1437BD4680BCCD
S214405880704700BF80B485B000AFF860B96011467D
S2144058901A460B46FB711346BB71FB68BA680C325E
S2144058A053F8223099B2FB68BA680C3243F822109B
S2144058B0FB68BA680C3253F82220FB791B0403F4C9
S2144058C07F03B97909060B4342EA0301FB68BA68CD
