:020000040040BA
:10000000B0460020D1204000CD204000CD2040004F
:10001000CD204000CD204000CD2040000000000059
:10002000000000000000000000000000A5234000C8
:10003000CD20400000000000212440005D2440004D
:10004000CD204000CD204000CD204000CD204000FC
:10005000CD204000CD204000CD204000CD204000EC
:100060000510400015104000CD204000111D40003B
:10007000251D4000391D4000CD204000CD2040000E
:10008000CD204000CD204000CD204000250E400076
:10009000350E400019014000CD204000CD20400029
:1000A000CD204000CD204000CD204000CD2040009C
:1000B000CD204000CD204000CD204000CD2040008C
:1000C000CD20400010B5054C237833B9044B13B153
:1000D0000448AFF300800123237010BD980900206D
:1000E00000000000E8CB400008B5064B1BB10648F5
:1000F0000649AFF300800648036813B1054B03B10E
:10010000984708BD00000000E8CB40009C09002093
:10011000E8CB40000000000008B5014B984708BD3F
:10012000CD144000F8B5194DB0232B60DC236B6073
:100130000024AC606FF07F43EB60154B9847284676
:10014000144B98470820144B9847144B98474FF688
:10015000FF70134B9847134D134F144E0120042189
:100160000022A847E05118B91920114B9847FEE723
:10017000012004210022A847A05118B919200C4BD6
:100180009847FEE704340C2CE8D1F8BD483E002027
:10019000411340007D154000E5124000E514400089
:1001A00045174000CD2740003C3E0020303E002057
:1001B000A51240002DE9F04F95B000203D4B984727
:1001C00005200A213C4A3D4B9847DFF818913C4FE7
:1001D000DFF814814FF4FA703A4B984700241194D9
:1001E0001294139459F8040011A921444FF0FF32DE
:1001F0000023B847012801D00020C04704340C2C4C
:10020000F0D100240E940F9410942F4D28590EA96C
:1002100021444FF0FF320023B847012801D00020CD
:10022000C04704340C2CF1D16FF07F40214CA04723
:1002300000201E21B022DC23244DA8470020A04727
:10024000234E1198B04704460D461298B047CDE9A9
:1002500000011398B047CDE9020104A81D492246C8
:100260002B46DFF888B0D84705201E2104AADFF806
:100270004CA0D0470E98B04704460D460F98B047A3
:10028000CDE900011098B047CDE9020104A8124958
:1002900022462B46D84705206E2104AAD0470F4B93
:1002A0009847024604A80E49D8470520BE2104AA53
:1002B000D0478FE70915400044C04000691840004E
:1002C000352A400095314000303E0020B1174000F3
:1002D0002942400054C0400078C040002D26400014
:1002E0009CC040003C3E00203D2E4000C14F4000DD
:1002F000F0B583B005460C4600230193184B984295
:1003000007D11F46174E38462146B0470028FAD17C
:1003100017E0154B984207D11E46124D3046214634
:10032000A8470028FAD118E0104B984209D11E4680
:100330000F4D304601A9A8470028FAD1019B237030
:100340000BE00C4B9D4208D11E46094D304601A9D9
:10035000A8470028FAD1019B237003B0F0BD00BF6D
:1003600000060E408D20400000080E400040024074
:10037000B52040000080024070B50C461A4B9842F0
:1003800007D11E46194D30462146A8470028FAD10C
:1003900020E0174B984207D11E46144D30462146A7
:1003A000A8470028FAD117E0124B984207D11E4601
:1003B000114D30462146A8470028FAD10EE00F4BD8
:1003C00098420DD11E460C4D30462146A8470028C4
:1003D000FAD107E0012070BD012070BD012070BD81
:1003E000002070BD012070BD00060E407D20400041
:1003F00000080E4000400240A12040000080024062
:100400000FB4F0B583B008AC54F8046B0D4D2868F8
:1004100000214FF47A720B460B4FB84701943046D7
:1004200021460A4B98470A480A4B984728680021FA
:100430000A460B46084CA04703B0BDE8F04004B0A4
:10044000704700BF583E0020352A4000117340001D
:1004500084C84000A14C40002528400030B585B03C
:100460000820174DA847174C174B1C60174A184B0C
:100470001A60184A184B1A60184B01934FF4E13375
:1004800002934FF4006303930820A847204601A974
:10049000134B9847134D2B6898680021124CA047C6
:1004A0002B6858680021A0470120104B9847104B3B
:1004B000186000210A460B460E4CA04705B030BD1F
:1004C000351E400000060E40643E002079034000C7
:1004D000603E0020F10240005C3E0020006CDC0227
:1004E0002D20400020050020B14E40004129400051
:1004F000583E00202528400010B50E480E4B984766
:1005000000203E210D4B98470D4CA0470028FCD001
:100510000C4B98470C4A0D4B9A620D4CA047002893
:10052000FCD010200B4B98470B4B98470148024BCF
:10053000984710BD006CDC02A1000020B11D4000F6
:10054000051E4000151E4000013F072000040E401C
:10055000251E40004D1D40008121400030B40D4655
:1005600069B1036893420CD00346002003E053F8BE
:10057000104F944206D00130A842F8D102E000208A
:1005800000E0002030BC7047002A0EDD0B7883426B
:100590000DD00B460139114403E013F8012F8242BC
:1005A00007D08B42F9D1002070470020704701200E
:1005B00070470120704700BFF8B506460D46144647
:1005C00010F0010F08D00120214B9847686018B93E
:1005D000204B984700BFFDE716F0040F17D001200D
:1005E000002103221C4B9847286030B100210A46A5
:1005F0000B461A4FB847286818B9164B984700BFE2
:10060000FDE700210A460B46154DA84701E00023EF
:100610002B6016F0080F18D0BCB101200021032276
:100620000D4B9847206030B100210A460B460B4D18
:10063000A847206818B9074B984700BFFDE700217D
:100640000A460B46064CA047F8BD00232360F8BDC0
:1006500041294000D5234000CD27400025284000F7
:10066000352A400010B50F2903D9154B984700BF14
:10067000FDE7092903D8124B984700BFFDE7C2B236
:1006800002F01F0301249C4043099B0003F16043D7
:1006900003F56143C3F88041002806DA02F00F0039
:1006A0000901C9B2074A115407E00A01D2B200F1A8
:1006B000604000F5614080F800231C6010BD00BF61
:1006C000D523400014ED00E030B583B004460D465C
:1006D000436893B168460D4B9847606800212A68CB
:1006E0000B460B4CA04750B168462946094B98472A
:1006F000012806D10020286004E0002002E0FD204F
:1007000000E0002040B203B030BD00BF3D344000E7
:10071000352A400065344000F0B583B00E461546DA
:100720001C46089B13B10360184601E0006820B125
:1007300000210A460B46134FB847009601959DF8D5
:1007400024307BB120464FF400710F4B9847204670
:10075000694600220D4B984720464FF480710C4BA0
:1007600098470CE020460221074B984720466946EF
:100770000022084B984720460121054B984703B0BB
:10078000F0BD00BF352A4000591940001D19400036
:100790004D1940003519400010B549B9006848B1FD
:1007A0000B46064CA047012814BFFD20002002E0A4
:1007B000002000E0002040B210BD00BF352A4000FC
:1007C0002DE9F04182B006460023019303016E4AF1
:1007D000D55828466D4B9847074628466C4B984796
:1007E000074017F4005F49D0674B03EB06135868C6
:1007F0004FF40071674B984728464FF40051664B01
:10080000984700242B6A13F0040F04D10134B4F18B
:10081000FF3FF7D102E04FF0000801E04FF0010880
:1008200002232B605D4B53F8362003EBC6035B6855
:10083000134413F8013C6B632B6A13F0010F05D1CD
:100840000134B4F1FF3FF7D14FF00108544B03EBF3
:10085000C603586828B1002101AA0B46DFF844C13D
:10086000E047B4F1FF3F0BD04D4B53F8360038B1A1
:10087000002101AA0B464B4CA04701E04FF00008B5
:1008800017F4805F52D0404B03EB061358680221E7
:10089000404B984728464FF480513F4B98470024DF
:1008A0002B6A13F0020F03D10134B4F1FF3FF7D1EB
:1008B00002232B60394B53F8361003EBC6035A68FA
:1008C000286B8B1803F8020C2B6A13F0020F04D16B
:1008D0000134B4F1FF3FF7D111E0B4F1FF3F0ED086
:1008E0002B6B0A4402F8013C00242B6A13F0010F21
:1008F00005D10134B4F1FF3FF7D14FF00108284B87
:1009000003EBC603586828B1002101AA0B46DFF8A3
:1009100094C0E047B4F1FF3F08D0234B53F83600B2
:1009200020B1002101AA0B461E4CA04717F4507FAE
:1009300002D1B8F1000F1FD0134B03EB0613586818
:1009400040F20221134B984717F4807F04BF022323
:100950002B6028464FF400510F4CA04728464FF417
:100960008051A0470E4B03EBC606706820B10021F2
:1009700001AA0B460B4CA047019B0BB10B4B9847B0
:1009800002B0BDE8F08100BFACC0400015204000BF
:1009900019204000591940000D204000BC090020DA
:1009A000C4090020A5294000B4090020C523400047
:1009B0002DE9F04F83B005460E4602AF032307F83A
:1009C000043D314801212A46304B98470446307B8C
:1009D000394601222E4B9847002C4DDC00284DD083
:1009E0002C4B03EBC40948462B4908222B4B984754
:1009F00018B12B4B984700BFFDE72A4B03EBC40807
:100A0000404625490822254B984718B1244B984762
:100A100000BFFDE7DFF870A027010AEB070BDBF84A
:100A20000800214B9847DBF8040040F202211F4BDD
:100A300098475AF8077038464FF0FF311C4B9847DB
:100A400038461C4B9847337B032B02D138461A4B50
:100A50009847707B49464246184B984738464FF4B2
:100A60005071174B9847084B03EB041494F90C0092
:100A7000B168144B984702E0002500E000252846A5
:100A800003B0BDE8F08F00BFACC040005D05400082
:100A900089054000C4090020BCC04000C94C40008A
:100AA000D5234000B4090020351E400059194000EC
:100AB0000D20400025204000B51F4000B905400032
:100AC00009204000650640002DE9F04385B004464A
:100AD0000E4603921F46514801212246504DA84719
:100AE000051E00F39280F368002B00F090804D4BC0
:100AF00003EBC508404603A94B4B984781460028A5
:100B000040F0878000236360327C120402F4FE020E
:100B100073681B0203F440731343636072685AB135
:100B20003378012A84BF717841EA0323022A04D969
:100B3000B27842EA032300E00023E360F268012A6E
:100B400046D12B01354AD75838464FF45071374BB0
:100B50009847B3681B7863630023226A12F4807F8E
:100B60000FD038464FF45071314B98472D4B03EB63
:100B7000C505686800210A460B462E4CA047F620A2
:100B800047E012F0040F05D10133B3F1FF3FE4D188
:100B90004FF0FD090222226003E00133B3F1FF3F71
:100BA00004D0226A12F0010FF7D001E04FF0FD09E6
:100BB00038464FF450711E4B98471A4B03EBC5054E
:100BC000686800210A460B461A4CA047484620E0B8
:100BD000B168194B43F8351003EBC5035A600F4B4E
:100BE00003EB05156B680097012001904046013A20
:100BF000124DA84720464FF400510D4B98474046F0
:100C00003946039A0E4B984703E0F82001E0F8209C
:100C1000FFE740B205B0BDE8F08300BFACC04000C4
:100C20005D054000C4090020C90640000D204000B9
:100C30000920400025284000BC0900201907400079
:100C4000990740002DE9F04385B004460E46039213
:100C50001F46684801212246674DA847051E00F33C
:100C6000C080F368002B00F0BE80644800EBC50034
:100C700003A9634B98478046002840F0B680204681
:100C8000604B98470023636073681A0202F4407255
:100C900042F48052337C1B0403F4FE03134363606D
:100CA00072685AB13378012A84BF717841EA03230C
:100CB000022A04D9B27842EA032300E00023E36069
:100CC000F268022A6CD82B014A4AD75838464FF4AA
:100CD00050714D4B9847F368B068012B09D103223E
:100CE00022604FF0010EFFE7226A12F4807F1BD0D2
:100CF0000AE0012222604FF0000E002BF4D133E015
:100D0000226A12F4807F15D038464FF450713F4B61
:100D100098473A4B03EBC505686800210A460B4625
:100D20003B4CA047F62060E000214FF002094FF055
:100D3000010C0E46012B05D1BEF1000F02D1C4F803
:100D40000090E64612F0020F04D10131B1F1FF3FED
:100D500005D107E0226B0270013B01303146002BC8
:100D6000CED101E04FF0FD084FF0FF3301E0013B31
:100D700004D0226A12F0010FF9D001E04FF0FD0813
:100D800038464FF45071214B98471C4B03EBC50577
:100D9000686800210A460B461D4CA047404624E0E7
:100DA000B1681C4840F83510EB00184442601A4EF8
:100DB0001E44104B03EB05156B6800970020019053
:100DC0003046023A154DA8470123236020464FF4D0
:100DD00080510E4B984730463946039A104B98473E
:100DE00003E0F82001E0F820FFE740B205B0BDE8DD
:100DF000F08300BFACC040005D054000C409002086
:100E0000C90640001D2040000D2040000920400080
:100E100025284000BC090020B40900201907400023
:100E20009907400008B50020014B984708BD00BF56
:100E3000C107400008B50120014B984708BD00BF1D
:100E4000C107400070B5C0EBC0021F4B03EB82032B
:100E50009C699A6894420AD129B90022DA605B68D9
:100E60009C4229D910E05968091BD96007E09442D7
:100E700002D9A41ADC6002E05968891AD960D968DD
:100E80000A445C68A24203D9104B984700BFFDE7B3
:100E900091B10F4D04012A195668304603F108013B
:100EA00000220C4B9847304601210B4B984728599C
:100EB00009210A4B984770BD0001054B18580921BC
:100EC000074B984770BD00BFCC090020D5234000D8
:100ED000C4C04000351940004D1940006520400055
:100EE000692040002DE9F04383B0044600230193BC
:100EF0000301394AD6583046384B984705463046A4
:100F0000374B98470540DFF8F890C4EBC4084FEA28
:100F1000880809EB080715F0100F18D0304610218B
:100F2000304B9847304B03EBC403586828B100217D
:100F300001AA0B46DFF8BCC0E0472B4B53F8340046
:100F400028B1002101AA0B46DFF8A8C0E04715F040
:100F5000080F21D0BB691BB9244B984700BFFDE7A0
:100F6000012B03D1214B984700BFFDE7FA68BB680E
:100F70001344BB607A68934224BF59F80830BB60C1
:100F8000204600211A4B9847386928B1002101AA50
:100F90000B46DFF860C0E0473DB93869A8B10021D1
:100FA00001AA0B46134CA0470FE015F0E00F0CD040
:100FB0003046114B98470C4B03EBC404606820B1DA
:100FC000002101AA0B460B4CA047019B0BB10B4B18
:100FD000984703B0BDE8F083C4C0400071204000D2
:100FE0006D20400069204000E8090020D523400022
:100FF000450E4000A529400075204000C523400053
:10100000CC09002008B50020014B984708BD00BF5F
:10101000E50E400008B50120014B984708BD00BF10
:10102000E50E400010B50446104B9847802323601E
:10103000636843F001036360636843F01003636017
:10104000636823F08003636020460021084B9847C3
:10105000636823F002036360636823F00403636042
:1010600020460021034B984710BD00BF611E400081
:10107000711E4000891E4000F8B505460C46164614
:1010800018461449144B9847074628462168002201
:101090001346DFF85CC0E0472846216808220F4B62
:1010A000984728462168FAB20D4B98472846216890
:1010B00008220C4B98472846216872080A4B98472B
:1010C00086F001022846216802F00102074B98478A
:1010D000F8BD00BF006CDC026D1F4000591F4000CE
:1010E000851F4000151F4000D51E4000F51E400022
:1010F0009D1F400008B5436813F0040F05D0096830
:101100000F290BD8064B984708BD0B68032B05D851
:10111000012202FA03F1C943014B984708BD00BF01
:10112000711E40002DE9F0410C46904660B9002A3E
:101130000EDD8F18094E0A4D306821462B689847FE
:101140000134BC42F8D106E04FF0FF30BDE8F08139
:101150000020BDE8F0814046BDE8F081643E0020FB
:101160005C3E00202DE9F0410E461546013802286C
:101170000FD892B10024DFF83C800D4FD8F8000062
:10118000315D3B68984700280ADB0134A542F5D160
:101190000AE04FF0FF30BDE8F0810020BDE8F081AB
:1011A0004FF0FF30BDE8F0812046BDE8F08100BF80
:1011B000603E0020643E002010B54FF40042324BE8
:1011C0005A600B20314CA0470C20A0470D20A047AF
:1011D00017204FF060512E4CA0472E204FF0605149
:1011E000A04719204FF06051A0470F202949A04780
:1011F00010202949A04729484FF4C0614FF00062F0
:10120000274B984700204FF08051A04708204FF00F
:101210008051A04703204FF00061A04704204FF009
:101220000061A0470C204FF00061A0470D204FF057
:101230000061A0470E204FF00061A0471F204FF033
:101240000061A0471E204FF08051A0470C204FF0B6
:101250000061A0470D204FF00061A0470E204FF025
:101260000061A0471E204FF08051A0471C204FF086
:101270006051A0471D204FF06051A0474D204FF016
:101280006051A04710BD00BF50140E40351E4000F5
:10129000B91A40007900002859000028000E0E40BD
:1012A000DD1B40002DE9F041064600240A4D0B4F9E
:1012B000DFF82C806359B34208D12B195B68012BEE
:1012C00002D13046C04701E03046B8470834202CF0
:1012D000F0D1BDE8F08100BFD4C04000791A4000D1
:1012E0005D1A400070B483B0C0F11100102834BF03
:1012F00006461026002E08BF012600210F4D4FF490
:10130000005418206C630190019B5A1E0192002B1F
:10131000FAD12C630190019B5A1E0192002BFAD145
:1013200001318E42EED84FF400330193019B5A1ED7
:101330000192002BFAD103B070BC704700120E402E
:1013400082B04FF40052064B5A634FF400330193BE
:10135000019B5A1E0192002BFAD102B0704700BFC8
:1013600000120E4082B000230193019B984211D9D4
:101370000021094A0191019B934205D8019B013349
:101380000193019B9342F9D9019B01330193019B86
:101390008342EFD302B070479F86010030B40468E7
:1013A000AF2C84BFAF2404601468AF2C84BFAF247B
:1013B00014600C68DB2C84BFDB240C601C68DB2C05
:1013C00084BFDB241C6004681568AC4284BF0560E0
:1013D00014600A681868824284BF08601A6030BCD2
:1013E000704700BF70B506460B4C20460221002214
:1013F0000A4DA847012323601C20094B984720462B
:10140000314602220023074EB047022121602046C8
:101410008022A84770BD00BF00800040591F4000D7
:10142000791A40009D1E400038B50546074C01233F
:1014300023601C20064B98472046294602220023A1
:10144000044DA8470223236038BD00BF0080004040
:101450005D1A40009D1E400010B50C46024B984797
:101460002046024B984710BDE51340002914400068
:101470002DE9F04182B005460C46F1B10122104B36
:101480001A601C200F4B984700230193019B9C423C
:1014900010D9DFF82C8002270B4E019B404635F80F
:1014A00013103A460023B047019B01330193019B7F
:1014B0009C42F2D80222024B1A6002B0BDE8F081D1
:1014C000008000405D1A40009D1E4000034BDA6919
:1014D0009A610122024B1A70704700BF00800040E1
:1014E000500B002008B5072041F21701014B984727
:1014F00008BD00BF5914400008B507200021014B6A
:10150000984708BD5914400000F47C4100F478036A
:101510001B0A43EA5111C0F3C4000143044A931E5D
:1015200002F5AF7223F8021F9342FBD1704700BF50
:10153000F0090020F8B506460D461F46013A11187D
:101540003620C9B2064CA0473720F1B2A047013F70
:1015500079193820C9B2A0473920E9B2A047F8BDAF
:101560005914400038B50D46C1B22020024CA047A6
:101570002120E9B2A04738BD591440002DE9F043BD
:1015800085B081464FF0020804AF47F8048D1D2056
:101590005E4CA04740465E4EB0471D205D4B9847CD
:1015A0001420B0471D20A0473220B0475A4CC4F841
:1015B0000080802323604FF080732360574B4FF4EB
:1015C0000012C3F88020C3F88021002583F815534A
:1015D0001A602046524B98470095204639462A46C5
:1015E000504BDFF85CC1E047204639464E4B9847E8
:1015F0000127276067614D4B984738464FF48E713D
:101600004B4CA04740464FF48071A047032041F265
:101610003001A047082040F60801A0470C203946B9
:10162000A0470F2040F60121A0472020B021A0476D
:101630002120DC21A04710204FF42061A047112079
:1016400041F23801A0473220B047122041F2211167
:10165000A04713204E21A047142046F26F71A047E7
:1016600030202946A0473120DB21A04732202946DF
:10167000A04733202946A0473420DB21A04735204E
:101680002946A0473620B021A04737202946A04749
:101690003820DC21A04739202946A0475020294680
:1016A000A047512040F20A61A047522040F60A515B
:1016B000A047532040F20331A047542040F60D21AB
:1016C000A047552040F60621A04756202946A047AE
:1016D000572040F20331A04758202946A0475920FF
:1016E0002946A04728462946D9F80020D9F80430D1
:1016F000104CA047D9F808000F4B984728462946B8
:101700000E4B9847284605B0BDE8F0835D1A4000AF
:1017100065134000791A40000080004000E100E0BD
:101720002510400020BCBE00F5104000F914400018
:10173000591440003515400009154000651540005A
:101740007910400070B5064600200146064B9847C8
:101750002220064B984749F24074054D3046A84771
:10176000013CFBD170BD00BF65154000E513400092
:101770002914400008B5AF280ED8DB290ED880B256
:1017800089B2074B98472220064B9847064B18888A
:10179000064B9847002008BD012008BD012008BD68
:1017A00065154000E5134000F009002029144000B1
:1017B0002DE9F04184B0039002910192009303A8B7
:1017C00002A901AA6B46214CA047039A029B0199EA
:1017D0004D1C00994C1C10461946AA1AE31A1C4CC1
:1017E000A047BDF80C00BDF808101A4B98472220FE
:1017F000194B9847029B009AD21A019B03F10108EA
:10180000039BC3EB080802FB0888144CA4FB0834B4
:10181000E40907D0124FB026124D38463146A8478A
:10182000013CFAD10D49A1FB0831C909B0240C488B
:1018300004FB11810B4B9847002001462246DC2314
:10184000034CA04704B0BDE8F08100BF9D134000E9
:101850003515400065154000E5134000A38B2EBAF6
:10186000F0090020711440002DE9F04F87B004907A
:101870008B461378002B4AD003920290254AA2F29D
:101880006B220592DFF890900A2B04D10BF1100B1C
:10189000049B029335E003EB83039B00A3F27F26B6
:1018A0001C4A1644059A1A440192DDF80880072460
:1018B00037460BEB040A3D4616F8013C234113F072
:1018C000010F03D04046C4EB0A01C847013CB4F104
:1018D000FF3FF0D107240BF10F072B78234113F0C2
:1018E000010F02D04046391BC847013C012CF4D1FE
:1018F000023608F10108019B9E42D8D1029A0C32AF
:101900000292039A12F8013F0392002BBCD107B058
:10191000BDE8F08FF4C04000751740000B4619B1C8
:10192000096881605B68C3601AB11368836153689A
:10193000C36170470B4619B1096801605B68436079
:101940001AB11368036153684361704721F0FE01C7
:10195000C905C90D0162704721F4FE7121F0010132
:101960008905890D0162704710B44264B1F1C05F0E
:101970002ED008D8B1F1006F14D0B1F1805F1DD026
:10198000002935D135E0B1F1205F32D003D8B1F173
:10199000005F27D02CE0B1F1405F2AD0B1F1605F49
:1019A00027D025E0016F046FD34321401940016720
:1019B000416F446F21400B40436719E0036F1343AD
:1019C0000367436F416F0B4023EA020343670FE055
:1019D000036F016F0B4023EA02030367436F134356
:1019E000436705E0036F13430367436F1343436784
:1019F00042605DF8044B7047416412F0010F14BF60
:101A00004166016612F00A0F14BF0162416212F0D2
:101A1000020F02D0C0F8801004E012F0080F18BFC7
:101A2000C0F8841041610160704700BF10B4416488
:101A3000019C0CB1416600E001660BB1016500E05C
:101A400041650AB1016300E04163016101605DF835
:101A5000044B7047C06C7047806C7047430903F5B6
:101A6000001303F207735B0200F01F00012202FA69
:101A700000F01863704700BF430903F5001303F239
:101A800007735B0200F01F00012202FA00F05863A6
:101A9000704700BF430903F5001303F207735B02AD
:101AA0009A6B00F01F00012101FA00F0104214BFF0
:101AB00058631863704700BF70B582B00D46440983
:101AC00004F5001404F20774660201F0F044B4F166
:101AD000005F47D009D8B4F1805F21D0B4F1C05F76
:101AE0002FD0B4F1006F6FD109E0B4F1405F55D051
:101AF000B4F1605F52D0B4F1205F44D064E000F0F4
:101B00001F000124844030464FF000612246304BD4
:101B1000984715F0010F14BF74663466012054E035
:101B200000F01F000124844030464FF080512246CF
:101B3000274B984715F0010F14BF746634660120D7
:101B400043E000F01F000124844030464FF0C051B4
:101B500022461F4B984715F0010F14BF7466346678
:101B6000012032E000F01F000124844030464FF095
:101B700000512246164B984715F0010F14BF7466AA
:101B80003466012021E000F01F010124304604FAF0
:101B900001F12A460F4B9847204616E000F01F013E
:101BA000012405F0605205EA04030093304604FA6C
:101BB00001F1B2F1605F14BF00220122C5F380037E
:101BC000054DA847204600E0002002B070BD00BFD0
:101BD00069194000F91940002D1A4000F0B583B092
:101BE00007460E46154602F0F044B4F1005F38D0C7
:101BF00009D8B4F1805F1CD0B4F1C05F25D0B4F136
:101C0000006F50D109E0B4F1405F3AD0B4F1605FA9
:101C100037D0B4F1205F30D045E04FF0006132465C
:101C2000224B984715F0010F14BF7E663E660120D7
:101C30003AE04FF0805132461C4B984715F0010FA7
:101C400014BF7E663E6601202EE04FF0C051324642
:101C5000164B984715F0010F14BF7E663E660120B3
:101C600022E04FF000513246104B984715F0010F1B
:101C700014BF7E663E66012016E00D4B984701209A
:101C800012E005F0605205F001030093384631463A
:101C9000B2F1605F14BF00220122C5F38003054C3E
:101CA000A047012000E0002003B0F0BD691940000A
:101CB000F91940002D1A40002DE9F04104460E4666
:101CC000104B9847054620460F4B9847054017D0C4
:101CD0000E4F07F10C046C3754F80C3CB3420AD198
:101CE00054F8081C294206D023683046984754F817
:101CF000083C25EA0305BC4202D01034002DEBD18C
:101D0000BDE8F081551A4000591A4000540B0020DC
:101D100008B502480B21024B984708BD000E0E4043
:101D2000B91C400008B502480C21024B984708BD79
:101D300000100E40B91C400008B502480D21024BAE
:101D4000984708BD00120E40B91C4000174B1A6B93
:101D500022F07002104318639B6E13F0080F09D134
:101D60004FF40063114901E0013B19D08A6E12F073
:101D7000080FF9D00D4B1A6B22F0030242F0020259
:101D80001A63986E10F008000CD14FF400630749F5
:101D900001E0013B08D08A6E12F0080FF9D07047BD
:101DA00001207047002070470120704700040E405A
:101DB00038B111490B6A114A1A40114B13430B6297
:101DC00070470D4A136A23F45C1323F0030343F4B2
:101DD0005C1343F00103090289B20B431362936E53
:101DE00013F0010FFBD0044A136A43F09B7343F4D2
:101DF00080331362704700BF00040E40FCFFC8FE32
:101E000002003701024B986E00F48030704700BF2B
:101E100000040E404FF00052014B9A62704700BF21
:101E200000040E40024B986E00F00200704700BFA5
:101E300000040E401F280DD8084B9A6901238340E7
:101E40001A40934208D0012303FA00F0034B1861B3
:101E500000207047012070470020704700040E40AA
:101E600008B51520014B984708BD00BF351E40003E
:101E7000436823F4702343604368090401F470212C
:101E80000B434360704700BF436823F07F434360C8
:101E9000436843EA01614160704700BF30B443F6D4
:101EA000992401E0013C11D0056915F0020FF9D029
:101EB000446814F0020F06D0120402F47022114399
:101EC0000BB141F08071C160002000E0012030BC06
:101ED000704700BF32B100EB8100036B43F0010398
:101EE0000363704700EB8100036B23F0010303637E
:101EF000704700BF32B100EB8100036B43F0020377
:101F00000363704700EB8100036B23F0020303635C
:101F1000704700BF042A0AD100EB8100036B23F055
:101F200008030363036B43F004030363704752B970
:101F300000EB8100036B23F008030363036B23F0C2
:101F4000040303637047082A05D100EB8100036B8B
:101F500043F008030363704700EB81010B6B23F030
:101F6000F0030B630B6B1A430A637047431E19445B
:101F7000B1FBF0F0431EFE2B94BF80B24FF6FF7012
:101F800000B2704700EB81010B6B23F47F430B63BE
:101F90000B6B43EA02220A63704700BF00EB81012A
:101FA000086B80B20863086B40EA036343EA0242AD
:101FB0000A6370470823036020230360042303603F
:101FC000704700BF0F4B994219D84900B2FBF1F29C
:101FD000043AFF2A07D9002301335208FF2A03D904
:101FE000072BF9D100E00023110289B21B0403F48E
:101FF000E0230B43D2B21A43026100207047012054
:10200000704700BF801A0600416270478162036A10
:10201000704700BF006A7047C06A7047006BC0B26B
:10202000704700BF80230360036B704710B4AC237C
:1020300003600A684B68B2FBF3F31B095C1E4FF6A2
:10204000FE7294420AD803628B68436040F2022316
:10205000C0F8203150230360002000E001205DF82B
:10206000044B704781607047C160704700697047DA
:10207000406970474FF4807303607047436913F001
:10208000020F1ABFC161002001207047436913F09D
:10209000010F1DBF83690B7000200120704700BF36
:1020A000436913F0020F1DBFC1F30801C161002095
:1020B00001207047436913F0010F05D08369C3F312
:1020C00008030B600020704701207047FEE700BF47
:1020D00010B51E4B1E4A9A4203D01E4B1B4A9A4211
:1020E00004D31D4B1D4A9A420FD31AE01C4B1D4CC2
:1020F000E41A24F0030404340023144814495A5801
:102100001A500433A342FAD1EBE7174B1749C91A07
:1021100021F003011A1D1144002243F8042F8B42C1
:10212000FBD1134A22F0604323F07F0311498B60F7
:1021300002F16042B2F5C04F03D28A6842F0005209
:102140008A600D4B98470D4B9847FEE70000002032
:10215000E8CB400094090020B03E00209809002000
:10216000040000209709002094090020AB3E0020C5
:102170000000400000ED00E0514C40005D3E40009A
:10218000394B1B6B03F00303012B0FD013B1022B50
:1021900029D051E0354B5B6913F0800F14BF4FF429
:1021A00000424FF4FA42324B1A6045E02E4B1B6A54
:1021B00013F0807F03D02F4A2D4B1A603CE02E4A4B
:1021C0002B4B1A60284B1B6A03F07003102B02D0B4
:1021D000202B04D030E0294A254B1A602CE0254AF8
:1021E000234B1A6028E0204B1B6A13F0807F03D03A
:1021F000204A1F4B1A6012E01F4A1D4B1A601A4BEF
:102200001B6A03F07003102B02D0202B04D006E0D1
:102210001A4A174B1A6002E0164A154B1A60124B05
:10222000986A996A124BC0F30A401A6800FB0222AE
:10223000C9B2B2FBF1F21A600B4B1B6B03F07003D7
:10224000702B07D10A4B1A680D49A1FB02025208F4
:102250001A607047044B196B054BC1F302111A68E1
:10226000CA401A60704700BF00040E4010140E40B0
:10227000E4000020001BB70000093D0000127A00B6
:10228000ABAAAAAA094B1B6813B9094A074B1A60E3
:10229000064B1B681A180749914204DB1046034A93
:1022A0001060184670474FF0FF307047C40B002095
:1022B000B0460020FC5F00204FF0FF30704700BFA9
:1022C0004FF400534B600020704700BF012070475F
:1022D0000020704700F1080343604FF0FF32826036
:1022E000C360036100230360704700BF00230361E4
:1022F000704700BF43685A684A6042688A605A68FB
:102300009160596041600861036801330360704760
:1023100010B40C68B4F1FF3F01D103690AE000F189
:102320000803C2681268944204D35B685A68126852
:102330009442FAD25A684A6091608B605960086191
:102340000368013303605DF8044B7047436882689B
:102350009A60836842685A6003695A68824204BF7F
:1023600082685A60002202611A68013A1A6018688D
:10237000704700BF03480068006880F3088862B6B1
:1023800000DF00BF08ED00E04FF0807340F8043C30
:1023900040F8081C002340F80C3C40F8202C403842
:1023A000704700BF064B19680868B0E8F00F80F36B
:1023B00009884FF0000080F311884EF00D0E704731
:1023C0007C3D00204FF08052014B1A60704700BFE7
:1023D00004ED00E0EFF311804FF0A00181F31188CC
:1023E0007047002008B5034B9847034B1A68013229
:1023F0001A6008BDD5234000E800002080F3118852
:10240000704700BF08B5044A1368013B136013B955
:102410000020024B984708BDE8000020FD23400043
:10242000EFF309800C4B1A6820E9F00F10602DE9DA
:1024300008404FF0A00080F3118800F015FF4FF026
:10244000000080F31188BDE8084019680868B0E80A
:10245000F00F80F3098870477C3D002008B54FF0ED
:102460008052054B1A60054B9847054B9847002052
:10247000044B984708BD00BF04ED00E0D5234000A1
:102480005D2F4000FD2340004BF67F32024B1A6067
:102490000722043B1A60704714E000E010B5094BB6
:1024A0001A6842F470021A601A6842F070421A60A8
:1024B000054B98470024054B1C60054B9847204668
:1024C00010BD00BF20ED00E089244000E80000209E
:1024D0007523400030B4134A1368834201D21A4670
:1024E000FAE7114654681519854203D16868044417
:1024F0005460104642688418A3420CD10A4C2468E8
:102500009C4206D05B681A4442600B681B680360FB
:1025100002E0036000E00360814218BF086030BC45
:10252000704700BFBC3C0020B83C002038B50446D2
:10253000294B9847294B1B689BB9294A294B1360A3
:102540000021516043F2E0029818244D286043F2C4
:10255000E405595199505A601860234B1A68103A93
:102560001A60002C32D004F1100212F0070F1CBFC9
:1025700022F007020832511E43F2EE03994225D899
:1025800017490C6863689A4204D9236813B121463D
:102590001C46F7E7114B1B689C4217D00D6810359D
:1025A00023680B6063689B1A202B04D9A018436032
:1025B00062600E4B98470C4B1A686168521A1A6099
:1025C0000B4B984735B90B4B984703E0084B98479E
:1025D0000025F8E7284638BD2D2F4000B83C0020E4
:1025E000BC3C0020C80B0020EC000020D52440009B
:1025F0008D304000513E400010B5044668B1074B95
:102600009847074B196854F80C2C0A441A60A4F137
:102610001000044B9847044B984710BD2D2F4000E5
:10262000EC000020D52440008D304000014B18689C
:10263000704700BFEC00002010B50446036C3BB9A6
:1026400003681BBB4068134B9847002363601DE081
:102650006AB980681A46104B9847A268236C1344E5
:10266000A3606268934211D32368A3600EE0C06840
:102670001A46094B9847226C5242E3681344E360C0
:1026800021688B4202D263681A44E260A36B013373
:10269000A36310BD9D354000314D400038B5034661
:1026A00005685DB1026CC4681444C460406884422B
:1026B00028BFDD600846D968014B984738BD00BF88
:1026C000314D4000F8B504461D4B9847A36C002BD4
:1026D00012DD636A83B104F124061A4D1A4F01E03A
:1026E000636A4BB13046A84700B1B847A36C013BC1
:1026F000A364A36C002BF3DC4FF0FF33A364134BF4
:1027000098470F4B9847636C002B12DD236983B108
:1027100004F110060B4D0C4F01E023694BB130461C
:10272000A84700B1B847636C013B6364636C002B3E
:10273000F3DC4FF0FF336364044B9847F8BD00BFF0
:10274000E5234000B9334000E9344000052440004F
:1027500038B50D46044618B9164B984700BFFDE73B
:10276000154B98472368226CE06B00FB02F01918A8
:1027700061600021A163A360821A1344E3604FF0FB
:10278000FF336364A36455B923697BB104F110007E
:102790000A4B9847012809D1094B984706E004F1F4
:1027A0001000084DA84704F12400A847064B98479D
:1027B000012038BDD5234000E5234000B933400057
:1027C000C5234000D522400005244000F8B50D4641
:1027D0001746064688B150200E4B9847044660B114
:1027E00005FB06F001300B4B9847206040B92046AE
:1027F000094B984701E000BFFDE7084B9847FAE70F
:10280000E663256420460121054B984784F84D7006
:102810002046F8BD2D254000F9254000D523400075
:10282000512740002DE9F04F85B08A4601929B4622
:10283000044618B9364B984700BFFDE709B9036C49
:102840001BB90027334E344D03E0314B984700BF8E
:10285000FDE7B047A26BE36B9A4212D22046514685
:102860005A462E4B9847636A3BB104F124002C4B27
:102870009847012801D12B4B9847274B98470120B7
:1028800043E0019B1BB9244B984700203DE01FB952
:1028900002A8254B98470127A847244B9847B047E3
:1028A000636CB3F1FF3F04BF00236364A36CB3F117
:1028B000FF3F04BF0023A364A84702A801A91C4B43
:1028C0009847E0B9B047D4F83890D4F83C80A8478E
:1028D000C1450ED104F110000199164B98472046CE
:1028E000154B9847154B98470028B2D10D4B984788
:1028F000AFE72046104B9847104B9847A9E7204672
:102900000D4B98470D4B9847002005B0BDE8F08F60
:10291000D5234000E523400005244000392640002F
:10292000B9334000C52340003D3440002D2F400006
:102930006534400015334000C52640008D3040000E
:1029400070B506465020134B9847044610B104E07A
:1029500000BFFDE7104B9847FAE70025456005608A
:102960008560C56085630123C36305644FF0FF3351
:102970004364836480F84D601030084EB04704F122
:102980002400B047204629462A462B46044DA84736
:10299000204670BD2D254000D5234000D5224000A3
:1029A000252840002DE9F0410E461546984604467C
:1029B00018B91C4B984700BFFDE729B9036C1BB140
:1029C000184B984700BFFDE7164B98470746A26B88
:1029D000E36B9A4218D2204631464246124B984742
:1029E000A36CB3F1FF3F0AD1636A7BB104F1240009
:1029F0000E4B984760B16DB101242C600BE0A36CC5
:102A00000133A364012406E0002404E0012402E071
:102A1000012400E001243846054B98472046BDE8D4
:102A2000F08100BFD523400039264000B933400073
:102A3000FD2340002DE9F04F85B0894601929A466A
:102A4000044618B9444B984700BFFDE709B9036C29
:102A50002BB90027414EDFF834B1414D03E03E4B26
:102A6000984700BFFDE7B047A36B002B28D0E5686F
:102A7000204649463B4B9847BAF1000F12D1A36B51
:102A8000013BA363236813B9374B98476060236900
:102A900093B104F11000354B984701280CD1344B09
:102AA000984709E0E560636A33B104F124002F4BD5
:102AB000984708B12E4B9847294B9847012048E08A
:102AC000019B1BB9264B9847002042E017B902A88A
:102AD000D8470127A847274B9847B047636CB3F105
:102AE000FF3F04BF00236364A36CB3F1FF3F04BF47
:102AF0000023A364A84702A801A91F4B984710BB55
:102B0000B047D4F83880A847B8F1000F15D1236832
:102B100023B9B0476068194B9847A84704F12400CF
:102B20000199174B98472046164B9847164B9847E4
:102B3000002898D10E4B984795E72046114B9847AF
:102B4000114B98478FE720460E4B98470E4B9847FE
:102B5000002005B0BDE8F08FD5234000E5234000FC
:102B6000052440009D264000F5344000B933400064
:102B7000C52340002D2F4000653440002135400022
:102B800015334000C52640008D3040003D344000E4
:102B900038B504460D460D4B9847636CB3F1FF3FC3
:102BA00004BF00236364A36CB3F1FF3F04BF0023A1
:102BB000A364074B9847A36B23B904F1240029466B
:102BC000044B98472046044B984738BDE523400006
:102BD0000524400075334000C526400010B504466A
:102BE0000E4B1B6858600E4B1B68984207D20D4B6A
:102BF00018680A4B196804310B4B984710BD0B4BF2
:102C00001868064B19680431074B9847084B1B6836
:102C10009C423CBF064B1C6010BD00BF7C3D0020A9
:102C2000983D00209C3D002011234000DC3C00200A
:102C3000F00000202DE9F84F0E4617469A460A9DEF
:102C4000DDF83080814618B9624B984700BFFDE738
:102C5000042D03D95F4B984700BFFDE74C205E4B26
:102C600098470446002800F0B180B8F1000F40F00A
:102C7000A980B800584B9847206318B92046574B95
:102C80009847A3E0A521BA00554B984707F1804724
:102C9000013F236B03EB870323F0070B04F13400A0
:102CA00031460A224F4B9847002384F83D30042DCB
:102CB00034BF2E460426E662A664271D3846DFF898
:102CC0007081C04704F11800C0472461C6F10506B1
:102CD000A6616462584649465246434B9847206075
:102CE00010F0070F03D03B4B984700BFFDE70B9B4D
:102CF00003B11C603D4B98473D4B1A6801321A6086
:102D00003C4B1B682BBB3B4B1C60394B1B68012B9E
:102D100029D1394E06F16409DFF8E0803046C0471A
:102D200014364E45FAD1DFF80C914846334EB04781
:102D3000DFF804814046B0473148B0473148B047DA
:102D40003148B047314BC3F80090314BC3F8008095
:102D500009E0304B1B6833B9264B1B68DB6A9D4288
:102D600024BF244B1C60E36A2B4A1268934284BF41
:102D7000294A1360294A1168216401311160284AE7
:102D80001268934284BF264A136003EB83031A48F8
:102D900000EB83003946234B9847234B98471D4B44
:102DA0001B684BB1134B1B68DB6A9D4207D91F4B55
:102DB00098470120BDE8F88F0120BDE8F88F012079
:102DC000BDE8F88FC0F8308040465BE74FF0FF3039
:102DD000BDE8F88FD52340002D254000F92540009F
:102DE0001D4E40006D50400089234000E523400007
:102DF000BC3D00207C3D0020143D0020D522400039
:102E0000803D0020E83C0020C83C0020DC3C002045
:102E10009C3D0020E03C0020C03D0020A03D002063
:102E2000103D0020F522400005244000C52340004D
:102E3000ED224000A43D0020FC3C002070B504467B
:102E4000164B9847164B1B689C4203D026462CB95C
:102E5000264600E00026124B1C68FFE7251D284689
:102E6000104B9847A36A1BB104F118000D4B98470B
:102E70000D4829460D4B98470D4B1A6801321A60D0
:102E80000C4B1A6801321A600B4B98470B4B1B68AE
:102E900013B10EB90A4B984770BD00BFE52340003F
:102EA0007C3D00204D234000E83C0020F5224000FE
:102EB000E43C0020A03D002005244000E03C002030
:102EC000C523400010B584B0002300930193029302
:102ED00003930E480E4946220E4CA04701280ED1FE
:102EE0000D4B984701280AD10C4B984701220C4BF7
:102EF0001A6000220B4B1A600B4B984704E018B97C
:102F0000064B984700BFFDE704B010BDDD3140001F
:102F100088C84000352C400095364000D52340003D
:102F2000E03C0020983D00209D244000024B1A68A0
:102F300001321A60704700BF783D002010B5044B85
:102F40009847044B1C68044B9847204610BD00BFAF
:102F5000E5234000983D0020052440002DE9F04184
:102F60003D4B1B68002B69D13C4B1A6801321A603B
:102F70001B6803BB3A4B1B681B681BB1394B984756
:102F800000BFFDE7364B1968374A106818601160BA
:102F9000364A1168013111601B681B6823B94FF074
:102FA000FF32334B1A6006E02D4B1B68DB68DB6891
:102FB0005A682F4B1A60294B1A682D4B1B689A428E
:102FC00042D3274B1B681B684BB1254B1B68DB6842
:102FD000DC686368214A1268934211D90DE04FF012
:102FE000FF32234B1A602FE01D4B1B68DB68DC6847
:102FF00063681A4A1268934206D91D4A136023E097
:103000001C4E1D4FDFF88080251D2846B047A36A5F
:1030100013B104F11800B047E36A3A68934288BFDD
:103020003B6003EB830008EB80002946134B984775
:103030000B4B1B681B68002BD6D1D0E7104B1A68CE
:1030400001321A600F4B98470D4B1B680BB90D4BA3
:103050009847BDE8F08100BF783D0020983D0020F2
:10306000DC3C0020D52340009C3D0020943D002006
:10307000F00000204D234000103D0020F5224000CC
:10308000C43C00204D3E4000143D00202DE9F84393
:10309000314B1B681BB9314B984700BFFDE7304BE4
:1030A00098472D4B1A68013A1A601B68002B48D1CB
:1030B0002C4B1B68002B46D00025DFF8D4802A4F0C
:1030C0002A4E1DE0D8F80C30DC6804F11800B8472F
:1030D00004F104094846B847E36A3268934288BF5E
:1030E000336003EB8303224800EB83004946214B06
:1030F0009847214B1B68E26ADB6A9A4228BF012588
:10310000D8F80030002BDDD11C4B1B6863B11B4B82
:103110001B687BB11A4D194CA8472368013B2360FB
:103120002368002BF8D105E0012D03D0154B1B6857
:10313000012B0AD10022134B1A60134B984701242C
:1031400004E0002402E0002400E000240F4B984734
:103150002046BDE8F88300BF783D0020D52340001D
:10316000E5234000BC3D00204D234000103D0020E1
:10317000143D0020F52240007C3D0020C43C00208E
:103180005D2F4000B83D0020C523400005244000CD
:10319000803D002010B5044678B1094B9847094B93
:1031A0001B681C44084B18680430084B984720469D
:1031B000074B9847074B984708B9074B984710BDEE
:1031C0002D2F4000983D00207C3D00204D234000E5
:1031D000DD2B40008D304000C523400080B5164DEA
:1031E000164F174E1DE0174B9847174B1C68174B8F
:1031F0009847B4B1164B9847134BDB68DC68201D29
:10320000144B9847144B1A68013A1A602B68013B1B
:103210002B60124B9847206BDFF84880C047204650
:10322000C0472B68002BDED13B68012B01D90C4B2A
:103230009847B047F5E700BFE43C0020143D00206C
:10324000493E40002D2F4000E83C00208D304000DA
:10325000E52340004D234000BC3D002005244000F4
:10326000C5234000F925400008B5234B1B681BB15E
:103270000122224B1A6008BD214B1A681B68126894
:103280001B6B9A4205D81E4B1868196834311D4BC8
:1032900098471D4B1B6803EB83039B001B4AD358C5
:1032A000ABB9194B1B6833B901E01A682AB9184B3E
:1032B000984700BFFDE7144B14491A68013A1A6099
:1032C0001A6802EB820251F82220002AEDD00E4B40
:1032D0001B6803EB83030D4A02EB83035A685268B1
:1032E0005A6003F108018A4204BF52685A605B6861
:1032F000DA68034B1A6008BD783D0020B83D002015
:103300007C3D0020253E4000103D0020143D002063
:10331000D523400038B50C4618B90E4B984700BF6E
:10332000FDE70D4D296818310C4B9847286804308B
:103330000B4B9847B4F1FF3F05D129680948043188
:10334000094B984738BD094B18682044084B9847EB
:1033500038BD00BFD52340007C3D00201123400034
:103360004D234000C83C0020F5224000983D00203D
:10337000DD2B400038B50D4618B9094B984700BF02
:10338000FDE7084C21681831074B98472068043046
:10339000064B9847064B18682844064B984738BD9B
:1033A000D52340007C3D0020F52240004D23400005
:1033B000983D0020DD2B400038B5C368DC681CB99F
:1033C000164B984700BFFDE704F118052846144B3B
:1033D0009847144B1B689BB9251D2846104B9847EE
:1033E000E36A114A1268934284BF0F4A136003EBE9
:1033F00083030E4800EB830029460D4B984703E0FA
:103400000C4829460A4B98470B4B1B68E06ADB6A5D
:10341000984234BF0020012038BD00BFD5234000B2
:103420004D234000783D0020103D0020143D002039
:10343000F5224000803D00207C3D002008B518B9F1
:10344000054B984700BFFDE7044A12680260044A32
:103450001268426008BD00BFD5234000943D0020A3
:10346000983D002038B50D46044618B9184B9847CA
:1034700000BFFDE719B9164B984700BFFDE7154B94
:1034800098472B68B3F1FF3F19D0134A116822689F
:103490008A4204D0114A116862688A4211D90F4ADF
:1034A00011686268891A8B420DD90C490968521A51
:1034B00013442B6020460A4B9847002404E0002464
:1034C00002E0012400E00124064B9847204638BD65
:1034D000D5234000E5234000943D0020983D002086
:1034E0003D344000052440000122014B1A60704722
:1034F000B83D0020014B1868704700BF7C3D00209C
:10350000054B1B6833B1054B1B68002B14BF022011
:103510000120704700207047E03C0020783D0020EB
:1035200038B5044600282ED0C36A174A1268D26AFA
:10353000934228D2144A1268D26AC2F1050282610B
:1035400003EB8303114A02EB830342699A4216D1CB
:10355000051D28460E4B98470B4B1B68DB6AE36240
:103560000C4A1268934284BF0A4A136003EB830338
:10357000064800EB83002946074B984738BD024BAD
:103580001B68DB6AC36238BD7C3D0020143D00200F
:103590004D234000103D0020F522400038B5044680
:1035A000D0B1C26A836C9A4216D0051D28460B4BD7
:1035B0009847A36CE362C3F10502A261084A12684E
:1035C000934284BF064A136003EB8303054800EB74
:1035D00083002946044B984738BD00BF4D23400067
:1035E000103D0020143D0020F522400010B5044697
:1035F0004160206191420AD8D21A81698A4211D26F
:103600000A4B1868211D0A4B9847002010BD9A42AA
:1036100001D2994208D2074B1868211D044B9847E4
:10362000002010BD012010BD012010BDF83D00207C
:1036300011234000C43D002070B50D4B98470D4B41
:103640001B688BB90C4D28460C4EB0470C4C2046DD
:10365000B0470C4B1D600C4B1C6005200C21002258
:103660000A4B9847034B1860094B984770BD00BF41
:10367000E5234000F43D0020C83D0020D522400055
:10368000DC3D0020C43D0020F83D0020CD27400057
:103690000524400010B584B00B4B98470B4B1B68BA
:1036A0005BB1042300930023019302930393084822
:1036B00008498C22084CA04718B9084B984700BF0E
:1036C000FDE704B010BD00BF39364000F43D0020D6
:1036D0003938400090C84000352C4000D5234000C8
:1036E0002DE9F041804616461D460F4619B90C4B90
:1036F000984700BFFDE728200A4B9847044658B179
:10370000094B9847C4F80080A761E6612562069BD3
:103710006362201D054B98472046BDE8F08100BF3D
:10372000D52340002D25400039364000ED224000D1
:1037300010B584B00F4C2468C4B10191029203907B
:103740006BB90D4B984701280A4B186801A907BFB0
:10375000069A002300221346084CA04707E02046A3
:1037600001A91A460023064CA04700E0002004B03F
:1037700010BD00BFF43D0020013540002528400069
:10378000A52940002DE9F04782B08146224B984799
:103790008046224B1B68984234D2214E214F24E0B0
:1037A000DA68D2F800A0DB68DC68251D2846B84737
:1037B000636A20469847E369012B16D1A3695344F5
:1037C000534506D96360246130682946164B9847F3
:1037D0000BE000230093204619465246134CA047A5
:1037E00018B9134B984700BFFDE733681A68002AE1
:1037F000D6D1104A11680A48016013600123C9F844
:10380000003002E00023C9F80030044BC3F8008008
:10381000404602B0BDE8F0873D2F4000F03D00205B
:10382000C43D00204D2340001123400031374000AB
:10383000D5234000F83D00202DE9F04387B04D4DE1
:10384000DFF860814C4B1B681A68002A00F0878003
:10385000DB681E68494B984703A8494B98470746C1
:10386000039B002B30D1864224D8464B9847424BCD
:103870001B68DB68DC68201DC047E369012B14D19D
:10388000A169204631443A4633463F4FB8470128A4
:103890000BD1002300932046194632463B4EB047D9
:1038A00018B93B4B984700BFFDE7636A204698472D
:1038B0000CE000262868F11B364B9847314B98479F
:1038C00020B9354B984701E02E4B984702A82C4B66
:1038D00098470746314EDFF8B09038E0059C1CB1A0
:1038E000616909B1201DC047039902291FD003292E
:1038F0002AD000292BD1049BA169204619443A46BD
:10390000C847012823D1636A20469847E369012B01
:103910001DD1A2690023009320461946049C22442D
:103920001A4CA04798B91A4B984700BFFDE7049975
:10393000A16119B9164B984700BFFDE720463944ED
:103940003A463B46C84702E02046154B9847286850
:1039500003A900221346B0470028BFD172E7074BE6
:10396000984703A8064B98470746039B002BA0D017
:10397000AAE700BFF43D0020C43D00202D2F4000E9
:10398000853740008D304000ED3540003137400034
:10399000D5234000912B4000C5234000352A40002C
:1039A000F92540004D23400010B5044B1868002154
:1039B0000A460B46024CA04710BD00BF6C3E0020DB
:1039C0002528400010B588B08DF807100023039318
:1039D00007938DF80C20012204920DF10701059147
:1039E00006928DF81C00044A106803A94FF0FF32BC
:1039F000024CA04708B010BD683E0020C90A400034
:103A000010B588B08DF807100023039307938DF845
:103A10000C20012204920DF10701059106928DF808
:103A20001C00044A106803A94FF0FF32024CA04763
:103A300008B010BD683E0020C90A400010B584B02F
:103A40000B4B0FCB8DE80F000A4869460A4B98478D
:103A50000A4B186018B90A4B984700BFFDE70548A4
:103A60000849094A094B9847C0B204B010BD00BFCD
:103A700098C8400000800140B1094000683E002025
:103A8000D5234000801A0600006CDC02C51F4000F0
:103A90002DE9F04F93B00120002103228E4B98476F
:103AA0008E4B186038B100210A460B468C4CA0475B
:103AB0008A4B186818B98B4B984700BFFDE7002167
:103AC0000A460B46884CA047884B009388486421DF
:103AD00001220023874CA0470446874B1860874B80
:103AE000984702460023009320461946844CA0477D
:103AF000844B984718B18448844B984759E1532028
:103B000008213122824B984758B9532009212C2291
:103B10007F4B984728B9532008212D227C4B98478A
:103B200018B17C48794B984743E168201B21162245
:103B3000794B984758B9682000211522764B984751
:103B400028B9682000213E22734B984718B173486A
:103B50006E4B98472DE1DFF8ECA1604B186800210F
:103B60004FF0FF320B46604CA04700240F94109496
:103B700011940FA86A4903226A4B98470594ADF83F
:103B8000184007940B9432238DF81C3001230893BE
:103B900005AB099306230A9353238DF82C30624B0F
:103BA000186807A94FF0FF322346604CA047002851
:103BB00040F009815E4F0EAD002405AEDFF888B1FC
:103BC000DFF87C91DFF8848133195878A35D43EAEC
:103BD000002010F47C4F09D1D847C8473CA3D3E953
:103BE0000023C047534B984768600DE04042C0F344
:103BF0000900D847C84736A3D3E90023C0474D4B37
:103C0000984700F100406860686857F8041FD04783
:103C100045F8040F0234062CD6D1D4E028590021EF
:103C2000B84728590FA9214400220123B047043482
:103C30000C2CF3D100240C940D940E940CA838494C
:103C40000322384B98470594ADF8184007940B941D
:103C50001D238DF81C300123089305AB099306231F
:103C60000A9368238DF82C302F4B186807A94FF062
:103C7000FF3223462D4CA047002840F0A9802E4F4C
:103C80000BAD002405AEDFF8C090DFF8C480A25D64
:103C900033195B7843EA022398B213F4004F04D13E
:103CA000C8472649C047686008E04042C0F30E009C
:103CB000C8472249C04700F100406860686857F86B
:103CC000041FD04745F8040F0234062CDFD17FE0F3
:103CD0003333333333330F40CD2740006C3E002065
:103CE00025284000D5234000352A4000A93940004E
:103CF000C0C84000E1364000A83E00203D2F4000F3
:103D0000313740003D3A4000CCC84000010440003B
:103D1000C5394000DCC84000013A4000F0C840000E
:103D200080C1FFFF1D4E4000683E0020450C400052
:103D3000A4C84000F5464000B0C8400000006641FD
:103D400029424000A147400001494000D1424000C3
:103D5000194B400028590021B84728590CA9214483
:103D600000220123B04704340C2CF3D11B4E0F98D2
:103D7000B04704460D461098B047CDE900011198B0
:103D8000B047CDE90201164822462B46154FB847E9
:103D90000C98B04704460D460D98B047CDE9000198
:103DA0000E98B047CDE902010F4822462B46B8478E
:103DB000D3E60E480B4B984719200D4B984700202F
:103DC0000C4B9847C7E600240B4D0C4F0C4E25E7D3
:103DD00000240C4D094F0A4EBCE700BF29424000A9
:103DE00000C940000104400024C9400048C9400007
:103DF000A51240003D2E40003C3E002051274000CF
:103E000025284000303E002008B51726034D044CFD
:103E10003046A8474FF4FA70A047F9E7951A4000DA
:103E20009531400008B503460A4604481946044B3C
:103E300098471925034C2846A047FCE754C9400081
:103E4000A14C4000A5124000704700BF704700BF62
:103E500008B5014B9847FEE7D523400010B584B064
:103E60002C4B98472C4AD36823F4E0631B041B0CAB
:103E700043F0BF6343F40033D360284B9847284B8B
:103E800098472848284B9847284B98470123009388
:103E90000023019302930393254826494622264C8A
:103EA000A047012805D025481F4B98471920244BCF
:103EB000984703230093002301930293039321481F
:103EC00021494FF480621C4CA047012805D01F48AF
:103ED000154B984719201A4B98470223009300234B
:103EE0000193029303931A481A494FF40072124C3B
:103EF000A047012805D018480B4B98471920104BB4
:103F00009847164B984719200D4B9847002004B04E
:103F100010BD00BFF904400000ED00E0B911400001
:103F20005D0440006CC94000A14C400025014000E8
:103F3000093E40007CC94000352C400084C9400047
:103F4000A5124000913A4000A8C94000B0C9400005
:103F5000B5014000D0C94000D8C94000C52E40007E
:103F600081F0004102E000BF83F0004330B54FEA2A
:103F700041044FEA430594EA050F08BF90EA020F97
:103F80001FBF54EA000C55EA020C7FEA645C7FEA2A
:103F9000655C00F0E2804FEA5454D4EB5555B8BF4D
:103FA0006D420CDD2C4480EA020281EA030382EABE
:103FB000000083EA010180EA020281EA0303362D50
:103FC00088BF30BD11F0004F4FEA01314FF4801C23
:103FD0004CEA113102D0404261EB410113F0004F35
:103FE0004FEA03334CEA133302D0524263EB4303EC
:103FF00094EA050F00F0A780A4F10104D5F1200E8A
:104000000DDB02FA0EFC22FA05F2801841F10001E4
:1040100003FA0EF2801843FA05F359410EE0A5F1B8
:1040200020050EF1200E012A03FA0EFC28BF4CF0E9
:10403000020C43FA05F3C01851EBE37101F000459F
:1040400007D54FF0000EDCF1000C7EEB00006EEBAC
:104050000101B1F5801F1BD3B1F5001F0CD3490836
:104060005FEA30004FEA3C0C04F101044FEA44528D
:1040700012F5800F80F09A80BCF1004F08BF5FEA14
:10408000500C50F1000041EB045141EA050130BDF4
:104090005FEA4C0C404141EB010111F4801FA4F197
:1040A0000104E9D191F0000F04BF01460020B1FAEC
:1040B00081F308BF2033A3F10B03B3F120020CDA24
:1040C0000C3208DD02F1140CC2F10C0201FA0CF002
:1040D00021FA02F10CE002F11402D8BFC2F1200C67
:1040E00001FA02F120FA0CFCDCBF41EA0C0190401D
:1040F000E41AA2BF01EB0451294330BD6FEA040466
:104100001F3C1CDA0C340EDC04F11404C4F1200250
:1041100020FA04F001FA02F340EA030021FA04F362
:1041200045EA030130BDC4F10C04C4F1200220FAB9
:1041300002F001FA04F340EA0300294630BD21FAF7
:1041400004F0294630BD94F0000F83F4801306BFBD
:1041500081F480110134013D4EE77FEA645C18BFB1
:104160007FEA655C29D094EA050F08BF90EA020F48
:1041700005D054EA000C04BF1946104630BD91EA40
:10418000030F1EBF0021002030BD5FEA545C05D143
:104190004000494128BF41F0004130BD14F5800482
:1041A0003CBF01F5801130BD01F0004545F0FE41F6
:1041B00041F470014FF0000030BD7FEA645C1ABF2B
:1041C000194610467FEA655C1CBF0B46024650EA62
:1041D000013406BF52EA033591EA030F41F400218E
:1041E00030BD00BF90F0000F04BF0021704730B514
:1041F0004FF4806404F132044FF000054FF00001E9
:1042000050E700BF90F0000F04BF0021704730B5A9
:104210004FF4806404F1320410F0004548BF40427E
:104220004FF000013EE700BF42004FEAE2014FEAD3
:1042300031014FEA02701FBF12F07F4393F07F4FAE
:1042400081F06051704792F0000F14BF93F07F4FE0
:10425000704730B54FF4607401F0004521F0004123
:1042600020E700BF50EA010208BF704730B54FF0A9
:1042700000050AE050EA010208BF704730B511F0AE
:10428000004502D5404261EB41014FF4806404F1E6
:1042900032045FEA915C3FF4DCAE4FF003025FEA68
:1042A000DC0C18BF03325FEADC0C18BF033202EBF0
:1042B000DC02C2F1200300FA03FC20FA02F001FA4A
:1042C00003FE40EA0E0021FA02F11444C1E600BFE9
:1042D00070B54FF0FF0C4CF4E06C1CEA11541DBF9C
:1042E0001CEA135594EA0C0F95EA0C0F00F0DEF867
:1042F0002C4481EA030621EA4C5123EA4C5350EA4C
:10430000013518BF52EA033541F4801143F480139C
:1043100038D0A0FB02CE4FF00005E1FB02E506F02D
:104320000042E0FB03E54FF00006E1FB03569CF082
:10433000000F18BF4EF0010EA4F1FF04B6F5007F88
:1043400064F5407404D25FEA4E0E6D4146EB0606FA
:1043500042EAC62141EA55514FEAC52040EA5E5083
:104360004FEACE2EB4F1FD0C88BFBCF5E06F1ED82D
:10437000BEF1004F08BF5FEA500E50F1000041EB64
:10438000045170BD06F0004646EA010140EA020011
:1043900081EA0301B4EB5C04C2BFD4EB0C0541EA33
:1043A000045170BD41F480114FF0000E013C00F348
:1043B000AB8014F1360FDEBF002001F0004170BD6C
:1043C000C4F10004203C35DA0C341BDC04F1140485
:1043D000C4F1200500FA05F320FA04F001FA05F211
:1043E00040EA020001F0004221F0004110EBD370DE
:1043F00021FA04F642EB06015EEA430E08BF20EA0A
:10440000D37070BDC4F10C04C4F1200500FA04F3AC
:1044100020FA05F001FA04F240EA020001F000413E
:1044200010EBD37041F100015EEA430E08BF20EAB1
:10443000D37070BDC4F1200500FA05F24EEA020EF9
:1044400020FA04F301FA05F243EA020321FA04F028
:1044500001F0004121FA04F220EA020000EBD370DF
:104460005EEA430E08BF20EAD37070BD94F0000FDF
:104470000FD101F00046400041EB010111F4801F13
:1044800008BF013CF7D041EA060195F0000F18BFC4
:10449000704703F00046520043EB030313F4801F00
:1044A00008BF013DF7D043EA0603704794EA0C0FBA
:1044B0000CEA135518BF95EA0C0F0CD050EA4106D0
:1044C00018BF52EA4306D1D181EA030101F000414D
:1044D0004FF0000070BD50EA410606BF1046194675
:1044E00052EA430619D094EA0C0F02D150EA013681
:1044F00013D195EA0C0F05D152EA03361CBF1046C2
:1045000019460AD181EA030101F0004141F0FE4160
:1045100041F470014FF0000070BD41F0FE4141F4E4
:10452000780170BD70B54FF0FF0C4CF4E06C1CEAE4
:1045300011541DBF1CEA135594EA0C0F95EA0C0F99
:1045400000F0A7F8A4EB050481EA030E52EA033554
:104550004FEA013100F088804FEA03334FF0805575
:1045600045EA131343EA12634FEA022245EA1115A2
:1045700045EA10654FEA00260EF000419D4208BF53
:10458000964244F1FD0404F5407402D25B084FEA00
:104590003202B61A65EB03055B084FEA32024FF4AC
:1045A00080104FF4002CB6EB020E75EB030E22BF09
:1045B000B61A754640EA0C005B084FEA3202B6EBC9
:1045C000020E75EB030E22BFB61A754640EA5C0078
:1045D0005B084FEA3202B6EB020E75EB030E22BF08
:1045E000B61A754640EA9C005B084FEA3202B6EB09
:1045F000020E75EB030E22BFB61A754640EADC00C8
:1046000055EA060E18D04FEA051545EA16754FEA29
:1046100006164FEAC30343EA52734FEAC2025FEA47
:104620001C1CC0D111F4801F0BD141EA00014FF0D6
:1046300000004FF0004CB6E711F4801F04BF0143A7
:104640000020B4F1FD0C88BFBCF5E06F3FF6AFAEC3
:10465000B5EB030C04BFB6EB020C5FEA500C50F153
:10466000000041EB045170BD0EF0004E4EEA1131D6
:1046700014EB5C04C2BFD4EB0C0541EA045170BDDD
:1046800041F480114FF0000E013C90E645EA060E21
:104690008DE60CEA135594EA0C0F08BF95EA0C0F4F
:1046A0003FF43BAF94EA0C0F0AD150EA01347FF497
:1046B00034AF95EA0C0F7FF425AF104619462CE76E
:1046C00095EA0C0F06D152EA03353FF4FDAE1046D1
:1046D000194622E750EA410618BF52EA43067FF422
:1046E000C5AE50EA41047FF40DAF52EA43057FF4B2
:1046F000EBAE12E74FEA4102B2F1E04324BFB3F55B
:10470000001CDCF1FE5C0DD901F0004C4FEAC00248
:104710004CEA5070B2F1004F40EB830008BF20F02C
:104720000100704711F0804F21D113F13872BCBFE6
:1047300001F00040704741F480114FEA5252C2F13B
:104740001802C2F1200C10FA0CF320FA02F018BF84
:1047500040F001004FEAC1234FEAD32303FA0CFCD7
:1047600040EA0C0023FA02F34FEA4303CCE77FEA66
:10477000625307D150EA01331EBF4FF0FE4040F4B0
:104780004000704701F0004040F0FE4040F400005F
:10479000704700BF80F0004002E000BF81F00041A0
:1047A00042001FBF5FEA410392EA030F7FEA226CD7
:1047B0007FEA236C6AD04FEA1262D2EB1363C1BF67
:1047C000D218414048404140B8BF5B42192B88BFD6
:1047D000704710F0004F40F4000020F07F4018BFF9
:1047E000404211F0004F41F4000121F07F4118BF19
:1047F000494292EA030F3FD0A2F1010241FA03FCC1
:1048000010EB0C00C3F1200301FA03F100F00043A8
:1048100002D5494260EB4000B0F5000F13D3B0F170
:10482000807F06D340084FEA310102F10102FE2ADF
:1048300051D2B1F1004F40EBC25008BF20F001004F
:1048400040EA03007047490040EB000010F4000FFD
:10485000A2F10102EDD1B0FA80FCACF1080CB2EB90
:104860000C0200FA0CF0AABF00EBC25052421843EF
:10487000BCBFD0401843704792F0000F81F4000194
:1048800006BF80F400000132013BB5E74FEA410367
:104890007FEA226C18BF7FEA236C21D092EA030FD3
:1048A00004D092F0000F08BF0846704790EA010F4D
:1048B0001CBF0020704712F07F4F04D1400028BF7A
:1048C00040F00040704712F100723CBF00F500005C
:1048D000704700F0004343F0FE4040F40000704792
:1048E0007FEA226216BF08467FEA2363014642023E
:1048F00006BF5FEA412390EA010F40F48000704751
:104900004FF0000304E000BF10F0004348BF4042F6
:104910005FEA000C08BF704743F0964301464FF032
:1049200000001CE050EA010208BF70474FF000038E
:104930000AE000BF50EA010208BF704711F00043CF
:1049400002D5404261EB41015FEA010C02BF84469F
:104950000146002043F0B64308BFA3F18053A3F5FE
:104960000003BCFA8CF2083AA3EBC25310DB01FA45
:1049700002FC634400FA02FCC2F12002BCF1004FC9
:1049800020FA02F243EB020008BF20F0010070475A
:1049900002F1200201FA02FCC2F1200250EA4C00AE
:1049A00021FA02F243EB020008BF20EADC707047F4
:1049B0004FF0FF0C1CEAD0521EBF1CEAD15392EA02
:1049C0000C0F93EA0C0F6FD01A4480EA010C4002DE
:1049D00018BF5FEA41211ED04FF0006343EA501038
:1049E00043EA5111A0FB01310CF00040B1F5000F7A
:1049F0003EBF490041EAD3715B0040EA010062F129
:104A00007F02FD2A1DD8B3F1004F40EBC25008BF12
:104A100020F00100704790F0000F0CF0004C08BF30
:104A200049024CEA502040EA51207F3AC2BFD2F1FD
:104A3000FF0340EAC250704740F400004FF000030B
:104A4000013A5DDC12F1190FDCBF00F00040704745
:104A5000C2F10002410021FA02F1C2F1200200FA83
:104A600002FC5FEA310040F1000053EA4C0308BF4A
:104A700020EADC70704792F0000F00F0004C02BF9B
:104A8000400010F4000F013AF9D040EA0C0093F016
:104A9000000F01F0004C02BF490011F4000F013B70
:104AA000F9D041EA0C018FE70CEAD15392EA0C0FDE
:104AB00018BF93EA0C0F0AD030F0004C18BF31F049
:104AC000004CD8D180EA010000F00040704790F01F
:104AD000000F17BF90F0004F084691F0000F91F0C3
:104AE000004F14D092EA0C0F01D142020FD193EA89
:104AF0000C0F03D14B0218BF084608D180EA010011
:104B000000F0004040F0FE4040F40000704740F0EC
:104B1000FE4040F4400070474FF0FF0C1CEAD052BA
:104B20001EBF1CEAD15392EA0C0F93EA0C0F69D016
:104B3000A2EB030280EA010C49024FEA402037D081
:104B40004FF0805343EA111143EA10130CF0004078
:104B50008B4238BF5B0042F17D024FF4000C8B4268
:104B600024BF5B1A40EA0C00B3EB510F24BFA3EB48
:104B7000510340EA5C00B3EB910F24BFA3EB910318
:104B800040EA9C00B3EBD10F24BFA3EBD10340EA72
:104B9000DC001B0118BF5FEA1C1CE0D1FD2A3FF6B8
:104BA00050AF8B4240EBC25008BF20F0010070476D
:104BB0000CF0004C4CEA50207F32C2BFD2F1FF0310
:104BC00040EAC250704740F400004FF00003013A41
:104BD00037E792F0000F00F0004C02BF400010F4E5
:104BE000000F013AF9D040EA0C0093F0000F01F0F9
:104BF000004C02BF490011F4000F013BF9D041EA1B
:104C00000C0195E70CEAD15392EA0C0F08D142024D
:104C10007FF47DAF93EA0C0F7FF470AF084676E720
:104C200093EA0C0F04D14B023FF44CAF08466EE7F9
:104C300030F0004C18BF31F0004CCAD130F00042C7
:104C40007FF45CAF31F000437FF43CAF5FE700BF1F
:104C500070B50F4E0F4D761BB61007D0043D0024E3
:104C6000013455F8043F9847A642F9D10A4E0B4D3E
:104C700007F0A4FF761BB61008D0043D00240134D1
:104C800055F8043F9847A642F9D170BD70BD00BFEA
:104C9000C8CB4000C8CB4000D0CB4000C8CB4000C0
:104CA0000FB410B5074B82B004AC54F8042B18684D
:104CB00023468168019401F0C3FC02B0BDE81040B6
:104CC00004B0704720050020032A70B428D940EAB8
:104CD00001039B0713D005780C78A54224D1013A33
:104CE000002305E010F8015F11F8014FA5421BD128
:104CF000934203F10103F5D1002070BC70470C46CC
:104D0000034625681E682146AE42184604F1040495
:104D100003F1040304D1043A032A18462146F0D8CB
:104D2000002AD8D11046E8E7281B70BC704700BFA6
:104D3000844641EA000313F0030349D1403A23D3E8
:104D40000B6803604B6843608B688360CB68C3600B
:104D50000B6903614B6943618B698361CB69C361F3
:104D60000B6A03624B6A43628B6A8362CB6AC362DB
:104D70000B6B03634B6B43638B6B8363CB6BC363C3
:104D800040304031403ADBD230320BD30B68036005
:104D90004B6843608B688360CB68C3601030103110
:104DA000103AF3D20C3205D351F8043B40F8043BDF
:104DB000043AF9D2043208D0D2071CBF11F8013BE3
:104DC00000F8013B01D30B8803806046704700BFA9
:104DD000082A13D38B07B1D010F00303AED0C3F170
:104DE0000403D21ADB071CBF11F8013B00F8013B9A
:104DF000A4D331F8023B20F8023B9FE7043AD9D311
:104E0000013A11F8013B00F8013BF9D20B7803702D
:104E10004B7843708B78837060467047F0B484079A
:104E200043D0541E002A3ED0CDB2034603E0621E9A
:104E3000002C38D0144603F8015B9A07F7D1032CF5
:104E40002AD9CDB245EA05250F2C45EA054515D9E5
:104E5000A4F110073F0903F1100606EB07161A46E6
:104E6000156055609560D5601032B242F8D104F0FB
:104E70000F040137032C03EB07130DD91E462246FE
:104E8000043A032A46F8045BFAD8221F22F00302F0
:104E90000432134404F003042CB1C9B21C4403F8D7
:104EA000011BA342FBD1F0BC704714460346C6E782
:104EB00000290CBF022200224FF4806300F000B8EA
:104EC0002DE9F0413C4D04462D68884616461F46A4
:104ED00015B1AB6B002B4FD0022E30D8002F2EDB3C
:104EE0002846214603F0ECFAA38900226260A26101
:104EF0001A0628D423F083039BB2022EA3812DD05F
:104F0000B8F1000F3CD0012E13D09BB203F0080083
:104F10002A4A80B2EA63C4F80080C4F8108067614E
:104F200078B113F0030F18BF0027A7600020BDE879
:104F3000F08143F001037A42A381A261E5E74FF0DB
:104F4000FF30BDE8F0812846216903F019FCA389F0
:104F5000022E23F083039BB2A381D1D1002004F160
:104F6000430243F0020300250121A381A5602260D2
:104F700022616161BDE8F081284603F0BDFAABE72C
:104F8000002F08BF4FF48067384603F0F3FE8046D9
:104F900028B1A38943F080039BB2A381B3E74FF408
:104FA000806003F0E7FE804618B9A3894FF0FF3018
:104FB000D5E74FF48067ECE720050020ED84400042
:104FC0000EB4F0B59CB021AC54F8042B0E49064643
:104FD00023464FF4027E6FF0004508684FF6FF77D6
:104FE00002A9029606960194ADF814E0049507957F
:104FF000ADF8167000F06CF8029B00221A701CB01D
:10500000BDE8F04003B070472005002020F0030108
:1050100010F00300C0F1000051F8043B00F1040C53
:105020004FEACC0C6FF000021CBF22FA0CF21343C3
:105030004FF0010C4CEA0C2C4CEA0C4CA3EB0C028C
:1050400022EA030212EACC1204BF51F8043B0430F6
:10505000F4D013F0FF0F1FBF013013F47F4F013066
:1050600013F47F0F18BF0130704700BF40EA0103FF
:105070009B0770B42AD1032A28D90C46034621463F
:1050800054F8045BA5F1013626EA050616F0803FC8
:1050900005D1043A032A43F8045B2146EFD89AB1BC
:1050A0000C78013A1C7001333CB16AB111F8014F20
:1050B000013A03F8014B002CF7D12AB11A44002120
:1050C00003F8011B9342FBD170BC70470346E6E72F
:1050D0002DE9F04FC9B010930C9191460D9003F05B
:1050E000D5FD00681590FFF791FF0C9C1890A389DF
:1050F0001E0603D52369002B01F0818038ACA4463D
:1051000008942B9400250024CDE916450023119323
:105110002D932C931A9319930E93664699F80030A9
:10512000002B00F0F880252B00F0F58009F101023A
:1051300001E0252B04D0137814460132002BF8D15E
:10514000C9EB04057DB12C9B2D9A01332A44072B12
:10515000C6F8009075602D922C9300F3C28008363B
:105160000E9828440E902378002B00F0C280002374
:1051700094F801801A468DF88F300F93099304F14B
:1051800001094FF0FF340A9409F10109A8F1200345
:10519000582B00F2C583DFE813F06A02C303C30390
:1051A0007102C303C303C303C303C303C3031403D1
:1051B0006603C3039D00C000C30378027F027F0221
:1051C0007F027F027F027F027F027F027F02C30392
:1051D000C303C303C303C303C303C303C303C3039F
:1051E000C30390027103C3037103C303C303C30367
:1051F000C3036A03C303C3037800C303C303C30326
:10520000C303C3035900C303C303AF02C303C303F0
:10521000C303C303C303C303C303C303C303C3035E
:1052200037034803710371037103FF024803C3038B
:10523000C3030803C303C5027C002003A303C30305
:10524000D902C3035F00C303C303DE00DDF824C03B
:105250004CF0100CCDF824C0099CA20600F1548338
:10526000099CE30600F1BD85DDF824C01CF0400F69
:1052700000F0B785DDF840C00025BCF800400CF117
:10528000040C0123CDF840C08CE0099D45F01005C9
:105290000995DDF824C01CF0200340F02A83DDF8D6
:1052A00024C01CF0100240F0A485DDF824C01CF0DE
:1052B000400300F09E85DDF840C01346BCF8004076
:1052C0000CF1040C0025CDF840C06BE00F9C10934E
:1052D00064420F94099D45F00405099599F80080F2
:1052E00052E70D980C992BAA04F002FE40B938AE93
:1052F00036E72D9B23B10D980C992BAA04F0F8FDED
:105300000C9C0E98A38913F0400F18BF4FF0FF308C
:1053100049B0BDE8F08F4C4625E799F8008009F1C7
:105320000100B8F12A0F01F00C81A8F13003092B1C
:1053300098BF002101F26B8010F8018B01EB810115
:1053400003EB4101A8F13003092BF5D941EAE171E2
:105350000A9181461AE7099DA14CAF061A948DF86F
:105360008F2040F1D181DDF840C00CF1070323F01C
:10537000070303F108041094D3E90045DDF824C0C5
:105380001CF0010F00F0628454EA050000F05E8416
:1053900030234CF0020C8DF890308DF89180CDF8D0
:1053A00024C002234FF0000A8DF88FA00A9900292B
:1053B00005DBDDF824C02CF0800CCDF824C054EAC5
:1053C000050040F0C5820A99002940F0C182002BF7
:1053D00040F03884DDF824C01CF0010F00F0328466
:1053E00048AF3023089D07F8413DEC1BDDF828C08D
:1053F00000256445A8BFA446CDF82CC01495BAF189
:10540000000F02D00B9D01350B95099B13F0020391
:10541000129302D00B9D02350B95DDF824C01CF0D1
:10542000840CCDF84CC040F090820F9DDDF82CC06C
:10543000CCEB050BBBF1000F40F38782BBF1100FE3
:105440002D992C9ADFF8A0A12CDD1B9730465746EA
:105450001025CA460C9EA1460D9C06E0ABF1100B30
:10546000BBF1100F00F1080017DD01321031072ADF
:105470002D912C9207604560F0DD204631462BAA25
:1054800004F036FD00287FF43BAFABF1100BBBF10D
:10549000100F2D992C9A38A8E7DC4C46D146BA4615
:1054A0001B9F064601320BEB010C072ACDF8B4C056
:1054B0002C9286E8000C00F31A849DF88FA0083621
:1054C000BAF1000F0FD02C9B0CF1010C01330DF140
:1054D0008F010122072BCDF8B4C02C9386E806007B
:1054E00000F3A4830836129B73B12C9B0CF1020CC1
:1054F000013324A90222072BCDF8B4C02C9386E8EF
:10550000060000F387830836139D802D00F0CA82C1
:105510000A9DC4EB050ABAF1000F3BDDBAF1100F8A
:105520002C9B304D2BDD0A9432464FF0100B2E464B
:1055300061460D9C0C9D06E0AAF1100ABAF1100F0D
:1055400002F1080217DD01331031072B2D912C9346
:1055500082E84008F0DD204629462BAA04F0C8FC6A
:1055600000287FF4CDAEAAF1100ABAF1100F2D99E0
:105570002C9B38AAE7DC0A9C35468C46164601333C
:10558000D444072BCDF8B4C02C9386E8200400F354
:1055900035830836099DED0500F124822C9BA44437
:1055A0000133072BCDF8B4C0376074602C9300F33F
:1055B0000F830836099C630749D50F9D0B982C1A59
:1055C000002C44DD102C2C9BDFF81CA02BDD574653
:1055D00010256246DDF83080DDF834A00BE000BF16
:1055E00034CA400000CA400054CA4000103C102C8D
:1055F00006F1080615DD01331032072B2D922C938E
:1056000037607560F2DD504641462BAA04F070FC0D
:1056100000287FF475AE103C102C2D9A2C9B38AED0
:10562000E9DC9446BA460133A444072BCDF8B4C054
:105630002C93C6F800A0746009DD0D980C992BAA74
:1056400004F056FC00287FF45BAEDDF8B4C00E9C7D
:105650000B980F9DA842ACBF241864190E94BCF19E
:10566000000F40F0C18200232C9338AE56E599F824
:105670000080002A7FF488AD202285E5099D45F051
:105680000105099599F800807EE5099D45F08005A2
:10569000099599F8008077E50024A8F130030F946C
:1056A000214619F8018B01EB810103EB4101A8F1BF
:1056B0003003092BF5D90F9168E5DDF824C08DF88A
:1056C0008F204CF0100CCDF824C0099CA50640F1A9
:1056D000B280109DE91D21F00701D1E900230831B6
:1056E000109114461D46002A73F1000CC0F29483F9
:1056F0009DF88FA0012359E6099DB64CAF068DF8A1
:105700008F201A943FF52FAE099DED0640F143849A
:10571000DDF840C00025DCF800400CF1040CCDF8A9
:1057200040C02BE6DDF824C08DF88F201CF0200F40
:1057300000F04084109C21680E9CE5172B46109DBC
:10574000224604351095C1E90023E7E4109C4FF090
:10575000000A27688DF88FA0251D002F00F0E9852D
:105760000A9C3846002CC0F29B855146224603F025
:10577000A5FD002800F013860A9CC01BA042B8BFFC
:105780000446109524EAE475CDF828A0CDF850A081
:105790000B959DF88FA032E6DDF824C04CF0400C4C
:1057A000CDF824C099F80080EEE499F800804B46CB
:1057B000B8F16C0F00F07F84099D45F01005099544
:1057C000E2E4109C109D24682B1D002C0F94FFF622
:1057D0007DAD109399F80080D6E4109BDDF824C0CD
:1057E000109D7D4804351C684FF0780830234CF03C
:1057F000020C10958DF89030CDF824C000258DF85E
:1058000091801A900223CDE5109B109D1A68012407
:10581000002304359A460B948DF8B82010958DF826
:105820008F300A9314932EAFEFE5099C8DF88F20EB
:10583000A5063FF54EAFDDF824C01CF0100F40F078
:10584000DF82DDF824C01CF0400F00F0D982DDF8C3
:1058500040C0BCF900400CF1040CE51722462B4671
:10586000CDF840C03FE799F800802B228CE4099DD9
:1058700045F00805099599F8008085E4109D8DF89C
:105880008F20EB1D23F0070303F1080CCDF840C077
:10589000D3E90045CDE91645DDE9160104F0ACFA7F
:1058A0000128DDE9160140F05C830022002306F0A8
:1058B00099F8002840F063859DF88FA003250B958B
:1058C000099D464F25F08005454B0024099500258C
:1058D0000A94B8F1470FD8BF1F46032414958EE5EC
:1058E000DDF824C04CF0200CCDF824C099F80080DD
:1058F0004AE4109CE31D23F0070303F1080510950B
:10590000D3E9004500234DE5109DEB1D23F007036F
:1059100003F1080CD3E90045CDF840C0012341E56F
:105920008DF88F20B8F1000F3FF4E3AC00234FF067
:10593000010C9A46CDF82CC08DF8B8808DF88F30C8
:105940000A93149364462EAF5FE5DDF8B4C0B7E563
:10595000012B00F0EC80022B0DF1DF0318D1DDF8F4
:1059600068C0194604F00F0022091CF8000042EA42
:1059700005722B09087052EA03000F4614461D46B3
:1059800001F1FF31EED1089DCDE91E23EC1B2DE581
:10599000E00840EA457004F00702E908303250EAB6
:1059A000010C1F461A7004460D4603F1FF33EFD178
:1059B000099CCDE91C01E007394640F1C180302A3D
:1059C00000F0BE80089D1F463023EC1B01F8013C0F
:1059D0000CE500BF20CA400034CA400014CA400091
:1059E00010CA4000B8F1650F40F3AD80DDE9160143
:1059F00000220023CDF81CC005F0EAFFDDF81CC032
:105A0000002800F026812C9BAA4901330CF1010CDF
:105A10000122072BCDF8B4C02C9386E8060000F3D2
:105A2000ED820836259B119CA34203DB099DEC0700
:105A30007FF5C0AD2C9B189C0133159DA444072B0A
:105A4000CDF8B4C0356074602C9300F33E83083603
:105A5000119D6C1E002C7FF7ADAD102C2C9B964D2C
:105A600040F3978110276246DDF83480DDF830A0DE
:105A700004E00836103C102C40F38A8101331032C8
:105A8000072B2D922C9386E8A000F2DD404651466C
:105A90002BAA04F02DFA00287FF432AC2D9A2C9B0F
:105AA00038AEE7E70F9D0B98C0EB050ABAF1000F7F
:105AB0007FF72EADBAF1100F2C9B7F4D2BDD12948A
:105AC00032464FF0100B2E4661460D9C0C9D06E0B1
:105AD000AAF1100ABAF1100F02F1080217DD013322
