S0140000494D555F4672656552544F532E73726563FC
S214400000784800201D5840001558400015584000BC
S2144000101558400015584000155840000000000094
S214400020000000000000000000000000455D4000A9
S2144000301558400000000000315E40006D5E4000F4
S21440004015584000155840001558400015584000B7
S21440005015584000155840001558400015584000A7
S214400060093540001935400015584000694E40009B
S214400070814E4000994E40001558400015584000AB
S214400080155840001558400015584000712C400047
S214400090812C4000F513400015584000155840008C
S2144000A01558400015584000155840001558400057
S2144000B01558400015584000155840001558400047
S2144000C01558400010B5054C237833B9044B13B18E
S2144000D00448AFF300800123237010BDF8090020C8
S2144000E000000000E83D410008B5064B1BB106483D
S2144000F00649AFF300800648036813B1054B03B1C9
S214400100984708BD00000000E83D4100FC0900207B
S214400110E83D41000000000080B584B000AF786044
S21440012039600023FB603B6800221A603B6800226F
S2144001301A713B684FF000029A6078683B21294B61
S21440014098470346002B43D078682749274B984763
S214400150B86039E0FB685A1CFA60012B0BD0012BC3
S21440016002D3022B19D02AE0B868214B98470246A2
S2144001703B681A6023E0B8681E4B98470346002B3E
S21440018007D0B8681C4B98470346DAB23B681A71EA
S21440019015E03B6800221A7111E0B868154B984785
S2144001A00346002B06D0B868144B984702463B6877
S2144001B09A6003E03B684FF000029A6000BF002060
S2144001C009490A4B9847B860BB68002BC2D105E086
S2144001D07868074B984702463B681A601037BD461A
S2144001E080BD00BFFDB14000002C410059C6400014
S2144001F001024000B102400039AE400031AE40003E
S21440020080B584B000AF78600023FB601AE0FA68DF
S2144002101346DB0013449B00134A13447868194680
S214400220124B98470346002B09D10F49FA681346EC
S214400230DB0013449B000B4420331B680FE0FB6835
S2144002400133FB600849FA681346DB0013449B0001
S2144002500B4420331A68064B9A42D8D1044B1846B2
S2144002601037BD4680BD00BFBC2A4100F1B24000F9
S214400270FD02400090B587B000AF786007F10C03F0
S21440028078681946084B9847FB68002B06D0FC68F0
S21440029007F10C0393E80700A04702E07868034B99
S2144002A098471C37BD4690BD190140001D034000CD
S2144002B080B483B000AF786013E00F4B1A687B6859
S2144002C01B78013313441B7803F00403002B05D13D
S2144002D07B681B782E2B01D0002307E07B68013318
S2144002E07B607B681B78002BE7D1012318460C37D0
S2144002F0BD465DF8047B70475401002080B584B04D
S21440030000AF3B1D83E807000248034B9847103771
S214400310BD4680BD042C4100D512400080B582B059
S21440032000AF786003487968034B98470837BD4666
S21440033080BD00BF182C4100D512400090B585B056
S21440034000AFC7E900010023FB73104CD7E900015A
S2144003504FF000024FF00003A0470346002B10D09A
S2144003600B4CD7E900014FF000020A4BA04703466A
S214400370002B06D00849D7E90023C1E90023012312
S214400380FB73FB7B18461437BD4690BD31A7400033
S2144003901DA740000000F03F2801002080B400AFB9
S2144003A0044BD3E9002310461946BD465DF8047B4E
S2144003B0704700BF2801002080B588B000AF0346D4
S2144003C0FB71FA7907F1080310461946064B984721
S2144003D007F108031846054B984702460B46104659
S2144003E019462037BD4680BD8109400001094000BE
S2144003F0F0B587B000AFF860B9607A60B868214B56
S2144004009847C7E90401FB68D3E900457B68103389
S214400410D3E900231C4E10461946D7E90C23B047B3
S21440042002460B46194E20462946B04702460B4622
S21440043010461946164BD3E90023134CA0470246F4
S2144004400B4614461D46124BD3E90023114E4FF07F
S21440045000001149B04702460B460B4E104619465F
S214400460D7E90423B04702460B46084E20462946A5
S214400470B04702460B46F968C1E900231C37BD4623
S214400480F0BD00BF0109400025A24000C19E4000CB
S21440049028010020BD9E40000000F03F80B483B09D
S2144004A000AF78607B68D3E900231C49C1E900238C
S2144004B07B68D3E902231A49C1E900237B68D3E964
S2144004C004231849C1E900237B68D3E9062316496B
S2144004D0C1E900237B68D3E908231449C1E9002316
S2144004E07B68D3E90A231249C1E900237B68D3E934
S2144004F00E230F49C1E904237B68D3E90C230C493A
S214400500C1E902237B68D3E910230949C1E90623E0
S2144005100C37BD465DF8047B704700BF180A0020C4
S214400520200A0020280A0020300A0020380A00202E
S214400530400A00202DE9F04393B000AFF860B96060
S2144005407A607F4BB86898477E4BD3E900237E4C51
S214400550A04702460B46C7E91023794B7868984770
S21440056002460B46794C10461946D7E91023A04759
S21440057002460B4610461946754BD3E90023754C88
S214400580A04702460B467249C1E90023724BD3E9A5
S21440059000456B4B7868984780468946684B786834
S2144005A098476D4BD3E90623684EB04702460B4644
S2144005B010461946684BD3E90223634EB0470246BD
S2144005C00B4610461946644BD3E904235E4EB047AB
S2144005D002460B4610461946604BD3E900235D4E53
S2144005E0B04702460B46594E40464946B04702463B
S2144005F00B46584E20462946B04702460B465649BB
S214400600C1E90023544BD3E902454D4B78689847DF
S214400610514BD3E906234D4EB04702460B464A4E51
S21440062020462946B04702460B464B49C1E90223BD
S214400630494BD3E90445424B78689847464BD3E943
S2144006400623424EB04702460B463F4E20462946BA
S214400650B04702460B464049C1E904233E4BD3E926
S2144006600645374B786898473D4BD3E90023374ECD
S214400670B04702460B46374E20462946B04702460C
S2144006800B463549C1E90623334BD3E90001354BC8
S214400690D3E900232F4CA04702460B46C7E90E235A
S2144006A02D4BD3E90023304C10461946D7E90E238C
S2144006B0A04702460B46C7E90423274BD3E9042349
S2144006C0294C10461946D7E90E23A04702460B464A
S2144006D0C7E906231A4BF86898471D4BD3E9002311
S2144006E0194CA04702460B46C7E90C23D7E904231A
S2144006F0164C10461946D7E90C23A04702460B462F
S21440070010461946124BD3E90023124CA047024626
S2144007100B460F49C1E90023D7E906230B4C104688
S2144007201946D7E90C23A04702460B461046194601
S214400730044BD3E90023074CA04702460B4615E07E
S2144007407DA14000380A0020BD9E400025A2400002
S214400750300A0020C19E4000400A0020180A0020AF
S214400760200A0020280A002079A440003649C1E922
S2144007700023364BD3E90023C7E90A23334BD3E99A
S2144007800223C7E90823314BD3E90045D7E90423C0
S2144007902F4E10461946D7E90A23B04702460B4665
S2144007A02C4E20462946B04702460B462749C1E90B
S2144007B00023264BD3E90245D7E90423244E1046AE
S2144007C01946D7E90823B04702460B46214E204635
S2144007D02946B04702460B461C49C1E902231B4B3B
S2144007E0D3E90445D7E90623194E10461946D7E9FA
S2144007F00A23B04702460B46164E20462946B047C7
S21440080002460B461149C1E90423104BD3E906457D
S214400810D7E906230E4E10461946D7E90823B047B7
S21440082002460B460B4E20462946B04702460B462C
S2144008300649C1E90623084BD3E90023104619466A
S2144008404C37BD46BDE8F083380A0020400A0020F9
S21440085025A24000BD9E4000300A002080B483B0F0
S21440086000AF78607B68072B25D801A252F823F0AA
S21440087091084000970840009D084000A3084000AB
S214400880A7084000AB084000AF084000B30840004F
S2144008904FF4FA4310E04FF400430DE04FF40043AA
S2144008A00AE0084B08E0084B06E0084B04E0074B1C
S2144008B002E0064B00E0002318460C37BD465DF8C4
S2144008C0047B704700093D0000127A00001BB70009
S2144008D080B500AF0620034B98470346DB0018461A
S2144008E080BD00BF5D08400080B500AF024B984712
S2144008F003465B08184680BDD10840000000000053
S214400900F0B585B000AF78604FF000004FF00001C2
S214400910C7E902017968D1E90001024681F0004347
S21440092079680831D1E90045114E104619462246ED
S2144009302B46B04702460B46104619460D4B984785
S21440094002460B460C4C1046194607A3D3E9002333
S214400950A04702460B46C7E90223D7E902231046C2
S21440096019461437BD46F0BDF8C1631ADCA54C40A5
S21440097079A44000298C400025A24000AFF30080B7
S2144009802DE9F04387B000AF03463960FB71386805
S2144009904F4903224F4B98470023FB6000233B827E
S2144009A00023BB820023FB75FA7907F10C0310463F
S2144009B0194632220623484EB0470346FB7497F941
S2144009C01330002B7BD10023FB7575E0FB7D5B006D
S2144009D0013307F118010B4413F80C3C1B029AB282
S2144009E0FB7D5B0007F118010B4413F80C3C1343E6
S2144009F09BB2BB82BB8A03F47C43002B1AD1FB7D9F
S214400A00DB003A68D618BA8A344B104698470246F6
S214400A10334B1046984702460B46DFF8CCC010468C
S214400A20194629A3D3E90023E04702460B46C6E908
S214400A30002322E0BB8A5B429BB2C3F30903BB821E
S214400A40FB7DDB003A68D618BA8A244B1046984796
S214400A500246234B1046984702460B46DFF888C0AE
S214400A601046194618A3D3E90023E04702460B4632
S214400A70144683F00045C6E90045FB7DDB003A6836
S214400A80D618FB7DDB003A681344D3E90089FA7D2B
S214400A90144B53F82220124B1046984702460B46FA
S214400AA0DFF848C040464946E04702460B46C6E99E
S214400AB00023FB7D0133FB75FB7D022B86D91C375B
S214400AC0BD46BDE8F08300BF3333333333330F4086
S214400AD080C1FFFF0DB04000D90F4000B5A94000CF
S214400AE07DA14000302C410025A24000C19E400020
S214400AF02DE9F04387B000AF03463960FB71386894
S214400B004C4903224C4B98470023FB6000233B8212
S214400B100023BB820023FB75FA7907F10C031046CD
S214400B2019461D220623454EB0470346FB7497F9E7
S214400B301330002B7AD10023FB7574E0FB7D5B00FD
S214400B4007F118010B4413F80C3C1B029AB2FB7DCC
S214400B505B00013307F118010B4413F80C3C1343B8
S214400B609BB2BB82BB8A1BB2002B1ADBFB7DDB0031
S214400B703A68D618BA8A324B104698470246314BE6
S214400B801046984702460B46DFF8C4C01046194642
S214400B904FF000022C4BE04702460B46C6E90023C6
S214400BA022E0BB8A5B429BB2C3F30E03BB82FB7D53
S214400BB0DB003A68D618BA8A214B10469847024658
S214400BC0204B1046984702460B46DFF884C0104636
S214400BD019464FF000021C4BE04702460B461446AF
S214400BE083F00045C6E90045FB7DDB003A68D61831
S214400BF0FB7DDB003A681344D3E90089FA7D134B4A
S214400C0053F822200F4B1046984702460B46DFF813
S214400C1044C040464946E04702460B46C6E90023E4
S214400C20FB7D0133FB75FB7D022B87D91C37BD4608
S214400C30BDE8F08380C1FFFF0DB04000310E40009C
S214400C40B5A940007DA1400000C02C403C2C41008E
S214400C5079A44000C19E400080B582B000AF164BDC
S214400C6098470346002B04D01448154B9847FF235B
S214400C701CE05320134B98470346FB7197F9073007
S214400C80002B04D010480E4B9847FB790EE06820A6
S214400C900E4B98470346FB7197F90730002B04D05C
S214400CA00B48074B9847FB7900E0FB795BB2184648
S214400CB00837BD4680BD00BFD50C4000482C4100DB
S214400CC0D5124000A90E4000582C4100450D40006A
S214400CD06C2C410090B587B000AF124B3C1D0FCB3B
S214400CE084E80F003B1D10481946104B98470246B3
S214400CF00F4B1A600E4B1B68002B03D10D4B9847C9
S214400D0000BFFDE70C4B9847034607480B491A4679
S214400D100B4B98470346FB75FB7D18461C37BD4674
S214400D2090BD00BF7C2C410000800140C92240009D
S214400D30B43F0020155E4000E9084000801A0600D7
S214400D40ED54400080B584B000AF0346FB71FB799C
S214400D5018461B211622164B98470346FB7397F9F5
S214400D600F30002B01D0FB7B1CE0FB79184600219E
S214400D7015220F4B98470346FB7397F90F30002B0D
S214400D8001D0FB7B0EE0FB79184600213E22084B43
S214400D9098470346FB7397F90F30002B01D0FB7B37
S214400DA000E0FB7B5BB218461037BD4680BD00BFF7
S214400DB0B50D400090B589B000AF13460246FA71B3
S214400DC00A46BA717B7107F1080300221A600433A1
S214400DD000221A60043300221A60043300221A608C
S214400DE0043300221A6004337B793B720123FB6094
S214400DF0BB1D3B6101237B61FB793B761223FB776E
S214400E00094B1A6807F10803104619464FF0FF329F
S214400E100023064CA0470346FB77FB7F5BB2184691
S214400E202437BD4690BD00BFB43F00204D2440004F
S214400E3090B589B000AF39600146F971BA717B71DF
S214400E4007F1080300221A60043300221A600433B4
S214400E5000221A60043300221A60043300221A600B
S214400E600433BB793B720123FB603B683B617B7973
S214400E707B61FB793B761223FB77094B1A6807F1B7
S214400E800803104619464FF0FF320023054CA04792
S214400E900346FB77FB7F5BB218462437BD4690BDC2
S214400EA0B43F00209126400080B584B000AF034692
S214400EB0FB71FB79184608213122264B984703469A
S214400EC0FB7397F90F30002B01D0FB7B3CE0FB799E
S214400ED018460A212C221F4B98470346FB7397F966
S214400EE00F30002B01D0FB7B2EE0FB79184680218B
S214400EF02E22184B98470346FB7397F90F30002B6A
S214400F0001D0FB7B20E0FB7918467F212F22114B36
S214400F1098470346FB7397F90F30002B01D0FB7BB5
S214400F2012E0FB7918460C4B9847FB791846082187
S214400F302D22084B98470346FB7397F90F30002B3A
S214400F4001D0FB7B00E0FB7B5BB218461037BD460A
S214400F5080BD00BF5D0F40005110400090B589B085
S214400F6000AF13460246FA710A46BA717B7107F122
S214400F70080300221A60043300221A600433002259
S214400F801A60043300221A60043300221A600433C5
S214400F907B793B720123FB60BB1D3B6101237B6178
S214400FA0FB793B761223FB77094B1A6807F1080357
S214400FB0104619464FF0FF320023064CA047034622
S214400FC0FB77FB7F5BB218462437BD4690BD00BF1B
S214400FD0B43F00204D24400090B589B000AF396042
S214400FE00146F971BA717B7107F1080300221A6055
S214400FF0043300221A60043300221A6004330022AD
S2144010001A60043300221A600433BB793B72012312
S214401010FB603B683B617B797B61FB793B761223C7
S214401020FB77094B1A6807F10803104619464FF03C
S214401030FF320023054CA0470346FB77FB7F5BB29D
S21440104018462437BD4690BDB43F00209126400048
S21440105090B585B000AF0346FB71FA7907F10F03F0
S2144010601046194632220123024CA0471437BD468B
S21440107090BD00BFD90F400080B483B000AF786009
S2144010807B68072B25D801A252F823F0AD1040000C
S214401090B3104000B9104000BF104000C3104000DD
S2144010A0C7104000CB104000CF1040004FF4FA432A
S2144010B010E04FF400430DE04FF400430AE0084BC5
S2144010C008E0084B06E0084B04E0074B02E0064BFE
S2144010D000E0002318460C37BD465DF8047B704799
S2144010E000093D0000127A00001BB70080B500AF33
S2144010F00620034B98470346DB00184680BD00BFDA
S2144011007910400080B500AF024B984703465B0815
S214401110184680BDED10400080B582B000AF7860C4
S2144011200B46FB707A68204B9A420AD100BFFB7888
S214401130786819461D4B98470346002BF7D1012384
S2144011402DE07A681A4B9A420AD100BFFB7878683D
S2144011501946164B98470346002BF7D101231EE04D
S2144011607A68144B9A420AD100BFFB7878681946D1
S214401170114B98470346002BF7D101230FE07A68BE
S2144011800E4B9A420AD100BFFB78786819460A4B44
S21440119098470346002BF7D1012300E0002318466A
S2144011A00837BD4680BD00BF00060E404957400088
S2144011B000080E4000400240AD574000008002400C
S2144011C080B584B000AF786039600023FB607A68F1
S2144011D01E4B9A4207D100BF786839681C4B984727
S2144011E00346002BF8D17A681A4B9A4207D100BFC3
S2144011F078683968164B98470346002BF8D17A68CA
S214401200154B9A420DD100BF07F10C03786819467A
S214401210124B98470346002BF6D1FB68DAB23B6880
S2144012201A707A680E4B9A420DD100BF07F10C0334
S21440123078681946094B98470346002BF6D1FB6859
S214401240DAB23B681A701037BD4680BD00060E40C5
S2144012507957400000080E4000400240E1574000E9
S2144012600080024090B587B002AF78603960F123C5
S214401270FB73094B1B6800220092184679683A684F
S2144012804FF0FF33054CA0470346FB73FB7B5BB236
S21440129018461437BD4690BDEC3F0020652F4000F1
S2144012A090B585B000AF786039600023FB60074B8F
S2144012B01B68184679683A684FF0FF33044CA047DD
S2144012C0F860FB6818461437BD4690BDEC3F0020DA
S2144012D0193040000FB490B5A5B002AF0023C7F850
S2144012E0843007F19C033B603B1D1846D7F89810A6
S2144012F03A680C4B98470346C7F884300A4B1A683E
S2144013003B1D0021009110461946D7F884204FF027
S214401310FF33064CA0478C37BD46BDE8904004B02E
S214401320704700BF55EA4000EC3F0020652F400064
S21440133080B588B000AF214B3B61214B1B687B6179
S2144013400A23BB6101233B7703237B771D4B9847DA
S21440135003467B604FF4E133BB604FF40063FB60B1
S214401360194B1A4A1A601A4B1A4A1A601A4B1B4AE9
S2144013701A601B4B1B689B6818460021194B984700
S214401380174B1B685B6818460021164B98473A1D5A
S21440139007F110030D4811461A46134B984702466C
S2144013A0124B1A60114B1B68002B03D1104B984709
S2144013B000BFFDE72037BD4680BD00BFB83F0020D8
S2144013C030010020051140000840002000060E4075
S2144013D0044000201911400000400020C111400088
S2144013E080050020A1B04000912C4000EC3F00203A
S2144013F0155E400080B500AF014B984780BD00BFEA
S214401400F941400080B500AF0D4BB0221A600C4B3E
S214401410DC225A600A4B00229A60094B6FF07F42EA
S214401420DA60084B98470648074B98470820074B12
S2144014309847074B98474FF6FF70064B984780BD36
S214401440F03F0020D13B4000B53F4000493B4000C4
S2144014502D424000AD424000F0B5A5B004AF7860E4
S214401460694B9847002387F87F300020674B9847A2
S21440147005200A21664A674B98474FF4FA70664B38
S214401480984707F16003184600211822634B984797
S214401490002387F87F301DE097F87F20604B53F895
S2144014A0222097F87F3007F16001DB000B4410469E
S2144014B019464FF0FF3201235A4CA047B867BB6F1E
S2144014C0012B02D00020584B984797F87F300133C5
S2144014D087F87F3097F87F30022BDDD907F1480335
S2144014E01846002118224D4B9847002387F87F3036
S2144014F01DE097F87F204D4B53F8222097F87F3019
S21440150007F14801DB000B44104619464FF0FF3206
S2144015100123444CA047B867BB6F012B02D0002084
S214401520414B984797F87F30013387F87F3097F8DC
S2144015307F30022BDDD907F13003184600211822F0
S214401540364B9847002387F87F301DE097F87F207A
S214401550374B53F8222097F87F3007F13001DB00F5
S2144015600B44104619464FF0FF3201232D4CA0473E
S214401570B867BB6F012B02D000202B4B984797F8DB
S2144015807F30013387F87F3097F87F30022BDDD9E4
S2144015906FF07F401D4B984700201E21B022DC2371
S2144015A0244CA0470020194B9847D7E91823D7E981
S2144015B01A45D7E9100107F10806CDE90045CDE9FF
S2144015C0020130461C491D4CA04707F10803052080
S2144015D01E211A460F4B9847D7E91223D7E91445E0
S2144015E0D7E9160107F10806CDE90045CDE9020125
S2144015F030461349114CA04707F1080305206E21D9
S2144016001A46044B984738E70514400055424000B8
S2144016108C2C410085454000A56C40000DB0400034
S21440162060400020D9654000F96B4000144000201F
S21440163020400020E94340009C2C4100B1B14000CE
S214401640CC2C410080B582B000AF78602E20054B90
S2144016509847054B1B681846044B98470837BD46C5
S21440166080BD00BF2D3A40008C3F0020096D4000F1
S21440167080B586B000AF3B1D83E80700FB687B6102
S2144016803B7A002B33D0012B46D1254B78694FF05F
S214401690000198470346002B20D0224B7869224908
S2144016A0984703461A46214B104698470246204B19
S2144016B01A601F4B1A681F4B1046984702461E4B2F
S2144016C010461949984703461A461C4B10469847F9
S2144016D002460B461A481B4988471DE0174B786957
S2144016E0984702460B4618481649884714E0104B60
S2144016F01A68104B1046984702460F4B10460A4948
S214401700984703461A460D4B1046984702460B46E6
S2144017100B480C49884700BF1837BD4680BD00BF00
S214401720DDAD400065AA400000007A44F1AD4000BF
S21440173034010020B5A94000CDAB40007DA140005B
S214401740182D4100D5124000302D410090B587B08D
S21440175002AF3B1D83E807000D4B1B68002B14D0DF
S2144017602E200C4B98470C4B1A68094B1B684FF0C1
S214401770FF310091104602211A460023074CA0472D
S214401780074B1B681846074B98471437BD4690BD15
S21440179034010020853A40009C3F0020997A400062
S2144017A08C3F00200D6E40002DE9F04FC9B010AFC1
S2144017B0786207F12C026423104600211A46784BC3
S2144017C09847002387F8DF30002387F8DE30754BD4
S2144017D01B68184600214FF0FF320023724CA0478A
S2144017E007F1C0031846002118226D4B9847002386
S2144017F087F8DF301FE097F8DF206C4B53F8222045
S21440180097F8DF3007F1C001DB000B44104619465D
S2144018104FF0FF320123644CA047C7F8D800D7F8F2
S214401820D830012B02D00020614B984797F8DF3024
S214401830013387F8DF3097F8DF30022BDBD907F12A
S214401840A803184600211822554B9847002387F8CE
S214401850DF301FE097F8DF20564B53F8222097F8EA
S214401860DF3007F1A801DB000B44104619464FF065
S214401870FF3201234C4CA047C7F8D800D7F8D830E1
S214401880012B02D000204A4B984797F8DF300133AF
S21440189087F8DF3097F8DF30022BDBD907F190036B
S2144018A01846002118223E4B9847002387F8DF3021
S2144018B01FE097F8DF20404B53F8222097F8DF30A0
S2144018C007F19001DB000B44104619464FF0FF32FB
S2144018D00123354CA047C7F8D800D7F8D830012B9D
S2144018E002D00020324B984797F8DF30013387F814
S2144018F0DF3097F8DF30022BDBD9D7E930ABD7E9BA
S2144019003201D7E93489D7E92423C7E90623D7E942
S2144019102623C7E90423D7E92823C7E90223D7E9C2
S2144019202A23C7E90023D7E92C45D7E92E2307F118
S2144019302C06CDE90001CDE90289D7E90601CDE9BB
S2144019400401D7E90401CDE90601D7E90201CDE952
S2144019500801D7E90001CDE90A01CDE90C45CDE9FA
S2144019600E233046154952465B46154CA04707F1B4
S2144019702C031846134B9847034607F12C02104693
S2144019801946114B9847034687F8DE3097F9DE3004
S214401990002B03D019200D4B984718E717E700BFD8
S2144019A00DB04000A03F0020D965400060400020B8
S2144019B0F96B400014400020204000204C2D410090
S2144019C0B1B140002DB5400065124000F9494000D5
S2144019D090B595B002AF786007F10C0300221A600C
S2144019E0043300221A60043300221A6004330022B3
S2144019F01A60043300221A60043300221A6004334B
S214401A0000221A60043300221A60043300221A604F
S214401A10043300221A60043300221A600433002282
S214401A201A60043300221A80023300237B640023AA
S214401A303B641D4B00931D484FF47A7100220023EF
S214401A401B4CA04702461B4B1A6007F13F03184643
S214401A500121194B984738643B6C012B23D197F8EA
S214401A603F300D2B0ED107F10C031846134B984709
S214401A7007F10C03184600213222114B98470023E9
S214401A807B6410E07B6C5A1C7A6497F83F2007F121
S214401A9048010B4403F83C2C07F10C027B6C1344C2
S214401AA000221A70D1E7D0E745164000882D410045
S214401AB01D7A40009C3F0020A11240007502400065
S214401AC00DB0400080B582B000AF78607B68072BD1
S214401AD030D801A252F823F0351B4000F91A4000D6
S214401AE0011B4000091B4000111B4000191B400011
S214401AF0211B40002B1B40000020104B984719E04C
S214401B0001200E4B984715E000200D4B984711E0FA
S214401B1010200B4B98470DE02020094B984709E0D2
S214401B2000203E21074B984704E001203E21054B0C
S214401B30984700BF0837BD4680BD00BF354F4000C0
S214401B40A14F40001150400080B582B000AF786091
S214401B507B68072B26D801A252F823F07D1B400055
S214401B60811B4000811B4000931B4000931B40009C
S214401B70931B4000931B4000931B4000012312E040
S214401B800B4B98470346002B0CBF00230123DBB2C8
S214401B9009E0084B98470346002B0CBF002301235F
S214401BA0DBB200E0002318460837BD4680BD00BFC4
S214401BB06D4F40008950400080B483B000AF7860DD
S214401BC07B68072B25D801A252F823F0ED1B400076
S214401BD0F31B4000F91B4000FF1B4000031C400065
S214401BE0071C40000B1C40000F1C40004FF4FA43FB
S214401BF010E04FF400430DE04FF400430AE0084B7A
S214401C0008E0084B06E0084B04E0074B02E0064BB2
S214401C1000E0002318460C37BD465DF8047B70474D
S214401C2000093D0000127A00001BB70080B582B064
S214401C3000AF0346FB7100BFFB791846054B98473B
S214401C40034683F00103DBB2002BF5D10837BD46CF
S214401C5080BD00BF491B400080B586B000AFF8602D
S214401C607A603B600B46FB72FB7A18460D4B9847F2
S214401C7002467B68B2FBF3F37B617B693A6802FB02
S214401C8003F37B613B68013B1A04074B13407A68B9
S214401C90D2B2134343F47C52FB681A601837BD46F1
S214401CA080BD00BFB91B40000000FF0780B582B072
S214401CB000AF786039603B68002B07D1054B9847EA
S214401CC0054B7A68126842F000529A620837BD4661
S214401CD080BD00BFA550400000040E4080B582B0D5
S214401CE000AF78607B68002B03D1044B98470346CF
S214401CF000E0002318460837BD4680BDBD50400072
S214401D0080B582B000AF0346FB71FB79033B042BE2
S214401D1008D8FB791846054B9847FB791846044B7C
S214401D20984700E000BF0837BD4680BDC51A400052
S214401D302D1C400080B582B000AF786000BF786848
S214401D40044B98470346002BF9D000231846083723
S214401D50BD4680BDDD1C400080B500AF0620034B6D
S214401D6098470346DB00184680BD00BFB91B4000BD
S214401D7080B500AF024B984703465B08184680BDC7
S214401D80591D400090B583B000AF1148114B98479D
S214401D900620114B98473B1D184606210122082372
S214401DA00E4CA0473B1D184600210D4B984700207F
S214401DB00C4B984710200C4B98470C4B98470C4BB5
S214401DC0984703461846034B98470C37BD4690BD88
S214401DD0006CDC02C5000020011D4000591C40007C
S214401DE0AD1C4000351D4000B14E4000C558400077
S214401DF0711D400080B483B000AF0346FB71084BB2
S214401E0097F907205209F97901F01F01012000FADD
S214401E1001F143F822100C37BD465DF8047B70474D
S214401E2000E100E080B483B000AF0346FB71094B8D
S214401E3097F907205209F97901F01F01012000FAAD
S214401E4001F1603243F822100C37BD465DF8047B42
S214401E50704700BF00E100E080B483B000AF0346A7
S214401E603960FB7197F90730002B0BDA0D49FB7987
S214401E7003F00F03043B3A68D2B21201D2B20B44CD
S214401E801A7609E0084997F907303A68D2B2120143
S214401E90D2B20B4483F800230C37BD465DF8047B72
S214401EA0704700BF00ED00E000E100E080B487B07E
S214401EB000AFF860B9607A6000237B610BE07B6915
S214401EC01B01FA6813441A687B689A4200D106E000
S214401ED07B6901337B617A69BB689A42EFD37B6941
S214401EE018461C37BD465DF8047B704780B487B003
S214401EF000AF0346B9607A60FB730023FB7500238E
S214401F003B610CE03B69BA6813441B78FA7B9A4203
S214401F1002D10123FB7506E03B6901333B613A6918
S214401F207B689A42EEDBFB7D18461C37BD465DF863
S214401F30047B704790B585B000AF0346B9607A60C1
S214401F40FB73FB7B03F00103002B0DD00120364BC7
S214401F5098470246BB685A60BB685B68002B03D153
S214401F60324B984700BFFDE7FB7B03F00403002B92
S214401F7024D00120002103222D4B98470246BB68FF
S214401F801A60BB681B68002B07D0BB681B681846E6
S214401F90002100220023274CA047BB681B68002B6B
S214401FA003D1224B984700BFFDE7BB681B68184625
S214401FB0002100220023204CA04702E0BB680022FC
S214401FC01A60FB7B03F00803002B27D07B68002BAE
S214401FD024D0012000210322154B984702467B68F7
S214401FE01A607B681B68002B07D07B681B68184606
S214401FF00021002200230F4CA0477B681B68002B63
S21440200003D10A4B984700BFFDE77B681B6818461C
S214402010002100220023084CA04702E07B680022F3
S2144020201A601437BD4690BDC5624000155E40003C
S2144020302D624000AD634000D965400080B582B057
S21440204000AF03463960FB713B680F2B03D90F4B3B
S214402050984700BFFDE73B68092B03D80B4B9847D2
S21440206000BFFDE797F907301846094B984797F9A0
S214402070073018463968074B984797F9073018468F
S214402080054B98470837BD4680BD00BF155E4000EB
S214402090251E4000591E4000F51D400090B587B0F3
S2144020A000AFF860B9607A603B60FB689B693B6153
S2144020B0BA683B699A420CD1FB68DB68002B05D1B5
S2144020C0FB685A683B69D31A7B6110E000237B614A
S2144020D00DE0BA683B699A4204D9BA683B69D31A9C
S2144020E07B6104E0FB685A683B69D31A7B613A68B7
S2144020F07B699A4202D97B693B600BE03A687B6910
S2144021009A4207D0FB681B6918460021002200232C
S214402110134CA047FB689B69786819463A68114B90
S21440212098473A693B6813443B61FB685A683B6989
S2144021309A4209D80C4B9847FB681B681A46FB68BE
S2144021409A610A4B984706E0074B98473A69FB68FE
S2144021509A61064B98473B6818461C37BD4690BD6B
S214402160AD63400021AF4000D15D4000ED5D4000D2
S21440217090B587B000AF786039600023FB757B6808
S2144021805B68002B20D007F10C031846114B98478C
S2144021907B685A683B681B68104600211A46002335
S2144021A00D4CA0470346002B02D1FD23FB750BE0E8
S2144021B007F10C0318463968084B98470346012B2D
S2144021C002D13B6800221A60FB7D5BB218461C3782
S2144021D0BD4690BD71744000D9654000A97440006A
S2144021E090B587B000AFF860B9607A603B60BB6A74
S2144021F0002B02D0FB68BA6A1A60FB681B68002B8B
S21440220007D0FB681B681846002100220023174CA5
S214402210A047BB683B617B687B6197F82C30002BFE
S21440222011D038684FF40071114B984707F11003EE
S2144022303868194600220F4B984738684FF480712B
S2144022400D4B98470EE038680221094B984707F136
S2144022501003386819460022084B98473868012111
S214402260054B98471C37BD4690BD00BFD96540001A
S2144022708D464000E54540006D46400029464000FA
S21440228090B587B000AFF860B9607A600023FB7500
S214402290BB68002B10D1FB681B68002B0CD0FB687A
S2144022A01B68184600217A680023064CA047034660
S2144022B0012B01D0FD23FB75FB7D5BB218461C3716
S2144022C0BD4690BDD965400080B586B000AF786009
S2144022D0396003233B734D4801217A684C4B98473D
S2144022E038613B681A7B07F10C03104619460122F9
S2144022F0484B98470346FB733B69002B7EDCFB7BD1
S214402300002B7BD03B69DA00434B134418464349C5
S2144023100822434B98470346002B03D0414B98472F
S21440232000BFFDE73B69DA003F4B134418463B4984
S21440233008223B4B98470346002B03D0394B98471F
S21440234000BFFDE7314A3B691B01134408331B6855
S2144023501846364B98472D4A3B691B0113445B6829
S214402360184640F20221324B9847284A3B691B01E7
S21440237013441B6818464FF0FF312E4B9847234AAC
S2144023803B691B0113441B6818462B4B98473B6818
S2144023901B7B032B00D008E01C4A3B691B011344FF
S2144023A01B681846254B984700BF3B68597B3B69DE
S2144023B0DA00194B1A443B69D8001B4B03440846C5
S2144023C011461A461E4B9847104A3B691B01134458
S2144023D01B6818464FF450711A4B98470B4A3B6996
S2144023E01B01134408331A793B689B6852B2104667
S2144023F01946154B98477B687B6101E000237B615B
S2144024007B6918461837BD4680BD00BF9C2D4100ED
S214402410AD1E4000ED1E4000600A0020942D410095
S214402420B9AE4000155E4000680A0020D950400012
S2144024308D46400079554000E5554000C95440005F
S214402440351F40005D5540003D20400090B58DB0A2
S21440245002AFF860B9607A603B6000233B62FB687D
S214402460BB6181480121BA69804B984778617B6996
S214402470002B00F3EF80BB68DB68002B00F0EA809F
S2144024807B69DA007A4B1A443B1D10461946794B55
S2144024909847034687F8273097F92730002B40F0B7
S2144024A0D880BB6900225A60BB681B7C1B0403F4BF
S2144024B0FE02BB685B681B0203F440731A43BB69A9
S2144024C05A60BB685B68002B1AD0BB681B783B62BF
S2144024D0BB685B68012B07D93B6A1B023B62BB6843
S2144024E05B783A6A13433B62BB685B68022B07D94A
S2144024F03B6A1B023B62BB689B783A6A13433B626B
S214402500BB693A6ADA60BB68DB68012B6DD1002391
S214402510FB61554A7B691B0113441B6818464FF400
S2144025205071554B9847BB689B681B781A46BB69E9
S2144025305A63BB691B6A3B613B6903F48073002B9B
S21440254016D0494A7B691B0113441B6818464FF452
S21440255050714A4B9847464A7B69DB0013445B6898
S2144025601846002100220023454CA047F62376E07B
S2144025703B6903F00403002B00D00BE0FB690133FA
S214402580FB61FB69B3F1FF3F03D1FD2387F827309A
S21440259000E0CEE7BB6902221A600AE0FB6901331D
S2144025A0FB61FB69B3F1FF3F03D1FD2387F827307A
S2144025B005E0BB691B6A03F00103002BEED02A4AF4
S2144025C07B691B0113441B6818464FF450712B4B14
S2144025D09847274A7B69DB0013445B68184600210E
S2144025E000220023264CA04733E0BB689968254B61
S2144025F07A6943F83210BB68DA6822497B69DB00A7
S2144026000B445A607B69DA00194BD018BB6899684E
S214402610BB68DB685A1E144C7B691B0123445B680D
S2144026203C68009401240194174CA047B8694FF4C5
S2144026300051124B98477B69DA000D4B1A447B6871
S214402640104639681A46114B9847034687F8273094
S21440265003E002E0F82387F8273097F827305BB28C
S21440266018462C37BD4690BD9C2D4100AD1E4000FF
S214402670600A002071214000795540005D554000B9
S214402680AD634000700A0020E121400081224000F6
S21440269090B591B002AFF860B9607A603B600023B5
S2144026A03B63FB68FB619B480121FA699A4B98475C
S2144026B0B861BB69002B00F32381BB68DB68002B45
S2144026C000F01E81BB69DA00944B1A443B1D10464D
S2144026D01946934B9847034687F8373097F9373073
S2144026E0002B40F00C81F8698E4B9847FB6900221E
S2144026F05A60BB681B7C1B0403F4FE02BB685B6825
S2144027001B0203F44073134343F48052FB695A6040
S214402710BB685B68002B1AD0BB681B783B63BB6802
S2144027205B68012B07D93B6B1B023B63BB685B783E
S2144027303A6B13433B63BB685B68022B07D93B6B22
S2144027401B023B63BB689B783A6B13433B63FB6956
S2144027503A6BDA60BB68DB68022B00F299806D4A00
S214402760BB691B0113441B6818464FF450716E4BEF
S2144027709847002387F82F30BB68DB68BB62BB688E
S2144027809B687B6200233B62BB6A012B06D1FB69D8
S21440279003221A60012387F82F304CE0FB690122A0
S2144027A01A6048E0FB691B6A7B617B6903F48073AF
S2144027B0002B16D0574ABB691B0113441B681846AA
S2144027C04FF45071594B9847544ABB69DB00134449
S2144027D05B681846002100220023554CA047F6238C
S2144027E093E0BB6A012B09D197F82F30002B05D117
S2144027F0FB6902221A60012387F82F307B6903F0B9
S2144028000203002B0BD13B6A01333B623B6AB3F1B8
S214402810FF3F03D1FD2387F837300FE00BE07B6A9C
S2144028205A1C7A62FA69126BD2B21A70BB6A013BC2
S214402830BB6200233B62BB6A002BB3D100233B62E2
S2144028400AE03B6A01333B623B6AB3F1FF3F03D188
S214402850FD2387F8373005E0FB691B6A03F0010368
S214402860002BEED02B4ABB691B0113441B6818464D
S2144028704FF450712D4B9847284ABB69DB001344F0
S2144028805B681846002100220023294CA04736E00A
S214402890BB689968274BBA6943F83210BB68DA6858
S2144028A02449BB69DB000B445A60BB69DA00224B03
S2144028B0D018BB689968BB68DB689A1E154CBB6924
S2144028C01B0123445B683C680094002401941B4C25
S2144028D0A047FB6901221A60F8694FF48051134BF8
S2144028E09847BB69DA00144B1A447B68104639682F
S2144028F01A46134B9847034687F8373003E002E002
S214402900F82387F8373097F837305BB218463C37AD
S214402910BD4690BD9C2D4100AD1E4000600A002083
S21440292071214000C9554000795540005D55400032
S214402930AD634000700A0020680A0020E121400094
S2144029408122400090B58BB000AF78600023BB601A
S214402950002387F82730814A7B681B0113441B6895
S214402960BB61B8697E4B98477861B8697D4B98479C
S21440297003467A6913407B617B6903F40053002B5E
S21440298076D0764A7B681B0113445B6818464FF442
S2144029900071754B9847B8694FF40051734B984790
S2144029A000233B62BB691B6AFB74FB7C03F0040399
S2144029B0002B00D00BE03B6A01333B623B6AB3F12D
S2144029C0FF3F03D1012387F8273000E0EAE7BB69E1
S2144029D002221A60664B7A6853F8322064497B6854
S2144029E0DB000B445B68013B13441B781A46BB690B
S2144029F05A63BB691B6AFB74FB7C03F00103002B24
S214402A0000D00BE03B6A01333B623B6AB3F1FF3FC9
S214402A1003D1012387F8273000E0EAE7554A7B6870
S214402A20DB0013445B68002B0CD0524A7B68DB000B
S214402A3013445A6807F10803104600211A4600233B
S214402A404D4CA0473B6AB3F1FF3F11D0494B7A68E3
S214402A5053F83230002B0BD0464B7A6853F832206E
S214402A6007F10803104600211A460023424CA047AF
S214402A707B6903F48053002B00F0AA800023FB619F
S214402A80364A7B681B0113445B6818460221364B66
S214402A909847B8694FF48051344B9847BB691B6AD6
S214402AA0FB60FB6803F00203002B00D008E0FB69E4
S214402AB00133FB61FB69B3F1FF3F00D100E0EDE776
S214402AC0BB6902221A602A4B7A6853F8322028499A
S214402AD07B68DB000B445B68023B1344BA69126BAD
S214402AE0D2B21A70BB691B6AFB60FB6803F0020334
S214402AF0002B00D008E0FB690133FB61FB69B3F1B2
S214402B00FF3F00D100E0EDE7FB69B3F1FF3F35D072
S214402B10174B7A6853F8322015497B68DB000B4424
S214402B205B68013B1344BA69126BD2B21A70002339
S214402B30FB61BB691B6AFB60FB6803F00103002B6B
S214402B4000D01BE0FB690133FB61FB69B3F1FF3F3B
S214402B5003D1012387F8273010E0EAE79C2D410097
S214402B6099554000B15540008D464000795540008B
S214402B70700A0020600A00201D654000354A7B68C8
S214402B80DB0013445B68002B0CD0324A7B68DB00CA
S214402B9013445A6807F10803104600211A460023DA
S214402BA02D4CA047FB69B3F1FF3F11D02B4B7A6801
S214402BB053F83230002B0BD0284B7A6853F832202B
S214402BC007F10803104600211A460023224CA0476E
S214402BD07B6903F45073002B03D197F82730002B02
S214402BE02FD01F4A7B681B0113445B68184640F28F
S214402BF002211C4B98477B6903F48073002B02D15B
S214402C00BB6902221A60B8694FF40051164B9847C8
S214402C10B8694FF48051144B98470E4A7B68DB00E6
S214402C2013445B68002B0CD00A4A7B68DB001344D5
S214402C305A6807F10803104600211A460023064C3E
S214402C40A047BB68002B01D0084B98472C37BD46A1
S214402C5090BD00BF600A00201D654000680A002045
S214402C609C2D41008D46400079554000B95D40009E
S214402C7080B500AF0020014B984780BD45294000F5
S214402C8080B500AF0120014B984780BD45294000E4
S214402C9080B588B000AFF860B9607A6001233B75B4
S214402CA09B480121FA689B4B9847B8617B681A7B22
S214402CB007F11403104619460122974B98470346DE
S214402CC0FB75BB69002B00F31B81FB7D002B00F0DE
S214402CD017819249BA691346DB009B1A9B000B4446
S214402CE018331B68002B03D08D4B984700BFFDE779
S214402CF0F8688C4B9847F8688B4B9847844ABB6972
S214402D001B0113445B68184640F20221874B9847E4
S214402D107F4ABB691B01134408331B681846844B23
S214402D2098477B681B7B012B00D004E0F868B968A5
S214402D30804B984700BFF8684FF0FF317E4B98476E
S214402D407B685A7BBB69D9007C4B0B4410461946BE
S214402D5000227B4B98477B681B68002B00F0A780BF
S214402D604FF0FF300021774B984701466B48BA69D1
S214402D701346DB009B1A9B000344103319606749D7
S214402D80BA691346DB009B1A9B000B4410331B6842
S214402D90002B03D1624B984700BFFDE77B681B685A
S214402DA019465E48BA691346DB009B1A9B000344EB
S214402DB0083319607B6859685848BA691346DB007F
S214402DC09B1A9B00034408335960514ABB691B0158
S214402DD013445968BA691346DB009B1A9B0003F1FB
S214402DE008024E4B1344084619460022564B984755
S214402DF07B6819684948BA691346DB009B1A9B00F2
S214402E000344183319604549BA691346DB009B1AD8
S214402E109B000B44083319684048BA691346DB00E8
S214402E209B1A9B00034419603C49BA691346DB0071
S214402E309B1A9B000B441A687B685B68D11837481E
S214402E40BA691346DB009B1A9B00034459607B68B3
S214402E505B7B03F00203002B1BD001203B4B9847C3
S214402E6001462E48BA691346DB009B1A9B00034472
S214402E70103359602949BA691346DB009B1A9B00F8
S214402E800B4410335B68002B03D1254B984700BF9B
S214402E90FDE7F86809212E4B98471D4ABB691B0180
S214402EA013445B68184601212A4B984709E01B49A2
S214402EB0BA691346DB009B1A9B000B441833012269
S214402EC01A60134ABB691B01134408331A797B689E
S214402ED09B6852B2104619461F4B98470C4ABB692E
S214402EE01B0113441B681846E021194B9847F868A5
S214402EF01A4B9847F8681A4B9847FB68FB6101E005
S214402F000023FB61FB6918462037BD4680BD00BFE5
S214402F10AC2D4100AD1E4000ED1E4000780A00205A
S214402F20155E40007D564000AD5640008D46400040
S214402F30D950400001564000E1564000940A002017
S214402F40351F40006963400029464000C562400086
S214402F50C55640006D4640003D2040006556400046
S214402F609556400090B58BB002AFF860B9607A6075
S214402F703B60FB68BB6121480121BA69204B9847FA
S214402F8078617B69002B31DC7B69DA001D4B1A4483
S214402F903B46104619461C4B98470346FB7797F925
S214402FA01F30002B24D17B69DA00164B1A44134994
S214402FB07B691B010B445B68396B009101210191D1
S214402FC01046B9687A68114CA047B8691021104B72
S214402FD098477B69DA000B4B1A443B681046396BBE
S214402FE01A460C4B98470346FB7701E0F823FB77DD
S214402FF0FB7F5BB218462437BD4690BDAC2D4100E2
S214403000AD1E4000940A002071214000E12140009E
S214403010C55640008122400090B58BB000AFF860A6
S214403020B9607A603B6000233B62FB68FB6177488F
S2144030300121FA69764B9847B8617649BA691346D2
S214403040DB009B1A9B000B4418331B68002B03D1F4
S214403050714B984700BFFDE76E49BA691346DB00DF
S2144030609B1A9B000B4418331B68012B03D16A4BF9
S214403070984700BFFDE7BB69002B00F3C280654957
S214403080BA691346DB009B1A9B000B44596861489B
S214403090BA691346DB009B1A9B0003441B68CA1A96
S2144030A07B689A42C0F0AD8007F1100318465B4B30
S2144030B098475849BA691346DB009B1A9B000B4455
S2144030C010335B68002B2FD05249BA691346DB0099
S2144030D09B1A9B000B4410335A683B6810460021ED
S2144030E01A4600234E4CA04778627B6A012B1DD1BE
S2144030F007F110023B46104619464A4B984703468E
S214403100012B13D100237B624249BA691346DB0088
S2144031109B1A9B000B4410335B6818460021002224
S2144031200023414CA04701E001237B627B6A012BD0
S21440313067D13849BA691346DB009B1A9B000B449B
S21440314010331A683B68104600211A460023344C58
S214403150A047BA691346DB009B1A9B002D4A981875
S2144031602A4ABB691B0113445B681968BA683B6A04
S2144031701A447C683B6AE31A2C4CA04703463A6ADA
S21440318013443B623B6A002B13D0294B9847214996
S214403190BA691346DB009B1A9B000B4408335B68F6
S2144031A0002B04D1BB6918460121224B9847224B7D
S2144031B098473A6A7B689A4209D207F110023B4622
S2144031C010461946174B98470346002BB1D0114975
S2144031D0BA691346DB009B1A9B000B4410335B68AE
S2144031E0002B0ED00B49BA691346DB009B1A9B0096
S2144031F00B4410335B6818460021002200230A4C1B
S214403200A0473B6A18462C37BD4690BDAC2D4100C2
S214403210AD1E4000780A0020155E400071744000E4
S214403220D9654000A9744000AD6340009D20400031
S214403230D15D40003D324000ED5D400080B584B039
S21440324000AF78600B46FB707A681346DB009B1A2B
S2144032509B00364A1344FB60FB689B691A46FB6832
S2144032609B689A420ED1FB78002B03D1FB68002264
S214403270DA601EE0FB685A68FB689B68D21AFB68F7
S214403280DA6016E0FB689B691A46FB689B689A42C0
S21440329008D9FB689B691A46FB689B68D21AFB688C
S2144032A0DA6006E0FB685A68FB689B68D21AFB68DF
S2144032B0DA60FB689A68FB68DB681A44FB685B6800
S2144032C09A4203D91A4B984700BFFDE7FB68DB6874
S2144032D0002B1ED0174A7B681B0113445A68FB68B4
S2144032E00833104619460022134B9847114A7B680C
S2144032F01B0113445B6818460121104B98470D4A42
S2144033007B681B0113441B68184609210C4B9847E1
S21440331008E0084A7B681B0113441B6818460921CD
S214403320084B98471037BD4680BD00BF780A00203E
S214403330155E4000AC2D4100294640006D464000D9
S214403340C5564000E156400090B587B000AF786063
S2144033500023FB60614A7B681B0113441B681846C8
S2144033605F4B984778615D4A7B681B0113441B6836
S21440337018465C4B984703467A6913407B617A68E7
S2144033801346DB009B1A9B00574A13443B617B69FC
S21440339003F01003002B2ED0504A7B681B011344C9
S2144033A01B6818461021514B9847514A7B68DB00F2
S2144033B013445B68002B0CD04D4A7B68DB001344FB
S2144033C05A6807F10C03104600211A460023494C60
S2144033D0A047474B7A6853F83230002B0BD0444B0B
S2144033E07A6853F8322007F10C03104600211A463B
S2144033F00023404CA0477B6903F00803002B33D0E2
S2144034003B699B69002B03D13B4B984700BFFDE7C8
S2144034103B699B69012B03D1374B984700BFFDE7BB
S2144034203B699A683B69DB681A443B699A603B692A
S2144034309A683B695B689A4203D33B691A683B6962
S2144034409A607B68184600212C4B98473B691B695D
S214403450002B09D03B691A6907F10C03104600217E
S2144034601A460023234CA0477B69002B0DD13B69AD
S2144034701B69002B09D03B691A6907F10C031046FB
S21440348000211A4600231B4CA0477B6903F0E0034B
S214403490002B1BD0114A7B681B0113441B6818463F
S2144034A0174B9847124A7B68DB0013445B68002B37
S2144034B00CD00F4A7B68DB0013445A6807F10C03B4
S2144034C0104600211A4600230A4CA047FB68002BF2
S2144034D001D00C4B98471C37BD4690BDAC2D4100E3
S2144034E015574000FD564000780A0020E15640003F
S2144034F0940A00201D654000155E40003D324000A5
S2144035002D574000B95D400080B500AF0020014B0C
S214403510984780BD4933400080B500AF0120014B3D
S214403520984780BD4933400080B483B000AF786090
S2144035307B68072B25D801A252F823F05D35400062
S21440354063354000693540006F35400073354000B4
S214403550773540007B3540007F3540004FF4FA43D6
S21440356010E04FF400430DE04FF400430AE0084BF0
S21440357008E0084B06E0084B04E0074B02E0064B29
S21440358000E0002318460C37BD465DF8047B7047C4
S21440359000093D0000127A00001BB70080B500AF5E
S2144035A00620034B98470346DB00184680BD00BF05
S2144035B02935400080B500AF024B984703465B086C
S2144035C0184680BD9D35400080B483B000AF78601B
S2144035D07B6880221A600C37BD465DF8047B7047D6
S2144035E080B483B000AF78607B685B6843F00102CC
S2144035F07B685A600C37BD465DF8047B704700BF59
S21440360080B483B000AF78607B685B6823F00202CA
S2144036107B685A600C37BD465DF8047B704700BF38
S21440362080B483B000AF78607B685B6823F00402A8
S2144036307B685A600C37BD465DF8047B704700BF18
S21440364080B483B000AF78607B685B6803F00403A7
S214403650002B01D0012300E0002318460C37BD465E
S2144036605DF8047B704700BF80B483B000AF7860DD
S2144036707B685B6843F010027B685A600C37BD4637
S2144036805DF8047B704700BF80B483B000AF7860BD
S2144036907B685B6823F080027B685A600C37BD46C7
S2144036A05DF8047B704700BF80B582B000AF78609D
S2144036B078680F4B984778680E4B984778680E4B5B
S2144036C0984778680D4B984778680D4B98477868C8
S2144036D000210C4B984778680B4B984778680B4B03
S2144036E09847786800210A4B98470837BD4680BD02
S2144036F069514000C9354000E13540006936400018
S2144037008936400081514000013640002136400055
S214403710B551400090B587B000AFF860B9603B60E7
S2144037201346FB71214B9847034638681946204B91
S21440373098470346FB82BB681B68F8681946002218
S21440374000231C4CA047BB681B68F8681946082233
S214403750194B9847BB681A68FB8ADBB2F868114673
S2144037601A46164B9847BB681B68F86819460822E5
S214403770134B9847BB681A68FB795B08DBB2F8685E
S21440378011461A460F4B9847BB681A68FB7903F0F8
S2144037900103002B14BF00230123DBB2F868114657
S2144037A01A46094B98471C37BD4690BDB535400074
S2144037B0E5534000755440009D534000255440005A
S2144037C0F952400059524000A952400080B582B09C
S2144037D000AF786039607868104B98470346002BF6
S2144037E00AD03B681B680F2B14D83B681B68786868
S2144037F019460B4B98470DE03B681B68032B09D8CE
S2144038003B681B68012202FA03F3DB4378681946DB
S214403810034B98470837BD4680BD00BF4136400041
S2144038208151400080B586B000AFF860B9607A60DC
S21440383000237B61FB68002B02D04FF0FF3314E07F
S2144038400FE00C4B1B680C4A12681046B968984744
S214403850BB680133BB607B6901337B617B68013B9E
S2144038607B607B68002BECDC7B6918461837BD46CE
S21440387080BD00BF004000200840002080B586B0D4
S21440388000AFF860B9607A6000237B61FB68012B6B
S21440389008D0FB68022B05D0FB68032B02D04FF004
S2144038A0FF331BE016E00F4B1A680F4B1968BB68D6
S2144038B0581CB8601B780846194690470346002BAC
S2144038C002DA4FF0FF3309E07B6901337B617B68A6
S2144038D0013B7B607B68002BE5D17B691846183737
S2144038E0BD4680BD044000200840002080B582B020
S2144038F000AF78607868024B98470837BD4680BD71
S214403900D950400080B500AF0B20044B98470C20A0
S214403910024B98470D20014B984780BDED3840003C
S21440392080B500AF3A4B4FF400425A60394B984747
S21440393017204FF06051384B98472E204FF060517B
S214403940354B984719204FF06051334B98470F201E
S2144039503249314B9847102031492F4B98473148D0
S2144039604FF4C0614FF000622F4B984700204FF055
S2144039708051294B984708204FF08051264B984756
S21440398003204FF00061244B984704204FF000611D
S214403990214B98470C204FF000611F4B98470D2055
S2144039A04FF000611C4B98470E204FF000611A4BB9
S2144039B098471F204FF00061174B98471E204FF046
S2144039C08051154B98470C204FF00061124B98479A
S2144039D00D204FF00061104B98470E204FF00061CD
S2144039E00D4B98471E204FF080510B4B98471C209C
S2144039F04FF06051084B98471D204FF06051064BE2
S214403A0098474D204FF06051034B984780BD00BF0C
S214403A1050140E4005394000514A400079000028B5
S214403A2059000028000E0E40054C400080B584B07A
S214403A3000AF78600023FB6017E00F4BFA6853F83E
S214403A4032207B689A420DD10B4AFB68DB00134458
S214403A505B68012B03D17868084B984702E078688A
S214403A60074B9847FB680133FB60FB68032BE4D9A0
S214403A701037BD4680BD00BFBC2D4100CD4940003B
S214403A80A149400080B584B000AF78600023FB6059
S214403A9017E00F4BFA6853F832207B689A420DD1F4
S214403AA00B4AFB68DB0013445B68012B03D1786844
S214403AB0084B984702E07868074B9847FB68013305
S214403AC0FB60FB68032BE4D91037BD4680BD00BFC2
S214403AD0BC2D4100A1494000CD49400080B48BB088
S214403AE000AF78600B46FB707B687B62FB7887F89C
S214403AF023307B6AFB61FB69BB61BB695B097B6109
S214403B007B6903F5001303F207735B023B6197F88A
S214403B102330002B09D07B6AFB60FB6803F01F0351
S214403B2001229A403B691A6308E07B6ABB60BB6827
S214403B3003F01F0301229A403B695A632C37BD4667
S214403B405DF8047B704700BF80B584B000AF7860F6
S214403B507B68C3F111037B607B68102B28BF102362
S214403B607B607B68002B01D07B6800E001237B6094
S214403B700023FB601AE04D200021144B9847182381
S214403B80BB6000BFBB685A1EBA60002BFAD14D20FE
S214403B9001210E4B98471823BB6000BFBB685A1ED6
S214403BA0BA60002BFAD1FB680133FB60FA687B6889
S214403BB09A42E0D34FF40033BB6000BFBB685A1E46
S214403BC0BA60002BFAD11037BD4680BDDD3A4000C2
S214403BD080B582B000AF4D200021074B98474FF488
S214403BE000337B6000BF7B685A1E7A60002BFAD198
S214403BF00837BD4680BD00BFDD3A400080B483B084
S214403C0000AF0346FB71084B97F907205209F97934
S214403C1001F01F01012000FA01F143F822100C3791
S214403C20BD465DF8047B704700E100E080B483B099
S214403C3000AF0346FB71094B97F907205209F97903
S214403C4001F01F01012000FA01F1203243F8221052
S214403C500C37BD465DF8047B704700BF00E100E0CE
S214403C6080B483B000AF0346FB71094B97F9072039
S214403C705209F97901F01F01012000FA01F1603282
S214403C8043F822100C37BD465DF8047B704700BFF2
S214403C9000E100E080B483B000AF03463960FB71BA
S214403CA097F90730002B0BDA0D49FB7903F00F0329
S214403CB0043B3A68D2B21201D2B20B441A7609E0FB
S214403CC0084997F907303A68D2B21201D2B20B448B
S214403CD083F800230C37BD465DF8047B704700BF71
S214403CE000ED00E000E100E080B483B000AF786013
S214403CF07B6880221A600C37BD465DF8047B7047AF
S214403D0080B483B000AF78607B6801221A600C37BD
S214403D10BD465DF8047B704780B483B000AF7860E2
S214403D207B6802221A600C37BD465DF8047B7047FC
S214403D3080B483B000AF78607B684FF080721A60C2
S214403D400C37BD465DF8047B704700BF80B483B037
S214403D5000AF786039607B683A685A610C37BD4678
S214403D605DF8047B704700BF80B483B000AF7860D6
S214403D7039607B683A689A610C37BD465DF8047BCB
S214403D80704700BF80B483B000AF78607B68DB6963
S214403D9018460C37BD465DF8047B704790B583B037
S214403DA000AF0346FB710F48022100220E4B984796
S214403DB00C480E4B98471C200D4B9847FB799BB2FE
S214403DC008481946022200230A4CA04705480A4BD9
S214403DD09847044802218022034B98470C37BD463B
S214403DE090BD00BF008000409D534000013D400014
S214403DF0CD494000E5514000193D400080B500AF38
S214403E002220014B984780BD9D3D400090B583B031
S214403E1000AF0346FB800948094B98471C20094BD6
S214403E209847FB880548194602220023064CA047BF
S214403E300248064B98470C37BD4690BD0080004070
S214403E40013D4000A1494000E5514000193D400079
S214403E5090B585B000AF786039603B68002B00D1E4
S214403E601DE01048104B98471C20104B98470023E5
S214403E70FB600DE0FB685B007A6813441B880948CA
S214403E801946022200230A4CA047FB680133FB6018
S214403E90FA683B689A42EDD30248064B9847143777
S214403EA0BD4690BD00800040013D4000A149400015
S214403EB0E5514000193D400080B582B000AF024653
S214403EC00B46FA71BB80FB791846044B9847BB8873
S214403ED01846034B98470837BD4680BD9D3D400079
S214403EE00D3E400080B485B000AF78600023FB6094
S214403EF00CE00023FB6002E0FB680133FB60FA68DD
S214403F00074B9A42F8D9FB680133FB60FA687B6836
S214403F109A42EED31437BD465DF8047B704700BF27
S214403F209F86010080B487B000AFF860B9607A60C1
S214403F303B60FB681B68AF2B02D9FB68AF221A6058
S214403F407B681B68AF2B02D97B68AF221A60BB68C0
S214403F501B68DB2B02D9BB68DB221A603B681B68F8
S214403F60DB2B02D93B68DB221A60FB681A687B6849
S214403F701B689A4209D9FB681B687B617B681A6894
S214403F80FB681A607B687A691A60BB681A683B6887
S214403F901B689A4209D9BB681B687B613B681A68F4
S214403FA0BB681A603B687A691A601C37BD465DF884
S214403FB0047B704790B587B002AF78600223FB6001
S214403FC01D20774B98470220764B98471D20764B0E
S214403FD098471420734B98471D20714B98473220C2
S214403FE0704B98477148724B98477048714B98474A
S214403FF06E48714B98471520704B98471520704B6C
S2144040009847152000216F4B984715206E4B9847D0
S21440401066486E4B984707F10C03002200926348AF
S214404020194600226A4B6B4CA04707F10C035F48C9
S2144040301946694B98475D48684B98475B4801214D
S214404040674B9847674B984701204FF48E71664BF5
S214404050984702204FF48071634B9847032041F203
S2144040603001614B9847082040F608015E4B984760
S2144040700C2001215C4B98470F2040F601215A4BFB
S21440408098472020B021584B98472120DC21564B9A
S214404090984710204FF42061534B9847112041F227
S2144040A03801514B984732203E4B9847122041F2F8
S2144040B021114D4B984713204E214B4B98471420C7
S2144040C046F26F71484B984730200021464B984740
S2144040D03120DB21444B984732200021424B984701
S2144040E033200021404B98473420DB213E4B9847F5
S2144040F0352000213C4B98473620B0213A4B984714
S21440410037200021384B98473820DC21364B9847DB
S21440411039200021344B984750200021324B984795
S214404120512040F20A61304B9847522040F60A51DF
S2144041302D4B9847532040F203312B4B9847542041
S21440414040F60D21284B9847552040F60621264B31
S214404150984756200021244B9847572040F2033179
S214404160214B9847582000211F4B98475920002143
S2144041701D4B98477B681A687B685B680020002167
S2144041801A4CA0477B689B681846194B98470020F6
S2144041900021184B9847002318461437BD4690BD5B
S2144041A0A1494000E53E4000CD4940000080004027
S2144041B0193D4000E93C4000313D40002D3C400068
S2144041C0613C4000953C4000FD3B4000A936400025
S2144041D020BCBE0015374000CD374000013D4000B2
S2144041E04D3D400041424000B93E4000F142400053
S2144041F0554240006143400080B582B000AF07485A
S214404200074B9847786005487968064B9847064BB1
S21440421001221A700837BD4680BD00BF00800040AE
S214404220853D4000693D4000FC0B002080B500AF56
S214404230072041F21701014B984780BDB93E400028
S21440424080B500AF07200021014B984780BD00BFD6
S214404250B93E400080B485B000AF78607B6803F418
S21440426078031B0A9AB27B6803F47C435B099BB2D3
S21440427013439AB27B6803F0F803DB089BB2134300
S2144042807B810023FB6007E0074BFA68798923F8B7
S2144042901210FB680133FB60FB68AF2BF4D9143770
S2144042A0BD465DF8047B70479C0A002080B584B00C
S2144042B000AF0346FB80002000210A4B98470A4B7C
S2144042C0984749F24073FB6006E0FB881846074B68
S2144042D09847FB68013BFB60FB68002BF5D1103725
S2144042E0BD4680BD61434000FD3D40000D3E400060
S2144042F080B584B000AFF860B9607A603B60FB6818
S2144043009AB27B689BB213449BB2013B9BB2DBB232
S2144043109BB236201946114B9847FB689BB2DBB2DE
S2144043209BB2372019460D4B9847BB689AB23B68FC
S2144043309BB213449BB2013B9BB2DBB29BB238208C
S2144043401946064B9847BB689BB2DBB29BB23920F6
S2144043501946024B98471037BD4680BDB93E4000CF
S21440436080B582B000AF02460B46FA80BB80FB8821
S214404370DBB29BB220201946054B9847BB88DBB280
S2144043809BB221201946024B98470837BD4680BD50
S214404390B93E400080B582B000AF786039607B6837
S2144043A0AF2B02D83B68DB2B01D901230FE07B689B
S2144043B09AB23B689BB210461946074B9847074B44
S2144043C09847074B1B881846064B984700231846C5
S2144043D00837BD4680BD00BF61434000FD3D4000FC
S2144043E09C0A00200D3E400090B587B000AFF860B4
S2144043F0B9607A603B6007F10C0007F108013A1D8E
S2144044003B46244CA047F868B9687A68FB68D31ADC
S2144044105A1C3C68BB68E31A01331F4CA047FB6834
S2144044209AB2BB689BB2104619461C4B98471C4B29
S21440443098477A68FB68D31A01333968BA688A1A8B
S214404440013202FB03F33B613A69164BA3FB0213AE
S214404450DB097B6103E01448B021144B98477B6925
S2144044605A1E7A61002BF6D13A690E4BA3FB021313
S214404470DB09B02101FB03F3D31A0B4819460B4B5B
S214404480984700200021B022DC23034CA0471C376D
S214404490BD4690BD253F4000F1424000614340008C
S2144044A0FD3D4000A38B2EBA9C0A0020513E4000A2
S2144044B080B58AB000AFF860B9601346FB71FA79F0
S2144044C013469B0013449B00A3F52073FB61002317
S2144044D03B624DE03B6A5A00FB691344BB61BB69D3
S2144044E001337B6100237B621AE0244ABB69134494
S2144044F01B781A467B6AC3F1070342FA03F303F0BC
S2144045000103002B09D0FA683B6A1A44B9687B6AF3
S2144045100B44104619461A4B98477B6A01337B6218
S2144045207B6A072BE1D900237B621BE0134A7B6939
S21440453013441B781A467B6AC3F1070342FA03F317
S21440454003F00103002B0AD0FA683B6A1A44B968A4
S2144045507B6A0B44083310461946094B98477B6ADA
S21440456001337B627B6A052BE0D93B6A01333B62B1
S2144045703B6A092BAED92837BD4680BDDC2D4100AD
S2144045809543400080B586B000AFF860B9607A6069
S214404590FB687B611CE07B681B780A2B08D10E23E6
S2144045A01A46BB6813440233BB607B69FB600CE071
S2144045B07B681B78F868B9681A46094B98470A23FF
S2144045C01A46FB6813440233FB607B6801337B600A
S2144045D07B681B78002BDED11837BD4680BD00BFF8
S2144045E0B144400080B485B000AFF860B9607A60EE
S2144045F0BB68002B07D0BB681A68FB689A60BB682C
S2144046005A68FB68DA607B68002B07D07B681A68BC
S214404610FB689A617B685A68FB68DA611437BD4666
S2144046205DF8047B704700BF80B485B000AFF8608B
S214404630B9607A60BB68002B07D0BB681A68FB6815
S2144046401A60BB685A68FB685A607B68002B07D0C4
S2144046507B681A68FB681A617B685A68FB685A610F
S2144046601437BD465DF8047B704700BF80B483B006
S21440467000AF786039603A6840F2011313407A68B8
S21440468013620C37BD465DF8047B704780B483B038
S21440469000AF786039603A6840F2022313407A6887
S2144046A013620C37BD465DF8047B704780B485B016
S2144046B000AFF860B9607A607B68002B03D0FB6877
S2144046C0BA685A6602E0FB68BA681A661437BD468E
S2144046D05DF8047B704700BF80B487B000AFF860D9
S2144046E0B9607A60FB687A685A64BB68B3F1C05FA9
S2144046F04AD0B3F1C05F08D8B3F1006F16D0B3F11B
S214404700805F2CD0002B69D064E0B3F1205F65D089
S214404710B3F1205F03D8B3F1005F4AD05AE0B3F15B
S214404720405F5BD0B3F1605F58D053E0FB681B6FCF
S2144047307B61FB681A6F7B68D9437B690B401A40E4
S214404740FB681A67FB685B6F7B61FB685A6F7B6828
S214404750D9437B690B401A40FB685A673AE0FB68CE
S2144047601B6F7B617A687B691A43FB681A67FB6834
S2144047705B6F7B61FB685A6F7B68D9437B690B40F4
S2144047801A40FB685A6725E0FB681B6F7B61FB6835
S2144047901A6F7B68D9437B690B401A40FB681A67DF
S2144047A0FB685B6F7B617A687B691A43FB685A6774
S2144047B010E0FB681B6F7B617A687B691A43FB6875
S2144047C01A67FB685B6F7B617A687B691A43FB6894
S2144047D05A6700BFFB687A685A6000E000BF1C3723
S2144047E0BD465DF8047B704780B584B000AFF86086
S2144047F0B9607A60F868B968184B98477B6803F0E8
S2144048000103F868B9681A46154B98477B6803F069
S2144048100A03002B03D0FB68BA681A6202E0FB6802
S214404820BA685A627B6803F00203002B04D0FB6828
S214404830BA68C3F8802008E07B6803F00803002BC2
S21440484003D0FB68BA68C3F88420FB68BA685A612C
S214404850FB68BA681A601037BD4680BD55494000AF
S214404860AD46400080B584B000AFF860B9607A606D
S2144048703B60F868B968124B9847F868B968BA69F7
S214404880104B98473B68002B03D0FB68BA681A6504
S21440489002E0FB68BA685A657B68002B03D0FB6869
S2144048A0BA681A6302E0FB68BA685A63FB68BA687B
S2144048B01A61FB68BA681A601037BD4680BD00BFF3
S2144048C055494000AD46400080B485B000AFF86022
S2144048D0B9607A607B6803F01003002B20D0FB6839
S2144048E0BA68C3F8B0207B6803F02003002B04D0DE
S2144048F0FB68BA68C3F8D42003E0FB68BA68C3F81C
S214404900D0207B6803F04003002B04D0FB68BA68D5
S214404910C3F8C02008E0FB68BA68C3F8C42003E0C8
S214404920FB68BA68C3F8B4201437BD465DF8047B0C
S214404930704700BF80B483B000AF786039607B6852
S214404940DB6C7B683A681A640C37BD465DF8047BBE
S214404950704700BF80B483B000AF786039607B6832
S2144049603A685A640C37BD465DF8047B704700BF12
S21440497080B483B000AF78607B68DB6C18460C3739
S214404980BD465DF8047B704780B483B000AF786066
S2144049907B689B6C18460C37BD465DF8047B7047B9
S2144049A080B584B000AF78607868074B9847F86069
S2144049B07B6803F01F03012202FA03F31A46FB68E2
S2144049C01A631037BD4680BD2D4D400080B584B07B
S2144049D000AF78607868074B9847F8607B6803F0CC
S2144049E01F03012202FA03F31A46FB685A63103784
S2144049F0BD4680BD2D4D400080B584B000AF786088
S214404A007868124B9847F860FB689A6B7B6803F0AF
S214404A101F03012101FA03F31340002B09D07B68E2
S214404A2003F01F03012202FA03F31A46FB685A6397
S214404A3008E07B6803F01F03012202FA03F31A46DC
S214404A40FB681A631037BD4680BD00BF2D4D400041
S214404A5090B587B002AF786039607868644B984705
S214404A60F8603B6803F0F043B3F1005F6BD0B3F1FE
S214404A70005F09D8B3F1805F2DD0B3F1C05F46D058
S214404A80B3F1006F0BD0ACE0B3F1405F00F0838031
S214404A90B3F1605F7FD0B3F1205F70D0A1E07B6858
S214404AA003F01F03012202FA03F3F8684FF0006197
S214404AB01A46504B98477B6803F01F03012202FAC0
S214404AC003F31A463B6803F00103F86811461A469A
S214404AD0494B984787E07B6803F01F03012202FAA0
S214404AE003F3F8684FF080511A46424B98477B686C
S214404AF003F01F03012202FA03F31A463B6803F051
S214404B000103F86811461A463B4B98476BE07B68B2
S214404B1003F01F03012202FA03F3F8684FF0C05176
S214404B201A46344B98477B6803F01F03012202FA6B
S214404B3003F31A463B6803F00103F86811461A4629
S214404B402D4B98474FE07B6803F01F03012202FA83
S214404B5003F3F8684FF000511A46264B98477B6897
S214404B6003F01F03012202FA03F31A463B6803F0E0
S214404B700103F86811461A461F4B984733E07B6896
S214404B8003F01F03012202FA03F3F86819463A6855
S214404B901A4B984727E07B6803F01F03012202FA6E
S214404BA003F319463B6803F06053B3F1605F14BFEC
S214404BB000230123DBB21A463B6803F00403002BB4
S214404BC00CBF00230123DBB2386800F00100002848
S214404BD00CBF00200120C0B20090F868084CA047E7
S214404BE001E0002300E0012318461437BD4690BD7F
S214404BF02D4D4000D9464000AD464000E9474000B4
S214404C006548400090B587B002AFF860B9607A60FA
S214404C107B6803F0F043B3F1005F43D0B3F1005F2D
S214404C2009D8B3F1805F1FD0B3F1C05F2BD0B3F18A
S214404C30006F0AD06BE0B3F1405F48D0B3F1605FDD
S214404C4045D0B3F1205F3CD061E0F8684FF000619A
S214404C50BA68324B98477B6803F00103F868B96836
S214404C601A462F4B984754E0F8684FF08051BA6880
S214404C702A4B98477B6803F00103F868B9681A46E0
S214404C80274B984745E0F8684FF0C051BA68234B29
S214404C9098477B6803F00103F868B9681A46204BCA
S214404CA0984736E0F8684FF00051BA681B4B984773
S214404CB07B6803F00103F868B9681A46184B9847B2
S214404CC027E0F868B9687A68164B984721E07B6811
S214404CD003F06053B3F1605F14BF00230123DBB2DF
S214404CE01A467B6803F00403002B0CBF0023012305
S214404CF0DBB2796801F0010100290CBF00210121D7
S214404D00C9B20091F868B968074CA04701E0002393
S214404D1000E0012318461437BD4690BDD9464000F2
S214404D20AD464000E94740006548400080B485B045
S214404D3000AF78607B685B0903F5001303F20773E6
S214404D405B02FB60FB6818461437BD465DF8047B83
S214404D50704700BF80B584B000AF7860396078682F
S214404D60244B9847F8607868234B98470346FA6880
S214404D701340FB60FB68002B39D00023BB6033E058
S214404D801E4ABB681B0113441A683B689A4224D1EA
S214404D901A4ABB681B0113445A68FB681340002B31
S214404DA01BD0164ABB681B01134408335B68134983
S214404DB0BA6812010A4411681048BA6812010244DF
S214404DC052680846114698470C4ABB681B01134474
S214404DD05B68DB43FA681340FB60BB680133BB602B
S214404DE0BB68062B00D902E0FB68002BC8D1103701
S214404DF0BD4680BD7149400089494000000C0020F6
S214404E0080B586B000AFF860B9607A603B60134BFF
S214404E101B68062B01D901231CE0104B1B681A01A6
S214404E200F4B13447B617B69BA681A607B697A686A
S214404E305A607B693A689A607B693A6ADA60074BDF
S214404E401B685A1C054B1A60F86879683A68054B27
S214404E509847002318461837BD4680BD700C002082
S214404E60000C0020C948400080B500AF02480B2126
S214404E70024B984780BD00BF000E0E40554D400087
S214404E8080B500AF02480C21024B984780BD00BF5A
S214404E9000100E40554D400080B500AF02480D2131
S214404EA0024B984780BD00BF00120E40554D400053
S214404EB080B485B000AF78601D4B1D4A126B22F05F
S214404EC070017A680A431A634FF40063FB6007E098
S214404ED0FB68002B01D1012323E0FB68013BFB600C
S214404EE0134B9B6E03F00803002BF1D0104B104A77
S214404EF0126B22F0030242F002021A634FF4006380
S214404F00FB6007E0FB68002B01D1012309E0FB684A
S214404F10013BFB60064B9B6E03F00803002BF1D071
S214404F20002318461437BD465DF8047B704700BF23
S214404F3000040E4080B483B000AF78607B68012BDD
S214404F4007D1084A074B9B6843F0254343F4801338
S214404F509360044B044A1A600C37BD465DF8047BE8
S214404F60704700BF10140E40080000A580B400AF84
S214404F70094B5B6903F08003002B07D0074B9B6E01
S214404F8003F08003002B01D0012300E000231846E5
S214404F90BD465DF8047B704710140E4000040E407A
S214404FA080B483B000AF7860184A184B1B6A43F44D
S214404FB05C1343F00803136200BF144B9B6E03F46C
S214404FC00033002BF9D0114A104B1B6A23F45C13B4
S214404FD023F0700379680B4343F45C13136200BFFD
S214404FE00A4B9B6E03F40033002BF9D0074A074B5D
S214404FF01B6A23F09B7323F4803343F45C131362E1
S2144050000C37BD465DF8047B704700BF00040E4079
S21440501080B483B000AF786039607B68002B08D0DE
S2144050201649164B1B6A164A1A40164B13430B6218
S2144050301EE0124A114B1B6A23F45C1323F0030351
S2144050403968090289B20B4343F45C1343F0010309
S214405050136200BF094B9B6E03F00103002BF9D08F
S214405060064A064B1B6A43F09B7343F48033136235
S2144050700C37BD465DF8047B704700BF00040E4009
S214405080FCFFC8FE0200370180B400AF044B9B6EA5
S21440509003F480331846BD465DF8047B704700BF76
S2144050A000040E4080B400AF034B4FF000529A62AB
S2144050B0BD465DF8047B704700040E4080B400AFE8
S2144050C0044B9B6E03F002031846BD465DF8047B16
S2144050D0704700BF00040E4080B483B000AF7860D5
S2144050E07B681F2B01D9012316E07B681F2B12D843
S2144050F00C4B9A697B68012101FA03F31A407B68DE
S214405100012101FA03F39A4205D0064B7A68012141
S21440511001FA02F21A61002318460C37BD465DF8C4
S214405120047B704700040E4080B483B000AF7860C4
S2144051307B685B6803F00203002B01D0012300E08C
S214405140002318460C37BD465DF8047B704700BF09
S21440515080B582B000AF78607868024B98470837D1
S214405160BD4680BDD950400080B582B000AF786063
S2144051701520024B98470837BD4680BD5151400028
S21440518080B483B000AF786039607B685B6823F496
S21440519070227B685A607B685A683B681B0403F43D
S2144051A070231A437B685A600C37BD465DF8047B13
S2144051B0704700BF80B483B000AF786039607B68CA
S2144051C05B6823F07F427B685A607B685A683B681E
S2144051D01B061A437B685A600C37BD465DF8047B55
S2144051E0704700BF80B584B000AF786079807A7031
S2144051F03B7043F69823FB6006E0FB685A1EFA6055
S214405200002B01D1012320E07B681B6903F00203D9
S214405210002BF2D078680F4B98470346002B0ED0F1
S2144052207A887B781B0403F470231343BB603B7877
S214405230002B06D0BB6843F08073BB6001E07B88E0
S214405240BB607B68BA68DA6000235BB218461037EA
S214405250BD4680BD2951400080B485B000AFF8609F
S214405260B9607A607B68002B0CD0FB68BA680C3259
S21440527053F8223043F00101FB68BA680C3243F819
S21440528022100BE0FB68BA680C3253F8223023F049
S2144052900101FB68BA680C3243F822101437BD4649
S2144052A05DF8047B704700BF80B485B000AFF860FF
S2144052B0B9607A607B68002B0CD0FB68BA680C3209
S2144052C053F8223043F00201FB68BA680C3243F8C8
S2144052D022100BE0FB68BA680C3253F8223023F0F9
S2144052E00201FB68BA680C3243F822101437BD46F8
S2144052F05DF8047B704700BF80B485B000AFF860AF
S214405300B9607A607B68042B18D1FB68BA680C32A7
S21440531053F8223023F00801FB68BA680C3243F891
S2144053202210FB68BA680C3253F8223043F004016E
S214405330FB68BA680C3243F822102AE07B68002BE0
S21440534018D1FB68BA680C3253F8223023F00801B3
S214405350FB68BA680C3243F82210FB68BA680C3215
S21440536053F8223023F00401FB68BA680C3243F845
S21440537022100EE07B68082B0BD1FB68BA680C3213
S21440538053F8223043F00801FB68BA680C3243F801
S21440539022101437BD465DF8047B704780B485B054
S2144053A000AFF860B9607A60FB68BA680C3253F8B0
S2144053B0223023F0F001FB68BA680C3243F8221022
S2144053C0FB68BA680C3253F822207B6842EA030135
S2144053D0FB68BA680C3243F822101437BD465DF8B5
S2144053E0047B704780B485B000AF786039603A6817
S2144053F07B6813445A1E7B68B2FBF3F3FB60FB6882
S214405400002B02DDFB68FF2B02DD4FF6FF7301E049
S214405410FB689BB21BB218461437BD465DF8047B4A
S214405420704700BF80B485B000AFF860B9601346DF
S214405430FB71FB68BA680C3253F8223023F47F4184
S214405440FB68BA680C3243F82210FB68BA680C3224
S21440545053F82220FB791B029BB242EA0301FB6809
S214405460BA680C3243F822101437BD465DF8047B08
S214405470704700BF80B485B000AFF860B960FA717D
S214405480BB71FB68BA680C3253F8223099B2FB689D
S214405490BA680C3243F82210FB68BA680C3253F8EC
S2144054A02220FB791B0403F47F01BB791B060B43C8
S2144054B042EA0301FB68BA680C3243F822101437FC
S2144054C0BD465DF8047B704780B483B000AF78601B
S2144054D07B6808221A607B6820221A607B68042258
S2144054E01A600C37BD465DF8047B704780B487B0C1
S2144054F000AFF860B9607A6000237B61BA68164BEB
S2144055009A4201D9012321E0BB685B007A68B2FB6E
S214405510F3F3043B3B6105E07B6901337B613B6908
S2144055205B083B613B69FF2B02D97B69062BF3D9AD
S2144055303B69DAB23B691B029BB21A437B691B0488
S21440554003F4E0231A43FB681A61002318461C370D
S214405550BD465DF8047B7047801A060080B483B071
S21440556000AF786039607B683A685A620C37BD464F
S2144055705DF8047B704700BF80B483B000AF7860AE
S21440558039607B683A689A627B681B6A0C37BD460E
S2144055905DF8047B704700BF80B483B000AF78608E
S2144055A07B681B6A18460C37BD465DF8047B70471F
S2144055B080B483B000AF78607B68DB6A18460C37EF
S2144055C0BD465DF8047B704780B483B000AF78601A
S2144055D07B681B6BDBB218460C37BD465DF8047B18
S2144055E0704700BF80B483B000AF78607B6880228D
S2144055F01A607B681B6B0C37BD465DF8047B7047B2
S21440560080B485B000AF786039600023FB607B686B
S214405610AC221A603B681A683B685B68B2FBF3F3DF
S2144056201B09FB60FB68002B03D0FB68B3F5803F8B
S21440563001D301230FE07B68FA681A623B689A68D8
S2144056407B685A607B6840F20222C3F820217B6860
S21440565050221A60002318461437BD465DF8047B76
S214405660704700BF80B483B000AF78607B6840224C
S2144056701A600C37BD465DF8047B704780B483B033
S21440568000AF78607B6880221A600C37BD465DF8B4
S214405690047B704780B483B000AF78607B6810228C
S2144056A01A600C37BD465DF8047B704780B483B003
S2144056B000AF78607B6820221A600C37BD465DF8E4
S2144056C0047B704780B483B000AF786039607B68F5
S2144056D03A689A600C37BD465DF8047B704700BF59
S2144056E080B483B000AF786039607B683A68DA602F
S2144056F00C37BD465DF8047B704700BF80B483B06E
S21440570000AF78607B681B6918460C37BD465DF86D
S214405710047B704780B483B000AF78607B685B6979
S21440572018460C37BD465DF8047B704780B483B09E
S21440573000AF78607B684FF480721A600C37BD46C5
S2144057405DF8047B704700BF80B483B000AF7860DC
S2144057500B46FB707B685B6903F00203002B01D1AC
S214405760012303E0FA787B68DA61002318460C3799
S214405770BD465DF8047B704780B483B000AF786068
S21440578039607B685B6903F00103002B01D101237C
S21440579005E07B689B69DAB23B681A7000231846BE
S2144057A00C37BD465DF8047B704700BF80B483B0BD
S2144057B000AF786039607B685B6903F00203002BBA
S2144057C001D1012305E03B68C3F308027B68DA6138
S2144057D0002318460C37BD465DF8047B704700BF73
S2144057E080B483B000AF786039607B685B6903F053
S2144057F00103002B01D1012306E07B689B69C3F3BC
S21440580008023B681A60002318460C37BD465DF810
S214405810047B704780B400AFFEE700BF80B582B01F
S21440582000AF1E4B7B601E4B3B607A683B689A42DB
S2144058300CD007E03B681A1D3A607A68111D796003
S21440584012681A603A68174B9A42F3D3164B3B607D
S21440585004E03B681A1D3A6000221A603A68134B0F
S2144058609A42F6D3124B7B60124A7B6823F0604321
S21440587023F07F0393607B68B3F1005F09D37A68B7
S2144058800D4B9A4205D80B4B0A4A926842F000529A
S2144058909A600A4B98470A4B9847FEE7E83D410016
S2144058A000000020F4090020F8090020784000207D
S2144058B00000400000ED00E0FF5F002041AE4000E9
S2144058C0498A400080B400AF4E4B1B6B03F0030385
