:020000040040BA
:1000000028470020D1214000CF214000CF214000CF
:10001000CF214000CF214000CF2140000000000050
:10002000000000000000000000000000112440005B
:10003000CF214000000000008D244000C924400072
:10004000CF214000CF214000CF214000CF214000F0
:10005000CF214000CF214000CF214000CF214000E0
:100060008512400095124000CF214000691E4000DB
:100070007D1E4000911E4000CF214000CF21400056
:10008000CF214000CF214000CF214000950E4000FD
:10009000A50E400019014000CF214000CF214000B3
:1000A000CF214000CF214000CF214000CF21400090
:1000B000CF214000CF214000CF214000CF21400080
:1000C000CF21400010B5054C237833B9044B13B150
:1000D0000448AFF300800123237010BD8009002085
:1000E00000000000F8C8400008B5064B1BB10648E8
:1000F0000649AFF300800648036813B1054B03B10E
:10010000984708BD00000000F8C84000840900209E
:10011000F8C840000000000008B5014B984708BD32
:10012000ED16400038B5234DB020DC23002485E8CF
:1001300019006FF07F43EB601F4B98471F4B284619
:10014000984708201E4B98471E4B98474FF6FF7064
:100150001D4B98470120082100221C4DA8471C4B2D
:1001600043F8240053F824301BB91920194B984741
:10017000FEE7012008210022A847174B43F824007E
:1001800053F824301BB91920124B9847FEE7012081
:1001900008210022A847114B43F8240053F82430CB
:1001A0001BB919200B4B9847FEE70134032CD1D122
:1001B00038BD00BF5C3E0020891540009917400003
:1001C0002D1540000517400061194000052840002A
:1001D000503E0020F9144000343E0020403E0020F4
:1001E0002DE9F04100209AB0394DA847394C3A4AE0
:1001F00005200A21A0474FF4FA70384B9847384F32
:1002000004A800211822B8470026B846354B4FF005
:10021000FF3253F8260004AB03EBC601324F012333
:10022000B847012802D00020304B98470136032EF2
:10023000ECD10AA800211822C04700262C4B4FF011
:10024000FF3253F826000AAB03EBC6010123B8477F
:10025000012802D00020254B98470136032EEDD10E
:100260006FF07F40A847234E1E21B022DC230020E0
:10027000B0470020A847DDE906231F4ECDE9002343
:10028000DDE908231D49CDE90223DDE9042310A897
:10029000B04705201E2110AAA047DDE90C2318490C
:1002A000CDE90023DDE90E2310A8CDE90223DDE925
:1002B0000A23B0476E2110AA0520A047114B98478A
:1002C0001149024610A8B0470520BE2110AA91E7A7
:1002D00029174000651A400060BB400035314000DE
:1002E00061654000503E0020712A4000392E4000D8
:1002F000403E0020C9194000F16A40006DBB40003B
:100300008EBB400085264000AFBB400013B50023E4
:100310000193164B0C46984206D114482146144BC3
:1003200098470028F9D11EE0124B984206D1114897
:1003300021460F4B98470028F9D114E00E4B984204
:1003400006D10D4801A90D4B98470028F9D108E0C6
:100350000B4B984207D10A4801A9084B984700283F
:10036000F9D1019B237002B010BD00BF00060E4002
:100370009721400000080E4000400240B921400093
:1003800000800240164B10B598420C4607D1144825
:100390002146144B98470028F9D1012010BD124B7B
:1003A000984206D1104821460E4B98470028F9D1B3
:1003B000F3E70E4B984206D10C4821460C4B984768
:1003C0000028F9D1E9E70B4B984206D109482146AC
:1003D000074B98470028F9D1DFE7002010BD00BF88
:1003E00000060E408921400000080E4000400240F7
:1003F000A7214000008002400FB410B5A4B026AA87
:1004000052F8041B04A80392084B9847002300935A
:10041000074B024604A91868064C4FF0FF33A0476B
:1004200024B0BDE8104004B0704700BF5D8E4000AE
:10043000B03E00200512400070B51B4B88B00493FD
:100440001A4B1B4C1B681B4A05930A230693012376
:100450008DF81C3003238DF81D30174B174E019378
:100460004FF4E13302934FF400630393144B0021E4
:100470001C60144B144D1A60144A154B1A603368F3
:100480009868A847336800215868A847114B204650
:1004900001A904AA9847104B186018B90F4B984748
:1004A00000BFFDE708B070BD703E0020C400002012
:1004B00000060E4085034000006CDC0208050020A9
:1004C000C83E0020C43E0020E16940000D0340000A
:1004D000C03E002051104000B03E002041244000AA
:1004E00070B5D4B022A80021C822444CA047444B88
:1004F000002118684FF0FF320B46424EB04710A85B
:1005000000211822A04700253F4B4FF0FF3253F83F
:10051000250010AB03EBC5010123B047012802D031
:1005200000203A4B98470135032DEDD116A8002144
:100530001822A0470025364B4FF0FF3253F8250014
:1005400016AB03EBC5010123B047012802D0002000
:100550002E4B98470135032DEDD11CA80021182200
:10056000A04700252B4B4FF0FF3253F825001CAB62
:1005700003EBC5010123B047012802D00020234B23
:1005800098470135032DEDD1DDE912232249CDE94C
:100590000023DDE91423214DCDE90223DDE91C23ED
:1005A00022A8CDE90423DDE91E23CDE90623DDE9F8
:1005B0002023CDE90823DDE91623CDE90A23DDE96F
:1005C0001823CDE90C23DDE91A23CDE90E23DDE95B
:1005D0001023A847124B22A8984700230093114BE1
:1005E000024622A91868104D4FF0FF33A847002893
:1005F0003FF47DAF19200D4B984778E761654000C7
:100600004C3E0020712A4000503E0020392E400010
:10061000343E0020403E0020BDBB4000F16A400057
:100620003D6B4000B03E002005124000751C4000AC
:1006300010B50E480E4CA04700203E210D4B9847A8
:100640000D4B98470028FBD00C4B98470C4A0D4B9C
:100650009A620D4B98470028FBD00C4B102098470E
:100660000B4B98470148A04710BD00BF006CDC024F
:1006700089000020E91E4000351F4000451F400052
:10068000013F072000040E40551F4000A51E4000FA
:100690005122400010B500238B4205D01C010459A3
:1006A000944201D00133F7E7184610BD10B500237E
:1006B000934204DACC5C844203D00133F8E7002093
:1006C00010BD012010BD0000F8B51446C207064653
:1006D0000D4608D50120224B9847686018B9214B78
:1006E000984700BFFDE706F0040303F0FF02BBB12B
:1006F0000120002103221C4B9847286020B10021D3
:100700000A460B46194FB847286818B9154B984741
:1007100000BFFDE700210A460B46154DA84700E043
:100720002A60330718D5BCB10120002103220E4BEB
:100730009847206020B100210A460B460B4DA84780
:10074000206818B9074B984700BFFDE700210A460B
:100750000B46074CA047F8BD00232360F8BD00BF3F
:100760009529400041244000052840008128400090
:10077000712A40000F2910B503D9154B984700BFC7
:10078000FDE7092903D8124B984700BFFDE7C2B225
:1007900002F01F0301249C4043099B0003F16043C6
:1007A00003F561430028C3F880414FEA011105DADF
:1007B00002F00F00074AC9B2115406E000F1604090
:1007C000C9B200F5614080F800131C6010BD00BF85
:1007D0004124400014ED00E037B5436805460C465F
:1007E0000BB9002013E068460A4B9847002168685F
:1007F00022680B46084DA84740B168462146074B82
:1008000098470128EDD10020206000E0FD2040B293
:1008100003B030BDA9334000712A4000D1334000FD
:10082000F7B51C46089B0F4615469DF8246003B19A
:100830000360006828B100210A460B46DFF850C06B
:10084000E047019500970E4B0E4D20465EB14FF4E8
:10085000007198472046694600220B4B9847204676
:100860004FF4807108E002219847204669463246DD
:10087000064B984720460121A84703B0F0BD00BFB2
:10088000211B4000151B4000E91A4000FF1A4000E0
:10089000712A400010B50B4609B1002007E000683E
:1008A0000028FAD0034CA0470128F6D0FD2040B222
:1008B00010BD00BF712A40002DE9F74F674D4FEA88
:1008C000001955F80940664B06464FF0000B2046CC
:1008D000CDF804B09847634B074620469847074039
:1008E00017F4005305EB0908AA4640D0D8F80400D5
:1008F0004FF400715C4B984720464FF400515B4B1E
:1009000098475D46236A590705D401356A1CF9D119
:100910004FF0010801E04FF0000802232360544B20
:10092000F20053F8361013445B680B4413F8013C93
:100930006363236ADB0704D40135681CF9D14FF0E7
:1009400001084C4B1A4450689B4628B1002101AA6B
:100950000B46DFF824C1E047013509D05BF83600CB
:1009600030B1002101AA0B46434DA84700E098464C
:10097000F90447D50AEB0903586802213A4B984716
:1009800020464FF48051394B98470025236A9A0737
:1009900002D401356B1CF9D1022335492360F300E1
:1009A00051F8360019444A68216B024402F8021CCF
:1009B000216A880703D40135691CF9D10DE0681C50
:1009C0000BD0216B002502F8011C226AD10704D448
:1009D00001356A1CF9D14FF00108264A13445868C2
:1009E00028B1002101AA0B46DFF88CC0E047013591
:1009F00008D0224B53F8360020B1002101AA0B4643
:100A00001D4DA84717F4507F02D1B8F1000F1DD03B
:100A10000AEB0905144B686840F202219847FB0570
:100A20005CBF0223236020464FF400510F4DA847BE
:100A300020464FF48051A8470E4B03EBC606706862
:100A400020B1002101AA0B460B4CA047019B0BB122
:100A50000B4B984703B0BDE8F08F00BF48BC400087
:100A60000F21400013214000211B400009214000BC
:100A7000A4090020AC090020F52940009C090020B1
:100A8000312440002DE9F347DFF80081044602AE2F
:100A9000032306F8043D0D46224601212C4B404617
:100AA0009847314607460122287B2A4B9847002F5A
:100AB00047DC002847D0284B4FEAC70903EB090A57
:100AC000504626490822264EB04718B1254B984774
:100AD00000BFFDE7244B2149994448460822B0470E
:100AE00018B1204B984700BFFDE73F0108EB070610
:100AF000B0681E4B9847706840F202211C4B984723
:100B000058F807604FF0FF3130461A4B98471A4BA0
:100B1000304698472B7B032B02D13046174B984722
:100B2000687B51464A46164B9847474430464FF437
:100B30005071144B984797F90C00A968124B9847CD
:100B400002E0002400E00446204602B0BDE8F08741
:100B500095064000AD064000AC09002058BC40009E
:100B60000D644000412440009C090020651F4000A6
:100B7000211B4000092140001D214000BB204000F6
:100B8000C9064000052140007507400048BC4000F0
:100B90002DE9F04F054685B003920C469A464A4827
:100BA00001212A46494B9847B0F1000B00F385809C
:100BB000E368002B00F08180DFF830914FEACB072B
:100BC00009EB0708404603A9414B98470646002811
:100BD00075D16860227C636812041B0202F4FE0275
:100BE00003F4407313436B6063685BB1012B22789D
:100BF00009D96178022B41EA022204D0A37843EAA2
:100C0000022200E00246EA60E2682F48012A4FEA29
:100C10000B1337D150F803804FF450712D4B4046E1
:100C20009847A3681B786B6300232A6AD1050DD50A
:100C300040464FF45071284B98474F440021786844
:100C40000A460B46254CA047F62039E0540703D44A
:100C50000133581CE9D1FD2602222A602A6AD207F4
:100C600003D40133591CF9D1FD2640464FF450718D
:100C7000194B98474F44002178680A460B46174C99
:100C8000A0471CE0A168164C03442744012044F807
:100C90003B105B687A60134C0190013A4046CDF8F6
:100CA00000A0A04728464FF400510B4B9847404600
:100CB0005146039A0C4B984702E0F82000E030467A
:100CC00040B205B0BDE8F08F48BC4000950640003A
:100CD000D90740000921400005214000812840003B
:100CE000A40900202108400095084000AC0900201C
:100CF0002DE9FF47044603920D469A4659480121C3
:100D00002246594B9847B0F1000900F3A380EB68E5
:100D1000002B00F09F80DFF878814FEAC90708EBCD
:100D2000070003A9514B98470646002840F09480DD
:100D30004F4B2046984766606B682A7C1B0203F481
:100D40004073120443F4805302F4FE0213436360C1
:100D50006B685BB1012B2A7809D96978022B41EACB
:100D6000022204D0AB7843EA022200E03246E2607D
:100D7000EA683C48022A4FEA09134CD850F803901D
:100D80004FF4507148463B4B9847EB68A868012BDD
:100D900003D1032222601A460BE0012222600022C6
:100DA00007E0012B19D0AD071CD5216B013B017069
:100DB00001300021D3B1256A15F4807FF1D0484677
:100DC0004FF450712C4B98474744002178680A46ED
:100DD0000B462A4CA047F6203FE00AB902222260C7
:100DE0001A46E0E701314D1CE4D1FD264FF0FF33F8
:100DF000226AD20702D4013BFAD1FD2648464FF4BD
:100E000050711D4B98474744002178680A460B46AD
:100E10001A4CA04720E0A968194D034445F8391041
:100E20003D446A60174D00202F440190023A384635
:100E3000CDF800A05B68144DA8470123236020462D
:100E40004FF480510C4B984738465146039A0F4B4C
:100E5000984702E0F82000E0304640B204B0BDE818
:100E6000F08700BF48BC400095064000D90740000D
:100E70001721400009214000052140008128400041
:100E8000A40900209C09002021084000950840008A
:100E9000AC09002008B50020014B984708BD00BFF1
:100EA000B908400008B50120014B984708BD00BFB4
:100EB000B9084000184B70B51C2202FB00339C6936
:100EC0009A685D68944201D121B904E002D9A41A5C
:100ED000DC6001E0A91AD960D9680A44AA4203D9A2
:100EE0000E4B984700BFFDE70D4D040179B12A195B
:100EF000566803F10801304600220A4B98473046F5
:100F00000121094B984728590921084B02E028592B
:100F1000074B0921984770BDB409002041244000C7
:100F200060BC4000FF1A4000151B400071214000CA
:100F3000752140002DE9F74F3A4A0301D75805467D
:100F4000394B4FF0000A3846CDF804A09847374B8C
:100F50000646384698474FF01C0808FB05F806403F
:100F6000DFF8E890F20609EB080418D53846304B54
:100F7000102198472F4B03EBC50250689B4628B1C0
:100F8000514601AA5346DFF8B8C0E0475BF8350088
:100F900028B1002101AA0B46DFF8A4C0E0473307BF
:100FA00021D5A3691BB9244B984700BFFDE7012B4E
:100FB00003D1214B984700BFFDE7A368E2682846AC
:100FC00013446268A360934228BF59F808304FF079
:100FD000000128BFA360194B9847206958B1002130
:100FE00001AA0B4605E036B9206920B1314601AAB5
:100FF0003346134CA04716F0E00F0CD03846114B87
:1010000098470C4B03EBC505686820B1002101AA85
:101010000B460B4CA047019B0BB10B4B984703B001
:10102000BDE8F08F60BC40007D2140007921400088
:1010300075214000D009002041244000B50E400039
:10104000F52940008121400031244000B4090020EE
:101050002DE9F04FDFF8A49185B00126044615462E
:101060000DF110082246524B8B464846314608F88F
:10107000046D9847414607463246287B4D4B9847BA
:10108000002F00F38E80002800F08D804A4E1C2334
:1010900003FB07639B691BB1484B984700BFFDE703
:1010A0002046474B98474FEA07182046454B98473C
:1010B00009EB0803D3F804A040F202215046424A4B
:1010C00001939047019B9868404B98472B7B012BDD
:1010D00003D1204659463E4B984720464FF0FF31FA
:1010E0003C4B98473C493D4B687B01EBC7010022D4
:1010F00098472B68002B3CD0394B4FF0FF30002134
:1011000098471C237B431E44DFF8ACB006F1100760
:10111000306118B9294B984700BFFDE72A6803F1F1
:101120000801B2606A685046F26059440022DFF854
:10113000D0C00193E0472A68B261019BB2684BF8C6
:1011400003206B681A4472606B7B9B0708D50120F3
:10115000244B9847786018B9184B984700BFFDE7B3
:1011600020460921204B9847504601211F4B9847A4
:1011700004E01C2303FB07660123B36109EB0803AA
:1011800093F90C00A9681A4B984759F80800E02118
:10119000154B98472046174B98472046164B9847C3
:1011A00002E0002400E00446204605B0BDE8F08FD0
:1011B00095064000AD064000B409002041244000DF
:1011C0005F2140006B214000211B4000651F400053
:1011D0002521400075214000D0090020C9064000AB
:1011E0005D2840009529400071214000151B4000FA
:1011F00075074000592140006521400060BC400057
:10120000FF1A40002DE9FF47174F064603938A4611
:101210009146384601213246144B0C9D9847B0F157
:1012200000081CDC124C03A904EBC8042046114B37
:101230009847A8B907EB081701234A4601932046AF
:1012400051467B6800950C4FB847304610210B4B38
:10125000984720462946039A094B984700E0F82012
:1012600040B204B0BDE8F08760BC40009506400085
:10127000D0090020D907400021084000712140001A
:101280009508400008B50020014B984708BD00BFF5
:10129000350F400008B50120014B984708BD00BF3D
:1012A000350F400010B5114B04469847802323604A
:1012B0006368204643F0010363606368002143F0E4
:1012C00010036360636823F080036360084B9847F2
:1012D0006368204623F0020363606368002123F003
:1012E00004036360034B984710BD00BF8D1F40008F
:1012F0009D1F4000B31F4000F8B505460C46184638
:101300001449154B164698470022DFF864C007467B
:10131000216828461346E0472846216808220F4BDB
:10132000984728462168FAB20D4B9847284621680D
:1013300008220C4B98472846216872080A4B9847A8
:1013400006F001022846216882F00102074B984707
:10135000F8BD00BF006CDC02752040006120400039
:101360008D20400021204000F51F40000B20400050
:10137000A320400008B54368096813F0040F08D1A2
:10138000032908D8012303FA01F1C943024B984706
:1013900008BD0F29FAD908BD9D1F400070B50E4643
:1013A000154678B914467119002CC4EB010106DD0D
:1013B000064B013C1868064B1B689847F3E725EA83
:1013C000E57070BD4FF0FF3070BD00BFC83E00201B
:1013D000C03E00200138022870B50D46164601D8DF
:1013E00000240BE04FF0FF3070BD064B295D1868FC
:1013F000054B1B6898470028F4DB0134B442F4D154
:10140000204670BDC83E0020C43E0020334B4FF440
:10141000004210B50B205A60314CA0470C20A04769
:101420000D20A0472F4C4FF060511720A0474FF0E0
:1014300060512E20A0474FF060511920A0472A4943
:101440000F20A04729491020A0474FF00062284BE9
:101450004FF4C061274898474FF080510020A047C3
:101460004FF080510820A0474FF000610320A047B3
:101470004FF000610420A0474FF000610C20A0470E
:101480004FF000610D20A0474FF000610E20A047F3
:101490004FF000611F20A0474FF080511E20A04751
:1014A0004FF000610C20A0474FF000610D20A047D5
:1014B0004FF000610E20A0474FF080511E20A04742
:1014C0004FF060511C20A0474FF060511D20A047F5
:1014D0004FF060514D20A04710BD00BF50140E408A
:1014E000651F4000991C4000790000285900002821
:1014F0004D1D4000000E0E4038B505460024084B37
:10150000E258954207D123445B682846012B0CBF63
:10151000044B054B98470834202CF0D138BD00BF50
:1015200070BC4000411C40005B1C400013B5C0F182
:101530001100102828BF1020002808BF0120002318
:10154000104A4FF4005151631821019101994C1E2A
:1015500001940029FAD14FF400511163182201922D
:10156000019A511E0191002AFAD101338342E7D337
:101570004FF400330193019B5A1E0192002BFAD1C4
:1015800002B010BD00120E40074B4FF400525A63D8
:1015900082B04FF400330193019B5A1E0192002B3D
:1015A000FAD102B0704700BF00120E4082B0002393
:1015B0000193019B834209D200230193019A044BBA
:1015C0009A42019B03F10103F7D9F1E702B070479A
:1015D0009F86010030B50468AF2C84BFAF2404603F
:1015E0001468AF2C84BFAF2414600C68DB2C84BF5C
:1015F000DB240C601C68DB2C84BFDB241C600468CB
:101600001568AC4284BF056014600A68186882429D
:1016100084BF08601A6030BD70B50C4C06460221CC
:10162000204600220A4DA847012323601C20094BB5
:1016300098473146204602220023074EB047022138
:10164000216020468022A84770BD00BF0080004076
:10165000612040005B1C4000C51F400038B5084CAD
:101660000123054623601C20064B9847294600238A
:1016700020460222044DA8470223236038BD00BF44
:1016800000800040411C4000C51F400010B5034BC6
:101690000C4698472046024B984710BD191640004B
:1016A0005D1640000E4B012273B51A6005460D4BC6
:1016B0001C200C46984700230193019BA3420AD2A9
:1016C000019B074835F8131002220023064EB0474D
:1016D000019B0133F0E7024B02221A6002B070BD99
:1016E00000800040411C4000C51F4000034BDA69E8
:1016F0009A61034B01221A70704700BF00800040BE
:10170000380B002008B5072041F21701014B98471C
:1017100008BD00BF8D16400008B507200021014B11
:10172000984708BD8D16400000F4780300F47C4211
:101730001B0A43EA5213C0F3C40018430023034AB0
:1017400098520233B3F5B07FF9D17047D809002021
:10175000013AF8B50D4611181F46084C0646C9B2A5
:101760003620A047013FF1B23720A0477919382031
:10177000C9B2A0473920E9B2A047F8BD8D16400094
:1017800038B50D46034CC1B22020A0472120E9B254
:10179000A04738BD8D1640002DE9F04385B00227E3
:1017A0000DF110088146604C1D2048F8047D5F4E05
:1017B000A0473846B0475E4B1D2098471420B047DD
:1017C0001D20A0475B4C3220B04780232760236058
:1017D0004FF080732360584B00254FF40012C3F87C
:1017E00080202046C3F8802183F815531A60534B9C
:1017F00098472A46DFF864C1204641460095504B81
:10180000E047204641464F4B4FF0010898474E4B6A
:10181000C4F80080C4F8148098474C4C40464FF4FC
:101820008E71A04738464FF48071A047032041F2E3
:101830003001A047082040F60801A04741460C208F
:10184000A0470F2040F60121A0472020B021A0474B
:101850002120DC21A04710204FF42061A04741F255
:1018600038011120A0473220B047122041F2211147
:10187000A04713204E21A047142046F26F71A047C5
:1018800029463020A0473120DB21A04729463220BD
:10189000A04729463320A0473420DB21A047294612
:1018A0003520A0473620B021A04729463720A04741
:1018B0003820DC21A04729463920A047294650205E
:1018C000A047512040F20A61A047522040F60A5139
:1018D000A047532040F20331A047542040F60D2189
:1018E000A047552040F60621A04729465620A0478C
:1018F000572040F20331A04729465820A0472946E7
:101900005920A04799E80C0029462846104CA047CA
:10191000D9F808000F4B9847284629460E4B9847A0
:10192000284605B0BDE8F083411C4000AD154000DD
:101930005B1C40000080004000E100E0A512400078
:1019400020BCBE0075134000191740008D164000E2
:10195000511740002917400081174000F91240003C
:1019600038B5054600200146064B98472220064B15
:10197000984749F240742846044B9847013CFAD1F5
:1019800038BD00BF81174000191640005D164000A9
:10199000AF2808B50ED8DB290CD889B280B2064B27
:1019A00098472220054B9847054B1888054B9847C8
:1019B000002008BD012008BD811740001916400015
:1019C000D80900205D1640007FB5204C039002919D
:1019D0000192009303A802A901AA6B46A047019AAD
:1019E000009B0398029901320133121A5B1A184EB8
:1019F000B047BDF80C00BDF80810164B9847164BC1
:101A000022209847029B009CB025E21A019B5C1C97
:101A1000039BE41A02FB0444B4FBF5F52DB10F4817
:101A2000B0210F4B9847013DF8E7B023B4FBF3F129
:101A300003FB114111B10948094B984700200146A9
:101A4000B022DC23B04704B070BD00BFD515400004
:101A5000511740008117400019164000D809002096
:101A6000A51640002DE9F04782460F4602F1FF39E6
:101A7000544619F8013F8BB30A2B01D11037F7E711
:101A8000174A4FF0140808FB03280025A8F27F2806
:101A9000002618F8012CC6F1070342FA03F3DA070F
:101AA00003D52819F1190F4B98470136082EF0D1AC
:101AB000072698F800303341DB0705D507F10F0101
:101AC0002819891B074B9847013E012EF1D101359A
:101AD0000A2D08F10208DBD10C34CAE7BDE8F08713
:101AE00090BC40009119400019B10B6883604B68AD
:101AF000C3601AB1136883615368C361704719B139
:101B00000B6803604B6843601AB113680361536844
:101B10004361704721F0FE01C905C90D016270479C
:101B200021F4FE7121F001018905890D01627047E0
:101B3000B1F1C05F10B542642DD007D8B1F1006F8C
:101B400015D0B1F1805F1DD071BB10BDB1F1205F28
:101B50002BD005D8B1F1005F26D1036F13431FE0EE
:101B6000B1F1405F21D0B1F1605F1ED01CE0016F88
:101B7000046FD343214019400167416F446F2140F6
:101B80000B4010E0036F13430367436F416F0B403B
:101B900023EA020307E0036F016F0B4023EA02030D
:101BA0000367436F13434367426010BDD30741642B
:101BB0004CBF4166016612F00A0F14BF0162416218
:101BC000930702D5C0F8801003E0130748BFC0F8A0
:101BD000841041610160704710B5029C41640CB1F2
:101BE000416600E001660BB1016500E041650AB1A4
:101BF000016300E041630161016010BD12B1C0F8F2
:101C000094107047C0F890107047D3060ED5930615
:101C1000C0F8B0104CBFC0F8D410C0F8D0105306B4
:101C20004CBFC0F8C010C0F8C4107047C0F8B41062
:101C30007047C36C01647047C06C7047806C70471C
:101C40004309012200F01F0002FA00F003F500131F
:101C500003F207735B02186370474309012200F027
:101C60001F0002FA00F003F5001303F207735B0292
:101C7000586370474309012100F01F0001FA00F08A
:101C800003F5001303F207735B029A6B104214BF53
:101C90005863186370470000F7B544090D4604F512
:101CA000001401F0F04104F20774B1F1005F4FEA53
:101CB00044241ED009D8B1F1805F1AD0B1F1C05FC1
:101CC00017D0B1F1006F37D113E0B1F1405F1FD0F1
:101CD000B1F1605F1CD0B1F1205F2DD100F01F0188
:101CE0000126204606FA01F12A46154B9847304650
:101CF00023E000F01F00012606FA00F7114B3A46D8
:101D000020469847EA0701D42766F0E76766EEE7C2
:101D1000012605F0605205EA06030093B2F1605314
:101D20005A4200F01F015A41204606FA01F1C5F35C
:101D30008003054CA047DAE7002003B0F0BD00BFE8
:101D4000AD1B4000311B4000D91B4000F7B502F02D
:101D5000F045B5F1005F06460C46174617D009D886
:101D6000B5F1805F13D0B5F1C05F10D0B5F1006F51
:101D700027D10CE0B5F1405F13D0B5F1605F10D012
:101D8000B5F1205F1DD1104B984701201AE0224683
:101D900029460E4B9847FA0701D43466F5E7746676
:101DA000F3E707F0605207F001030093B2F16053CC
:101DB0005A4221465A413046C7F38003044CA0479B
:101DC000E3E7002003B0F0BDAD1B4000311B400035
:101DD000D91B4000F8B5114B04460E469847104BEE
:101DE000054620469847054016D00E4C04F1600782
:101DF00054F80C3CB3420AD154F8081C294206D0CE
:101E000023683046984754F8083C25EA0305BC424D
:101E100002D01034002DEBD1F8BD00BF391C4000BA
:101E20003D1C40004C0B0020F8B50C4E3468062CCD
:101E300012D8DFF830E027014EF8071006990EEBB4
:101E400007056A60AB60E960013411461A46044B2D
:101E5000346098470020F8BD0120F8BD3C0B0020FD
:101E60000B1C4000400B002008B502480B21024B20
:101E7000984708BD000E0E40D51D400008B5024829
:101E80000C21024B984708BD00100E40D51D4000A4
:101E900008B502480D21024B984708BD00120E40BC
:101EA000D51D40000F4B1A6B22F0700210431863CF
:101EB00040F60102986E0B49000703D4013AF9D1AC
:101EC000012070470A6B22F0030242F002020A630B
:101ED00040F60102996E090702D4013AFAD1EFE700
:101EE0000020704700040E400F4B1A6A28B10F49BA
:101EF00011400F4A0A431A62704722F45C1222F022
:101F0000030242F45C12090242F0010289B20A4360
:101F10001A62996E044AC907FBD5136A43F09B7392
:101F200043F480331362704700040E40FCFFC8FE88
:101F300002003701024B986E00F48030704700BFFA
:101F400000040E40024B4FF000529A62704700BFEF
:101F500000040E40024B986E00F00200704700BF74
:101F600000040E401F284FF0010309D803FA00F0C7
:101F7000054A916900EA0103834203D0106101E040
:101F8000184670470020704700040E4008B5152021
:101F9000014B984708BD00BF651F40004368090416
:101FA00023F470234360436801F470210B434360C2
:101FB0007047436823F07F434360436843EA01610D
:101FC0004160704730B543F699240569AD0703D4E5
:101FD000013CFAD101200BE04468A40706D51204A5
:101FE00002F4702211430BB141F08071C1600020F6
:101FF00040B230BD89000844036B12B143F00103C5
:1020000001E023F001030363704789000844036B78
:1020100012B143F0020301E023F0020303637047AF
:10202000042A09D100EB81010B6B23F008030B6339
:102030000B6B43F0040311E04AB900EB81010B6B19
:1020400023F008030B630B6B23F0040306E0082A5C
:1020500005D100EB81010B6B43F008030B63704764
:1020600000EB81010B6B23F0F0030B630B6B1A4346
:102070000A637047431E1944B1FBF0F0431EFE2B68
:1020800094BF80B24FF6FF7000B2704700EB810141
:102090000B6B23F47F430B630B6B43EA02220A634F
:1020A000704700EB8101086B80B20863086B40EA5F
:1020B000036343EA02420A63704708230360202354
:1020C00003600423036070470D4B994216D8490002
:1020D000B2FBF1F2043A0023FF2A04D9072B02D005
:1020E00001335208F8E711021B0489B203F4E0231C
:1020F0000B43D2B21A43026100207047012070479F
:10210000801A0600416270478162036A7047006A64
:102110007047C06A7047006BC0B27047802303608D
:10212000036B7047AC2310B5036091E80C00B2FB61
:10213000F3F31B095C1E4FF6FE7294420AD8036249
:102140008B68436040F20223C0F8203150230360C3
:10215000002010BD012010BD402303607047802384
:1021600003607047102303607047202303607047AB
:1021700081607047C160704700697047406970476F
:102180004FF480730360704743699B0746BFC1618A
:102190000020012070474369DB0743BF83690020AB
:1021A0000B700120704743699B0743BFC1F30801CF
:1021B000C1610020012070474369DB0705D58369B1
:1021C0000020C3F308030B60704701207047FEE74F
:1021D000164B174A10B593421C4601D0002301E06C
:1021E000144B07E01449D0188842F9D2E158D15075
:1021F0000433F7E7114A934203D2002243F8042B39
:10220000F8E70F490F4B21F0604201F1604122F0E5
:102210007F02B1F5C04F9A6003D29A6842F0005233
:102220009A60094B9847094B9847FEE7F8C8400069
:1022300000000020800900207C090020243F0020AD
:102240000000400000ED00E04D5E40008D3F40008A
:1022500010B5294A294B116B01F0030101290CD05B
:1022600002D302291AD035E0254949690C064CBF32
:102270004FF400414FF4FA412BE0116AC8010BD42E
:1022800020491960116A01F07001102902D020293B
:1022900002D01FE01C491CE01C491AE0116AC90168
:1022A0000BD418491960116A01F07001102902D08D
:1022B000202902D003E0144900E014491960946A0F
:1022C0001968C4F30A4404FB0111906AC0B2B1FB5F
:1022D000F0F11960126B02F07002702A04D11A68D2
:1022E0000321B2FBF1F205E0034A116B1A68C1F356
:1022F0000211CA401A6010BD00040E40C800002040
:1023000010140E4000093D0000127A00001BB700B7
:10231000074B1A680AB9074A1A601B68064A18442C
:102320009042DDBF024A106018464FF0FF30704700
:10233000B00B002028470020FC5F00204FF0FF304A
:1023400070474FF400534B600020704701207047E6
:102350000020704700F108034FF0FF3282604360B5
:10236000C36003610023036070470023036170476B
:1023700043685A684A6042688A605A689160596046
:102380004160086103680133036070470A6810B553
:10239000531C01D1036907E000F108035C6824685D
:1023A000944201D85B68F9E75A684A6091608B6093
:1023B0005960086103680133036010BD4368826897
:1023C0009A60836842685A6003695A68824204BF0F
:1023D00082685A60002202611A68013A1A6018681D
:1023E0007047000003480068006880F3088862B600
:1023F00000DF00BF08ED00E04FF0807300E90A0045
:10240000002340F80C3C40F8202C40387047000076
:10241000064B19680868B0E8F00F80F309884FF0A0
:10242000000080F311884EF00D0E7047703D0020C3
:10243000024B4FF080521A60704700BF04ED00E07D
:10244000EFF311804FF0A00181F311887047002055
:1024500008B5034B9847034B1A6801321A6008BD50
:1024600041244000CC00002080F311887047000018
:1024700008B5044B18680138186008B9024B984732
:1024800008BD00BFCC00002069244000EFF30980A4
:102490000C4B1A6820E9F00F10602DE908404FF04E
:1024A000A00080F3118800F0AFFE4FF0000080F331
:1024B0001188BDE8084019680868B0E8F00F80F39B
:1024C00009887047703D002008B5064B4FF08052D8
:1024D0001A60054B9847054B98470020044B9847D6
:1024E00008BD00BF04ED00E041244000512F400032
:1024F00069244000034B4BF67F321A60072243F8F1
:10250000042C704714E000E010B5094B00241A6851
:1025100042F470021A601A6842F070421A60054B69
:102520009847054B1C60054B9847204610BD00BFDF
:1025300020ED00E0F5244000CC000020E523400021
:1025400010B5104B1A68824201D21346FAE7596857
:102550005C18844203D140680144596018464168C0
:102560004418944208D1084C2468A24204D052680E
:10257000114441601A6812688342026018BF1860F3
:1025800010BD00BFAC3C0020A83C002070B5274B1C
:102590000446984726490A688AB9264B264843F2DA
:1025A000E00503604260254843F2E40683E8210029
:1025B0009A515A51224B08601A68103A1A602CB18D
:1025C000103463071CBF24F007040834621E43F272
:1025D000EE039A4221D8184B1D686A68A24203D3C1
:1025E0000A68954206D118E02A68002AF8D02B46DE
:1025F0001546F2E72A681E681A606B6810361B1BC6
:10260000202B04D9281943606C600E4B98470C4B63
:1026100069681A68521A1A6000E000260A4B984747
:102620000EB90A4B9847304670BD00BF212F4000BD
:10263000A83C0020B80B0020AC3C0020983C0020B7
:10264000D0000020412540004D304000B13E400008
:1026500010B5044668B1074B9847074B54F80C1C5B
:102660001A68A4F110000A441A60044B9847044BFE
:10267000984710BD212F4000D00000204125400088
:102680004D304000014B1868704700BFD00000205B
:1026900038B504461046226C32B92568FDB9606829
:1026A000114B984765601AE0104B58B9A0689847DD
:1026B000A268236C13446268A36093420FD323681B
:1026C000A3600CE0E0689847236CE2685B422168F5
:1026D0001A448A42E26002D262681344E360A36B48
:1026E0000133A36338BD00BFED3440007564400082
:1026F00070B5046803465CB1C568026C4668154451
:10270000B542C56028BFC4600846D968014B9847E8
:1027100070BD00BF7564400070B5174D0446A847F2
:102720002E46A36C002B0CDD636A53B104F1240028
:10273000124B984708B1124B9847A36C013BA36416
:10274000EFE74FF0FF33A3640E4DA847B047636C2B
:10275000002B0CDD236953B104F11000074B98479F
:1027600008B1074B9847636C013B6364EFE74FF098
:10277000FF336364A84770BD5124400031334000EB
:10278000493440007124400038B50D46044618B95C
:10279000164B984700BFFDE7154B9847226CE06B3E
:1027A00023685043821A1918A36013446160E360E0
:1027B00000214FF0FF33A1636364A36455B923691B
:1027C0007BB104F110000B4B9847012809D10A4B4B
:1027D000984706E004F11000084DA84704F12400D2
:1027E000A847074B9847012038BD00BF412440004F
:1027F0005124400031334000312440005523400033
:10280000712440002DE9F0410E469046054668B11E
:1028100050200E4FB847044640B106FB05F001308A
:10282000B847206030B92046094B9847094B984774
:1028300000BFFDE7E563266420460121064B98476B
:1028400084F84D802046BDE8F08100BF8D25400012
:1028500051264000412440008927400010B5022243
:102860000C46054B0021984708B1846310BD034B0B
:10287000984700BFFDE700BF052840004124400005
:102880002DE9FF470F4601929946044618B9354B8A
:10289000984700BFFDE711B9036C002B5BD1002600
:1028A000314DA847A26BE36BA8469A422F4D11D237
:1028B0002F4B204639464A469847636A3BB104F19C
:1028C00024002C4B9847012801D12B4B9847A8474F
:1028D000012044E0DDF804A0BAF1000F01D1A847BF
:1028E00037E016B902A8254B9847A847244B9847CC
:1028F000C047636C234E013304BF00236364A36CA1
:10290000013304BF0023A364A84702A801A91E4BFA
:1029100098471E4DD0B9C047D4F838A0D4F83C80B1
:10292000124B9847C2450DD104F110000199184B84
:1029300098472046B047A84708B10126B0E70E4B9C
:102940009847FAE72046B047A847F6E72046B04741
:10295000A847002003E0034B984700BFFDE704B001
:10296000BDE8F0874124400051244000712440001C
:10297000912640003133400031244000A93340000B
:10298000212F400019274000D13340004D30400036
:102990009132400070B5134B0646502098470446CC
:1029A00018B9114B984700BFFDE701230025C36309
:1029B0004FF0FF3385634560436405608364856041
:1029C000C560056480F84D60084E1030B04704F1D2
:1029D0002400B04729462A462B462046044DA847E6
:1029E000204670BD8D254000412440005523400005
:1029F000812840002DE9F04104460E4615469846D0
:102A0000174814B9804700BFFDE721B9216C11B107
:102A1000804700BFFDE78047A36BE16B07468B4211
:102A200017D2104B2046314642469847A36C0133DB
:102A30000AD1636A5BB104F124000B4B984730B1B3
:102A40002DB101242C6005E0A36C0133A3640124A3
:102A500000E000243846054B98472046BDE8F08149
:102A60004124400091264000313340006924400059
:102A70002DE9FF470F4601929A46044618B9434B89
:102A8000984700BFFDE711B9036C002B76D10026F3
:102A90003F4DA847A36BA9463E4D33B32046394668
:102AA0003D4BE6689847BAF1000F12D1A36B013B8A
:102AB000A363236813B9394B9847606023698BB1CE
:102AC00004F11000364B984701280BD1354B98473D
:102AD00008E0636AE6602BB104F12400304B9847AC
:102AE0000028F3D1A84701204CE0DDF80480B8F1BC
:102AF000000F01D1A8473FE016B902A82A4B98471A
:102B0000A8472A4B9847C847636CDFF88880013391
:102B100004BF00236364A36C254E013304BF00236C
:102B2000A364A84702A801A9224B9847224D00BBE5
:102B3000C847D4F83890C047B9F1000F15D12368C1
:102B40002BB9134B984760681C4B9847C04704F15A
:102B5000240001991A4B98472046B047A84708B16E
:102B6000012695E70F4B9847FAE72046B047A8475C
:102B7000F6E72046B047A847002003E0034B9847FC
:102B800000BFFDE704B0BDE8F08700BF412440006E
:102B90005124400071244000F1264000553440008B
:102BA0003133400031244000A9334000212F400040
:102BB00019274000D13340004D3040007D344000A3
:102BC0009132400038B504460C4B0D469847636C73
:102BD000013304BF00236364A36C013304BF0023EB
:102BE000A364074B9847A36B23B904F1240029463B
:102BF000044B98472046044B984738BD5124400069
:102C000071244000ED3240001927400010B50D4BF3
:102C100004461A6850600C4A126890420B4A05D26A
:102C20000B49086819680431904710BD09490868C4
:102C3000196804319047084B1A68944238BF1C60E9
:102C400010BD00BF703D0020EC3C00208D234000F3
:102C50008C3D0020CC3C0020D40000202DE9F84F12
:102C60000A9D894690469A46DDF830B0074618B965
:102C7000574B984700BFFDE7052D03D9544B9847A4
:102C800000BFFDE74C20534EB0470446002800F03B
:102C90009B805846BBF1000F02D14FEA8800B04735
:102CA000206318B920464C4B98478DE04FEA8808BE
:102CB0004246A521494B9847236BA8F10408494691
:102CC0000A22984404F13400454B984704F1040962
:102CD000002384F83D304846DFF84CB1E562A56436
:102CE000D84704F11800D84728F00708C5F10603B3
:102CF000A36124613B4B6462404639465246984783
:102D00004307206003D0324B984700BFFDE70B9B81
:102D100003B11C60344B9847344B354F1A68DFF8C9
:102D20000CA101321A603A6812BB3C601B68012B8F
:102D300026D190460AEB08002E4E08F11408B04741
:102D4000B8F1780FF6D1DFF8E8B0DFF8E880584640
:102D5000B0474046B0472848B0472848B0472848C1
:102D6000B047284BC3F800B0274BC3F8008007E0FA
:102D7000264B1B6823B93B68DB6AAB4298BF3C60BB
:102D8000234AE36A116814208B4288BF1360214AEA
:102D900000FB03A011682164013111601E4A116813
:102DA0008B4288BF136049461C4B98471C4B984781
:102DB000164B1B682BB13B68DB6AAB4201D2194B47
:102DC00098470120BDE8F88F4FF0FF30BDE8F88F3D
:102DD000412440008D25400051264000616540009F
:102DE0009D6B4000F923400051244000C03D00206D
:102DF000703D002055234000743D0020D83C002049
:102E0000B83C0020CC3C00208C3D0020D03C002071
:102E1000C43D0020A43D0020F03C00207123400070
:102E200071244000312440006B234000F43C00201A
:102E3000A83D0020903D0020F8B5144B044698476B
:102E4000134B1A68944201D025460CB91D68002422
:102E50002E1D30460F4FB847AB6A13B105F118006D
:102E6000B8470D4831460D4B98470D4B1A68013253
:102E70001A600C4B1A6801321A600B4B98470B4BC7
:102E80001B6813B10CB90A4B9847F8BD5124400098
:102E9000703D0020BD234000D83C0020712340003D
:102EA000D43C0020A43D002071244000D03C0020F0
:102EB0003124400030B5002485B0114D00940194B8
:102EC000029403940F48104946222346A84701283C
:102ED00005460DD10D4B98470128054608D10C4BEE
:102EE00098470C4B1D600C4B1C600C4B984704E042
:102EF0001DB9074B984700BFFDE705B030BD00BFC7
:102F00005D2C40008131400022C44000D935400092
:102F100041244000D03C0020EC3C0020092540002A
:102F2000024B1A6801321A60704700BF883D0020CA
:102F300010B5044B9847044B1C68044B9847204637
:102F400010BD00BF51244000EC3C00207124400023
:102F50002DE9F041304B1B68002B50D12F4B1A68E4
:102F60001E4601321A601A68E2B92D4B1A681268BF
:102F70001AB12C4B984700BFFDE72B4A196810681F
:102F800018601160294A1168013111601A681168CE
:102F9000274A11B94FF0FF3303E01B68DB68DB6899
:102FA0005B681360224F32683B689A422DD31C4BFA
:102FB0001A68126812B94FF0FF3306E01B68DB682D
:102FC000DC68326863689A4201D23B601DE0251DCF
:102FD0002846DFF87480C047A36A13B104F11800D3
:102FE000C047144BE26A196814208A4288BF1A60ED
:102FF000114B294600FB0230104B9847D7E7104B86
:103000001A6801321A600F4B98470D4B1B680BB9B9
:103010000C4B9847BDE8F081883D0020EC3C002037
:10302000CC3C0020412440008C3D00206C3D002021
:10303000D4000020F03C0020F43C0020712340002C
:10304000B43C0020AF3E4000BD234000F8B52A4C00
:1030500023681BB9294B984700BFFDE7284B9847C9
:103060002368013B236025680DB100243FE0254B18
:103070001B68002BF9D0244B1A68EAB1DB68234F98
:10308000DC68261D04F11800B8473046B847204ACE
:10309000E36A116814208B4288BF13601D4A3146D1
:1030A00000FB03201C4B98471C4BE26A1B68DB6A41
:1030B0009A4228BF0125DEE7194B1A681E4642B125
:1030C0003368174C3BB1174B98472368013B23608B
:1030D000F6E7012D06D1144B00221A60134B9847D6
:1030E000012404E0104B1B68012BBED1F3E7104B09
:1030F00098472046F8BD00BF883D0020412440008D
:1031000051244000C03D0020743D0020BD234000FC
:10311000F03C0020F43C002071234000703D002072
:10312000B43C0020512F4000BC3D00203124400021
:103130007124400010B5044610B90A4B984710BDE1
:10314000094B9847094B1B681C44094B1868094BED
:1031500004309847084B20469847084B984700286A
:10316000EBD010BD31244000212F4000EC3C00206A
:10317000703D0020BD2340000D2C40004D3040002C
:1031800008B5154D2B68EBB1144C154B98472668C4
:10319000144B9847002EF4D0134B9847E368DC6833
:1031A000124B201D9847124B1A68013A1A602B687F
:1031B000013B2B600F4B98470F4D206BA8472046D3
:1031C000A847DEE70D4B1B68012B01D90C4B984734
:1031D0000C4B9847D5E700BFD43C0020D83C0020DA
:1031E000212F40004D30400051244000BD234000BD
:1031F000C03D00207124400051264000F43C0020D6
:1032000031244000AD3E400010B51A4B1B681BB185
:10321000194B01221A6010BD184C226823681268ED
:103220001B6B9A4208D820682168154B34319847A7
:1032300002E01368013B1360124A1423106812491C
:103240005843085830B91368002BF2D10F4B9847F8
:1032500000BFFDE7126803FB02135A6803F108017F
:1032600052685A608A4204BF52685A605B68DB68E1
:10327000236010BD883D0020BC3D0020703D002033
:10328000893E4000F03C0020F43C002041244000F6
:1032900038B50D4618B90D4B984700BFFDE70C4CEB
:1032A0000C4B21681831984720680B4B0430984725
:1032B0006B1C05D1216809480431094B984738BD7A
:1032C000084B1868084B2844984738BD41244000F3
:1032D000703D00208D234000BD234000B83C0020FD
:1032E00071234000EC3C00200D2C400038B50D4609
:1032F00018B9094B984700BFFDE7084C084B2168F7
:10330000183198472068074B04309847064B1868D7
:10331000064B2844984738BD41244000703D0020AA
:1033200071234000BD234000EC3C00200D2C4000E8
:10333000F8B5C368DC681CB9134B984700BFFDE7BC
:1033400004F118063046114FB847114B114D1B6858
:103350006BB9261D3046B8470F4AE36A116814203E
:103360008B4288BF13600D4A00FB032000E00C482D
:103370003146A8470B4BE06A1B68DB6A984234BFB2
:1033800000200120F8BD00BF41244000BD234000C3
:10339000883D002071234000F03C0020F43C0020D8
:1033A000743D0020703D002008B518B9054B9847C2
:1033B00000BFFDE7044B1B680360044B1B684360C0
:1033C00008BD00BF412440006C3D0020EC3C0020C3
:1033D00038B50D46044618B9154B984700BFFDE7B0
:1033E00019B9134B984700BFFDE7124B98472B685C
:1033F0005A1C15D0104A1168226891420F49626820
:1034000002D0086890420DD20968891A994209D2FF
:103410000A4920460968521A13442B60084B984702
:10342000002400E00124074B9847204638BD00BF28
:1034300041244000512440006C3D0020EC3C002021
:10344000A933400071244000014B01221A607047EB
:10345000BC3D0020014B1868704700BF703D002044
:10346000044B186828B1044B1B68002B14BF0220C2
:1034700001207047D03C0020883D0020F8B504466C
:10348000002828D0144DC36A2A68D26A934222D2F7
:103490002A68D26AC2F1060282611048142202FB35
:1034A0000303626907469A4212D1261D30460C4B2F
:1034B00098472B680B4ADB6A116814208B42E36241
:1034C00088BF136000FB03703146074B9847F8BD77
:1034D0002B68DB6AE362F8BD703D0020F43C0020FD
:1034E000BD234000F03C00207123400038B5044665
:1034F000C0B1C26A836C9A4214D0051D0A4B28469B
:103500009847A36C1420C3F10602A261074AE36244
:1035100011688B4288BF1360054A294600FB0320CF
:10352000044B984738BD00BFBD234000F03C00204D
:10353000F43C0020712340002DE9F0410D4C0E4B6E
:10354000984725688DB90D4F0D4E3846DFF84480F9
:10355000C0473046C0470B4B05201F600A4B0C216B
:103560001E602A46094B98472060094B9847BDE8E2
:10357000F08100BFF83D002051244000CC3D0020E8
:10358000E03D0020C83D0020FC3D00200528400013
:10359000712440005523400010B59142044641601B
:1035A000206105D88169D21A8A420CD2074B04E007
:1035B0009A4201D2994206D2054B1868211D054B4B
:1035C0009847002010BD012010BD00BFFC3D002029
:1035D000C83D00208D2340001FB50C4B98470C4B75
:1035E0001B6813B90B4B98470EE00523009300238B
:1035F000019302930393084808498C22084CA04782
:103600000028EFD004B010BD00BFFDE73935400001
:10361000F83D002041244000F136400027C440001E
:103620005D2C40007FB50F4D064628681C46B0B1A2
:103630000191029203966BB90B4B9847012818BF72
:1036400022460A4E286801A906BF089A2346134657
:10365000B04704E01A4601A90023054CA04704B076
:1036600070BD00BFF83D002061344000812840005B
:10367000F5294000F7B5184E33681A68002A25D09E
:10368000DA681568DB68DC68144B271D38469847F4
:10369000636A20469847E369012BECD1A3692B4468
:1036A000AB4206D963602461306839460C4B9847B9
:1036B000E1E70021204600912A460B46094CA0472D
:1036C0000028D8D1084B984700BFFDE7074A11688A
:1036D0001360316003B0F0BDC83D0020BD23400041
:1036E0008D2340002536400041244000FC3D002051
:1036F0002DE9F04786B0DFF88891D9F800301A68D4
:10370000D2F1010838BF4FF00008B8F1000F02D124
:10371000DB681D6800E000254B4B4C4C9847A047E8
:103720004B4F06463B68A246984203D2494B984706
:10373000012300E000233E60474C002B33D1B8F159
:10374000000F26D1B54224D8A047D9F80030DB6855
:10375000DC68424B201D9847E369012B15D1A16914
:103760003246204629442B463D4EB04701280CD115
:103770002A46CDF80080204641464346394DA847A9
:1037800018B9394B984700BFFDE7636A2046984750
:103790000AE0364BA91B1868354B9847A04718B963
:1037A000344B984700E0A047D0473B680546984215
:1037B00001D2284B98473D602C4B0022186803A982
:1037C00013462D4CA047002895D0059C24B1636971
:1037D00013B1201D214B9847039E022E21D0032EAA
:1037E0002DD0002EE8D1049BA169204619442A4619
:1037F0001B4FB8470128DFD1636A20469847E36929
:10380000012BD9D1A269049B20461A440096314667
:103810003346144CA0470028CED1134B984700BF25
:10382000FDE70499A16119B90F4B984700BFFDE767
:10383000204629442A462B46094CA047BCE720468F
:103840000E4B9847B8E700BF212F4000312F4000B2
:10385000F43D0020753640004D304000BD2340004F
:10386000993540002536400041244000F83D0020B5
:10387000C52B400031244000712A400051264000F1
:10388000C83D00200000000010B50346D3E9022324
:1038900003C8074CA047074B984703A3D3E900236D
:1038A000054CA04710BD00BFF8C1631ADCA54C4011
:1038B00001594000B1404000AD564000AFF30080D8
:1038C00010B588B00C468DF80700002103A814221B
:1038D0000B4B984701230493069353238DF81C3018
:1038E000084B0DF107028DF80C400592186803A9EA
:1038F0004FF0FF320023044CA04708B010BD00BFBA
:1039000061654000D03E0020910B400010B588B0AA
:103910000C468DF80700002103A814220B4B984792
:1039200001230493069368238DF81C30084B0DF196
:1039300007028DF80C400592186803A94FF0FF327A
:103940000023044CA04708B010BD00BF61654000D3
:10395000D03E0020910B400030B587B005460C46A4
:1039600001A8002114220B4B984732238DF8043014
:103970000123029353238DF81430074B04941868E5
:1039800001A94FF0FF320023044C0395A04707B074
:1039900030BD00BF61654000D03E0020F10C40000A
:1039A000F7B5254B25490322044698470023009389
:1039B000ADF8043068460621214B9847002832D1E3
:1039C000054600AB2B4458781DF805301D4E43EAE0
:1039D000002010F47C4F1C4B1C4F08D19847B04777
:1039E00013A3D3E90023B847C4E900010CE0404227
:1039F000C0F309009847B0470DA3D3E90023B847A7
:103A000001F1004320606360114B53F81500B0478B
:103A1000104E02460B46D4E90001B0470235062D90
:103A2000E4E80201CDD103B0F0BD00BFAFF30080E8
:103A30003333333333330F406165400080C1FFFFC0
:103A400059394000055640009D5D4000AD5640008C
:103A500040C440004953400010B5044B0021186891
:103A60000A460B46024CA04710BD00BFD83E0020BE
:103A7000F52940001FB50B4B0FCB8DE80F000A4B0B
:103A80000A48694698470A4B186018B9094B984785
:103A900000BFFDE70849094A094B04489847C0B2EE
:103AA00004B010BD30C44000850A400000800140D1
:103AB000D03E002041244000801A0600006CDC0249
:103AC000C9204000000000002DE9F04F2EA3D3E9EB
:103AD00000232F4D2F4CC5E900239FB00322012066
:103AE0000021A0472C4A25461060924620B10021B3
:103AF0000A460B46294CA047DAF8000018B9284BB3
:103B0000984700BFFDE700210A460B46254CA04719
:103B1000032201200021A847234AA346106014462F
:103B200020B100210A460B461C4DA847206818B951
:103B30001B4B984700BFFDE700210B460A46D847BC
:103B40001A4B984708B11A4848E008203121194C0F
:103B5000A047A0B9184B2C211878A04778B980202D
:103B60002E21A04758B97F202F21A04738B9012125
:103B700018A8124B984708202D21A04710B31048D1
:103B80002CE000BFAFF300807B14AE47E17AC43F66
:103B9000103F0020052840004C3E002081284000B6
:103BA00041244000712A4000D83E0020753A400070
:103BB00058C44000C1384000D800002059394000A6
:103BC00068C440001B201621874CA04728B9152146
:103BD000A04710B93E21A04758B18448844B98476C
:103BE0008448834B98471920834B98470020834B88
:103BF00098470024002518A8814BCDE90645984731
:103C000018A8804B9847CDE90A45CDE908017E4BBD
:103C1000002118684FF0FF320B46D84700211822C8
:103C20007A4B12A8984712A8754B98470024784DF4
:103C3000002155F82400774FB84712AB55F82400FF
:103C400003EBC40100220123734D0134A847032C68
:103C5000EDD1DFF8B09112A8C8470DF178086F4D8B
:103C600068E9180128680021B8476B4E41460022D8
:103C700001232868B04712A8C847694EDFF8C491ED
:103C8000D6E90023CDE90001DDE91C01C847DDE9E3
:103C90000823DFF8B481C0474FA3D3E90023C84706
:103CA0004FA3D3E90023CDE90201DDE90001C847B4
:103CB00002460B46DDE90201C0470DF1780969E9CA
:103CC000160168680021B847534E00220123686836
:103CD0004946B047A8680021B8470123A8680AA947
:103CE0000022B047494D0021182218A8A8472246B3
:103CF0004C49002418A8A847214614220DA8049472
:103D0000ADF81440A8471D238DF8343001230E93DD
:103D100004AB0F930623109368238DF84430424B75
:103D20000DA918684FF0FF322346404CA047464685
:103D3000002834D118AC074604AD2B463B44EA5D5D
:103D40005B783B4D43EA022313F4004F98B2394BA2
:103D500009D19847A8470022374BDFF8F0C0E04769
:103D6000C4E900010DE04042C0F30E009847A847A7
:103D7000314B0022DFF8D4C0E04701F1004320605E
:103D800063602E4B53F81700A84702460B46D4E950
:103D90000001B0470237062FE4E80201CCD100242D
:103DA000274D002155F824001A4B18AE984755F8B6
:103DB000240006EBC40100220123174D0134A8475B
:103DC000032CEDD10021DAF800000A460B46A84783
:103DD0001DE700BFAFF300802C6519E25817ED3FD7
:103DE000A0D634EF3845B73F0D39400079C44000C4
:103DF000F903400089C44000F9144000392E400006
:103E0000A139400089384000D83E0020616540005B
:103E1000503E00208927400081284000343E002089
:103E2000103F002080C1FFFFD03E0020F10C400079
:103E3000055640009D5D400000C02C404CC4400031
:103E4000403E0020AD56400049534000015940001B
:103E500010B5044B002118680A460B46024CA047D7
:103E600010BD00BF1C3F0020F529400008B51720F9
:103E7000034B98474FF4FA70024B9847F7E700BF9F
:103E8000751C40003531400008B503460A46044819
:103E90001946044B98471920034B9847FBE700BF8E
:103EA00094C440009D5E4000F91440007047704784
:103EB00008B5014B9847FEE74124400037B5264B33
:103EC0004FF40042254D00930B2150232448A8476E
:103ED000244C23484FF40041A04721484FF480115F
:103EE0000022214B98471E484FF4801101221F4B9E
:103EF00098471F4B4FF4801200930B2170231848F2
:103F0000A84717484FF48011A0471A4B4FF400629E
:103F10000024C3F880200120C3F88021214683F8C3
:103F20000B431A600322144B9847144A106015463D
:103F300020B1214622462346114CA047286818B9D3
:103F4000104B984700BFFDE700210A460B460E4C78
:103F5000A04703B030BD00BF513E4000291E4000C5
:103F6000000E0E40331C4000AD1B4000FD1B400006
:103F7000593A400000E100E0052840001C3F0020C5
:103F80008128400041244000712A40007FB5314B18
:103F90009847314A4FF6FF03D168304D0B4043F04C
:103FA000BF6343F40033D3602D4B98472D4B9847A4
:103FB0002D48A8472D4B98472D4B98470123009338
:103FC00000230193029303932A482B4946222B4E48
:103FD000B04701282A4C03D02A48A8471920A047F7
:103FE0000423009300230193029303932648274957
:103FF0004FF40072B047012803D02548A847192084
:10400000A0470223009300230193029303932148C6
:1040100021494FF48072B047012803D01F48A847B8
:104020001920A047032300930023019302930393D5
:104030001B481C494FF40072B047012803D01A48AE
:10404000A8471920A047194B98471920A0470020DE
:1040500004B070BD3106400000ED00E09D5E400000
:104060000D14400039044000ABC44000250140005D
:10407000BD3E40006D3E4000B8C440005D2C400095
:10408000F9144000BDC44000C93A4000DEC44000FD
:10409000E4C44000E101400004C540000AC54000FE
:1040A000E10440002AC540002FC54000B52E400065
:1040B00070B5224E21F00044B44286B002460B4651
:1040C0001ADD1F4DAC4203DD01F03CF906B070BDB6
:1040D00002AA00F039F800F0030001281DD00228E0
:1040E00012D008B3DDE90201DDE9042300F04CFA47
:1040F00001F1004106B070BD0023009300220023AF
:1041000000F046FF06B070BD01230093DDE9020117
:10411000DDE9042300F03CFFEAE7DDE90201DDE927
:10412000042300F031FAD1E701230093DDE9020115
:10413000DDE9042300F02CFFC8E700BFFB21E93FC5
:10414000FFFFEF7F000000002DE9F04F964B21F0BC
:1041500000469E4291B004460D468B46904640F381
:104160008180924B9E4226DC85A3D3E9002300295F
:1041700040F3A08101F0E6F88D4B04469E420D46C7
:1041800000F0858080A3D3E9002301F0DBF802462C
:104190000B46C8E900232046294601F0D3F87AA34C
:1041A000D3E9002301F0CEF80127C8E9020138461F
:1041B00011B0BDE8F08F7F4B9E4240F385807E4B6F
:1041C0009E425ADC4FEA2659A9F21649A6EB095538
:1041D0002946044601F004FD01F002FA06460F46A6
:1041E00002460B4620462946CDE90A6701F0AAF8A7
:1041F0000022724B01F05AFA0F46064601F0F0FC1D
:1042000001F0EEF902460B4604460D4630463946AB
:10421000CDE90C4501F096F80022684B01F046FA12
:1042200000220023CDE90E0101F0A8FC002800F0D7
:104230006D81002320462946002201F09FFC0028C2
:1042400014BF012302235E480221019000914A46D7
:104250000AA8414600F0BCFABBF1000FC0F2488149
:10426000074606E000220023C8E90045C8E902230A
:104270000027384611B0BDE8F08F02460B4601F02A
:1042800061F80027C8E90201C8E90001F1E740A38D
:10429000D3E9002301F056F83FA3D3E900230446F5
:1042A0000D4601F04FF802460B46C8E900232046B0
:1042B000294601F047F838A3D3E9002301F042F87A
:1042C0000127C8E90201D4E700F01AFF34A3D3E9BB
:1042D000002304460D4601F0E9F90022394B01F0B4
:1042E00033F801F07DFC074601F07AF924A3D3E905
:1042F0000023CDE9060101F0D9F902460B4620461C
:10430000294601F01FF820A3D3E90023CDE90201DB
:10431000DDE9060101F0CAF91F2FCDE90401DDE94D
:10432000020153DC284B7A1E53F82230B3424DD0A1
:10433000DDE9042301F006F804460D46C8E900450E
:10434000DDE9020122462B4600F0FCFFDDE90423F3
:1043500000F0F8FFBBF1000FC8E9020189DA264638
:1043600001F1004305F100447F42C8F80060C8F83D
:104370000440C8F80800C8F80C307AE7AFF30080B2
:1043800000004054FB21F93F3163621A61B4D03D13
:104390000000601A61B4D03D7370032E8A19A33BEC
:1043A00083C8C96D305FE43FFB21E93F7BD9024000
:1043B000FB21F93FFB213941FFFFEF7F00007041F6
:1043C000D0C540000000E03F50C54000DDE90423B7
:1043D00000F0B8FF3615C1F30A53F31A04460D4630
:1043E000102BC8E90045ABDD5BA3D3E90023DDE971
:1043F000060101F05BF904460D4622462B46DDE935
:10440000020100F09FFFCDE90801DDE90823DDE9A5
:10441000020100F097FF22462B4600F093FF50A3C5
:10442000D3E9002304460D46DDE9060101F03EF91B
:1044300022462B4600F086FFCDE90401DDE9042386
:10444000DDE9080100F07EFFC1F30A53F61A0446C5
:104450000D46312EC8E9004578DD43A3D3E900239A
:10446000DDE9060101F022F904460D4622462B46FD
:10447000DDE9080100F066FFCDE90201DDE9022374
:10448000DDE9080100F05EFF22462B4600F05AFFEE
:1044900037A3D3E9002304460D46DDE9060101F008
:1044A00005F922462B4600F04DFFCDE90401DDE978
:1044B00002013DE700F048FF314B04469E420D46A5
:1044C00026D02DA3D3E9002300F03EFF02460B4681
:1044D000C8E900232046294600F034FF26A3D3E98B
:1044E000002300F031FF4FF0FF37C8E90201C0E6BA
:1044F000D8F80420D8F80C3002F1004203F1004350
:104500004742C8F80420C8F80C30B2E603239AE604
:1045100011A3D3E9002300F017FF11A3D3E900236F
:1045200004460D4600F010FF02460B46C8E9002382
:104530002046294600F006FF09A3D3E9002300F036
:1045400003FF4FF0FF37C8E9020192E6DDE90823D7
:10455000CDE90223F4E600BF0000601A61B4D03D4B
:104560007370032E8A19A33B0000002E8A19A33B07
:10457000C14920259A837B393163621A61B4D03DE9
:10458000FB21F93FAFF300802DE9F04F21F0004906
:10459000B9F1795F85B006460F4692469B466BDAC5
:1045A00001F01EFB002800F0EA8032463B46304610
:1045B000394601F07BF874A3D3E9002304460D4685
:1045C00001F074F872A3D3E9002300F0BDFE224687
:1045D0002B4601F06BF870A3D3E9002300F0B2FE84
:1045E00022462B4601F062F86DA3D3E9002300F0C8
:1045F000ABFE22462B4601F059F86BA3D3E900230A
:1046000000F0A0FE22462B4601F050F868A3D3E943
:10461000002300F099FE22462B4601F047F8CDE931
:104620000001204629460022634B01F03FF8DDE9F6
:104630000023804689462046294601F037F8524635
:1046400004460D465B463046394601F02FF80246D7
:104650000B462046294600F075FE02460B464046B2
:10466000494600F06FFE02460B460020534900F019
:1046700069FE05B0BDE8F08F02460B4601F016F862
:1046800041A3D3E9002304460D4601F00FF840A3EF
:10469000D3E9002300F058FE22462B4601F006F82D
:1046A0003DA3D3E9002300F04DFE22462B4600F047
:1046B000FDFF3BA3D3E9002300F046FE22462B4634
:1046C00000F0F4FF38A3D3E9002300F03BFE2246BC
:1046D0002B4600F0EBFF36A3D3E9002300F034FEB5
:1046E0002B46224600F0E2FF354BCDE9000199450B
:1046F00097DD344B0022994539DCA9F500130022DF
:1047000000202E499046994600F01CFECDE902019A
:10471000204629460022284B00F0C8FF42464B465F
:1047200000F010FEDDE90023804689462046294638
:1047300000F0BCFF524604460D465B463046394603
:1047400000F0B4FF02460B462046294600F0FAFD71
:1047500002460B464046494600F0F4FD02460B4631
:10476000DDE9020100F0EEFD05B0BDE8F08F164B6B
:104770004FF00008CDE90223DFF85090C8E70F4959
:10478000002005B0BDE8F08FD43888BEE9FAA8BD96
:10479000C4B1B4BD9EEE213EAD529C804F7E923E90
:1047A0009015CB19A001FA3E7751C1166CC1563F46
:1047B0004C5555555555A53F0000E03F0000F03FD2
:1047C0003233D33F0000E93F0000E73F0000D23F13
:1047D0002DE9F04F7B4DD41E85FB0465E417C4EB37
:1047E000A505ADF51D7D25EAE5750E959946764C36
:1047F000EB43A69D09F1FF3654F8254004960C942E
:1048000007900E9C049D0C9803EB430302EBC3033B
:10481000A61B2C180B910A9317D4A7983444013483
:104820000DF1880800EB8605002709E0E85900F043
:10483000D7FE0136A642E8E9020107F1040704D0D9
:10484000002EF3DA00200021F3E70C9C002C2DDB76
:104850000C9D74AE06EBC50B24A800EBC90A0DF540
:10486000E478CDF80CB0049C002CC0F29581079D33
:104870005746A5F1080B00240025002677E90223FE
:10488000FBE9020100F012FF02460B4620462946D2
:1048900000F05AFD01364E4504460D46EED1E8E9DA
:1048A0000245039C0AF1080AA045DCD10C9D10AC1E
:1048B00004EB850602940F960395039E9CABF600CD
:1048C00033440696039E53E92845002E2EDD069EAE
:1048D0000DF5E87AB244039E0DF13C0B0BEB860B11
:1048E0000DF13C080022394B2046294600F0DEFE3F
:1048F00001F076F900F074FE0022354B06460F46B3
:1049000000F0D4FE02460B462046294600F01AFD70
:1049100001F066F9324648F8040F3B467AE9020195
:1049200000F012FDD84504460D46DBD1204629464D
:104930000A9A00F079FC00224FF07F5304460D469E
:1049400000F0B4FE00F0E0FB0022224B00F0AEFECF
:1049500002460B462046294600F0F4FC04460D466C
:1049600001F03EF9824600F03BFE02460B4620462F
:10497000294600F0E7FC0A9C0646002C0F4640F34F
:10498000F280039D10A8691E50F82130C4F1180070
:1049900043FA00F202FA00F0C4F117051B1A43FAB9
:1049A00005F510AC44F821309244002D3EDD039C07
:1049B0000AF1010A002C40F3F98010AB03EB8401EB
:1049C000002411E0ABAAAA2AD8C640000000703E1D
:1049D0000000704100002040C2F1807012B143F825
:1049E000040C01248B420DD053F8042B002CF3D07F
:1049F000C2F1FF1202F57F428B4243F8042C4FF0C4
:104A00000104F1D10A9800280DDD012800F0B380DF
:104A1000022808D1039910A84B1E50F82320C2F396
:104A2000150240F82320022D00F0848030463946DC
:104A30000022002301F0A2F8002800F0B980039CB6
:104A40000C9E04F1FF3846450DDC10A800EB8403F2
:104A50000F98002253F8041D834242EA0102F9D163
:104A6000002A40F044820C9C10AD621E55F82230A2
:104A7000002B40F0548205EB8202012352F8041D02
:104A800001330029FAD0039E039C1E44631CB342E9
:104A90000D9649DC049D0E9E2B44214622460D9D19
:104AA0003244494424AE03F1FF3B2B1B06EBC10407
:104AB0000994A79D069C06EBCB0B74AE05EB820216
:104AC000DB0026440392089306964FF00008039DEE
:104AD00008F1080855F8040F039500F081FD049EC5
:104AE000EBE90201002E22DB079C099FA4F1080AD2
:104AF000474400240025002677E90223FAE9020151
:104B000000F0D4FD02460B462046294600F01CFC6E
:104B100001364E4504460D46EED1069EE6E90245B5
:104B2000089C0696A045D2D10D9D0395C5E60024AC
:104B30000025F2E732463B460020924900F002FC95
:104B400006460F46002C3FF471AF0A9A00208D49AB
:104B500000F06AFB02460B463046394600F0F2FB95
:104B600006460F4662E710D1039D10A86B1E50F851
:104B70002350ED1519E7039910A84B1E50F8232078
:104B8000C2F3160240F823204DE700227E4B01F0CD
:104B900013F820B9054649E7002400257FE6039C69
:104BA0000225002C0AF1010A3FF707AF002429E78C
:104BB0000A9C3046624239460695CDF81CA000F0AA
:104BC00033FB0022714B04460D4600F0F5FF002830
:104BD00000F0BB8100226E4B2046294600F066FDA6
:104BE00000F0FEFF064600F0FBFC0022674B00F0E1
:104BF0005DFD02460B462046294600F0A3FB00F06F
:104C0000EFFF039C0A9D10A904F10108183541F833
:104C100024000A9541F828600A9A0020594900F0BA
:104C200003FBB8F1000F04460D465ADB08F10106FC
:104C300010A874A9039600EB860701EBC60657F887
:104C4000040D00F0CDFC22462B4600F02FFD002283
:104C500066E902014E4B2046294600F027FD029AE4
:104C6000044697420D46EAD108F1005B0BF1FF3B89
:104C700074AB0DF5987ACDF82080DDF8308003EB29
:104C8000CB0B4FF00009CDF810A0B8F1000FC0F227
:104C90002881DFF800A15F4600240025002601E0FE
:104CA0004E4510DCF7E90223FAE9020100F0FEFCB0
:104CB00002460B462046294600F046FB0136B04529
:104CC00004460D46ECDA049EABF1080B06EBC90373
:104CD000C3E90045039C09F10109A145D5D1DDF8DF
:104CE0002080A69D032D00F29780DFE815F0DA0002
:104CF0009C009C000400B8F1000F40F312810DF5F8
:104D0000987A08F101030AEBC3034FEAC80B039337
:104D100099460AEB0B030DF59C7CD3E9006701E093
:104D200026462F4659E9044532463B462046294649
:104D3000CDF804C0CDE9044500F006FB04460D465D
:104D400022462B46DDE9040100F0FCFA32463B46E0
:104D500000F0FAFA69E90201DDF804C049E9024508
:104D6000E145DDD1B8F1010F40F30D81DDF80CC054
:104D70000AEB0B03CDF810A00AF1100BD3E90045A4
:104D8000E2460BE00000F03F0000E03F0000704111
:104D90000000703EE0C6400034463D465AE90489B2
:104DA00022462B464046494600F0CEFA06460F46BC
:104DB00032463B464046494600F0C4FA22462B465E
:104DC00000F0C2FA6AE90201DA454AE90267E3D172
:104DD000DDF810A0039C0020002174E9022300F0FC
:104DE000B3FAA345F9D1069D002D00F0A280DAF8B0
:104DF0000450DAF80C400B9EDAF80020DAF808309C
:104E000005F1004504F1004401F100417560F460D2
:104E10003260B36030617161079C04F007000DF5EA
:104E20001D7DBDE8F08FB8F1000FC0F2A7800DF531
:104E3000987A08F10104002200230AEBC40410460A
:104E4000194674E9022300F07FFA5445F9D102466D
:104E50000B46069E002E47D0104603F100410B9CE6
:104E6000C4E90001DAE9000100F06CFAB8F1000FC2
:104E700007DD0AEBC808FAE9022300F065FAC2452B
:104E8000F9D1069D002D6AD00B9E024601F1004328
:104E9000C6E90223079C04F007000DF51D7DBDE85F
:104EA000F08FB8F1000F66DB08F101044CAD05EBA3
:104EB000C4040020002174E9022300F045FAAC424A
:104EC000F9D1069C002C50D00B9D024601F1004305
:104ED000C5E90023079C04F007000DF51D7DBDE822
:104EE000F08F00240025EEE610461946B7E70A9E2B
:104EF000069510AD55F82830183ECDF81CA00A963E
:104F0000002B7FF489AE05EB8803324653F8041D6D
:104F100008F1FF38183A0029F8D00A927CE60123FC
:104F2000B1E5069D002000210DF5987A002D7FF453
:104F30005EAF0B9EDAE90023C6E90401DAE902015B
:104F4000C6E90023C6E9020166E72046294600F0CB
:104F500047FEDDF80C8010AA42F828005CE60B9EA4
:104F600002460B46C6E9022394E70B9D02460B4618
:104F7000C5E90023AEE700200021A2E700220023BC
:104F80000DF5987A65E7002000212CE7000000006D
:104F90002DE9F04F21F00046B6F1795F85B0044667
:104FA0000D469046994604DA00F01AFE002800F0FB
:104FB000848022462B462046294600F077FB224675
:104FC0002B4606460F4600F071FB3FA3D3E90023B2
:104FD00082468B463046394600F068FB3CA3D3E955
:104FE000002300F0AFF932463B4600F05FFB3AA3E6
:104FF000D3E9002300F0A8F932463B4600F056FB07
:1050000037A3D3E9002300F09DF932463B4600F078
:105010004DFB35A3D3E9002300F096F90E9BCDE9B3
:105020000201002B33D0404649460022324B00F0AB
:105030003DFBDDE90223CDE900015046594600F071
:1050400035FB02460B46DDE9000100F07BF93246F4
:105050003B4600F02BFB42464B4600F073F924A37D
:10506000D3E9002306460F465046594600F01EFB82
:1050700002460B463046394600F066F902460B46BA
:105080002046294600F05EF905B0BDE8F08FDDE965
:1050900002233046394600F009FB15A3D3E900236B
:1050A00000F050F952465B4600F000FB22462B46CA
:1050B00000F04AF905B0BDE8F08F2046294605B05A
:1050C000BDE8F08FAFF300807CD5CF5A3AD9E53DEB
:1050D000EB9C2B8AE6E55A3E7DFEB157E31DC73EA9
:1050E000D561C119A0012A3FA6F810111111813F05
:1050F000495555555555C53F0000E03FAFF3008079
:1051000021F00041704700BF2DE9F84FC1F30A5765
:10511000A7F2FF36132E02460B4604460D4689467B
:105120008A4680461CDC002E40DB3D4F374107EAB3
:10513000010C5CEA000C18D037A3D3E9002300F07F
:1051400003F90022002300F041FD28B1002D42DBCD
:105150002AEA07094FF0000840464946BDE8F88FA3
:10516000332E06DDB6F5806F31D010461946BDE806
:10517000F88FA7F2134C4FF0FF3B2BFA0CFB1BEA06
:10518000000FF2D024A3D3E9002300F0DDF80022C1
:10519000002300F01BFD0028DED0002D22DB28EAD2
:1051A0000B08D14640464946BDE8F88F1AA3D3E91B
:1051B000002300F0C9F80022002300F007FD0028BA
:1051C000CAD0002D1CDB4FF00008C146C4E700F038
:1051D000BBF8BDE8F88F4FF4801A4AFA06F606EBE2
:1051E000050AB5E7142E14D0C7F5866701230337E7
:1051F00003FA07F717EB040828BF05EB030ACEE70D
:1052000025F00042074B224318BF99464FF0000893
:10521000A2E705F1010AC2E79C7500883CE4377EED
:10522000FFFF0F000000F0BFC1F30A532DE9F0416A
:10523000904606460F460A461BBB21F00043034337
:1052400034D0354B002200F031FA344B06469845F5
:105250000F463BDBC1F30A53363B0A46434440F258
:10526000FE718B4216DD28A1D1E9000132463B4692
:1052700000F05AF824A3D3E9002300F017FABDE8A0
:10528000F08140F2FF74A34227D0434440F2FE7104
:105290008B42E8DC002B0BDD22F0FF4222F4E0021F
:1052A00042EA035730463946BDE8F081BDE8F08157
:1052B00013F1350F17DA4CF250339845D3DC14A1B3
:1052C000D1E9000132463B4600F02EF810A3D3E9A5
:1052D000002300F0EBF9BDE8F08102460B4600F038
:1052E00033F8BDE8F08122F0FF4222F4E0023633C9
:1052F00042EA0357304639460022094B00F0D6F9FE
:10530000BDE8F081AFF300809C7500883CE4377EF7
:1053100059F3F8C21F6EA50100005043B03CFFFFD7
:105320000000903CAFF3008030B403F0004321F064
:10533000004243EA020130BC704700BF81F00041E7
:1053400002E000BF83F0004330B54FEA41044FEA6A
:10535000430594EA050F08BF90EA020F1FBF54EA05
:10536000000C55EA020C7FEA645C7FEA655C00F0A1
:10537000E2804FEA5454D4EB5555B8BF6D420CDD72
:105380002C4480EA020281EA030382EA000083EAF5
:10539000010180EA020281EA0303362D88BF30BD95
:1053A00011F0004F4FEA01314FF4801C4CEA1131EB
:1053B00002D0404261EB410113F0004F4FEA03334A
:1053C0004CEA133302D0524263EB430394EA050FD5
:1053D00000F0A780A4F10104D5F1200E0DDB02FA44
:1053E0000EFC22FA05F2801841F1000103FA0EF2D8
:1053F000801843FA05F359410EE0A5F120050EF19E
:10540000200E012A03FA0EFC28BF4CF0020C43FACE
:1054100005F3C01851EBE37101F0004507D54FF0DB
:10542000000EDCF1000C7EEB00006EEB0101B1F52B
:10543000801F1BD3B1F5001F0CD349085FEA300071
:105440004FEA3C0C04F101044FEA445212F5800F7C
:1054500080F09A80BCF1004F08BF5FEA500C50F119
:10546000000041EB045141EA050130BD5FEA4C0CFC
:10547000404141EB010111F4801FA4F10104E9D185
:1054800091F0000F04BF01460020B1FA81F308BF7C
:105490002033A3F10B03B3F120020CDA0C3208DD48
:1054A00002F1140CC2F10C0201FA0CF021FA02F123
:1054B0000CE002F11402D8BFC2F1200C01FA02F193
:1054C00020FA0CFCDCBF41EA0C019040E41AA2BFB8
:1054D00001EB0451294330BD6FEA04041F3C1CDA80
:1054E0000C340EDC04F11404C4F1200220FA04F0A0
:1054F00001FA02F340EA030021FA04F345EA03014A
:1055000030BDC4F10C04C4F1200220FA02F001FA0B
:1055100004F340EA0300294630BD21FA04F029468D
:1055200030BD94F0000F83F4801306BF81F4801126
:105530000134013D4EE77FEA645C18BF7FEA655C99
:1055400029D094EA050F08BF90EA020F05D054EA6B
:10555000000C04BF1946104630BD91EA030F1EBF70
:105560000021002030BD5FEA545C05D14000494174
:1055700028BF41F0004130BD14F580043CBF01F567
:10558000801130BD01F0004545F0FE4141F470014D
:105590004FF0000030BD7FEA645C1ABF1946104628
:1055A0007FEA655C1CBF0B46024650EA013406BF29
:1055B00052EA033591EA030F41F4002130BD00BFE8
:1055C00090F0000F04BF0021704730B54FF48064A5
:1055D00004F132044FF000054FF0000150E700BF26
:1055E00090F0000F04BF0021704730B54FF4806485
:1055F00004F1320410F0004548BF40424FF0000172
:105600003EE700BF42004FEAE2014FEA31014FEAB4
:1056100002701FBF12F07F4393F07F4F81F0605103
:10562000704792F0000F14BF93F07F4F704730B572
:105630004FF4607401F0004521F0004120E700BF05
:1056400050EA010208BF704730B54FF000050AE08C
:1056500050EA010208BF704730B511F0004502D58D
:10566000404261EB41014FF4806404F132045FEA8F
:10567000915C3FF4DCAE4FF003025FEADC0C18BF34
:1056800003325FEADC0C18BF033202EBDC02C2F12A
:10569000200300FA03FC20FA02F001FA03FE40EABC
:1056A0000E0021FA02F11444C1E600BF70B54FF0BC
:1056B000FF0C4CF4E06C1CEA11541DBF1CEA13559E
:1056C00094EA0C0F95EA0C0F00F0DEF82C4481EA06
:1056D000030621EA4C5123EA4C5350EA013518BF26
:1056E00052EA033541F4801143F4801338D0A0FB13
:1056F00002CE4FF00005E1FB02E506F00042E0FBC0
:1057000003E54FF00006E1FB03569CF0000F18BFC5
:105710004EF0010EA4F1FF04B6F5007F64F540746D
:1057200004D25FEA4E0E6D4146EB060642EAC62100
:1057300041EA55514FEAC52040EA5E504FEACE2E6D
:10574000B4F1FD0C88BFBCF5E06F1ED8BEF1004F70
:1057500008BF5FEA500E50F1000041EB045170BDEC
:1057600006F0004646EA010140EA020081EA030130
:10577000B4EB5C04C2BFD4EB0C0541EA045170BD2C
:1057800041F480114FF0000E013C00F3AB8014F1A6
:10579000360FDEBF002001F0004170BDC4F10004EF
:1057A000203C35DA0C341BDC04F11404C4F1200570
:1057B00000FA05F320FA04F001FA05F240EA0200CB
:1057C00001F0004221F0004110EBD37021FA04F601
:1057D00042EB06015EEA430E08BF20EAD37070BDBB
:1057E000C4F10C04C4F1200500FA04F320FA05F01A
:1057F00001FA04F240EA020001F0004110EBD3701C
:1058000041F100015EEA430E08BF20EAD37070BD8B
:10581000C4F1200500FA05F24EEA020E20FA04F364
:1058200001FA05F243EA020321FA04F001F0004113
:1058300021FA04F220EA020000EBD3705EEA430E84
:1058400008BF20EAD37070BD94F0000F0FD101F0B3
:105850000046400041EB010111F4801F08BF013CEC
:10586000F7D041EA060195F0000F18BF704703F02A
:105870000046520043EB030313F4801F08BF013DB1
:10588000F7D043EA0603704794EA0C0F0CEA13556D
:1058900018BF95EA0C0F0CD050EA410618BF52EA27
:1058A0004306D1D181EA030101F000414FF000002D
:1058B00070BD50EA410606BF1046194652EA43063B
:1058C00019D094EA0C0F02D150EA013613D195EAAF
:1058D0000C0F05D152EA03361CBF104619460AD1F7
:1058E00081EA030101F0004141F0FE4141F4700101
:1058F0004FF0000070BD41F0FE4141F4780170BDF1
:1059000070B54FF0FF0C4CF4E06C1CEA11541DBF55
:105910001CEA135594EA0C0F95EA0C0F00F0A7F857
:10592000A4EB050481EA030E52EA03354FEA013184
:1059300000F088804FEA03334FF0805545EA131397
:1059400043EA12634FEA022245EA111545EA10655F
:105950004FEA00260EF000419D4208BF964244F1F6
:10596000FD0404F5407402D25B084FEA3202B61A15
:1059700065EB03055B084FEA32024FF480104FF4E9
:10598000002CB6EB020E75EB030E22BFB61A75465D
:1059900040EA0C005B084FEA3202B6EB020E75EBF0
:1059A000030E22BFB61A754640EA5C005B084FEA58
:1059B0003202B6EB020E75EB030E22BFB61A754625
:1059C00040EA9C005B084FEA3202B6EB020E75EB30
:1059D000030E22BFB61A754640EADC0055EA060EF1
:1059E00018D04FEA051545EA16754FEA06164FEA34
:1059F000C30343EA52734FEAC2025FEA1C1CC0D1E0
:105A000011F4801F0BD141EA00014FF000004FF06C
:105A1000004CB6E711F4801F04BF01430020B4F12D
:105A2000FD0C88BFBCF5E06F3FF6AFAEB5EB030CE5
:105A300004BFB6EB020C5FEA500C50F1000041EBE2
:105A4000045170BD0EF0004E4EEA113114EB5C04AF
:105A5000C2BFD4EB0C0541EA045170BD41F4801182
:105A60004FF0000E013C90E645EA060E8DE60CEA8A
:105A7000135594EA0C0F08BF95EA0C0F3FF43BAFA7
:105A800094EA0C0F0AD150EA01347FF434AF95EA5E
:105A90000C0F7FF425AF104619462CE795EA0C0F42
:105AA00006D152EA03353FF4FDAE1046194622E70F
:105AB00050EA410618BF52EA43067FF4C5AE50EAE9
:105AC00041047FF40DAF52EA43057FF4EBAE12E7D9
:105AD0004FF0FF3C06E000BF4FF0010C02E000BFBA
