S0140000494D555F4672656552544F532E73726563FC
S214400000F04D00204D3040004B3040004B3040001B
S2144000104B3040004B3040004B304000000000006A
S2144000200000000000000000000000008D3240008C
S2144000304B3040000000000009334000453340008C
S2144000404B3040004B3040004B3040004B3040007F
S2144000504B3040004B3040004B3040004B3040006F
S214400060CD204000DD2040004B304000E52C4000D5
S214400070F92C40000D2D40004B3040004B304000E6
S2144000804B3040004B3040004B304000B91B4000E6
S214400090C91B4000ED0D40004B3040004B30400047
S2144000A04B3040004B3040004B3040004B3040001F
S2144000B04B3040004B3040004B3040004B3040000F
S2144000C04B30400010B5054C237833B9044B13B180
S2144000D00448AFF300800123237010BDB009002010
S2144000E000000000680F4100084B10B51BB10849DE
S2144000F00848AFF300800848036803B910BD074BB3
S214400100002BFBD0BDE81040184700BF00000000A1
S214400110B4090020680F4100680F4100000000004D
S21440012010B5094B421E1C6812F8013F53B1E11846
S214400130497801F0040101F0FF000029F4D12E2B8C
S214400140F2D000E0012010BD0C01002070B5074C35
S2144001500646256A064B9D4206D021463046054B4C
S214400160984724340028F4D1284670BDB0FA4000A1
S21440017079014000597C40001FB504AB03E90700F5
S214400180024B0348984705B05DF804FBFD0C400061
S214400190F0FC400008B50146014B0248984708BDB0
S2144001A0FD0C400002FD40002DE9F0433B2185B0A8
S2144001B000240025254B06468DF8085003949847A2
S2144001C0A04600282FD030462149224FB8472B461C
S2144001D00446002C2BD0012B03F1010908D002D392
S2144001E0022B0FD019E020461B4B9847054614E0DB
S2144001F020461A4B984710B12046194B98478DF821
S21440020008000AE02046154B984720B12046154B7B
S2144002109847039001E0CDF80C8000200C49B84781
S2144002204B460446D5E730460B4B9847054635B116
S21440023004AB43F80C5D93E80700A84702E030465D
S214400240094B984705B0BDE8F08300BF897B400066
S21440025018FD4000519440004D01400021014000EF
S21440026031774000297740009501400070B5002264
S2144002700023084E04460D46B04750B12046294656
S2144002800022054B054EB04718B1054B0120C3E987
S214400290004570BD297040000000F03F15704000DA
S2144002A0C8000020014BD3E900017047C800002079
S2144002B07FB5044B694698476846034B984707B056
S2144002C05DF804FB090A4000E90740002DE9F34BBE
S2144002D0154B8346084616469847144B144FD3E9A9
S2144002E000458046D6E904238946DDE90A01B84739
S2144002F0DBE900230F4EB04722462B46B84722463E
S214400300CDE900012B460C4C00200C49A047424644
S2144003104B46B84702460B46DDE90001B047CBE9FD
S214400320000102B0BDE8F08BE9074000C80000209D
S2144003301D6B4000B9674000B56740000000F03FC5
S2144003401549D0E90023C1E90023D0E90223134927
S214400350C1E90023D0E904231149C1E90023D0E9CB
S21440036006231049C1E90023D0E908230E49C1E914
S2144003700023D0E90A230D49C1E90023D0E90E2322
S214400380C1E90423D0E90C23C1E90223D0E91023B4
S214400390C1E90623704700BF100A0020F809002074
S2144003A0F0090020080A0020000A0020D00900209A
S2144003B02DE9F04F0C466B4993B0DFF8C4A1834655
S2144003C0D1E90001CDE90E011046D047CDE9020142
S2144003D02046D047DDE90E23634EB047634C644F5A
S2144003E002460B46DDE90201B847D4E90023DFF8B0
S2144003F09491C847DFF89081CDE91001D8E906010D
S214400400CDE90601DDE90623DDE90201B847D8E972
S2144004100245D8E90423CDE9082322462B46CDE9F8
S2144004200A01B047DDE90823B047524BD3E9002321
S214400430C84702460B46DDE90201B847D8E9002323
S214400440C847DDE90A23CDE9040120462946B047DE
S214400450DDE90A23CDE90C01DDE90801B047464B4A
S214400460CDE90801D3E90023DDE90201B847024699
S2144004700B46DDE90601C847404BCDE90A01D3E902
S2144004800023DDE90401C847DFF800C104460D46F5
S2144004902246DDE904012B46CDF804C0E047DDF8EE
S2144004A004C022462B46CDE90201DDE90801E047BB
S2144004B0044658460D46D047DDE91023B047CDE9FF
S2144004C00601DDE90623DDE90201B84702460B4690
S2144004D0DDE91001C847254B82468B46C3E900AB91
S2144004E0DDE9062320462946B84702460B46DDE9A5
S2144004F00E01C8471B4AC2E90001DDE90423DDE9D5
S2144005000201B84702460B46DDE90401B047DDE983
S2144005100C23C8E90001DDE90201B84702460B4654
S214400520DDE90C01B047DDE90423C8E902012046B5
S2144005302946B84702460B46DDE90801B047C8E9F8
S2144005400401DDE90C2320462946B84702460B46FF
S214400550DDE90A01B047C8E906015046594613B0DE
S214400560BDE8F08F000A0020B5674000080A00206A
S2144005701D6B4000100A0020F8090020F0090020FA
S214400580756A4000B9674000D0090020716D400090
S2144005900B2822D1B1F5003F0FD0B1F5802F17D0F0
S2144005A0B1F5803F19D10D4B1B681BB10C4B1A6837
S2144005B001320BE001220B4B08E00A4B1B681BB1D3
S2144005C0074B1A68013A01E0044B01221A60704753
S2144005D0024A00231360034A136070471C450020FC
S2144005E02045002024450020034A00231360034A88
S2144005F01360034A136070472045002024450020BE
S2144006001C45002000000000F8B50D4C0D4F0E4E66
S2144006100E4D20B11046194600220D4B04E0104600
S214400620194605A3D3E90023B8470022094BB04733
S214400630A8472060F8BD00BF182D4454FB21194040
S21440064020450020716D40001D6B400051704000F9
S214400650008076400000904010B50D4A0D4B0E4C81
S21440066038B11068984700220C4BA04700220C4B2C
S21440067007E0106898470022084BA04702A3D3E93A
S2144006800023A04710BD00BF182D4454FB2119403D
S21440069020450020516A40001D6B40000000503F3E
S2144006A000807640AFF300802DE9F743254CDFF815
S2144006B0A890254F20464FF480310022C847DFF8E7
S2144006C09C8020464FF480310122C0471F4E702345
S2144006D04FF48032009720460B21B0471C4D2046F1
S2144006E04FF48031A84720464FF400310022C847D7
S2144006F020464FF400310122C04770234FF40032A9
S214400700009720460B21B04720464FF40031A847BB
S21440071020464FF480210022C84720464FF48021CF
S2144007200122C0474FF480225023009720460B21D9
S214400730B04720464FF48021A847064B984703B061
S214400740BDE8F083000E0E4091054000A52C400009
S214400750AF2A4000E9054000292A4000792A400097
S21440076038B505460C460846064B0749984740B1FB
S21440077020460649064B984718B1064B012043F8D9
S214400780254038BDD57640000000FAC40000FA4443
S21440079099764000D0000020014B53F82000704767
S2144007A0D000002038B505460C460846064B07499B
S2144007B0984740B120460649064B984718B1064B25
S2144007C0012043F8254038BDD57640000000FAC4E5
S2144007D00000FA4499764000DC000020014B53F8B4
S2144007E020007047DC00002010B50346D3E9002304
S2144007F000F10801D1E90001074CA047074B984794
S21440080003A3D3E90023064CA04710BDAFF30080F6
S214400810F8C1631ADCA54C40716D40002D55400070
S2144008201D6B4000AFF3008030B589B004461546D6
S2144008308DF8071003A8002114220B4B984701237C
S21440084004930693094B0DF1070205928DF81C4060
S214400850186803A94FF0FF320023054C8DF80C5062
S214400860A04709B030BD00BF0179400028450020B0
S214400870B5184000F0B587B005460C4617461E46EC
S21440088001A8002114220A4B984701230293094BE2
S2144008900394186801A94FF0FF320023064C8DF8E8
S2144008A0047004968DF81450A04707B0F0BD00BF02
S2144008B00179400028450020151A4000F7B5234B23
S2144008C00546032208460C462149984700230093D4
S2144008D0ADF80430284669461D2206231D4DA8471C
S2144008E0002831D1054600AB2B441DF805205B7827
S2144008F0194E43EA022313F4004F98B2174F184B91
S21440090007D19847B0470022164BB847C4E90001C4
S2144009100BE04042C0F30E009847B047114B002210
S214400920B84701F10043206063600F4B53F8150051
S214400930B0470E4E02460B46D4E90001B04702359A
S214400940062DE4E80201CED103B0F0BD01794000A7
S21440095080C1FFFF75084000756A4000716D400019
S214400960AD72400000C02C40DC000020B96740005B
S21440097030B589B0044615468DF8071003A8002107
S21440098014220B4B9847012304930693094B0DF111
S214400990070205928DF81C40186803A94FF0FF32F5
S2144009A00023054C8DF80C50A04709B030BD00BF61
S2144009B00179400028450020B5184000F0B587B0C2
S2144009C005460C4617461E4601A8002114220A4B2F
S2144009D0984701230293094B0394186801A94FF0E6
S2144009E0FF320023064C8DF8047004968DF81450A0
S2144009F0A04707B0F0BD00BF017940002845002061
S214400A00151A400000000000F7B5274B05460322A4
S214400A1008460C462549984700230093ADF8043015
S214400A202846694632220623214DA847002832D15F
S214400A30054600AB2B4458781DF805301D4E43EA5A
S214400A40002010F47C4F1C4B1C4F08D19847B047F1
S214400A5013A3D3E90023B847C4E900010CE04042A1
S214400A60C0F309009847B0470DA3D3E90023B84721
S214400A7001F1004320606360114B53F81500B04706
S214400A80104E02460B46D4E90001B0470235062D0B
S214400A90E4E80201CDD103B0F0BD00BFAFF3008063
S214400AA03333333333330F400179400080C1FFFF87
S214400AB0BD094000756A4000AD7240001D6B4000A5
S214400AC0D0000020B967400013B532220DF107016F
S214400AD00123024CA04702B010BD00BFBD09400034
S214400AE030B52B4B85B00FCB8DE80F00294B2A48ED
S214400AF069469847294B186018B9294B984700BF54
S214400B00FDE725482749284A284B984710F0FF0F0D
S214400B1004D02748274B9847FF2434E05320082129
S214400B203122254DA847B0B953200A212C22A84788
S214400B3088B9532080212E22A84760B953207F21B0
S214400B402F22A84738B953201C4B984753200821DA
S214400B502D22A84710B10446194812E01B216820F0
S214400B601622184DA847014680B968201522A84786
S214400B70014658B968203E22A847002418B10446CA
S214400B8011480C4B984760B205B030BD0C46F7E7AD
S214400B901CFD4000A9174000008001402845002069
S214400BA0BD324000801A0600006CDC02452F400033
S214400BB02CFD4000FD0C400071094000C90A400071
S214400BC03CFD4000290840004DFD400013B5002381
S214400BD00193164B0C46984206D114482146144BB6
S214400BE098470028F9D11EE0124B984206D111488A
S214400BF021460F4B98470028F9D114E00E4B9842F7
S214400C0006D10D4801A90D4B98470028F9D108E0B8
S214400C100B4B984207D10A4801A9084B9847002831
S214400C20F9D1019B237002B010BD00BF00060E40F4
S214400C301330400000080E4000400240353040006F
S214400C4000800240164B10B598420C4607D1144817
S214400C502146144B98470028F9D1012010BD124B6D
S214400C60984206D1104821460E4B98470028F9D1A5
S214400C70F3E70E4B984206D10C4821460C4B98475A
S214400C800028F9D1E9E70B4B984206D1094821469E
S214400C90074B98470028F9D1DFE7002010BD00BF7A
S214400CA000060E400530400000080E40004002405E
S214400CB0233040000080024013B50A4600210091D0
S214400CC004490346044C086819464FF0FF33A047D2
S214400CD002B010BD60450020291F400010B50A46EE
S214400CE004490346044C086819464FF0FF33A047B2
S214400CF010BD00BF60450020A91F40000FB473B56B
S214400D000C4B06AC802054F8046B9847224601945E
S214400D103146094B05469847084B014628469847B2
S214400D20074B044628469847204602B0BDE8704028
S214400D3004B070470934400061BC4000B90C400024
S214400D40CD34400070B51B4B88B004931A4B1B4CF7
S214400D501B681B4A05930A23069301238DF81C3013
S214400D6003238DF81D30174B174E01934FF4E13394
S214400D7002934FF400630393144B00211C60144B02
S214400D80144D1A60144A154B1A6033689868A84781
S214400D90336800215868A847114B204601A904AA89
S214400DA09847104B186018B90F4B984700BFFDE79F
S214400DB008B070BD2C450020E800002000060E401C
S214400DC0450C4000006CDC023805002080450020C1
S214400DD07C4500209D794000CD0B400078450020A2
S214400DE0751D400060450020BD32400008B5014BEF
S214400DF0984708BD6925400010B50B4CDC21002201
S214400E00B0206FF07F4384E80F00084B9847204699
S214400E10074B98470820074B9847074B98474FF68D
S214400E20FF70064B984710BD6845002005244000DB
S214400E3015264000A923400081254000DD274000BC
S214400E402DE9F041424BA0B09847424D0020A847BC
S214400E50414C424A05200A21A0474FF4FA70404BC5
S214400E609847404F04A800211822B8470026B846A5
S214400E703D4B4FF0FF3253F8260004AB03EBC60160
S214400E803A4F0123B847012802D00020384B9847F4
S214400E900136032EECD10AA800211822C0470026AE
S214400EA0344B4FF0FF3253F826000AAB03EBC60133
S214400EB00123B847012802D000202D4B9847013621
S214400EC0032EEDD110A800211822C04700262A4B39
S214400ED04FF0FF3253F8260010AB03EBC601012358
S214400EE0B847012802D00020214B98470136032EF0
S214400EF0EDD16FF07F40A847204E1E21B022DC2364
S214400F000020B0470020A847DDE906231C49CDE96C
S214400F100023DDE914231B4ECDE90223DDE904233B
S214400F2016A8B04705201E2116AAA047DDE90C23C7
S214400F301549CDE90023DDE90E2316A8CDE90223A5
S214400F40DDE90A23B04705206E2116AA84E700BFD4
S214400F50F90D4000A5254000E12840005DFD400019
S214400F600541400001794000D8450020ED3840005A
S214400F70413D40008C4500209845002045284000D3
S214400F806AFD4000FD7A40009AFD400010B52E20D4
S214400F90054B9847054B01221A70054BBDE810409B
S214400FA01868044B184700BF41234000180A002029
S214400FB064450020F53D40007FB504AB03E90700DB
S214400FC09DF8083013B3012B31D1039C00212046F5
S214400FD0184B9847184E194D88B11949194B204659
S214400FE09847194B9847194B1860194B9847194B17
S214400FF013499847B04702460B46174804E0204638
S214401000B0470B460246154829460CE00F4B186879
S2144010100F4B98470A490F4B9847074B984702464D
S2144010200B460D48054904B0BDE87040084704B07B
S21440103070BD00BFD5764000756A4000FD0C40008C
S21440104000007A445D734000E9764000EC000020E2
S214401050AD724000C5744000E5FD4000FDFD400017
S21440106010B50E4C86B006AB03E9070023689BB16B
S2144010700B4B18680B4B98472E200B4B98474FF05E
S214401080FF330A4800932268002302210068084C78
S214401090A047084B02221A7006B010BDEC00002094
S2144010A06445002015434000752340000445002059
S2144010B085474000180A00202DE9F04FCBB0642247
S2144010C0002131A8574B9847DFF890A14FF0000B0E
S2144010D0554E564C3378564D012B0AD100231946AF
S2144010E04FF0FF322068A8475248534B86F800B06E
S2144010F09847002319464FF0FF322068A847494CCE
S214401100182200211EA8A0474C4F00261EA957F8BB
S214401110260001234FF0FF3201EBC601A847012805
S21440112001D01920D0470136032EEFD118220021D6
S21440113024A8A047424F002624A957F8260001239A
S2144011404FF0FF3201EBC601A847012801D0192015
S214401150D0470136032EEFD1182200212AA8394E57
S214401160A04700242AA956F8240001234FF0FF3256
S21440117001EBC401A847012801D01920D04701340B
S214401180032CEFD1DDE91E23DDE92667DDE928895A
S21440119001202D49CDE91C23DDE92034CDE9123468
S2144011A0DDE92234CDE91434DDE92A34CDE91634BC
S2144011B0DDE92C34CDE91834DDE92E34CDE91A3496
S2144011C0DDE924458847CDE90A45DDE91A34CDE90D
S2144011D01001CDE90834DDE918341C49CDE9063460
S2144011E0DDE91634CDE90E89CDE90434DDE9143461
S2144011F0CDE90C67CDE90234DDE9123431A8CDE9FA
S2144012000034DDE91C23124CA047124B31A8984706
S214401210114B014631A8984700283FF459AF192092
S214401220D04753E701794000180A002008450020BF
S214401230ED38400016FE4000FD0C4000D84500202A
S2144012408C45002098450020590640001DFE400071
S214401250FD7A4000D17E4000B90C4000F12A4000A3
S21440126070B590B03222002103A8174DA847174BFF
S214401270174C009300231A464FF47A711548A0473E
S214401280154B164E1860002401210DF10B00B04797
S2144012900128F9D19DF80B200D2A09D1104B03A83F
S2144012A098473222002103A8A84700231C46EBE7B4
S2144012B010A9631C0C4404F8342C0A4600211A4436
S2144012C002F8341CF2E700BF017940008D0F400061
S2144012D0354740005CFE400004450020DD0C4000E1
S2144012E0A901400010B50E480E4CA04700203E21F4
S2144012F00D4B98470D4B98470028FBD00C4B984712
S2144013000C4A0D4B9A620D4B98470028FBD00C4B6D
S214401310102098470B4B98470148A04710BD00BF88
S214401320006CDC0289000020652D4000B12D400095
S214401330C12D4000013F072000040E40D12D400043
S214401340212D4000CD30400010B500238B4205D003
S2144013501C010459944201D00133F7E7184610BDEA
S21440136010B50023934204DACC5C844203D00133A8
S214401370F8E7002010BD012010BD0000F8B5144667
S214401380C20706460D4608D50120224B984768609E
S21440139018B9214B984700BFFDE706F0040303F059
S2144013A0FF02BBB10120002103221C4B9847286056
S2144013B020B100210A460B46194FB847286818B98D
S2144013C0154B984700BFFDE700210A460B46154DD2
S2144013D0A84700E02A60330718D5BCB10120002199
S2144013E003220E4B9847206020B100210A460B4648
S2144013F00B4DA847206818B9074B984700BFFDE734
S21440140000210A460B46074CA047F8BD0023236040
S214401410F8BD00BF11384000BD3240008136400064
S214401420FD364000ED3840000F2910B503D9154B66
S214401430984700BFFDE7092903D8124B984700BFDD
S214401440FDE7C2B202F01F0301249C4043099B0003
S21440145003F1604303F561430028C3F880414FEA37
S214401460011105DA02F00F00074AC9B2115406E02E
S21440147000F16040C9B200F5614080F800131C607E
S21440148010BD00BFBD32400014ED00E0F8B58669DF
S2144014900446B14217461D4602D1C36823B900E050
S2144014A000D86168891B00E000218D4208D808D02A
S2144014B0002120690A460B46DFF83CC0E04700E0C2
S2144014C00D463846094BA1692A46984763682E441C
S2144014D09E42074F074B03D398472368A36101E01A
S2144014E09847A661B8472846F8BD00BF1578400023
S2144014F0ED324000CD324000FD36400037B54368FF
S21440150005460C460BB9002013E068460A4B984740
S2144015100021686822680B46084DA84740B16846D7
S2144015202146074B98470128EDD10020206000E077
S214401530FD2040B203B030BDB9444000ED38400015
S214401540E1444000F7B51C46089B0F4615469DF8FB
S214401550246003B10360006828B100210A460B46A8
S214401560DFF850C0E047019500970E4B0E4D2046E1
S2144015705EB14FF4007198472046694600220B4BF7
S214401580984720464FF4807108E00221984720464D
S21440159069463246064B984720460121A84703B085
S2144015A0F0BD00BF9D2940009129400065294000BC
S2144015B07B294000ED38400010B50B4609B10020AD
S2144015C007E000680028FAD0034CA0470128F6D070
S2144015D0FD2040B210BD00BFED3840002DE9F74F6A
S2144015E0674D4FEA001955F80940664B06464FF0DE
S2144015F0000B2046CDF804B09847634B074620467C
S2144016009847074017F4005305EB0908AA4640D010
S214401610D8F804004FF400715C4B984720464FF4CE
S21440162000515B4B98475D46236A590705D4013500
S2144016306A1CF9D14FF0010801E04FF00008022380
S2144016402360544BF20053F8361013445B680B4447
S21440165013F8013C6363236ADB0704D40135681C36
S214401660F9D14FF001084C4B1A4450689B4628B1BC
S214401670002101AA0B46DFF824C1E047013509D016
S2144016805BF8360030B1002101AA0B46434DA8470F
S21440169000E09846F90447D50AEB0903586802214A
S2144016A03A4B984720464FF48051394B984700258F
S2144016B0236A9A0702D401356B1CF9D102233549B7
S2144016C02360F30051F8360019444A68216B0244FF
S2144016D002F8021C216A880703D40135691CF9D137
S2144016E00DE0681C0BD0216B002502F8011C226A15
S2144016F0D10704D401356A1CF9D14FF00108264AB7
S2144017001344586828B1002101AA0B46DFF88CC064
S214401710E047013508D0224B53F8360020B100216F
S21440172001AA0B461D4DA84717F4507F02D1B8F1C9
S214401730000F1DD00AEB0905144B686840F20221E1
S2144017409847FB055CBF0223236020464FF40051B8
S2144017500F4DA84720464FF48051A8470E4B03EB49
S214401760C606706820B1002101AA0B460B4CA04764
S214401770019B0BB10B4B984703B0BDE8F08F00BF01
S21440178068FE40008B2F40008F2F40009D29400070
S214401790852F4000240A00202C0A00207138400083
S2144017A01C0A0020AD3240002DE9F347DFF80081E7
S2144017B0044602AE032306F8043D0D4622460121A8
S2144017C02C4B40469847314607460122287B2A4BF9
S2144017D09847002F47DC002847D0284B4FEAC709D8
S2144017E003EB090A504626490822264EB04718B150
S2144017F0254B984700BFFDE7244B2149994448466E
S2144018000822B04718B1204B984700BFFDE73F017C
S21440181008EB0706B0681E4B9847706840F20221F6
S2144018201C4B984758F807604FF0FF3130461A4B2C
S21440183098471A4B304698472B7B032B02D13046AD
S214401840174B9847687B51464A46164B984747443D
S21440185030464FF45071144B984797F90C00A968DE
S214401860124B984702E0002400E00446204602B0AF
S214401870BDE8F08749134000611340002C0A002061
S21440188078FE4000B1774000BD3240001C0A002080
S214401890E12D40009D294000852F4000992F4000B3
S2144018A0372F40007D134000812F40002914400010
S2144018B068FE40002DE9F04F054685B003920C4681
S2144018C09A464A4801212A46494B9847B0F1000BB0
S2144018D000F38580E368002B00F08180DFF83091CC
S2144018E04FEACB0709EB0708404603A9414B984708
S2144018F00646002875D16860227C636812041B0285
S21440190002F4FE0203F4407313436B6063685BB1FA
S214401910012B227809D96178022B41EA022204D0B1
S214401920A37843EA022200E00246EA60E2682F48D3
S214401930012A4FEA0B1337D150F803804FF4507109
S2144019402D4B40469847A3681B786B6300232A6A52
S214401950D1050DD540464FF45071284B98474F441B
S214401960002178680A460B46254CA047F62039E009
S214401970540703D40133581CE9D1FD2602222A60BD
S2144019802A6AD20703D40133591CF9D1FD264046B2
S2144019904FF45071194B98474F44002178680A46D7
S2144019A00B46174CA0471CE0A168164C034427443E
S2144019B0012044F83B105B687A60134C0190013A72
S2144019C04046CDF800A0A04728464FF400510B4BA8
S2144019D0984740465146039A0C4B984702E0F820F9
S2144019E000E0304640B205B0BDE8F08F68FE4000EB
S2144019F049134000FD144000852F4000812F4000D1
S214401A00FD364000240A002045154000B915400028
S214401A102C0A00202DE9FF47044603920D469A46BD
S214401A20594801212246594B9847B0F1000900F326
S214401A30A380EB68002B00F09F80DFF878814FEAA8
S214401A40C90708EB070003A9514B984706460028EC
S214401A5040F094804F4B2046984766606B682A7CDF
S214401A601B0203F44073120443F4805302F4FE0254
S214401A70134363606B685BB1012B2A7809D9697898
S214401A80022B41EA022204D0AB7843EA022200E06D
S214401A903246E260EA683C48022A4FEA09134CD8CC
S214401AA050F803904FF4507148463B4B9847EB68CC
S214401AB0A868012B03D1032222601A460BE00122BC
S214401AC02260002207E0012B19D0AD071CD5216B00
S214401AD0013B017001300021D3B1256A15F4807FA7
S214401AE0F1D048464FF450712C4B9847474400215C
S214401AF078680A460B462A4CA047F6203FE00AB9CB
S214401B00022222601A46E0E701314D1CE4D1FD2650
S214401B104FF0FF33226AD20702D4013BFAD1FD26AA
S214401B2048464FF450711D4B98474744002178680B
S214401B300A460B461A4CA04720E0A968194D0344B4
S214401B4045F839103D446A60174D00202F440190F7
S214401B50023A3846CDF800A05B68144DA8470123EA
S214401B60236020464FF480510C4B984738465146E8
S214401B70039A0F4B984702E0F82000E0304640B208
S214401B8004B0BDE8F08700BF68FE4000491340003F
S214401B90FD144000932F4000852F4000812F4000C9
S214401BA0FD364000240A00201C0A0020451540004F
S214401BB0B91540002C0A002008B50020014B984774
S214401BC008BD00BFDD15400008B50120014B984711
S214401BD008BD00BFDD154000184B70B51C2202FB47
S214401BE000339C699A685D68944201D121B904E04B
S214401BF002D9A41ADC6001E0A91AD960D9680A445F
S214401C00AA4203D90E4B984700BFFDE70D4D04018D
S214401C1079B12A19566803F10801304600220A4B6A
S214401C20984730460121094B984728590921084BC7
S214401C3002E02859074B0921984770BD340A002016
S214401C40BD32400080FE40007B2940009129400084
S214401C50ED2F4000F12F40002DE9F74F3A4A03019F
S214401C60D7580546394B4FF0000A3846CDF804A001
S214401C709847374B0646384698474FF01C0808FBAF
S214401C8005F80640DFF8E890F20609EB080418D598
S214401C903846304B102198472F4B03EBC50250680F
S214401CA09B4628B1514601AA5346DFF8B8C0E047E4
S214401CB05BF8350028B1002101AA0B46DFF8A4C026
S214401CC0E047330721D5A3691BB9244B984700BF8B
S214401CD0FDE7012B03D1214B984700BFFDE7A368E2
S214401CE0E268284613446268A360934228BF59F8C6
S214401CF008304FF0000128BFA360194B9847206971
S214401D0058B1002101AA0B4605E036B9206920B13A
S214401D10314601AA3346134CA04716F0E00F0CD0CC
S214401D203846114B98470C4B03EBC505686820B105
S214401D30002101AA0B460B4CA047019B0BB10B4B55
S214401D40984703B0BDE8F08F80FE4000F92F400072
S214401D50F52F4000F12F4000500A0020BD324000D1
S214401D60D91B400071384000FD2F4000AD32400086
S214401D70340A00202DE9F04FDFF8A49185B0012603
S214401D80044615460DF110082246524B8B464846EF
S214401D90314608F8046D9847414607463246287B48
S214401DA04D4B9847002F00F38E80002800F08D8022
S214401DB04A4E1C2303FB07639B691BB1484B98475D
S214401DC000BFFDE72046474B98474FEA0718204696
S214401DD0454B984709EB0803D3F804A040F202218C
S214401DE05046424A01939047019B9868404B98471B
S214401DF02B7B012B03D1204659463E4B9847204625
S214401E004FF0FF313C4B98473C493D4B687B01EBDC
S214401E10C701002298472B68002B3CD0394B4FF027
S214401E20FF30002198471C237B431E44DFF8ACB0AC
S214401E3006F11007306118B9294B984700BFFDE7F7
S214401E402A6803F10801B2606A685046F260594455
S214401E500022DFF8D0C00193E0472A68B261019BB8
S214401E60B2684BF803206B681A4472606B7B9B0722
S214401E7008D50120244B9847786018B9184B9847E6
S214401E8000BFFDE720460921204B984750460121D8
S214401E901F4B984704E01C2303FB07660123B361EE
S214401EA009EB080393F90C00A9681A4B984759F8B0
S214401EB00800E021154B98472046174B9847204688
S214401EC0164B984702E0002400E00446204605B042
S214401ED0BDE8F08F4913400061134000340A0020EB
S214401EE0BD324000DB2F4000E72F40009D294000D8
S214401EF0E12D4000A12F4000F12F4000500A002065
S214401F007D134000D936400011384000ED2F400088
S214401F109129400029144000D52F4000E12F400071
S214401F2080FE40007B2940002DE9FF47174F0646BC
S214401F3003938A469146384601213246144B0C9DFF
S214401F409847B0F100081CDC124C03A904EBC80407
S214401F502046114B9847A8B907EB081701234A4675
S214401F600193204651467B6800950C4FB847304653
S214401F7010210B4B984720462946039A094B984711
S214401F8000E0F82040B204B0BDE8F08780FE400094
S214401F9049134000500A0020FD14400045154000FB
S214401FA0ED2F4000B91540002DE9FF470446019348
S214401FB089463A4B012116463948224698471C2204
S214401FC04243384B05469C18A169984619B9364B8A
S214401FD0984700BFFDE7012903D1334B984700BF20
S214401FE0FDE7002854DC61689B58C91A8E424FD8DA
S214401FF002A82E4B98476069DFF8C8A0103490B10D
S2144020000021019A0B46D047012841D102A801A9D8
S214402010274B9847012806D1002160680A460B46A0
S214402020244CA04734E000241C2707FB05870021EA
S2144020300B46019A3869D047194B09EB040203EB6B
S21440204005135B6838461968DFF87CC0331BE047E9
S214402050241809D0184B9847FB681BB9284601211D
S214402060164B9847164B9847B4420AD31C2303FB9B
S2144020700585686968B100210A460B460D4DA8479C
S21440208007E002A801A90A4B98470028CCD0EDE704
S2144020900024204604B0BDE8F08700BF4913400046
S2144020A080FE4000340A0020BD324000B944400063
S2144020B0E1444000FD364000CD324000D91B400090
S2144020C0ED324000ED3840008D14400008B5002049
S2144020D0014B984708BD00BF591C400008B5012079
S2144020E0014B984708BD00BF591C400010B5114B26
S2144020F004469847802323606368204643F00103E4
S21440210063606368002143F010036360636823F0F4
S21440211080036360084B98476368204623F00203B9
S21440212063606368002123F004036360034B9847B1
S21440213010BD00BF092E4000192E40002F2E400033
S214402140F8B505460C4618461449154B16469847AA
S2144021500022DFF864C00746216828461346E04759
S2144021602846216808220F4B984728462168FAB22D
S2144021700D4B98472846216808220C4B984728461E
S214402180216872080A4B984706F0010228462168E3
S21440219082F00102074B9847F8BD00BF006CDC0296
S2144021A0F12E4000DD2E4000092F40009D2E4000BD
S2144021B0712E4000872E40001F2F400008B5436810
S2144021C0096813F0040F08D1032908D8012303FA3D
S2144021D001F1C943024B984708BD0F29FAD908BDFB
S2144021E0192E400070B50E46154678B9144671193A
S2144021F0002CC4EB010106DD064B013C1868064B7B
S2144022001B689847F3E725EAE57070BD4FF0FF304E
S21440221070BD00BF80450020784500200138022868
S21440222070B50D46164601D800240BE04FF0FF303F
S21440223070BD064B295D1868054B1B6898470028FB
S214402240F4DB0134B442F4D1204670BD8045002012
S2144022507C450020334B4FF4004210B50B205A60AB
S214402260314CA0470C20A0470D20A0472F4C4FF0E4
S21440227060511720A0474FF060512E20A0474FF0E6
S21440228060511920A0472A490F20A047294910200D
S214402290A0474FF00062284B4FF4C061274898474C
S2144022A04FF080510020A0474FF080510820A047B3
S2144022B04FF000610320A0474FF000610420A04784
S2144022C04FF000610C20A0474FF000610D20A04762
S2144022D04FF000610E20A0474FF000611F20A0473E
S2144022E04FF080511E20A0474FF000610C20A047C1
S2144022F04FF000610D20A0474FF000610E20A04730
S2144023004FF080511E20A0474FF060511C20A04740
S2144023104FF060511D20A0474FF060514D20A04720
S21440232010BD00BF50140E40E12D4000152B40005C
S2144023307900002859000028C92B4000000E0E40A6
S21440234038B505460024084BE258954207D1234449
S2144023505B682846012B0CBF044B054B9847083456
S214402360202CF0D138BD00BF90FE4000D72A400058
S214402370BD2A400038B505460024084BE258954231
S21440238007D123445B682846012B0CBF044B054B02
S21440239098470834202CF0D138BD00BF90FE40004E
S2144023A0BD2A4000D72A400013B5C0F111001028BE
S2144023B028BF1020002808BF01200023104A4FF4F1
S2144023C0005151631821019101994C1E0194002936
S2144023D0FAD14FF40051116318220192019A511E0E
S2144023E00191002AFAD101338342E7D34FF40033F8
S2144023F00193019B5A1E0192002BFAD102B010BDE8
S21440240000120E40074B4FF400525A6382B04FF40E
S21440241000330193019B5A1E0192002BFAD102B061
S214402420704700BF00120E4082B000230193019B0C
S214402430834209D200230193019A044B9A42019B9E
S21440244003F10103F7D9F1E702B070479F86010018
S21440245030B50468AF2C84BFAF2404601468AF2C3A
S21440246084BFAF2414600C68DB2C84BFDB240C6074
S2144024701C68DB2C84BFDB241C6004681568AC42F7
S21440248084BF056014600A681868824284BF08608A
S2144024901A6030BD70B50C4C06460221204600221C
S2144024A00A4DA847012323601C20094B9847314614
S2144024B0204602220023074EB047022121602046D4
S2144024C08022A84770BD00BF00800040DD2E40003F
S2144024D0D72A4000412E400038B5084C0123054617
S2144024E023601C20064B984729460023204602229C
S2144024F0044DA8470223236038BD00BF008000403B
S214402500BD2A4000412E400010B5034B0C4698476C
S2144025102046024B984710BD95244000D9244000E1
S2144025200E4B012273B51A6005460D4B1C200C4617
S214402530984700230193019BA3420AD2019B074878
S21440254035F8131002220023064EB047019B013394
S214402550F0E7024B02221A6002B070BD00800040D5
S214402560BD2A4000412E4000034BDA699A61034B76
S21440257001221A70704700BF00800040B80B002050
S21440258008B5072041F21701014B984708BD00BF28
S2144025900925400008B507200021014B984708BD93
S2144025A00925400000F4780300F47C421B0A43EA05
S2144025B05213C0F3C40018430023034A9852023310
S2144025C0B3F5B07FF9D17047580A0020013AF8B504
S2144025D00D4611181F46084C0646C9B23620A0477D
S2144025E0013FF1B23720A04779193820C9B2A04739
S2144025F03920E9B2A047F8BD0925400038B50D4658
S214402600034CC1B22020A0472120E9B2A04738BDE4
S214402610092540002DE9F04385B002270DF110084A
S2144026208146604C1D2048F8047D5F4EA0473846E2
S214402630B0475E4B1D2098471420B0471D20A0474A
S2144026405B4C3220B0478023276023604FF0807376
S2144026502360584B00254FF40012C3F880202046D4
S214402660C3F8802183F815531A60534B98472A467F
S214402670DFF864C1204641460095504BE04720466F
S21440268041464F4B4FF0010898474E4BC4F80080E8
S214402690C4F8148098474C4C40464FF48E71A0477F
S2144026A038464FF48071A047032041F23001A047DE
S2144026B0082040F60801A04741460C20A0470F20BE
S2144026C040F60121A0472020B021A0472120DC2150
S2144026D0A04710204FF42061A04741F23801112056
S2144026E0A0473220B047122041F22111A0471320C4
S2144026F04E21A047142046F26F71A047294630204D
S214402700A0473120DB21A04729463220A047294652
S2144027103320A0473420DB21A04729463520A04758
S2144027203620B021A04729463720A0473820DC2154
S214402730A04729463920A04729465020A047512087
S21440274040F20A61A047522040F60A51A047532063
S21440275040F20331A047542040F60D21A0475520B3
S21440276040F60621A04729465620A047572040F26B
S2144027700331A04729465820A04729465920A0475C
S21440278099E80C0029462846104CA047D9F808007E
S2144027900F4B9847284629460E4B9847284605B083
S2144027A0BDE8F083BD2A400029244000D72A4000D7
S2144027B00080004000E100E0ED20400020BCBE006C
S2144027C0BD2140009525400009254000CD2540000C
S2144027D0A5254000FD2540004121400038B505466E
S2144027E000200146064B98472220064B984749F260
S2144027F040742846044B9847013CFAD138BD00BF88
S214402800FD25400095244000D9244000AF2808B557
S2144028100ED8DB290CD889B280B2064B98472220C6
S214402820054B9847054B1888054B9847002008BD30
S214402830012008BDFD25400095244000580A002090
S214402840D92440007FB5204C03900291019200931A
S21440285003A802A901AA6B46A047019A009B0398C9
S214402860029901320133121A5B1A184EB047BDF86E
S2144028700C00BDF80810164B9847164B2220984778
S214402880029B009CB025E21A019B5C1C039BE41A49
S21440289002FB0444B4FBF5F52DB10F48B0210F4BB5
S2144028A09847013DF8E7B023B4FBF3F103FB114131
S2144028B011B10948094B984700200146B022DC2355
S2144028C0B04704B070BD00BF51244000CD25400045
S2144028D0FD25400095244000580A00202125400050
S2144028E02DE9F04782460F4602F1FF39544619F863
S2144028F0013F8BB30A2B01D11037F7E7174A4FF049
S214402900140808FB03280025A8F27F28002618F89C
S214402910012CC6F1070342FA03F3DA0703D5281958
S214402920F1190F4B98470136082EF0D1072698F834
S21440293000303341DB0705D507F10F012819891B05
S214402940074B9847013E012EF1D101350A2D08F17B
S2144029500208DBD10C34CAE7BDE8F087B0FE400081
S2144029600D28400019B10B6883604B68C3601AB1EC
S214402970136883615368C361704719B10B6803607D
S2144029804B6843601AB113680361536843617047EC
S21440299021F0FE01C905C90D0162704721F4FE71A0
S2144029A021F001018905890D01627047B1F1C05FD0
S2144029B010B542642DD007D8B1F1006F15D0B1F1F3
S2144029C0805F1DD071BB10BDB1F1205F2BD005D804
S2144029D0B1F1005F26D1036F13431FE0B1F1405FB2
S2144029E021D0B1F1605F1ED01CE0016F046FD3436D
S2144029F0214019400167416F446F21400B4010E071
S214402A00036F13430367436F416F0B4023EA020390
S214402A1007E0036F016F0B4023EA02030367436F2F
S214402A2013434367426010BDD30741644CBF4166C1
S214402A30016612F00A0F14BF01624162930702D585
S214402A40C0F8801003E0130748BFC0F88410416107
S214402A500160704710B5029C41640CB1416600E0CD
S214402A6001660BB1016500E041650AB1016300E013
S214402A7041630161016010BD12B1C0F89410704707
S214402A80C0F890107047D3060ED59306C0F8B01025
S214402A904CBFC0F8D410C0F8D01053064CBFC0F896
S214402AA0C010C0F8C4107047C0F8B4107047C36C6C
S214402AB001647047C06C7047806C704743090122C0
S214402AC000F01F0002FA00F003F5001303F207734C
S214402AD05B02186370474309012200F01F0002FAA8
S214402AE000F003F5001303F207735B025863704768
S214402AF04309012100F01F0001FA00F003F500131E
S214402B0003F207735B029A6B104214BF5863186354
S214402B1070470000F7B544090D4604F5001401F06F
S214402B20F04104F20774B1F1005F4FEA44241ED02E
S214402B3009D8B1F1805F1AD0B1F1C05F17D0B1F1BA
S214402B40006F37D113E0B1F1405F1FD0B1F1605F45
S214402B501CD0B1F1205F2DD100F01F010126204688
S214402B6006FA01F12A46154B9847304623E000F016
S214402B701F00012606FA00F7114B3A4620469847B2
S214402B80EA0701D42766F0E76766EEE7012605F018
S214402B90605205EA06030093B2F160535A4200F0D1
S214402BA01F015A41204606FA01F1C5F38003054C41
S214402BB0A047DAE7002003B0F0BD00BF292A400056
S214402BC0AD294000552A4000F7B502F0F045B5F172
S214402BD0005F06460C46174617D009D8B5F1805F09
S214402BE013D0B5F1C05F10D0B5F1006F27D10CE01F
S214402BF0B5F1405F13D0B5F1605F10D0B5F1205FFE
S214402C001DD1104B984701201AE0224629460E4B0C
S214402C109847FA0701D43466F5E77466F3E707F099
S214402C20605207F001030093B2F160535A422146C6
S214402C305A413046C7F38003044CA047E3E70020E0
S214402C4003B0F0BD292A4000AD294000552A400077
S214402C50F8B5114B04460E469847104B054620469D
S214402C609847054016D00E4C04F1600754F80C3CCB
S214402C70B3420AD154F8081C294206D0236830468D
S214402C80984754F8083C25EA0305BC4202D0103465
S214402C90002DEBD1F8BD00BFB52A4000B92A400050
S214402CA0CC0B0020F8B50C4E3468062C12D8DFF852
S214402CB030E027014EF8071006990EEB07056A60CC
S214402CC0AB60E960013411461A46044B34609847BD
S214402CD00020F8BD0120F8BDBC0B0020872A40002C
S214402CE0C00B002008B502480B21024B984708BD90
S214402CF0000E0E40512C400008B502480C21024BF5
S214402D00984708BD00100E40512C400008B50248B8
S214402D100D21024B984708BD00120E40512C400032
S214402D200F4B1A6B22F070021043186340F60102F4
S214402D30986E0B49000703D4013AF9D10120704739
S214402D400A6B22F0030242F002020A6340F60102D6
S214402D50996E090702D4013AFAD1EFE7002070478E
S214402D6000040E400F4B1A6A28B10F4911400F4A13
S214402D700A431A62704722F45C1222F0030242F4BD
S214402D805C12090242F0010289B20A431A62996E45
S214402D90044AC907FBD5136A43F09B7343F4803358
S214402DA01362704700040E40FCFFC8FE0200370165
S214402DB0024B986E00F48030704700BF00040E400F
S214402DC0024B4FF000529A62704700BF00040E401C
S214402DD0024B986E00F00200704700BF00040E40A1
S214402DE01F284FF0010309D803FA00F0054A9169FD
S214402DF000EA0103834203D0106101E018467047A1
S214402E000020704700040E4008B51520014B984737
S214402E1008BD00BFE12D40004368090423F4702339
S214402E204360436801F470210B4343607047436836
S214402E3023F07F434360436843EA01614160704743
S214402E4030B543F699240569AD0703D4013CFAD161
S214402E5001200BE04468A40706D5120402F4702251
S214402E6011430BB141F08071C160002040B230BDCB
S214402E7089000844036B12B143F0010301E023F0DC
S214402E8001030363704789000844036B12B143F0A3
S214402E90020301E023F0020303637047042A09D1CA
S214402EA000EB81010B6B23F008030B630B6B43F0C5
S214402EB0040311E04AB900EB81010B6B23F00803D1
S214402EC00B630B6B23F0040306E0082A05D100EBE6
S214402ED081010B6B43F008030B63704700EB8101E5
S214402EE00B6B23F0F0030B630B6B1A430A637047BC
S214402EF0431E1944B1FBF0F0431EFE2B94BF80B234
S214402F004FF6FF7000B2704700EB81010B6B23F465
S214402F107F430B630B6B43EA02220A63704700EB66
S214402F208101086B80B20863086B40EA036343EA9A
S214402F3002420A6370470823036020230360042389
S214402F40036070470D4B994216D84900B2FBF1F228
S214402F50043A0023FF2A04D9072B02D00133520833
S214402F60F8E711021B0489B203F4E0230B43D2B204
S214402F701A4302610020704701207047801A0600FD
S214402F80416270478162036A7047006A7047C06A50
S214402F907047006BC0B2704780230360036B704776
S214402FA0AC2310B5036091E80C00B2FBF3F31B09A9
S214402FB05C1E4FF6FE7294420AD803628B684360EA
S214402FC040F20223C0F8203150230360002010BD99
S214402FD0012010BD40230360704780230360704784
S214402FE0102303607047202303607047816070475A
S214402FF0C160704700697047406970474FF48073FE
S2144030000360704743699B0746BFC16100200120AB
S21440301070474369DB0743BF836900200B7001207C
S214403020704743699B0743BFC1F30801C161002055
S214403030012070474369DB0705D583690020C3F349
S21440304008030B60704701207047FEE7164B174A8F
S21440305010B593421C4601D0002301E0144B07E014
S2144030601449D0188842F9D2E158D1500433F7E7D2
S214403070114A934203D2002243F8042BF8E70F4943
S2144030800F4B21F0604201F1604122F07F02B1F522
S214403090C04F9A6003D29A6842F000529A60094B39
S2144030A09847094B9847FEE7680F4100000000200C
S2144030B0B0090020AC090020F04500200000400088
S2144030C000ED00E0397740003D53400010B5294AF6
S2144030D0294B116B01F0030101290CD002D30229C0
S2144030E01AD035E0254949690C064CBF4FF40041DB
S2144030F04FF4FA412BE0116AC8010BD420491960FD
S214403100116A01F07001102902D0202902D01FE078
S2144031101C491CE01C491AE0116AC9010BD4184925
S2144031201960116A01F07001102902D0202902D0DE
S21440313003E0144900E014491960946A1968C4F31E
S2144031400A4404FB0111906AC0B2B1FBF0F1196069
S214403150126B02F07002702A04D11A680321B2FB87
S214403160F1F205E0034A116B1A68C1F30211CA4036
S2144031701A6010BD00040E40F000002010140E40EF
S21440318000093D0000127A00001BB700074B1A6882
S2144031900AB9074A1A601B68064A18449042DDBFBF
S2144031A0024A106018464FF0FF307047300C00203F
S2144031B0F04D0020FC5F00204FF0FF3070474FF48A
S2144031C000534B6000207047012070470020704736
S2144031D000F108034FF0FF3282604360C360036132
S2144031E000230360704700230361704743685A68B2
S2144031F04A6042688A605A689160596041600861D6
S21440320003680133036070470A6810B5531C01D148
S214403210036907E000F108035C682468944201D81B
S2144032205B68F9E75A684A6091608B60596008614C
S21440323003680133036010BD436882689A60836800
S21440324042685A6003695A68824204BF82685A607C
S214403250002202611A68013A1A6018687047000036
S21440326003480068006880F3088862B600DF00BF45
S21440327008ED00E04FF0807300E90A00002340F8B4
S2144032800C3C40F8202C403870470000064B19682C
S2144032900868B0E8F00F80F309884FF0000080F32C
S2144032A011884EF00D0E7047F0420020024B4FF052
S2144032B080521A60704700BF04ED00E0EFF31180C3
S2144032C04FF0A00181F311887047002008B5034BEA
S2144032D09847034B1A6801321A6008BDBD32400059
S2144032E0F400002080F311887047000008B5044BB6
S2144032F018680138186008B9024B984708BD00BFE7
S214403300F4000020E5324000EFF309800C4B1A68C9
S21440331020E9F00F10602DE908404FF0A00080F340
S214403320118800F0B3FF4FF0000080F31188BDE82D
S214403330084019680868B0E8F00F80F309887047BD
S214403340F042002008B5064B4FF080521A60054BFD
S2144033509847054B98470020044B984708BD00BF48
S21440336004ED00E0BD324000213F4000E532400021
S214403370034B4BF67F321A60072243F8042C704703
S21440338014E000E010B5094B00241A6842F47002BD
S2144033901A601A6842F070421A60054B9847054B0F
S2144033A01C60054B9847204610BD00BF20ED00E04E
S2144033B071334000F40000206132400010B5104BDD
S2144033C01A68824201D21346FAE759685C1884426A
S2144033D003D14068014459601846416844189442F5
S2144033E008D1084C2468A24204D052681144416077
S2144033F01A6812688342026018BF186010BD00BF8A
S2144034002C4200202842002070B5274B044698479F
S21440341026490A688AB9264B264843F2E055036097
S2144034204260254843F2E45683E821009A515A51B7
S214403430224B08601A68103A1A602CB110346307A1
S2144034401CBF24F007040834621E43F2EE539A422F
S21440345021D8184B1D686A68A24203D30A68954271
S21440346006D118E02A68002AF8D02B461546F2E71F
S2144034702A681E681A606B6810361B1B202B04D9FE
S214403480281943606C600E4B98470C4B69681A6865
S214403490521A1A6000E000260A4B98470EB90A4BAB
S2144034A09847304670BD00BFE53E400028420020A9
S2144034B0380C00202C42002018420020F800002043
S2144034C0BD3340001D4040008552400010B50446C4
S2144034D068B1074B9847074B54F80C1C1A68A4F180
S2144034E010000A441A60044B9847044B984710BD96
S2144034F0E53E4000F8000020BD3340001D4040003F
S214403500014B1868704700BFF800002038B50446E5
S2144035101046226C32B92568FDB96068114B984751
S21440352065601AE0104B58B9A0689847A268236CAB
S21440353013446268A36093420FD32368A3600CE0F1
S214403540E0689847236CE2685B4221681A448A42E6
S214403550E26002D262681344E360A36B0133A36364
S21440356038BD00BFFD4540001578400070B5046882
S21440357003465CB1C568026C46681544B542C560F2
S21440358028BFC4600846D968014B984770BD00BF45
S2144035901578400070B5174D0446A8472E46A36CD4
S2144035A0002B0CDD636A53B104F12400124B98479C
S2144035B008B1124B9847A36C013BA364EFE74FF06A
S2144035C0FF33A3640E4DA847B047636C002B0CDD59
S2144035D0236953B104F11000074B984708B1074BD5
S2144035E09847636C013B6364EFE74FF0FF336364D7
S2144035F0A84770BDCD324000414440005945400088
S214403600ED32400038B50D46044618B9164B98477B
S21440361000BFFDE7154B9847226CE06B236850438C
S214403620821A1918A36013446160E36000214FF0CA
S214403630FF33A1636364A36455B923697BB104F186
S21440364010000B4B9847012809D10A4B984706E0D3
S21440365004F11000084DA84704F12400A847074B82
S2144036609847012038BD00BFBD324000CD324000F3
S21440367041444000AD324000D1314000ED32400080
S2144036802DE9F0410E469046054668B150200E4F53
S214403690B847044640B106FB05F00130B847206005
S2144036A030B92046094B9847094B984700BFFDE77D
S2144036B0E563266420460121064B984784F84D80F2
S2144036C02046BDE8F08100BF09344000CD344000BC
S2144036D0BD3240000536400010B502220C46054B70
S2144036E00021984708B1846310BD034B984700BF3C
S2144036F0FDE700BF81364000BD3240002DE9FF4760
S2144037000F4601929946044618B9354B984700BF74
S214403710FDE711B9036C002B5BD10026314DA8475D
S214403720A26BE36BA8469A422F4D11D22F4B2046F0
S21440373039464A469847636A3BB104F124002C4B0D
S2144037409847012801D12B4B9847A847012044E0D1
S214403750DDF804A0BAF1000F01D1A84737E016B94A
S21440376002A8254B9847A847244B9847C047636C08
S214403770234E013304BF00236364A36C013304BFAC
S2144037800023A364A84702A801A91E4B98471E4DD4
S214403790D0B9C047D4F838A0D4F83C80124B9847EC
S2144037A0C2450DD104F110000199184B98472046A8
S2144037B0B047A84708B10126B0E70E4B9847FAE74E
S2144037C02046B047A847F6E72046B047A84700201F
S2144037D003E0034B984700BFFDE704B0BDE8F08721
S2144037E0BD324000CD324000ED3240000D35400045
S2144037F041444000AD324000B9444000E53E400000
S21440380095354000E14440001D404000A143400043
S21440381070B5134B064650209847044618B9114BCE
S214403820984700BFFDE701230025C3634FF0FF33F1
S214403830856345604364056083648560C560056450
S21440384080F84D60084E1030B04704F12400B04771
S21440385029462A462B462046044DA847204670BD9A
S21440386009344000BD324000D1314000FD364000B2
S2144038702DE9F04104460E4615469846174814B9B9
S214403880804700BFFDE721B9216C11B1804700BFDA
S214403890FDE78047A36BE16B07468B4217D2104B80
S2144038A02046314642469847A36C01330AD1636AA4
S2144038B05BB104F124000B4B984730B12DB1012485
S2144038C02C6005E0A36C0133A364012400E00024CF
S2144038D03846054B98472046BDE8F081BD3240004B
S2144038E00D35400041444000E53240002DE9FF4799
S2144038F00F4601929A46044618B9434B984700BF74
S214403900FDE711B9036C002B76D100263F4DA84742
S214403910A36BA9463E4D33B3204639463D4BE66839
S2144039209847BAF1000F12D1A36B013BA3632368FB
S21440393013B9394B9847606023698BB104F1100086
S214403940364B984701280BD1354B984708E0636AB9
S214403950E6602BB104F12400304B98470028F3D1A1
S214403960A84701204CE0DDF80480B8F1000F01D1F3
S214403970A8473FE016B902A82A4B9847A8472A4BC3
S2144039809847C847636CDFF88880013304BF00233C
S2144039906364A36C254E013304BF0023A364A84789
S2144039A002A801A9224B9847224D00BBC847D4F82D
S2144039B03890C047B9F1000F15D123682BB9134B87
S2144039C0984760681C4B9847C04704F1240001990B
S2144039D01A4B98472046B047A84708B1012695E7B6
S2144039E00F4B9847FAE72046B047A847F6E72046E9
S2144039F0B047A847002003E0034B984700BFFDE7C9
S214403A0004B0BDE8F08700BFBD324000CD32400074
S214403A10ED3240006D354000654540004144400071
S214403A20AD324000B9444000E53E40009535400088
S214403A30E14440001D4040008D454000A143400009
S214403A4038B504460C4B0D469847636C013304BFAB
S214403A5000236364A36C013304BF0023A364074BB5
S214403A609847A36B23B904F124002946044B984792
S214403A702046044B984738BDCD324000ED324000DA
S214403A80FD434000953540002DE9F0434B680C4619
S214403A90596804F108066160B14208BF736885B092
S214403AA008BF636063688046DF689146636859680C
S214403AB06160B14208BF73684FF0000108BF6360A1
S214403AC06368DD68286B8AB20131431813F8013CFD
S214403AD0A52BF8D0E96A2B6C9208009101920293CC
S214403AE0084905F134024B46DFF824C00648E04753
S214403AF040460549054B9847BD42D7D105B0BDE87D
S214403B00F08300BF300641000C430020497B400054
S214403B10FD7A400010B50D4B04461A6850600C4ABA
S214403B20126890420B4A05D20B490868196804315E
S214403B30904710BD09490868196804319047084BFA
S214403B401A68944238BF1C6010BD00BFF042002087
S214403B506C42002009324000344300204C42002092
S214403B60FC0000202DE9F84F0A9D894690469A466B
S214403B70DDF830B0074618B9574B984700BFFDE709
S214403B80052D03D9544B984700BFFDE74C20534EB4
S214403B90B0470446002800F09B805846BBF1000F13
S214403BA002D14FEA8800B047206318B920464C4BF4
S214403BB098478DE04FEA88084246A521494B9847EA
S214403BC0236BA8F1040849460A22984404F13400BD
S214403BD0454B984704F10409002384F83D30484695
S214403BE0DFF84CB1E562A564D84704F11800D84721
S214403BF028F00708C5F10603A36124613B4B6462C5
S214403C0040463946524698474307206003D0324BD9
S214403C10984700BFFDE70B9B03B11C60344B9847A9
S214403C20344B354F1A68DFF80CA101321A603A68F7
S214403C3012BB3C601B68012B26D190460AEB08005D
S214403C402E4E08F11408B047B8F1780FF6D1DFF8D9
S214403C50E8B0DFF8E8805846B0474046B0472848C6
S214403C60B0472848B0472848B047284BC3F800B06C
S214403C70274BC3F8008007E0264B1B6823B93B68F8
S214403C80DB6AAB4298BF3C60234AE36A1168142063
S214403C908B4288BF1360214A00FB03A01168216451
S214403CA0013111601E4A11688B4288BF1360494635
S214403CB01C4B98471C4B9847164B1B682BB13B68D0
S214403CC0DB6AAB4201D2194B98470120BDE8F88F1A
S214403CD04FF0FF30BDE8F88FBD3240000934400059
S214403CE0CD34400001794000C97F40007532400025
S214403CF0CD32400068430020F0420020D1314000E1
S214403D00F442002058420020384200204C42002016
S214403D1034430020504200206C4300204C43002097
S214403D2070420020ED314000ED324000AD324000A0
S214403D30E7314000744200205043002038430020C2
S214403D40F8B5144B04469847134B1A68944201D072
S214403D5025460CB91D6800242E1D30460F4FB84727
S214403D60AB6A13B105F11800B8470D4831460D4B04
S214403D7098470D4B1A6801321A600C4B1A6801328C
S214403D801A600B4B98470B4B1B6813B10CB90A4B88
S214403D909847F8BDCD324000F0420020393240000E
S214403DA058420020ED314000544200204C43002051
S214403DB0ED32400050420020AD32400008B518B900
S214403DC0094B984700BFFDE74369084A934208D12C
S214403DD0806A074B984204D0D0F1010038BF0020DB
S214403DE008BD002008BD00BFBD324000384200205C
S214403DF0F442002070B5044618B9154B984700BFEA
S214403E00FDE7144B1A681E46904220D0124B984746
S214403E102046124B9847012817D1251D104B28469F
S214403E209847104AE36A116814208B4288BF136093
S214403E300D4A294600FB03200C4B98473368E26A3C
S214403E40DB6A9A4201D30A4B98470A4B984770BDA3
S214403E50BD324000F0420020CD324000BD3D400023
S214403E60393240007042002074420020ED3140005C
S214403E70AD324000ED32400030B5002485B0114DE3
S214403E8000940194029403940F4810494622234616
S214403E90A847012805460DD10D4B984701280546F1
S214403EA008D10C4B98470C4B1D600C4B1C600C4BC0
S214403EB0984704E01DB9074B984700BFFDE705B09B
S214403EC030BD00BF653B40005141400042064100C6
S214403ED0E9464000BD324000504200206C4200207F
S214403EE085334000024B1A6801321A60704700BFA3
S214403EF00843002010B5044B9847044B1C68044BFD
S214403F009847204610BD00BFCD3240006C4200208E
S214403F10ED324000014B1868704700BF68430020F0
S214403F202DE9F041304B1B68002B50D12F4B1A68BF
S214403F301E4601321A601A68E2B92D4B1A6812689A
S214403F401AB12C4B984700BFFDE72B4A19681068FA
S214403F5018601160294A1168013111601A681168A9
S214403F60274A11B94FF0FF3303E01B68DB68DB6874
S214403F705B681360224F32683B689A422DD31C4BD5
S214403F801A68126812B94FF0FF3306E01B68DB6808
S214403F90DC68326863689A4201D23B601DE0251DAA
S214403FA02846DFF87480C047A36A13B104F11800AE
S214403FB0C047144BE26A196814208A4288BF1A60C8
S214403FC0114B294600FB0230104B9847D7E7104B61
S214403FD01A6801321A600F4B98470D4B1B680BB995
S214403FE00C4B9847BDE8F081084300206C42002007
S214403FF04C420020BD32400034430020EC420020BA
S214404000FC0000207042002074420020ED31400049
S214404010344200207552400039324000F8B52A4CF0
S21440402023681BB9294B984700BFFDE7284B9847A4
S2144040302368013B236025680DB100243FE0254BF3
S2144040401B68002BF9D0244B1A68EAB1DB68234F73
S214404050DC68261D04F11800B8473046B847204AA9
S214404060E36A116814208B4288BF13601D4A3146AC
S21440407000FB03201C4B98471C4BE26A1B68DB6A1C
S2144040809A4228BF0125DEE7194B1A681E4642B100
S2144040903368174C3BB1174B98472368013B236066
S2144040A0F6E7012D06D1144B00221A60134B9847B1
S2144040B0012404E0104B1B68012BBED1F3E7104BE4
S2144040C098472046F8BD00BF08430020BD32400058
S2144040D0CD32400068430020F44200203932400090
S2144040E07042002074420020ED314000F042002033
S2144040F034420020213F400064430020AD3240005F
S214404100ED32400010B5044610B90A4B984710BD32
S214404110094B9847094B1B681C44094B1868094BC8
S21440412004309847084B20469847084B9847002845
S214404130EBD010BDAD324000E53E40006C42002062
S214404140F042002039324000153B40001D40400000
S21440415008B5154D2B68EBB1144C154B984726689F
S214404160144B9847002EF4D0134B9847E368DC680E
S214404170124B201D9847124B1A68013A1A602B685A
S214404180013B2B600F4B98470F4D206BA8472046AE
S214404190A847DEE70D4B1B68012B01D90C4B98470F
S2144041A00C4B9847D5E700BF5442002058420020A9
S2144041B0E53E40001D404000CD32400039324000D0
S2144041C068430020ED324000CD3440007442002069
S2144041D0AD32400071524000F8B5214B0446984736
S2144041E00023237020461F4B1F4998471F4B142619
S2144041F01D681F4B013506FB05361F46143E013D24
S21440420014236B43FB5823B1204631465222194BA8
S2144042109847143E002DF2D1174B1A68126822B107
S214404220196820464222134B9847144B1A68126866
S21440423022B11968204642220E4B984710490B6817
S2144042401BB1204644220B4B98470E490B681BB1C6
S21440425020465322074B98470B4B9847F8BD00BF64
S214404260E53E4000497B400059FE40006C4300203C
S21440427074420020893A40004C42002034430020DB
S21440428058420020384200201D40400010B51A4BCE
S2144042901B681BB1194B01221A6010BD184C2268CE
S2144042A0236812681B6B9A4208D820682168154B11
S2144042B03431984702E01368013B1360124A1423D6
S2144042C0106812495843085830B91368002BF2D189
S2144042D00F4B984700BFFDE7126803FB02135A686E
S2144042E003F1080152685A608A4204BF52685A6015
S2144042F05B68DB68236010BD0843002064430020F1
S214404300F04200205152400070420020744200208B
S214404310BD3240002DE9F041174E184B04469847F1
S21440432033689C4201D025460CB9356800242F1DC1
S2144043303846DFF86880C047AB6A13B105F118000D
S214404340C0470F4D0F4B2846394698470E4B984767
S21440435084B90E4B1B681BB10D4B9847BDE8F081E6
S2144043600C4B2A681B689A4202D13460BDE8F08143
S214404370094B9847BDE8F081F0420020CD3240001E
S21440438038420020ED314000ED32400050420020DF
S214404390AD324000684300208D4240003932400034
S2144043A038B50D4618B90D4B984700BFFDE70C4C85
S2144043B00C4B21681831984720680B4B04309847BF
S2144043C06B1C05D1216809480431094B984738BD14
S2144043D0084B1868084B2844984738BDBD32400003
S2144043E0F042002009324000393240003842002076
S2144043F0ED3140006C420020153B400038B50D467C
S21440440018B9094B984700BFFDE7084C084B216890
S214404410183198472068074B04309847064B186871
S214404420064B2844984738BDBD324000F042002035
S214404430ED314000393240006C420020153B4000D0
S214404440F8B5C368DC681CB9134B984700BFFDE756
S21440445004F118063046114FB847114B114D1B68F2
S2144044606BB9261D3046B8470F4AE36A11681420D8
S2144044708B4288BF13600D4A00FB032000E00C48C7
S2144044803146A8470B4BE06A1B68DB6A984234BF4C
S21440449000200120F8BD00BFBD3240003932400048
S2144044A008430020ED314000704200207442002056
S2144044B0F4420020F042002008B518B9054B984752
S2144044C000BFFDE7044B1B680360044B1B6843605A
S2144044D008BD00BFBD324000EC4200206C420020C8
S2144044E038B50D46044618B9154B984700BFFDE74A
S2144044F019B9134B984700BFFDE7124B98472B68F6
S2144045005A1C15D0104A1168226891420F496268B9
S21440451002D0086890420DD20968891A994209D299
S2144045200A4920460968521A13442B60084B98479C
S214404530002400E00124074B9847204638BD00BFC2
S214404540BD324000CD324000EC4200206C4200209C
S214404550B9444000ED324000014B01221A607047DA
S21440456064430020014B1868704700BFF0420020AB
S214404570044B186828B1044B1B68002B14BF02205C
S214404580012070475042002008430020F8B50446FA
S214404590002828D0144DC36A2A68D26A934222D291
S2144045A02A68D26AC2F1060282611048142202FBCF
S2144045B00303626907469A4212D1261D30460C4BC9
S2144045C098472B680B4ADB6A116814208B42E362DB
S2144045D088BF136000FB03703146074B9847F8BD11
S2144045E02B68DB6AE362F8BDF0420020744200208C
S2144045F03932400070420020ED31400038B5044664
S214404600C0B1C26A836C9A4214D0051D0A4B284634
S2144046109847A36C1420C3F10602A261074AE362DE
S21440462011688B4288BF1360054A294600FB032069
S214404630044B984738BD00BF3932400070420020D6
S21440464074420020ED3140002DE9F0410D4C0E4BF8
S214404650984725688DB90D4F0D4E3846DFF8448093
S214404660C0473046C0470B4B05201F600A4B0C2105
S2144046701E602A46094B98472060094B9847BDE87C
S214404680F08100BFA0430020CD324000744300209C
S2144046908843002070430020A44300208136400019
S2144046A0ED324000D131400010B5914204464160A1
S2144046B0206105D88169D21A8A420CD2074B04E0A1
S2144046C09A4201D2994206D2054B1868211D054BE5
S2144046D09847002010BD012010BD00BFA443002015
S2144046E070430020093240001FB50C4B98470C4BD6
S2144046F01B6813B90B4B98470EE005230093002325
S214404700019302930393084808498C22084CA0471B
S2144047100028EFD004B010BD00BFFDE7494640007A
S214404720A0430020BD3240005148400047064100AB
S214404730653B40002DE9F041804617461E460D4633
S21440474019B90C4B984700BFFDE728200A4B9847FD
S214404750044658B1094B9847069BC4F800806362EC
S214404760A561E7612662201D054B98472046BDE8B7
S214404770F08100BFBD324000093440004946400049
S214404780E73140007FB50F4D064628681C46B0B15D
S2144047900191029203966BB90B4B9847012818BFBC
S2144047A022460A4E286801A906BF089A23461346A1
S2144047B0B04704E01A4601A90023054CA04704B0C0
S2144047C070BD00BFA043002071454000FD3640004C
S2144047D071384000F7B5184E33681A68002A25D05D
S2144047E0DA681568DB68DC68144B271D384698473E
S2144047F0636A20469847E369012BECD1A3692B44B2
S214404800AB4206D963602461306839460C4B984702
S214404810E1E70021204600912A460B46094CA04776
S2144048200028D8D1084B984700BFFDE7074A1168D3
S2144048301360316003B0F0BD704300203932400051
S2144048400932400085474000BD324000A443002066
S2144048502DE9F04786B0DFF88891D9F800301A681D
S214404860D2F1010838BF4FF00008B8F1000F02D16E
S214404870DB681D6800E000254B4B4C4C9847A04732
S2144048804B4F06463B68A246984203D2494B984750
S214404890012300E000233E60474C002B33D1B8F1A3
S2144048A0000F26D1B54224D8A047D9F80030DB689F
S2144048B0DC68424B201D9847E369012B15D1A1695E
S2144048C03246204629442B463D4EB04701280CD15F
S2144048D02A46CDF80080204641464346394DA847F3
S2144048E018B9394B984700BFFDE7636A204698479A
S2144048F00AE0364BA91B1868354B9847A04718B9AD
S214404900344B984700E0A047D0473B68054698425E
S21440491001D2284B98473D602C4B0022186803A9CB
S21440492013462D4CA047002895D0059C24B16369BA
S21440493013B1201D214B9847039E022E21D0032EF3
S2144049402DD0002EE8D1049BA169204619442A4662
S2144049501B4FB8470128DFD1636A20469847E36972
S214404960012BD9D1A269049B20461A4400963146B1
S2144049703346144CA0470028CED1134B984700BF6F
S214404980FDE70499A16119B90F4B984700BFFDE7B1
S214404990204629442A462B46094CA047BCE72046D9
S2144049A00E4B9847B8E700BFE53E4000F53E400056
S2144049B09C430020D54740001D404000393240000F
S2144049C0A946400085474000BD324000A043002035
S2144049D0413A4000AD324000ED384000CD34400012
S2144049E07043002038B518252A46144C0021144838
S2144049F0A0472A4600211348A047134B0024002511
S214404A00C3E900455320114B98470B4610490246D0
S214404A10C1E900230F481049C0E90623C1E9002335
S214404A200E4BC0E90845C0E90A45C0E90C45C0E957
S214404A300E45C0E91045984738BD00BF0179400093
S214404A40B0430020C8430020E0430020B1024000AD
S214404A50E8430020F8430020A843002041034000DC
S214404A6010B5044B002118680A460B46024CA04776
S214404A7010BD00BF88450020FD364000F8B50D4605
S214404A8016461C46C0B101281BD108460D4B0021D6
S214404A9098470D4F0D4B38B12846984702460B466F
S214404AA0C6E900230A4804E02846984702460948D3
S214404AB00B462146B847F8BD194605480CCA024C75
S214404AC0A047F8BDD5764000FD0C4000756A400012
S214404AD04F0641005C0641002DE9F84307460D4667
S214404AE018461F49DFF8A49016461C46C84780461D
S214404AF048B920461B49C847434628B91A4B1B4865
S214404B009847BDE8F8830123D7B1012F26D1304618
S214404B1029460BB1164B00E0164B9847124E164BE3
S214404B2028B12846984702460B46144804E02846D3
S214404B309847024612480B462146B047BDE8F883E0
S214404B4030460BB10F4B00E00F4B98470A4B984747
S214404B5002460B4609482146034CA047BDE8F88369
S214404B607206410078064100FD0C40007D0641007B
S214404B7061074000A5074000756A40004F064100A7
S214404B805C06410099074000DD074000E98240008E
S214404B9038B50024012008210022164DA847164BA0
S214404BA043F8240053F824301BB91920134B984778
S214404BB0FEE7012008210022A847114B43F82400B5
S214404BC053F824301BB919200C4B9847FEE70120B8
S214404BD008210022A8470B4B43F8240053F8243002
S214404BE01BB91920054B9847FEE70134032CD1D159
S214404BF038BD00BF81364000D845002075234000B0
S214404C008C45002098450020F0B587B006AB03E9F8
S214404C1007009DF81030059C002B2AD0012B2DD183
S214404C2020460021164B9847164DD0B12046164BCD
S214404C309847164C164B20600646164F984700225B
S214404C40154BB847154B164AC3E90001002300939D
S214404C50106802213246134EB04721681248A847D2
S214404C600CE02046114B984702460B461048A84792
S214404C7004E0064B0C481968024B984707B0F0BD55
S214404C80D5764000FD0C4000E97640000801002043
S214404C90316A4000716D400000408F4000010020A6
S214404CA0E4450020854740009A064100756A40006A
S214404CB0AE06410070B586B006AB4FF0FF350E4EDF
S214404CC003E9070000220095134601210B4C30688B
S214404CD0A0470B4B98470B4B0B49D3E900230120C9
S214404CE088470A4B3668984700210246009530466A
S214404CF00B46A04706B070BDE445002085474000FF
S214404D00E5494000A843002009064000F53E400023
S214404D101FB501AC84E80700044B94E807009847A9
S214404D2094E80700024B984704B010BDB54C4000CD
S214404D3061104000000000002DE9F04F864B85B022
S214404D409847864C032201200021A047844A2546E6
S214404D50106020B100210A460B46824CA047804B8B
S214404D60186818B9804B984700BFFDE700210A46EF
S214404D700B467E4CA047032201200021A8477C4AD0
S214404D80A2461060934620B100210A460B46754C59
S214404D90A047DBF8000018B9734B984700BFFDE703
S214404DA000210A460B46D047724B1421012200933D
S214404DB0714C00237148A047714B05461860714BF3
S214404DC098470024024621462846234600946E4DC6
S214404DD0A8476E4B98476E4B1A686E4B1A6040B1A8
S214404DE06D4B6E48984719206D4B984720466D4B43
S214404DF0984753A3D3E900236B49C1E9002352A344
S214404E00D3E90023C1E9022351A3D3E90023C1E932
S214404E100423664B984700210B464FF0FF32DBF8E1
S214404E200000D047624F002118226248B8475320FE
S214404E306049614B98470025604C002154F8250096
S214404E405F4EB0475B4954F8250001EBC501002290
S214404E500123444C0135A047032DB046ECD1002138
S214404E6018225848B84768205649574B98474FF03D
S214404E700009564D534F55F829000021C04755F8B4
S214404E80290007EBC9010022012309F10109A047C7
S214404E90B9F1030F4A4E334DEBD14D4B4548984739
S214404EA04C4CDFF84881DFF84891C8E90001002102
S214404EB02068B0474146002201232068A847DFF813
S214404EC034C14548DCE900233A49CDF80CC0CDE969
S214404ED000233A46414B984700216068B04700227D
S214404EE001233D496068A847D8E90001C847804685
S214404EF0D7E90401C847DDF80CC00746DCE90001E5
S214404F00C847374B0246394640469847354FC7E96B
S214404F1000010021A068B0470123A068394600225E
S214404F20A847314B1B78002B3FF475AF0C4B002144
S214404F3018680A460B46A8476DE700BFAFF30080E7
S214404F40FCA9F1D24D62503FFA7E6ABC7493683F2A
S214404F50B81E85EB51B89E3F914B400081364000CD
S214404F6008450020FD364000BD324000ED38400088
S214404F7088450020614A4000354740005CFE4000BE
S214404F80E4450020F53E400085474000E10A4000E9
S214404F9018450020F0430020FD0C4000CB064100A1
S214404FA075234000413D4000F8430020E54940005D
S214404FB001794000B0430020090A4000D84500204F
S214404FC005364000C8430020BD08400098450020F4
S214404FD0E90740008C450020E8430020CD02400011
S214404FE0B1034000A8430020180A0020E0430020F8
S214404FF0A1704000000100207FB504AB03E9070024
S2144050009DF8083003988BB1012B17D10C4B98476D
S2144050100C4B04460D4698470B4E08B10B4800E033
S2144050200B480C4922462B46B04707E00A4B9847A8
S214405030054C02460B4605480649A04704B070BDDD
S214405040756A40006D024000FD0C40004F0641006E
S2144050505C064100D6064100A50240001FB504ABE1
S21440506003E90700044C9DF8080003990022034B0F
S214405070A04704B010BD00BFD94A4000EA06410030
S2144050801FB504AB03E90700044C9DF808000399DC
S2144050900122034BA04704B010BD00BFD94A4000D0
S2144050A0F70641001FB504AB03E90700044C9DF822
S2144050B0080003990222034BA04704B010BD00BF6E
S2144050C0D94A4000040741001FB504AB03E9070076
S2144050D0044C9DF8080003990022034BA04704B0F7
S2144050E010BD00BFD94A4000110741001FB504ABB0
S2144050F003E90700044C9DF8080003990122034B7E
S214405100A04704B010BD00BFD94A40001D0741006B
S2144051101FB504AB03E90700044C9DF8080003994B
S2144051200222034BA04704B010BD00BFD94A40003E
S214405130290741001FB504AB03E90700044C9DF85E
S21440514008000399034A044BA04704B010BD00BFB3
S2144051507D4A4000F8430020350741001FB504ABA8
S21440516003E90700044C9DF808000399034A044BE2
S214405170A04704B010BD00BF7D4A40000044002058
S2144051803C0741001FB504AB03E90700044C9DF8FB
S21440519008000399034A044BA04704B010BD00BF63
S2144051A07D4A4000084400204207410010B40448AD
S2144051B0044C0023A4461A461946006810BC6047B3
S2144051C0E84500207138400008B5044D044C1720CF
S2144051D0A8474FF4FA70A047F9E700BFF12A40000D
S2144051E00541400008B50F4E0F4D4FF47A70B0475A
S2144051F000234FF0FF32194628680C4CA0470C4B52
S21440520098470C4C01460C48A0470C48A0470C4B0E
S2144052100C4898470B48A0470B4B984701460B480D
S214405220A047E2E705414000E8450020ED38400051
S214405230153F4000FD0C40004B074100640741000D
S214405240D9414000404400200135400081074100DC
S21440525008B50A46034B014603489847034C1920B5
S214405260A047FCE78977400090074100752340003F
S21440527070470000024A136801331360704700BF4E
S2144052801845002008B5034B9847034C1920A04703
S214405290FCE700BFBD3240007523400037B51C4BCD
S2144052A04FF4004200930B2150231A4C1A48A04753
S2144052B04FF400411848194B9847194B9847194ADC
S2144052C04FF400630025C2F880302946C2F880318A
S2144052D0012082F80B5313600322134B9847134A5E
S2144052E01060144620B12B462A462946104DA84742
S2144052F0206818B90F4B984700BFFDE70E4C0023B7
S2144053001A461946A44603B0BDE83040604700BF81
S214405310AD514000A52C4000000E0E40AF2A400084
S214405320A906400000E100E081364000E845002044
S214405330FD364000BD324000ED3840007FB5524B50
S21440534098474FF6FF03514A0025D168504C0B4012
S21440535043F0BF6343F40033D3604E4B98474E4B05
S2144053604E4E1D604E4B98474E48A0474E4B2A46E1
S21440537001934E4B294600934D480123A0474D4884
S214405380A0474D4B984703950295019500952B46AF
S2144053904FF4807249494A484A4DA847012804D0EC
S2144053A04948A0471920B04701E04848A047002395
S2144053B001220092039302930193462244494548B2
S2144053C0A847012804D04448A0471920B04701E028
S2144053D04248A0470023042200920393029301937D
S2144053E04FF400723E493F48A847012804D03E4843
S2144053F0A0471920B04701E03C48A0473C4A00235C
S214405400019202220092039302934FF4807239492C
S2144054103948A847012804D03848A0471920B04743
S21440542001E03748A047374A002301920322009202
S214405430039302934FF4007233493448A847012837
S21440544004D03348A0471920B04701E03148A04770
S2144054500023032200920393029301934FF40072B9
S2144054602D492E48A847012804D02D48A04719208A
S214405470B04701E02B48A0472B4B98471920B04730
S214405480002004B070BD00BFE512400000ED00E013
S214405490897740005522400018450020752340007B
S2144054A0450D4000A7074100D0074100D9074100FD
S2144054B0B5074100E50741009D524000F207410014
S2144054C0E5514000653B4000FA0741001A0841009C
S2144054D031084100C9514000360841005708410094
S2144054E06B084100394D4000710841009108410069
S2144054F064450020A6084100410E4000AC0841002B
S214405500CC084100F4440020E1084100B9104000B6
S214405510E6084100060941001A09410061124000B0
S2144055201F0941003F094100793E400030B5214AFD
S21440553021F00043934287B01BDD1F4A934205DDAE
S21440554002460B4601F036F907B030BD02AA00F01D
S21440555037F800F0030001281ED0022811D0DDE9FC
S214405560042300B3DDE9020100F042FA01F10041F4
S214405570EAE7002300930022002300F059FF07B01B
S21440558030BD01230093DDE90201DDE9042300F08C
S2144055904FFF01F10041D7E7DDE90423DDE90201D1
S2144055A000F026FAD0E70124DDE90201009400F07D
S2144055B03FFFC9E7FB21E93FFFFFEF7F0000000008
S2144055C02DE9F04F944C21F00047A7428FB040F3AE
S2144055D081801446914A0E46974226DC84A3D3E93E
S2144055E00023002940F3A08101F0E4F88C4B80466C
S2144055F09F42894600F083807FA3D3E9002301F0D1
S214405600D9F802460B464046C4E90023494601F015
S214405610D1F879A3D3E9002301F0CCF80125C4E9F9
S214405620020128460FB0BDE8F08F7E4A974240F30D
S21440563083807D4A974258DC3D15A5F21645A7EB78
S21440564005518B46824601F003FD01F001FA804683
S214405650894642464B4650465946CDE9088901F0B0
S214405660A9F80022714B01F059FA8B46824601F0A8
S214405670EFFC01F0EDF98046894642464B465046DF
S2144056805946CDE90A8901F095F80022674B01F0AA
S21440569045FA00220023CDE90C0101F0A7FC0028C2
S2144056A000F06A81002340464946002201F09EFCF5
S2144056B0002814BF012302235D4802210190009177
S2144056C02A46214608A800F0B7FA002EC0F24A81C2
S2144056D0054606E0C2E9000100250024C2E902456D
S2144056E0002528460FB0BDE8F08F02460B4601F075
S2144056F061F80025C4E90201C4E90001F1E740A3CE
S214405700D3E9002301F056F83FA3D3E90023064629
S2144057100F4601F04FF802460B463046C4E90023D8
S214405720394601F047F838A3D3E9002301F042F8A0
S2144057300125C4E90201D4E700F030FF34A3D3E9E1
S21440574000238046894601F0E9F90022394B01F0F2
S21440575033F801F07DFC054601F07AF924A3D3E93D
S2144057600023CDE9040101F0D9F902460B46404634
S214405770494601F01FF820A3D3E9002382468B4612
S214405780DDE9040101F0CAF91F2DCDE9020155DC1F
S214405790294B6A1E53F822309F424FD002460B4692
S2144057A05046594601F006F802460B468146884662
S2144057B0C4E900234A4643465046594600F0FAFF9D
S2144057C0DDE9022300F0F6FF02460B46002EC4E950
S2144057D0022386DA4A4608F1004301F1004184E894
S2144057E00C00E160A0606D427BE700BFAFF3008035
S2144057F000004054FB21F93F3163621A61B4D03D4A
S2144058000000601A61B4D03D7370032E8A19A33B22
S21440581083C8C96D305FE43FFB21E93F7BD9024036
S214405820FB21F93FFB213941FFFFEF7F000070412C
S214405830D40941000000E03F54094100DDE902235D
S2144058405046594600F0B6FF3F15C1F30A53FB1ABF
S214405850102B81468846C4E90001ABDD58A3D3E946
S2144058600023DDE9040101F059F9804689460246E5
S2144058700B465046594600F09DFFCDE906010246CC
S2144058800B465046594600F095FF42464B4600F0C0
S21440589091FF4DA3D3E9002380468946DDE9040104
S2144058A001F03CF942464B4600F084FF02460B4668
S2144058B0CDE90201DDE9060100F07CFF0B46024619
S2144058C08846C1F30A517F1A312F8146C4E9002326
