S0140000494D555F4672656552544F532E73726563FC
S214400000384E00206D3340006B3340006B33400069
S2144000106B3340006B3340006B3340000000000001
S214400020000000000000000000000000AD35400069
S2144000306B3340000000000025364000613640002B
S2144000406B3340006B3340006B3340006B334000F3
S2144000506B3340006B3340006B3340006B334000E3
S21440006089234000952340006B3340001130400008
S21440007021304000313040006B3340006B3340004D
S2144000806B3340006B3340006B334000711E4000C2
S2144000907D1E4000691040006B3340006B334000CB
S2144000A06B3340006B3340006B3340006B33400093
S2144000B06B3340006B3340006B3340006B33400083
S2144000C06B33400010B5054C237833B9044B13B15D
S2144000D00448AFF300800123237010BDF8090020C8
S2144000E000000000501A4100084B10B51BB10849EB
S2144000F00848AFF300800848036803B910BD074BB3
S214400100002BFBD0BDE81040184700BF00000000A1
S214400110FC090020501A4100501A4100000000001F
S21440012010B5094B411E1C6811F8012F52B1A31897
S2144001305B7803F0040303F0FF00002BF4D12E2A73
S214400140F2D000E0012010BD540100201FB50DF193
S214400150100E0EE90F000348034B05B05DF804EBA4
S214400160184700BF84064100750F40002DE9F04156
S2144001700746084C084EDFF82480256AB54205D06D
S21440018021463846C04724340028F6D12846BDE8E4
S214400190F08100BF200441004D014000C985400069
S2144001A00146014B01481847750F4000960641002E
S2144001B02DE9FF4700230293682300258DF80C3075
S2144001C03B212F4B80468DF804509847002844D05A
S2144001D02C4940462C4EB0472B4604462B4FDFF862
S2144001E0C890002C3DD003F1010A032B2CD8DFE841
S2144001F003F0020710182046254B9847054626E090
S2144002002046C847E8B12046224B98478DF8040060
S2144002101DE02046C847A0B120461F4B9847029095
S21440022015E02046C84760B120461A4B9847C0B2F2
S214400230012801D1692301E048B968238DF80C30C4
S21440024005E02146154801E021461548B8470D49C6
S2144002500020B04753460446C3E740460C4B9847F9
S21440026005463DB104AB43F8105D0FCBA84704B03C
S214400270BDE8F08740460B4B04B0BDE8F047184752
S214400280F9844000AC064100C19D4000750F400017
S2144002906D014000A180400099804000AE064100BC
S2144002A0C1064100A10140002101400070B5002276
S2144002B00023084E04460D46B04750B10022064B78
S2144002C020462946054EB04718B1054B0120C3E9E4
S2144002D0004570BD997940000000F03F85794000A8
S2144002E0C8000020014BD3E900017047C800002039
S2144002F07FB5044B694698476846034B984707B016
S2144003005DF804FB310A4000E10940002DE9F3475F
S214400310164B0546084690469847154B154CD3E96C
S2144003200067CDE90001D8E90423DDE90A01A047CA
S214400330D5E90023DFF848A0D04732463B46A047E1
S2144003403246804689463B460B4E00200B49B04716
S214400350DDE90023A04702460B4640464946D047C3
S214400360C5E9000102B0BDE8F08700BFE1094000E2
S214400370C80000208D744000257140000000F03F0A
S2144003802971400030B5164BD0E90045C3E9004519
S214400390D0E90245134BC3E90045D0E90445124B6A
S2144003A0C3E90045D0E90645104BC3E90045D0E90E
S2144003B008450F4BC3E90045D0E90A450D4BC3E954
S2144003C00045D0E90E45C3E90445D0E90C4500F1A7
S2144003D04001D1E90001C3E90245C3E9060130BD49
S2144003E0580A0020400A0020380A0020500A002000
S2144003F0480A0020180A00202DE9F04F634B93B0BE
S214400400DFF8ACA10F900C46D3E90001CDE9060118
S2144004101046D047804689462046D047DDE9062329
S2144004205B4CA0475B4D42464B46A8475A4B5B4FFA
S214400430D3E90023B8475A4ECDE90A01D6E9062348
S21440044040464946CDE90423A847D6E90223CDE9EC
S2144004500223D6E90423CDE90C01CDE90823DDE9E2
S2144004600223A047DDE90823A0474E4BDFF844B1FE
S214400470D3E90023B84742464B46A847D6E900236F
S214400480B847DDE90C23CDE90001DDE90201A047CC
S214400490DDE90C23CDE90201DDE90801A047424B26
S2144004A0CDE90801D3E9002340464946A847DDE99F
S2144004B00423B8473D4BCDE91001D3E90023DDE9DD
S2144004C00001B8478046894602460B46DDE90001F2
S2144004D0D84742464B46CDE90401DDE90801D847F6
S2144004E080460F988946D047DDE90A23A047CDE9E4
S2144004F00C0102460B46DDE90401A847DDE90A2364
S214400500B84782468B46244B4046C3E900ABDDE9FC
S2144005100C234946A847DDE90623B8471B4BC3E9E9
S2144005200001DDE90423DDE90001A84702460B4649
S214400530DDE90001A047DDE90423C6E90001DDE965
S2144005400201A84702460B46DDE90201A0474246A3
S214400550C6E90201DDE900014B46A84702460B46C4
S214400560DDE90801A0474246C6E90401DDE902018B
S2144005704B46A84702460B46DDE91001A047C6E9B0
S21440058006015046594613B0BDE8F08F480A002091
S214400590257140008D744000500A002029714000AB
S2144005A0180A0020580A0020400A0020380A002076
S2144005B0E5734000E17640000B2822D1B1F5003FBC
S2144005C00FD0B1F5802F17D0B1F5803F19D10D4B24
S2144005D01B681BB10C4A1368013311E001220B4B18
S2144005E008E00A4B1B681BB1074A1368013B07E04B
S2144005F0044B01221A607047024A00231360034AE4
S2144006001360704764450020684500206C45002014
S214400610034A00231360034A1360034A136070477B
S214400620684500206C45002064450020000000001E
S2144006302DE9F843904699460D4C0E4F0E4E0F4D01
S21440064010B100220E4B02E007A3D3E90023404638
S2144006504946B84700220B4BB047A8472060BDE844
S214400660F88300BFAFF30080182D4454FB21194097
S21440067068450020E17640008D744000C179400016
S214400680008076400000904010B50D4A0D4B0E4C51
S21440069038B11068984700220C4BA04700220C4BFC
S2144006A007E0106898470022084BA04702A3D3E90A
S2144006B00023A04710BD00BF182D4454FB2119400D
S2144006C068450020C17340008D7440000000503FD4
S2144006D0008076402DE9F743254CDFF8A890254F5B
S2144006E0204600224FF48031C847DFF89C802046E1
S2144006F001224FF48031C0471F4E70234FF48032A2
S21440070000970B212046B0471C4D20464FF48031C1
S214400710A847204600224FF40031C8472046012211
S2144007204FF40031C04770234FF4003200970B213E
S2144007302046B04720464FF40031A84720460022C6
S2144007404FF48021C847204601224FF48021C047FD
S21440075050234FF4802200970B212046B0474FF499
S21440076080212046A847064B03B0BDE8F043184713
S214400770000E0E40B9054000D12F4000A32D40008A
S21440078011064000452D4000952D400013B5054B01
S21440079004228DE80C0000231A460349034CA04768
S2144007A002B010BDDF0C6765D60641006D84400080
S2144007B0F0B504460E4617461D4687B01422002163
S2144007C001A80A4B98470A48012302938DF8144023
S2144007D000234FF0FF3201A9064C00688DF80470E4
S2144007E003960495A04707B0F0BD00BF7182400055
S2144007F070450020C11C400070B505460E4686B0C8
S21440080000242146142201A80B4B8DF8034098473C
S2144008100A4801230DF103020293039204934FF01A
S214400820FF32234601A9064C00688DF804608DF817
S2144008301450A04706B070BD71824000704500203D
S214400840591B400038B519210E4C0546A047B8B98B
S2144008501A212846A04798B91B212846A04778B9B0
S2144008601C212846A04758B938212846A04738B901
S2144008706A212846A04718B96B212846A04700B1F0
S214400880C0B238BDF907400070B50E4B04460E4660
S21440089010460D491546984790B10C4928460C4BD2
S2144008A0984768B1682C14BF03240024094B34448D
S2144008B003EBC4042846084B9847C4E900010120CE
S2144008C070BD00BF458040000000FAC40000FA44F6
S2144008D00980400000010020E5734000682814BFEE
S2144008E00320002008B5044B014403EBC101D1E9C5
S2144008F00001024B984708BD00010020117A4000D5
S21440090070B50E4B04460E4610460D4915469847A0
S21440091090B10C4928460C4B984768B1682C14BFD8
S21440092003240024094B344403EBC4042846084BF4
S2144009309847C4E90001012070BD00BF45804000D3
S2144009400000FAC40000FA4409804000D0000020AD
S214400950E5734000682814BF0320002008B5044B08
S214400960014403EBC101D1E90001024B984708BDA1
S214400970D0000020117A40002DE9F04712A3D3E9B9
S21440098000230D46074603C8114EB047114C024699
S2144009900B46D5E90001A0470BA3D3E900238146C7
S2144009A001F10048D7E90201B04702460B46D5E9B7
S2144009B00201A047084C0B46024641464846A0471F
S2144009C0BDE8F047054B18478C2EBAE8A28B064088
S2144009D08D74400025714000E1764000615B400028
S2144009E010B50B4CD0E9002300F10801D1E9000115
S2144009F0A047084B984704A3D3E90023064CA047DA
S214400A0010BD00BFAFF30080F8C1631ADCA54C40B0
S214400A10E1764000A55E40008D74400008B5002198
S214400A20014B984708BD00BFF90740000000000092
S214400A302DE9F34700230093ADF804302C4B0022F9
S214400A40C1E90023C1E90223C1E90423294B054635
S214400A500C469847002843D106233B226946284641
S214400A60254EB04700283BD10646B5F16803234AD9
S214400A7018BF0123182505FB0325214FDFF8848086
S214400A80DFF88490DFF884A0083D0DEB06031DF8E0
S214400A9006205B7843EA02231BB2002B98B208DBA1
S214400AA0B847C04710A3D3E90023C847C4E90001AC
S214400AB00CE04042C0F30E00B847C0470AA3D3E953
S214400AC00023C84701F1004120606160F5E9022338
S214400AD0D4E90001D0470236062EE4E80201D4D11C
S214400AE002B0BDE8F08700BFFCA9F1D24D623040AD
S214400AF00040CFC01D0A4000B10740000001002062
S214400B001D7C4000E5734000E176400029714000BE
S214400B102DE9F34700230093ADF80430264B00221E
S214400B20C1E90023C1E90223C1E90423234B05465A
S214400B300C46984700283CD106234322694628465F
S214400B401F4EB047002834D10646B5F168031D4A0B
S214400B5018BF0123182505FB03251B4FDFF87080BF
S214400B60DFF87090DFF870A0083D0DEB06031DF827
S214400B7006205B7843EA02231BB2002B98B203DBC5
S214400B80B8471249C04707E04042C0F30E00B84796
S214400B900E49C04700F10040C847C4E90001F5E9E6
S214400BA00223D4E90001D0470236062EE4E80201CB
S214400BB0DBD102B0BDE8F0870040CFC01D0A400040
S214400BC0B1074000D00000201D7C400000000343D9
S214400BD0357E4000E573400029714000F8B50A4B69
S214400BE007460E4615469847044658B93080B070BA
S214400BF031462880A870054B3846984729463846DF
S214400C00034B98472046F8BD1D0A4000310A400075
S214400C10110B4000000000002DE9F04F0446A1B043
S214400C204B4D0E4617460021182202A8A847182208
S214400C30002108A8A847182200210EA8A847182275
S214400C40002114A8A847182200211AA8A847204621
S214400C50404B98470090002870D11FB93AA3D3E97B
S214400C60002301E03C4B002220A901EBC60646E9E2
S214400C700623B4F1680318BF01230193019A182391
S214400C80534336493648A3F1080210338D180B44B7
S214400C90024400210020E5E902019D42E2E902010A
S214400CA0F9D1DFF8D490642502A920462D4B984709
S214400CB008A920462C4B9847EB460DF1380814AF50
S214400CC00DF1180A0326FBE90223D8E90001C847BC
S214400CD0FAE90223E8E80201D7E90001C847013EE5
S214400CE0E7E80201EFD16420204B9847013DDBD175
S214400CF0019B18245C43194DA4F10803184C1C4F63
S214400D00DFF878B00DF1300A0DF160091D440DF1A1
S214400D1048081C4403260022164BFAE90201B8474D
S214400D20F9E90223D8470022E5E90201F8E9020181
S214400D30104BB847013EE4E90201ECD1009821B0DF
S214400D40BDE8F08FAFF300800000000000408FC089
S214400D50718240001D0A400000408F400001002084
S214400D60D0000020310A4000110B4000594440009A
S214400D70E17640000000594029714000257140004E
S214400D8030B5204B85B00FCB8DE80F001E4B694623
S214400D901E4898471E4B186018B91E4B984700BF10
S214400DA0FDE71D4A1D4919481D4B984710F0FF0F97
S214400DB005D01C481C4B98474FF0FF3020E01B4C9A
S214400DC06820A047254640B96820194B984744B24A
S214400DD044B1154B1748984704E01748124B9847BC
S214400DE04FF0FF346920A84730B96920104B984728
S214400DF044B224B1114800E011480B4B98472046B6
S214400E0005B030BDE4064100411A40000080014074
S214400E1070450020DD354000006CDC02801A06007C
S214400E2065324000F4064100750F40001D0A400040
S214400E3045084000040741001D07410031074100B6
S214400E404B07410037B500230193164B0C4698429A
S214400E5006D1154D21461348A8470028FAD11EE072
S214400E60124B984206D1104D21461048A8470028FC
S214400E70FAD114E00E4B984206D10E4D01A90C480B
S214400E80A8470028FAD108E00B4B984207D1094DF5
S214400E9001A90948A8470028FAD1019B237003B04E
S214400EA030BD00BF00060E403333400000080E4001
S214400EB000400240553340000080024038B5164B93
S214400EC00C46984207D1154D21461348A84700289E
S214400ED0FAD1012038BD124B984206D10F4D21461B
S214400EE00F48A8470028FAD1F3E70E4B984206D1A0
S214400EF00D4D21460B48A8470028FAD1E9E70B4B91
S214400F00984206D1084D21460848A8470028FAD1FD
S214400F10DFE7002038BD00BF00060E402533400006
S214400F2000080E400040024043334000008002402C
S214400F3013B50A460023014604480093044C4FF07C
S214400F40FF330068A04702B010BD00BFA845002090
S214400F50DD21400010B40A46044C01460448A4462D
S214400F604FF0FF33006810BC604700BF5D22400072
S214400F70A84500200FB473B50D4B06AC40F20440B4
S214400F8054F8046B9847224601943146094B05466F
S214400F909847094B0146284698470446074B28463B
S214400FA09847204602B0BDE8704004B0704700BF86
S214400FB021374000D1C54000310F4000E5374000A2
S214400FC070B51B4B88B004931A4B1B4C1B681B4ACE
S214400FD005930A23069301238DF81C3003238DF8CE
S214400FE01D30174B174E01934FF4E13302934FF4E5
S214400FF000630393144B00211C60144B144D1A607D
S214401000144A154B1A6033689868A847336800211D
S2144010105868A847114B04AA01A920469847104B88
S214401020186018B90F4B984700BFFDE708B070BD71
S214401030744500203001002000060E40BD0E4000E2
S214401040006CDC0280050020C8450020C445002016
S2144010500D834000450E4000C04500203120400032
S214401060A8450020DD354000004B18474D2840007D
S21440107010B50C4CDC210022B0206FF07F4384E892
S2144010800F00094B98472046084B98470820084BC6
S2144010909847084B9847BDE810404FF6FF70064B00
S2144010A0184700BFB0450020DD2640000529400017
S2144010B08526400065284000C92A40002DE9F04FAB
S2144010C0444BA1B09847444D0020A847434C444A5F
S2144010D00A210520A047DFF828814FF4FA70414BDB
S2144010E09847414E1822002104A8B047DFF814A1C3
S2144010F0DFF814B1002704A95AF8270001234FF05F
S214401100FF3201EBC701D8470128DFF8FC9001D039
S2144011100020C0470137032FEDD1182200210AA82E
S214401120B047DFF8E8A000270AA95AF827000123AD
S2144011304FF0FF3201EBC701C847012801D000201D
S214401140C0470137032FEFD11822002110A8274FA0
S214401150B047002610A957F8260001234FF0FF326B
S21440116001EBC601C847012801D00020C047013620
S214401170032EEFD16FF07F40A8471D4EDC23B022F0
S2144011801E210020B0470020A847DDE91423194E51
S214401190CDE90223DDE906231749CDE90023DDE941
S2144011A0042316A8B04716AA1E210520A047DDE94D
S2144011B00E231249CDE90223DDE90C2316A8CDE91A
S2144011C00023DDE90A23B04716AA6E210520A04772
S2144011D083E700BF7110400081284000D52B4000B7
S2144011E0600741005944400071824000E0450020BD
S2144011F0312B40006D8440006D0741009D07410043
S2144012006D40400020460020293C4000D445002048
S21440121010B52E20054B9847054B01221A70054BFA
S214401220BDE810401868044B184700BF0D26400024
S214401230600A0020AC450020294140007FB504AC40
S21440124004E90F009DF8043013B3012B31D1029C02
S21440125000212046184B9847184E194D88B1194919
S214401260194B20469847194B9847194B1860194B0D
S2144012709847194B13499847B04702460B461748BC
S21440128004E02046B0470B460246154829460CE087
S2144012900F4B18680F4B98470A490F4B9847074B18
S2144012A0984702460B460D48054904B0BDE87040D5
S2144012B0084704B070BD00BF45804000E57340005D
S2144012C0750F400000007A44CD7C400059804000B5
S2144012D0340100201D7C4000357E4000E807410078
S2144012E00008410010B586B006AC04E90F000C4C6F
S2144012F023689BB10B4B18680B4B98472E200B4B23
S21440130098474FF0FF330A48009322680023022193
S2144013100068084CA047084B02221A7006B010BD61
S21440132034010020AC45002081464000492640005C
S2144013304C450020094B4000600A00202DE9F0474C
S214401340594CB2B0594D4FF0000ADFF87C81584EE8
S21440135098F80030574F012B09D100234FF0FF3249
S21440136019463068B847544888F800A0A847002374
S21440137019464FF0FF323068B847504E18220021C9
S21440138020A8B047DFF844914FF0000820A959F84C
S214401390280001234FF0FF3201EBC801B84701286F
S2144013A001D01920A04708F10108B8F1030FEDD18C
S2144013B01822002126A8B047DFF814914FF0000805
S2144013C026A959F8280001234FF0FF3201EBC80147
S2144013D0B847012801D01920A04708F10108B8F104
S2144013E0030FEDD1182200212CA8DFF8E880B04783
S2144013F000262CA958F8260001234FF0FF3201EBB7
S214401400C601B847012801D01920A0470136032E4F
S214401410EFD1DDE92023DDE92867DDE92A890120CF
S2144014202749CDE91E23DDE92223CDE91223DDE954
S2144014302423CDE91423DDE92C23CDE91623DDE969
S2144014402E23CDE91823DDE93023CDE91A23DDE943
S2144014502623CDE91C238847DDE91C23CDE910016E
S214401460CDE90A23DDE91A23CDE90E89CDE9082323
S214401470DDE91823CDE90C67CDE90623DDE916231F
S2144014801048CDE90423DDE91423CDE90223DDE944
S2144014901223CDE90023DDE91E23A84700283FF4A8
S2144014A054AF1920A0474DE7152E4000750F400059
S2144014B050450020293C40001908410071824000F8
S2144014C08906400020084100600A0020204600208F
S2144014D0D4450020E045002070B590B0322200216F
S2144014E003A8174DA847174B174C009300231A46DE
S2144014F04FF47A711548A047154B164E18600024D5
S21440150001210DF10B00B0470128F9D19DF80B20C1
S2144015100D2A09D1104B03A898473222002103A870
S214401520A84700231C46EBE710A9631C0C4404F8AC
S214401530342C0A4600211A4402F8341CF2E700BF55
S2144015407182400011124000B94A40005F084100D5
S2144015504C450020550F4000B101400070B50F4883
S2144015600F4CA0473E2100200E4B98470E4DA847F3
S2144015700028FCD00D4B98470D4A0E4B0E4D9A62F4
S214401580A8470028FCD00D4B102098470C4B984796
S2144015902346BDE870400148184700BF006CDC0297
S2144015A08900002085304000D5304000E5304000BE
S2144015B0013F072000040E40F53040004130400017
S2144015C0ED33400010B500238B4207D01C01045970
S2144015D0944201D1194601E00133F5E7084610BDB3
S2144015E00B4610B55C1AA24205DD13F8014B844247
S2144015F0F8D1012010BD002010BD00002DE9F041BB
S2144016001446C20706460D4608D50120234B984788
S214401610686018B9224B984700BFFDE706F0040300
S21440162003F0FF02BBB10322002101201D4B984767
S214401630286020B100231A4619461B4FB847286831
S21440164018B9174B984700BFFDE700231A461946BE
S214401650164DA84700E02A6033071AD5CCB10322BE
S214401660002101200F4B9847206020B100231A46E6
S21440167019460D4DA847206818B9094B984700BF32
S214401680FDE70A4C0023A446BDE8F0411A46194639
S214401690604700232360BDE8F08100BF4D3B40001B
S2144016A0DD354000B13940002D3A4000293C40002D
S2144016B00F2910B503D9174B984700BFFDE70929F6
S2144016C003D8144B984700BFFDE7C4B204F01F028E
S2144016D0012303FA02F2430900284FEA83034FEA44
S2144016E00111A8BF00F1604003F16043B8BF0A484B
S2144016F003F56143B9BF04F00F04C9B2C9B200F59F
S2144017006140C3F88021B4BF015580F800131A60C9
S21440171010BD00BFDD35400014ED00E02DE9F0417E
S214401720856904468D4217461E4602D1C36823B9D2
S21440173000E000D36168491B00E00021B14208D3B5
S21440174008D000231A4619462069DFF84080C04773
S21440175000E00E4638460A4B3246A1699847636811
S21440176035449D42074F084B03D398472368A361EF
S21440177001E09847A561B8473046BDE8F08100BF14
S214401780858140000D364000ED3540002D3A400042
S21440179037B5436805460C460BB9002014E068464A
S2144017A00A4B98470023686822681946084DA847A0
S2144017B040B121466846074B98470128EDD10020A6
S2144017C0206001E06FF0020003B030BD35484000B5
S2144017D0293C40005D4840002DE9F3411C46089BEB
S2144017E00F4615469DF8246003B10360006828B193
S2144017F000231A461946DFF85480C04701950097E3
S2144018000E4B0F4D5EB14FF4007120469847694627
S214401810002220460B4B98474FF4807108E0022187
S21440182020469847694632462046074B984701214E
S2144018302046A84702B0BDE8F08100BFB92C400062
S214401840AD2C4000812C4000972C4000293C4000A5
S21440185010B50B4609B1002010BD00680028FAD02C
S214401860034CA0470128F6D06FF0020010BD00BF21
S214401870293C40002DE9F04FDFF8C0A14FEA00199F
S2144018805AF8094085B0644B064600252046039525
S2144018909847624B07462046984707EA000313F4EA
S2144018A000580AEB090B01933DD04FF40071DBF86A
S2144018B004005B4B98474FF400512046594B9847DD
S2144018C0236A5F0705D40135681CF9D14FF001083B
S2144018D001E04FF00008544A02232360F300D0187A
S2144018E052F8361042680A4412F8012C6263226AA3
S2144018F0D10704D401356A1CF9D14FF001084B4A90
S21440190013445868934620B1002303AA1946484F0B
S214401910B847013507D05BF8360020B1002303AA4C
S2144019201946434DA847019BDB0447D50AEB0903FC
S214401930586802213A4B98474FF480512046394B1D
S21440194098470025236A9F0702D40135681CF9D1C1
S214401950022335492360F30051F8360019444A689B
S214401960216B024402F8021C216A890703D4013520
S2144019706F1CF9D10DE0681C0BD0216B002502F8D6
S214401980011C226AD10704D401356A1CF9D14FF0F4
S2144019900108264A1344586828B1002303AA19466A
S2144019A0DFF88CB0D847013508D0224B53F83600C4
S2144019B020B1002303AA19461D4DA847019B13F4E6
S2144019C0507F02D1B8F1000F1ED0D14440F2022120
S2144019D0D9F80400124B9847019B4FF40051DB05A1
S2144019E05CBF0223236020460E4DA84720464FF496
S2144019F08051A8470D4B03EBC606706820B1002304
S214401A0003AA19460A4CA047039B0BB10A4B9847BA
S214401A1005B0BDE8F08F00BFAB324000AF324000AB
S214401A20B92C4000A53240006C0A0020740A002001
S214401A30AD3B4000640A0020CD35400068084100B8
S214401A402DE9F347344D02AE032306F8043D024623
S214401A508846324B012107462846984704460122CD
S214401A60314698F80C002E4B9847002C4CDC00284A
S214401A704CD02C4BE60003EB060A08222A49504677
S214401A80DFF8D090C84718B1284B984700BFFDE70D
S214401A90274B08221E4424493046C84718B1234BDA
S214401AA0984700BFFDE7240105EB0409D9F8080074
S214401AB0204B9847D9F8040040F202211E4B984725
S214401AC055F804904FF0FF3148461C4B98471C4B46
S214401AD04846984798F80C30032B02D14846194B95
S214401AE098473246514698F80D00174B98472C4475
S214401AF048464FF45071154B9847D8F8081094F95B
S214401B000C00134B984702E0002700E00746384693
S214401B1002B0BDE8F08700BF68084100C515400028
S214401B20E1154000740A002078084100DD35400089
S214401B30640A002005314000B92C4000A532400020
S214401B40B932400055324000FD154000A1324000F9
S214401B50B1164000218140002DE9F04F85B0039238
S214401B60064602460D469A4601214B484B4B98473F
S214401B70B0F1000B00F38880EB68002B00F0848007
S214401B80DFF838814FEACB0708EB070903A9484638
S214401B90434B98470446002879D170602B7C1B0441
S214401BA003F4FE026B681B0203F440731343736036
S214401BB06A685AB1012A2B7809D92B88022A5BBA5F
S214401BC09BB204D0AA7842EA032300E00346F360BF
S214401BD0EA683148012A4FEA0B133AD150F803908D
S214401BE04FF450712F4B48469847AB681B78736349
S214401BF00023326AD1050ED54FF4507148462A4B21
S214401C009847474400231A4619467868274CA04709
S214401C106FF009003CE0550704D40133581CE8D166
S214401C206FF0020402223260326AD20704D40133D3
S214401C30591CF9D16FF0020448464FF450711A4BC4
S214401C409847474400231A4619467868174DA847D0
S214401C501DE0174CA96827440344012044F83B1074
S214401C607A605B680190013A4846CDF800A0114C76
S214401C70A04730464FF400510B4B9847039A5146C5
S214401C8048460D4B984703E06FF0070000E02046BB
S214401C9005B0BDE8F08F00BF68084100C51540009C
S214401CA091174000A5324000A13240002D3A400036
S214401CB06C0A0020D917400051184000740A0020D2
S214401CC02DE9FF47054603920E46024699460121F6
S214401CD05B485C4B9847B0F1000A00F3AA80F36873
S214401CE0002B00F0A680DFF884814FEACA0703A9DC
S214401CF008EB0700544B98470446002840F09C8069
S214401D00524B284698476C6073681B0203F4407336
S214401D1043F48052337C1B0403F4FE0313436B608E
S214401D2072685AB1012A337809D93388022A5BBAD5
S214401D309BB204D0B27842EA032300E02346EB602D
S214401D40F268DFF8FCE0022A4FEA0A1352D85EF83F
S214401D5003904FF4507148463D4B9847F368B0683F
S214401D60012B06D103222A601A4600214FF0020EAC
S214401D700CE001222A600022F7E7012B1AD0B607B2
S214401D801DD5296B013B017001300021E3B12E6A5D
S214401D9016F4807FF1D04FF4507148462D4B98474B
S214401DA0474400231A46194678682B4CA0476FF0E4
S214401DB0090042E00AB9C5F800E01A46DFE70131FB
S214401DC04E1CE3D16FF002044FF0FF332A6AD2076D
S214401DD003D4013BFAD16FF0020448464FF45071E9
S214401DE01C4B9847474400231A46194678681A4DB4
S214401DF0A84721E0B1681948734440F83A1038447F
S214401E0042601748023A074400200190CDF80090FF
S214401E1038465B68134CA04701232B6028464FF496
S214401E2080510C4B9847039A494638460E4B984784
S214401E3003E06FF0070000E0204604B0BDE8F087FE
S214401E4068084100C515400091174000B332400075
S214401E50A5324000A13240002D3A40006C0A0020D6
S214401E60640A0020D917400051184000740A002028
S214401E700020014B184700BF751840000120014B59
S214401E80184700BF7518400070B51B4C1C2303FB59
S214401E9000439D699A68954201D121B905E002D96F
S214401EA0AD1ADD6002E05968891AD9601C214143A9
S214401EB06318DE685B6832449A4203D90F4B9847F2
S214401EC000BFFDE70E4D040186B12B195E680A4B34
S214401ED008311944002230460A4B984701213046C3
S214401EE0094B984709212859084B02E02859084BC6
S214401EF00921BDE8704018477C0A0020DD354000C7
S214401F0080084100972C4000AD2C40000D33400027
S214401F10113340002DE9F3413A4A0301D7580446AD
S214401F20394B4FF000083846CDF804809847374B79
S214401F300546384698470540EA0617D53846344B96
S214401F4010219847334B03EBC40250681E4628B115
S214401F504346414601AADFF8C080C04756F83400E1
S214401F6020B1002301AA19462B4EB0472B0726D591
S214401F701C226243294EB318996919B9284B9847D1
S214401F8000BFFDE7012903D1254B984700BFFDE779
S214401F909868D968014458689960814228BFB25809
S214401FA0204628BF9A6000211E4B98471C2303FBFF
S214401FB00466306978B1002301AA194609E055B98C
S214401FC0164A1C2303FB04231869A0B12B46294656
S214401FD001AA114EB04715F0E00F0CD03846124B10
S214401FE098470C4B03EBC404606820B1002301AA59
S214401FF01946094CA047019B0BB10C4B984702B0C1
S214402000BDE8F08180084100193340001533400098
S21440201011334000980A0020AD3B40007C0A002067
S214402020DD354000891E40001D334000CD35400060
S2144020302DE9F04FDFF8A08185B04FF00109174633
S21440204004AD0246504B06468B464046494605F888
S214402050049D984704464A462946387B4B4B98474A
S214402060002C00F38980002800F08880484D1C230F
S21440207003FB04539B691BB1464B984700BFFDE7E3
S2144020803046454B98474FEA04193046434B9847ED
S21440209008EB0903D3F804A040F202215046404A18
S2144020A001939047019B98683E4B98473B7B012B9A
S2144020B003D1594630463C4B98474FF0FF313046A7
S2144020C03A4B98473A493B4B002201EBC401787B98
S2144020D098473B68002B37D0374B00214FF0FF30F6
S2144020E098471C235C432544DFF8A4B0286118B900
S2144020F0284B984700BFFDE73B6804F10801AB60FA
S2144021007B680022EB6059442C4B504698473B680E
S214402110AB61AB684BF804307A6813446B607B7BEA
S2144021209B0708D50120264B9847686118B9194B7C
S214402130984700BFFDE730460921224B98470121CA
S2144021405046214B984704E01C2303FB04540123CC
S214402150A36108EB0903B96893F90C001B4B984739
S214402160E02158F80900174B98473046184B9847D7
S2144021703046184B984702E0002600E006463046B8
S21440218005B0BDE8F08F00BFC5154000E115400022
S2144021907C0A0020DD354000FB324000073340001B
S2144021A0B92C400005314000C13240001133400098
S2144021B0980A0020FD154000093A4000972C400040
S2144021C04D3B40000D334000AD2C4000B116400062
S2144021D0F532400001334000800841002DE9FF47BA
S2144021E0174D039307468846914601210246154BF4
S2144021F028460C9E9847B0F1000A1CDC124C03A9F6
S21440220004EBCA042046114B9847B0B905EB0A15B3
S21440221001234A46019341466B68204600960C4D82
S214402220A847384610210B4B9847039A314620461C
S214402230094B984701E06FF0070004B0BDE8F0870F
S21440224080084100C5154000980A002091174000BC
S214402250D91740000D334000511840002DE9F04F8B
S21440226087B00191039301213B4B174602463B48FA
S21440227098471C2343433A490546CC18A2698946E9
S2144022801AB9384B984700BFFDE7012A03D1354BB2
S214402290984700BFFDE7002858DC6268CB58D21A42
S2144022A0BA4253D304A8304B98476069DFF8D4A0AD
S2144022B090B10023039A1946D047012846D103A976
S2144022C004A82A4B9847012806D100231A461946E7
S2144022D06069274CA04739E0204E1C2303FB05FBD2
S2144022E006EB051300240293002309EB0B0819465E
S2144022F0039AD8F81000D047029B019A5B682244A4
S214402300196840463B1B1B4EB04724180AD01A4B50
S2144023109847D8F80C301BB901212846174B9847E8
S214402320174B9847A7420AD81C2303FB05956869B4
S21440233068B100231A4619460D4DA84707E003A981
S21440234004A80A4B98470028CED0EDE70024204644
S21440235007B0BDE8F08F00BFC515400080084100BB
S2144023607C0A0020DD354000354840005D4840008E
S2144023702D3A40001D174000ED354000891E4000B4
S2144023800D364000293C40000020014B184700BF56
S214402390151F40000120014B184700BF151F400085
S2144023A010B50446104B9847802323606368204648
S2144023B043F0010363606368002143F010036360E9
S2144023C0636823F080036360084B98476368204641
S2144023D023F0020363606368002123F00403636014
S2144023E0034BBDE8104018472D31400039314000BE
S2144023F04F3140002DE9F04104460D461846154938
S214402400154B16469847074600231A462968204625
S214402410DFF85C80C0472968204608220F4B984763
S214402420FAB2296820460E4B98472968204608226B
S2144024300C4B98477208296820460B4B984706F085
S214402440010229682046BDE8F04182F00102074BB0
S214402450184700BF006CDC020F324000FB314000E2
S21440246025324000BB3140008F314000A53140004E
S2144024703B3240004368096813F0040F07D1032934
S21440248007D8012303FA01F1C943024B18470F2925
S214402490FBD97047393140002DE9F0410E461446CD
S2144024A088B915460A4FDFF82C80611B002D314451
S2144024B005DD3868D8F800309847013DF5E724EA4E
S2144024C0E470BDE8F0814FF0FF30BDE8F08100BF1A
S2144024D0C8450020C0450020013802282DE9F041BB
S2144024E00E4610D80C460B4FDFF82C808D18AC42A9
S2144024F0A4EB06000BD0386814F8011BD8F800305F
S21440250098470028F3DA4FF0FF30BDE8F081BDE889
S214402510F08100BFC8450020C4450020344B4FF42E
S214402520004210B50B205A60324CA0470C20A04702
S2144025300D20A047304C4FF060511720A0474FF079
S21440254060512E20A0474FF060511920A0472B49DC
S2144025500F20A0472A491020A0472A4B4FF0006280
S2144025604FF4C061284898474FF080510020A0475C
S2144025704FF080510820A0474FF000610320A0474D
S2144025804FF000610420A0474FF000610C20A047A8
S2144025904FF000610D20A0474FF000610E20A0478D
S2144025A04FF000611F20A0474FF080511E20A047EB
S2144025B04FF000610C20A0474FF000610D20A0476F
S2144025C04FF000610E20A0474FF080511E20A047DC
S2144025D04FF060511C20A0474FF060511D20A0478F
S2144025E02346BDE810404FF060514D20184700BFCD
S2144025F050140E4005314000392E40007900002826
S21440260059000028ED2E4000000E0E402DE9F04106
S21440261005460A4E0A4FDFF82C800024A359AB42E9
S21440262007D133195B682846012B01D1C04700E02B
S214402630B8470834202CF1D1BDE8F081900841001D
S214402640E12D4000FB2D40002DE9F04105460A4EA5
S2144026500A4FDFF82C800024A359AB4207D1331928
S2144026605B682846012B01D1C04700E0B8470834D4
S214402670202CF1D1BDE8F08190084100FB2D4000B0
S214402680E12D4000F7B5144AC0F111001646102857
S21440269028BF1020002808BF012000234FF4005117
S2144026A0182451630194019D6F1E0197002DFAD1A5
S2144026B031630194019D6F1E0197002DFAD10133BD
S2144026C09842EED14FF400330193019B5A1E01927B
S2144026D0002BFAD103B0F0BD00120E40074B4FF46A
S2144026E000525A6382B04FF400330193019B5A1E46
S2144026F00192002BFAD102B0704700BF00120E4084
S21440270082B0002307490193019A824208D201937E
S214402710019A8A42019A02F101020192F8D9F3E73E
S21440272002B070479F86010030B50468AF2C84BF66
S214402730AF2404601468AF2C84BFAF2414600C68C8
S214402740DB2C84BFDB240C601C68DB2C84BFDB24C2
S2144027501C6004681568AC4284BF056014600A6853
S2144027601868824284BF08601A6030BD70B506465D
S2144027700C4C0022022120460B4DA8470123236023
S2144027801C200A4B98473146002302222046084E1A
S214402790B0470221216020462B46BDE8704080228B
S2144027A0184700BF00800040FB314000FB2D400032
S2144027B06131400038B50546074C012323601C2094
S2144027C0064B98470023294602222046044DA84738
S2144027D00223236038BD00BF00800040E12D40004A
S2144027E06131400010B50C46034B98472046BDE883
S2144027F01040024B184700BF6D274000B5274000E9
S21440280073B50F4B01221A6005460E4B1C200C4632
S2144028100D4E984700230193019BA3420AD201998B
S2144028200023022235F811100548B047019B0133BA
S2144028300193F1E7024B02221A6002B070BD00BF5E
S21440284000800040E12D400061314000034BDA69D2
S2144028509A61034B01221A70704700BF0080004007
S214402860000C002041F217010720014B184700BF1B
S214402870E527400000210720004B1847E527400089
S214402880030A23F4FF6323F00702430903F4FC63BF
S2144028901343C0F3C4001843044A80B2002322F80E
S2144028A013000133B02BFAD1704700BFA00A0020B6
S2144028B02DE9F0411C460E4687B2013AB918094D3B
S2144028C0C9B23620A847B6B2F9B23720013CA8476D
S2144028D03119C9B23820A847F1B22B46BDE8F041BD
S2144028E039201847E527400070B50D46044CC1B264
S2144028F02020A047E9B22346BDE870402120184773
S214402900E52740002DE9FF474FF0020804AF814617
S2144029105F4C1D2047F8048D5E4EA0474046B047AA
S2144029205D4B1D2098471420B0471D20A0475B4CA8
S2144029303220B0478023C4F8008023604FF0807375
S2144029402360574B00254FF40012C3F880202046E2
S214402950C3F8802183F815531A60524B9847DFF826
S21440296064A12A463946204600954F4BD047394603
S214402970204601274D4B98474D4B27606761984747
S2144029804C4C38464FF48E71A04740464FF4807109
S214402990A04741F230010320A04740F60801082036
S2144029A0A04739460C20A04740F601210F20A047FB
S2144029B0B0212020A047DC212120A0474FF42061F1
S2144029C01020A04741F238011120A0473220B047DE
S2144029D041F221111220A0474E211320A04746F273
S2144029E06F711420A04729463020A047DB213120B4
S2144029F0A04729463220A04729463320A047DB215E
S214402A003420A04729463520A047B0213620A0478D
S214402A1029463720A047DC213820A04729463920C0
S214402A20A04729465020A04740F20A615120A047BF
S214402A3040F60A515220A04740F203315320A047A7
S214402A4040F60D215420A04740F606215520A047C9
S214402A5029465620A04740F203315720A047294632
S214402A605820A04729465920A04799E80C002946F7
S214402A702846114CA047D9F80800104B98472846DE
S214402A8029460F4B9847284604B0BDE8F08700BF5C
S214402A90E12D400001274000FB2D40000080004013
S214402AA000E100E0A123400020BCBE0075244000A9
S214402AB075284000E5274000B128400081284000A6
S214402AC0E9284000F5234000002170B5074B064634
S214402AD0084698472220064B984749F24074054DD1
S214402AE03046A847013CFBD170BD00BFE9284000F6
S214402AF06D274000B5274000AF2808B50ED8DB2923
S214402B000CD889B280B2064B98472220054B98478E
S214402B10054B1888054B9847002008BD012008BD86
S214402B20E92840006D274000A00A0020B527400055
S214402B30F0B585B0019204AA42F8103D13460390C2
S214402B40029101AA02A903A81C4CA047009B019A27
S214402B500398029901330132121A5B1A184EB04795
S214402B60BDF80810BDF80C00164B9847164B2220AF
S214402B709847039C019BB025191B009B029C013380
S214402B801C1B01FB0444B4FBF5F5104F013D6B1CC8
S214402B904FF0B00102D00E48B847F7E7B4FBF1F368
S214402BA001FB134111B10A48084B98470021DC232A
S214402BB0B0220846B04705B0F0BD00BF2927400008
S214402BC0B1284000E92840006D2740000128400019
S214402BD0A00A00202DE9F04F80468B460446DFF8D9
S214402BE09C9085B0571E17F8013F002B40D00A2B0B
S214402BF003D10BF1100B4446F5E725466FF0010272
S214402C006243142101FB032304F10A0A0193019B4A
S214402C1003EB4506184B1E44A6F520720023117898
S214402C20C3F107000141C80707D50BEB030128464F
S214402C3003920293C847039A029B0133082BEED1B6
S214402C40A6F27F2607230BF10F0231781941C907F8
S214402C5006D5D11A284603930292C847039B029A88
S214402C60013B012BF1D101355545D0D10C34BAE7A3
S214402C7005B0BDE8F08F00BFB0084100F92A40001B
S214402C8019B10B6883604B68C3601AB113688361DF
S214402C905368C361704719B10B6803604B68436063
S214402CA01AB11368036153684361704721F0FE010F
S214402CB0C905C90D0162704721F4FE7121F001017A
S214402CC08905890D01627047B1F1C05F10B5426455
S214402CD02DD007D8B1F1006F15D0B1F1805F1DD06F
S214402CE071BB10BDB1F1205F2BD005D8B1F1005FAC
S214402CF026D1036F13431FE0B1F1405F21D0B1F1FD
S214402D00605F1ED01CE0D343046F016F2140194022
S214402D100167446F416F21400B4010E0036F13433F
S214402D200367416F436F0B4023EA020307E0016FDE
S214402D30036F0B4023EA02030367436F1343436763
S214402D40426010BDD30741644CBF4166016612F035
S214402D500A0F14BF01624162930702D5C0F8801083
S214402D6003E0130748BFC0F8841041610160704714
S214402D7010B5029C41640CB1416600E001660BB19F
S214402D80016500E041650AB1016300E0416301610D
S214402D90016010BD12B1C0F894107047C0F8901092
S214402DA07047C36C01647047C06C7047806C704756
S214402DB0D3060ED59306C0F8B0104CBFC0F8D4105A
S214402DC0C0F8D01053064CBFC0F8C010C0F8C410AE
S214402DD07047C0F8B4107047004B1847B12D4000FC
S214402DE0430903F5001303F2077300F01F000122A6
S214402DF05B0202FA00F018637047430903F50013BC
S214402E0003F2077300F01F0001225B0202FA00F093
S214402E1058637047430903F5001303F207735B02D8
S214402E20996B00F01F00012202FA00F0014214BF25
S214402E305863186370470000F7B545090E4605F518
S214402E40001501F0F04105F20775B1F1005F4FEA59
S214402E5045251DD009D8B1F1805F19D0B1F1C05FCA
S214402E6016D0B1F1006F38D112E0B1F1405F1FD0FB
S214402E70B1F1605F1CD0B1F1205F2ED100F01F0190
S214402E800124324604FA01F12846154B984722E0C1
S214402E9000F01F04012707FA04F422462846114B87
S214402EA09847F60702D42C66384617E06C66FBE770
S214402EB006F0605200F01F01012402F1484006EA85
S214402EC00403424200934241C6F38003284604FA74
S214402ED001F1054DA847204600E0002003B0F0BDB4
S214402EE0452D4000C92C4000712D4000F7B502F03A
S214402EF0F045B5F1005F06460C46174617D009D890
S214402F00B5F1805F13D0B5F1C05F10D0B5F1006F5A
S214402F1027D10CE0B5F1405F13D0B5F1605F10D01B
S214402F20B5F1205F1DD1104B984701201AE022468C
S214402F3029460E4B9847F80701D43466F5E7746681
S214402F40F3E707F0605202F1484107F001034A42B6
S214402F5000934A41C7F3800321463046044CA047BD
S214402F60E3E7002003B0F0BD452D4000C92C4000EB
S214402F70712D4000F8B5134B04460F469847124B48
S214402F8005462046984705401AD0104C04F1600686
S214402F9054F80C3CBB420FD154F8081C29420BD0C5
S214402FA023683846984754F8083CA64225EA030565
S214402FB006D0103425B1EBE7A64201D01034E7E73F
S214402FC0F8BD00BFA92D4000AD2D4000140C0020D8
S214402FD0F8B58E4611460B4A1468062C0FD80A4F91
S214402FE02601BD1947F806E0069E0134AB60146022
S214402FF069601A46EE60054B98470020F8BD0120F0
S214403000F8BD00BF040C0020080C0020D92D40005D
S2144030100B210148014B1847000E0E40752F40000B
S2144030200C210148014B184700100E40752F4000F8
S2144030300D210148014B184700120E40752F4000E5
S2144030400F4B1A6B22F07002104340F601021863D1
S214403050986E0B49000703D4013AF9D10120704716
S2144030600A6B22F0030242F002020A6340F60102B3
S214403070996E090702D4013AFAD1EFE7002070476B
S21440308000040E4010B5104C30B1236A0F4A1A4067
S2144030900F4B1343236210BD226A090222F45C13CD
S2144030A023F0030343F45C1389B243F001030B435C
S2144030B02362A36E044ADB07FBD5136A43F09B7377
S2144030C043F48033136210BD00040E40FCFFC8FE7C
S2144030D002003701024B986E00F48030704700BF04
S2144030E000040E40024B4FF000529A62704700BFF9
S2144030F000040E40024B986E00F00200704700BF7E
S21440310000040E401F284FF0010308D8064A03FA71
S21440311000F0916930EA010303D0106101E01846DF
S21440312070470020704700BF00040E401520014B3A
S214403130184700BF053140004368090423F4702354
S2144031404360436801F470210B4343607047436813
S21440315023F07F434360436843EA01614160704720
S21440316030B543F699240569AD0703D4013CFAD13E
S214403170012030BD4468A40706D5120402F470222C
S21440318011430BB141F08071C160002030BD890011
S21440319001440B6B12B143F0010301E023F001033D
S2144031A00B637047890001440B6B12B143F0020376
S2144031B001E023F002030B637047042A09D100EBB9
S2144031C081010B6B23F008030B630B6B43F0040386
S2144031D011E04AB900EB81010B6B23F008030B6347
S2144031E00B6B23F0040306E0082A05D100EB8101AF
S2144031F00B6B43F008030B63704700EB81010B6BCE
S21440320023F0F0030B630B6B1A430A637047431EAD
S2144032101944B1FBF0F0431EFE2B94BF00B24FF0B2
S214403220FF30704700EB81010B6B23F47F430B6349
S2144032300B6B43EA02220A63704710B500EB81012C
S214403240086B80B208630C6B44EA036343EA0242AD
S2144032500A6310BD08230360202303600423036031
S214403260704700000D4B994216D84900B2FBF1F268
S2144032700023043AFF2A04D9072B02D00133520810
S214403280F8E711021B0489B203F4E0230B43D2B2E1
S2144032901A4302610020704701207047801A0600DA
S2144032A0416270478162036A7047006A7047C06A2D
S2144032B07047006BC0B2704780230360036B704753
S2144032C0AC2310B503604A680B68B3FBF2F34FF6C5
S2144032D0FE721B095C1E94420AD803628B684360E8
S2144032E040F20223C0F8203150230360002010BD76
S2144032F0012010BD40230360704780230360704761
S2144033001023036070472023036070478160704736
S214403310C160704700697047406970474FF48073DA
S2144033200360704743699B0746BFC1610020012088
S21440333070474369DB0743BF836900200B70012059
S214403340704743699B0743BFC1F30801C161002032
S214403350012070474369DB0741BF83690020C3F300
S21440336008030B6058BF01207047FEE708B5164AB1
S214403370164B9A4202D0043A154903E0154B164ABA
S214403380002106E08B42F9D252F8040F43F8040BB2
S214403390F8E7934202D243F8041BFAE70F4B104A71
S2144033A023F0604121F07F0103F16043B3F5C04F45
S2144033B091603EBF936843F000539360094B984733
S2144033C0094B9847FEE700BF501A41000000002016
S2144033D0F4090020F809002038460020000040008C
S2144033E000ED00E0A98040007559400010B5294A1C
S2144033F0294B116B01F0030101290CD002D302299D
S2144034001AD035E0254949690C064CBF4FF40041B7
S2144034104FF4FA412BE0116AC8010BD420491960D9
S214403420116A01F07001102902D0202902D01FE055
S2144034301C491CE01C491AE0116AC9010BD4184902
S2144034401960116A01F07001102902D0202902D0BB
S21440345003E0144900E014491960916A906AC1F388
S2144034600A441968C0B204FB0111B1FBF0F11960BF
S214403470126B02F07002702A03BF1A680321B2FB77
S214403480F1F2044A1FBF126BC2F302111A68CA4017
S2144034901A6010BD00040E403801002010140E4083
S2144034A000093D0000127A00001BB700074B1A685F
S2144034B00AB9074A1A601B68064A18448242A3BFE4
S2144034C0024A106018464FF0FF307047780C0020D4
S2144034D0384E0020FC5F00204FF0FF3070474FF41E
S2144034E000534B6000207047012070470020704713
S2144034F000F108034FF0FF3282604360C36003610F
S21440350000230360704700230361704743685A688E
S2144035104A6042688A605A689160596041600861B2
S21440352003680133036070470A6810B5531C01D125
S214403530036907E000F108035C682468A24201D3EF
S2144035405B68F9E75A684A6091608B605960086129
S21440355003680133036010BD436882689A608368DD
S21440356042685A6003695A68904204BF82685A604B
S214403570002202611A68013A1A6018687047000013
S21440358003480068006880F3088862B600DF00BF22
S21440359008ED00E04FF0807300E90A00002340F891
S2144035A00C3C40F8202C403870470000064B196809
S2144035B00868B0E8F00F80F309884FF0000080F309
S2144035C011884EF00D0E704768430020024B4FF0B6
S2144035D080521A60704700BF04ED00E0EFF31180A0
S2144035E04FF0A00181F311887047002008B5034BC7
S2144035F09847034A13680133136008BDDD35400021
S2144036003C01002080F3118870470000034B186887
S2144036100138186008B9024B184770473C01002033
S21440362005364000EFF309800C4B1A6820E9F00F8E
S21440363010602DE908404FF0A00080F3118800F09C
S214403640D5FF4FF0000080F31188BDE808401968A8
S2144036500868B0E8F00F80F3098870476843002098
S21440366010B5064B4FF080521A60054B9847054BF5
S2144036709847BDE810400020034B184704ED00E093
S214403680DD3540005D424000053640004BF67F3257
S214403690024B1A60072243F8042C704714E000E0FF
S2144036A008B5084B1A6842F470021A601A6842F06D
S2144036B070421A60044B9847044B00201860044B35
S2144036C0984708BD20ED00E08D3640003C010020C4
S2144036D08135400010B5104B1A68824201D213461D
S2144036E0FAE759685C18A04201BF406809181846B6
S2144036F0596041684418A24208D1084C2468A24246
S21440370004D05268114441601A68126898420260B8
S21440371018BF186010BD00BF7442002070420020E1
S21440372070B5274B04469847264A116889B943F234
S214403730E05543F2E456244B2448995103604160D7
S21440374059512348234983E821000B681060103BF9
S2144037500B602CB1103463071CBF24F007040834F8
S21440376043F2EE53611E994221D8184B1D68696892
S2144037708C4203D81268954206D118E02968002981
S214403780F8D02B460D46F2E72A681E681A606B682A
S21440379010361B1B202B04D9281943606C600E4B37
S2144037A098470C4A696813685B1A136000E0002665
S2144037B00A4B98470EB90A4B9847304670BD00BF33
S2144037C02142400070420020800C002074420020BD
S2144037D06042002040010020D5364000694340004A
S2144037E0BD58400010B5044678B1084B9847084A83
S2144037F054F80C1C1368A4F110000B441360054BDE
S2144038009847BDE81040044B184710BD2142400081
S21440381040010020D536400069434000014B1868FF
S214403820704700BF4001002038B504461046226C61
S21440383032B92568FDB96068114B984765601AE053
S214403840104B58B9A0689847A268236C1344626826
S214403850A36093420FD32368A3600CE0E0689847C8
S214403860236CE2685B4221681A448A42E2603EBFAB
S21440387062689B18E360A36B0133A36338BD00BF47
S2144038807D49400085814000034630B41C680846A8
S2144038905CB1D9681A6C5D681144A942D96028BFEA
S2144038A0DC60D96830BC024B184730BC704700BF5C
S2144038B0858140002DE9F04104461A4D1A4FDFF845
S2144038C07080A8472E4604F12405A36C002B09DD22
S2144038D0636A3BB12846B84700B1C047A36C013B7A
S2144038E0A364F2E74FF0FF33A364104D0E4FDFF8AA
S2144038F04080A847B04704F11006636C002B09DDF2
S21440390023693BB13046B84700B1C047636C013BC2
S2144039106364F2E74FF0FF3363642B46BDE8F04143
S214403920184700BFED354000BD4740000D3640000B
S214403930D548400038B50D46044618B9164B98474A
S21440394000BFFDE7154B9847206CE36B2268434366
S214403950D1181B1A13446160E36000214FF0FF3317
S214403960A163A2606364A36455B923697BB104F183
S21440397010000B4B9847012809D10A4B984706E0A0
S21440398004F11000084DA84704F12400A847074B4F
S2144039909847012038BD00BFDD354000ED3540007A
S2144039A0BD474000CD354000F13440000D36400064
S2144039B02DE9F0410E469046054668B150200E4F20
S2144039C0B847044640B106FB05F00130B8472060D2
S2144039D030B92046094B9847094B984700BFFDE74A
S2144039E0E563266401212046064B984784F84D80BF
S2144039F02046BDE8F08100BF21374000E537400053
S214403A00DD3540003539400010B502220C46054BE6
S214403A100021984708B1846310BD034B984700BF08
S214403A20FDE700BFB1394000DD3540002DE9F04FDD
S214403A3087B00E4603929A46044618B9374B9847C5
S214403A4000BFFDE711B9036C002B60D1DFF8F480AE
S214403A50334FC14600230193C047A16BE26BDFF8AA
S214403A60C0B09142019B11D22E4B52463146204661
S214403A709847636A3BB104F124002B4B98470128D2
S214403A8001D12A4B9847D847012044E0039D15B9F9
S214403A90D84728463FE013B904A8254B9847B8476F
S214403AA0244B9847C847636CDFF89CB0013304BF8B
S214403AB000236364A36C204D013304BF0023A3643A
S214403AC0B84703A904A81D4B9847D8B9C847A26B66
S214403AD0E36B02920193B847019B029A9A420DD13A
S214403AE0039904F11000164B98472046D847A8473C
S214403AF008B10123AFE70D4B9847FAE72046D84771
S214403B00A847F6E72046D847A847002003E0034BDF
S214403B10984700BFFDE707B0BDE8F08FDD354000B1
S214403B200D36400029384000BD474000CD354000A6
S214403B303548400021424000694340005D4840000F
S214403B4015474000ED354000B538400070B5134B82
S214403B50064650209847044618B9114B984700BF70
S214403B60FDE701230025C3634FF0FF3385634560BF
S214403B704364056083648560C560056480F84D6075
S214403B80084E1030B04704F12400B0472B462A4672
S214403B9029462046044DA847204670BD21374000A0
S214403BA0DD354000F13440002D3A40002DE9F0412B
S214403BB004460D4616469846174814B9804700BF37
S214403BC0FDE721B9236C13B1804700BFFDE780476E
S214403BD0E16B0746A06B884217D2104B42462946F7
S214403BE020469847A36C01330AD1636A5BB104F15F
S214403BF024000B4B984730B12EB10124346005E0C9
S214403C00A36C0133A364012400E000243846054B2E
S214403C1098472046BDE8F081DD3540002938400011
S214403C20BD474000053640002DE9F04F85B00F46B1
S214403C3001929A46044618B9424B984700BFFDE7A2
S214403C4011B9036C002B76D1DFF828813E4EC14671
S214403C5000230093C047A26BDFF8ECB0009B32B362
S214403C6039462046394BE5689847BAF1000F12D1DD
S214403C70A36B013BA363236813B9354B9847606039
S214403C8023698BB104F11000324B984701280BD1C1
S214403C90314B984708E0636AE5602BB104F1240095
S214403CA02C4B98470028F3D1D847012047E0019D88
S214403CB015B9D847284642E013B902A8274B98477B
S214403CC0B047274B9847C847636CDFF8ACB0013322
S214403CD004BF00236364A36C224D013304BF00235A
S214403CE0A364B04701A902A81F4B9847F0B9C8473C
S214403CF0A36B0093B047009BA3B9236823B9C04782
S214403D0060681A4B9847B047019904F12400184B55
S214403D1098472046D847A84708B1012399E70E4B55
S214403D209847FAE72046D847A847F6E72046D847B8
S214403D30A847002003E0034B984700BFFDE705B0C7
S214403D40BDE8F08FDD3540000D3640008938400034
S214403D50E1484000BD474000CD3540003548400072
S214403D6021424000694340005D4840000949400008
S214403D7015474000ED354000B538400070B5044664
S214403D800D4B0D469847636C013304BF00236364B4
S214403D90A36C013304BF0023A364084B9847A36B6E
S214403DA023B9294604F12400054B98472046BDE830
S214403DB07040044B184700BFED3540000D364000BC
S214403DC075474000B53840002DE9FF4780460C4611
S214403DD092464B6801F108065B68DFF868904B60D6
S214403DE0B34204BF73684B604B68DF6863685B68C8
S214403DF09E42636004BFE36863606368DD68296B66
S214403E000A46531A12F8010B9BB2A528F9D0EA6A63
S214403E10296C9B088DE80C000291534605F134024C
S214403E2005490648C84705494046054B9847AF42AE
S214403E30DCD104B0BDE8F087301041009442002049
S214403E40B98440006D84400010B50D4B04461A6896
S214403E5050600C4A126890420B4A06D2BDE81040A9
S214403E600A490868196804311047094908681968FA
S214403E7004319047074B1A68944238BF1C6010BD07
S214403E806843002088430020293540008C430020AA
S214403E90B4430020440100202DE9F84F0A9E8A468C
S214403EA015469946DDF830B0804618B9554B9847C8
S214403EB000BFFDE7052E03D9524B984700BFFDE7EC
S214403EC04C20514FB8470446002800F09780BBF17D
S214403ED0000F02D1A800B84700E05846206318B942
S214403EE020464A4B984789E0AD002A46A521484BD4
S214403EF09847236B043D51460A221D4404F1340082
S214403F00444B984704F1040A002384F83D30504659
S214403F10DFF848B1E662A664D84704F11800D847EF
S214403F2025F00705C6F10603A36124613A4B646297
S214403F304A464146284698474307206003D0314BBF
S214403F40984700BFFDE70B9B03B11C60334B984777
S214403F50334B344D1A68DFF8088101321A602F68F7
S214403F6007BB2C601B68012B24D1DFF8F8B008EBA8
S214403F7007001437D847782FDFF8E890F7D1DFF8F6
S214403F80E8B0294F5846C8473846C8472748C84724
S214403F902748C8472748C847274BC3F800B0274B91
S214403FA01F6007E0264B1B6823B92B68DB6A9E42DE
S214403FB028BF2C60234AE36A116814208B422249AA
S214403FC088BF13600A6800FB0380226401320A60DF
S214403FD01E4A11688B4288BF136051461C4B984757
S214403FE01C4B9847164B1B682BB12B68DB6A9E42CE
S214403FF001D9194B98470120BDE8F88F4FF0FF30A4
S214404000BDE8F88FDD35400021374000E5374000F9
S214404010718240003989400095354000ED354000BA
S214404020B043002068430020D84200207043002060
S214404030C442002080420020B44300208C4300202D
S214404040BC420020C0420020944300209043002001
S2144040500D3540000D364000CD3540000735400058
S214404060EC420020F1344000984300202DE9F04116
S2144040700446164B9847164B1A68A24200D014B90D
S2144040801D68002400E025462E1D3046114FB847D7
S214404090AB6A13B105F11800B84731460E480F4BCE
S2144040A098470F4A1368013313600E4A136801336A
S2144040B013600D4B98470D4B1B6823B11CB9BDE8E8
S2144040C0F0410B4B1847BDE8F08100BFED3540008E
S2144040D06843002059354000C44200200D3540005A
S2144040E06C430020944300200D364000BC42002024
S2144040F0CD35400008B518B9084B984700BFFDE7D6
S2144041004269074B9A4207D1806A064B984203D0D1
S214404110B0FA80F0400908BD002008BDDD354000FB
S214404120804200207043002070B5044618B9164BF4
S214404130984700BFFDE7154B1A681E46904222D0AE
S214404140134B98472046134B9847012817D1251DF7
S214404150114B28469847114AE36A116814208B424F
S21440416088BF13600E4A294600FB03200D4B984734
S2144041703368E26ADB6A9A4201D30B4B9847BDE844
S21440418070400A4B184770BDDD354000684300203C
S214404190ED354000F5404000593540009043002042
S2144041A0EC4200200D354000CD3540000D36400035
S2144041B030B5002485B0124D0394029401940094C7
S2144041C0234646220F491048A847012805460FD1E6
S2144041D00E4B9847012805460AD10D4B98470D4B84
S2144041E01D600D4B1C600D4B05B0BDE830401847B8
S2144041F01DB9074B984700BFFDE705B030BD00BF6F
S214404200993E400042104100A54440006D4A40009F
S214404210DD354000BC42002088430020A1364000E7
S214404220024A136801331360704700BF844300207E
S21440423010B5044B9847044B1C68044B98472046DF
S21440424010BD00BFED354000884300200D364000CD
S214404250014B1868704700BFB04300202DE9F04777
S214404260344B1B68002B56D1334B1A681E4601321E
S2144042701A601A68E2B9314B1A6812681AB1304BA4
S214404280984700BFFDE72F4A19681068186011600C
S2144042902D490A6801320A601A6811682B4A11B91A
S2144042A04FF0FF3303E01B68DB68DB685B68136036
S2144042B0264C326823689A4233D3DFF88080DFF892
S2144042C0A090DFF8A0A0D8F800301B6813B94FF0D4
S2144042D0FF3307E0D8F80030DB68DD6832686B688B
S2144042E0934201D923601CE02F1D3846C847AB6A6D
S2144042F013B105F11800C847EB6ADAF8002014201D
S2144043009342134A88BFCAF8003000FB0320394660
S214404310104B9847D7E7104A1368013313600F4B8A
S21440432098470D4B1B681BB9BDE8F0470B4B184729
S214404330BDE8F0878443002088430020B443002033
S214404340DD3540008C4300206443002044010020BB
S214404350EC4200200D3540007C420020AD58400025
S21440436059354000904300202DE9F8432B4C2368F4
S2144043701BB92B4B984700BFFDE72A4B984723684D
S214404380013B236024680CB1002442E0264B1B68A6
S214404390002BF9D0254E264FDFF8B8803368F3B1AE
S2144043A0F368DD6805F1040905F11800B84748468A
S2144043B0B847EB6AD8F80020142093421D4A88BFBD
S2144043C0C8F8003000FB032049461B4B98471B4B60
S2144043D0EA6A1B68DB6A9A4228BF0124DEE7184D6A
S2144043E02B6843B12C46174E2B6833B1B047236831
S2144043F0013B2360F8E7012C06D1134B00221A60DC
S214404400124B9847012404E00F4B1B68012BBBD18D
S214404410F3E70F4B98472046BDE8F88384430020D7
S214404420DD354000ED354000B043002070430020AD
S21440443059354000EC4200200D35400068430020CE
S2144044407C4200205D424000AC430020CD35400019
S2144044500D3640009043002010B518B9BDE8104016
S214404460094B1847094B9847094B1B68C418094B1A
S2144044701868094B04309847084B20469847084B25
S21440448098470028EAD010BDCD3540002142400074
S214404490884300206843002059354000493E40008C
S2144044A069434000174D80B52E46174F174C2B6872
S2144044B0FBB1B847D4F80080154B9847B8F1000FC9
S2144044C0F5D0144B9847114BDFF86480DB68DC6806
S2144044D0114B201D9847114A1368013B13603368FF
S2144044E0013B33600E4B9847206BC0472046C04781
S2144044F0DCE70C4B1B68012B01D90B4B98470B4B49
S2144045009847D2E76C43002021424000C442002036
S21440451069434000ED35400059354000B043002027
S2144045200D364000EC420020CD354000A9584000F2
S214404530E53740002DE9F047214B044698470023D5
S21440454003702049204B9847204B14221D68204B6F
S21440455090461F46013502FB0536DFF87C90143E38
S214404560013D08FB05F3FB581BB15222314620465D
S214404570C847143E002DF3D1164B1A68126822B174
S214404580196842222046144B9847144B1A68126802
S21440459022B11968422220460F4B984710490B68B3
S2144045A01BB1442220460C4B98470E490B681BB162
S2144045B053222046084B9847BDE8F0470A4B184719
S2144045C021424000A4114100B9844000C04200206E
S2144045D0EC420020B4430020C93D40008C430020FC
S2144045E0C4420020804200206943400038B51D4B3D
S2144045F01B681BB11C4B01221A6038BD1B4C22683D
S214404600236812681B6B9A4204D820682168184BAE
S21440461034319847174B184814251A6816496A4388
S21440462082584AB91A681AB9144B984700BFFDE732
S2144046301A68013A1A60F0E70E4B1A68142353437F
S214404640C818456808336D680B4445609D4204BFF2
S2144046506B684360142303FB02125368DB682360D5
S21440466038BD00BF84430020AC4300206843002090
S2144046708958400090430020EC420020DD35400041
S2144046802DE9F0410446194D194B98472B68A34233
S21440469000D014B92E68002400E02646371D384660
S2144046A0DFF86C80C047B36A13B106F11800C04704
S2144046B0104E114B394630469847104B984794B9A0
S2144046C00F4B1B681BB1BDE8F0410E4B18470E4B15
S2144046D032681B689A4202D12C60BDE8F0810B4BD1
S2144046E0BDE8F0411847BDE8F08100BF68430020B0
S2144046F0ED354000804200200D3540000D3640002C
S214404700BC420020CD354000B0430020ED4540007F
S2144047105935400070B50D4618B90E4B984700BF46
S214404720FDE70D4C0D4B21681831984720680C4B1F
S214404730043098476B1C06D121680A4804310A4B5E
S214404740BDE870401847094B1868094B2844BDE837
S21440475070401847DD35400068430020293540004A
S21440476059354000804200200D35400088430020E7
S214404770493E400070B50D4618B90A4B984700BFF1
S214404780FDE7094C094B2168183198472068084BCB
S21440479004309847074B1868074B2844BDE87040DC
S2144047A0184700BFDD354000684300200D35400007
S2144047B05935400088430020493E4000F8B5C3685C
S2144047C0DC681CB9134B984700BFFDE704F1180698
S2144047D03046114FB847114B114D1B6873B9261D13
S2144047E03046B8470F4AE36A116814208B4288BFA8
S2144047F013600D4A314600FB032001E031460B486A
S214404800A8470B4BE06A1B68DB6A984234BF00201F
S2144048100120F8BDDD354000593540008443002076
S2144048200D35400090430020EC42002070430020AD
S2144048306843002008B518B9054B984700BFFDE708
S214404840044B1B680360044B1B68436008BD00BFF5
S214404850DD354000644300208843002038B50D46CF
S214404860044618B9154B984700BFFDE719B9134BD6
S214404870984700BFFDE7124B98472B685A1C15D047
S214404880104A2168126891420F4A616802D0106847
S21440489081420DD91268521A934209D90A4A2046D3
S2144048A01268521A9B1A2B60084B9847002400E067
S2144048B00124074B9847204638BD00BFDD354000F1
S2144048C0ED354000644300208843002035484000D2
S2144048D00D364000014B01221A607047AC43002061
S2144048E0014B1868704700BF68430020044B1868A7
S2144048F028B1044B1B68002B0CBF012002207047D8
S214404900BC420020844300202DE9F041044648B3D1
S214404910154DC36A2A68D26A934223D22A68D26A5D
S214404920C2F1060282611148142202FB0303626947
S21440493006469A4213D1271D38460D4B98472B689A
S2144049400C4ADB6A1168E3628B4288BF136014200E
S21440495000FB03603946BDE8F041074B18472B681B
S214404960DB6AE362BDE8F08168430020EC42002049
S21440497059354000904300200D35400070B5044640
S214404980D0B1C26A836C9A4216D0051D28460B4B9E
S2144049909847A36C1420C3F10602A261084AE3625A
S2144049A011688B4288BF1360064A2946BDE87040AE
S2144049B000FB0320044B184770BD00BF593540002C
S2144049C090430020EC4200200D3540002DE9F04198
S2144049D00D4C0E4B984725688DB90D4F0D4E3846F9
S2144049E0DFF84480C0473046C0470B4B2A461F601E
S2144049F00A4B0C211E600520094B98472060094B46
S214404A00BDE8F041184700BFE8430020ED354000C0
S214404A10BC430020D0430020B8430020EC43002095
S214404A20B13940000D364000F1344000914208B59F
S214404A304160006106D8D21A83699A420DD2011DA0
S214404A40074B05E09A4201D2994206D2054B011D1A
S214404A501868054B9847002008BD012008BD00BFD8
S214404A60EC430020B8430020293540001FB50C4BCE
S214404A7098470C4B1B6813B90B4B98470EE0002326
S214404A80052200920393029301938C22074908481B
S214404A90084CA0470028EFD004B010BD00BFFDE78B
S214404AA0CD494000E8430020DD3540004710410036
S214404AB0DD4B4000993E40002DE9F04180461746C8
S214404AC01E460D4619B90C4B984700BFFDE72820F7
S214404AD00A4B9847044658B1094B9847069BC4F87A
S214404AE000806362A561E7612662201D054B9847FA
S214404AF02046BDE8F08100BFDD354000213740004C
S214404B00CD494000073540007FB50E4D0646286823
S214404B101C46A0B10191029203965BB90A4B984796
S214404B2001282346094E0CBF089A224601A9286848
S214404B30B04704E02246002301A9054CA04704B034
S214404B4070BD00BFE8430020ED4840002D3A4000CD
S214404B50AD3B40002DE9F7431A4E1B4FB046336835
S214404B601A6832B3DA681568DB68DC6804F1040951
S214404B704846B847636A20469847E369012BEED11A
S214404B80A3692B449D4207D2636024614946D8F806
S214404B9000000E4B9847E2E70023204600932A4643
S214404BA019460B4CA0470028D9D10A4B984700BF5E
S214404BB0FDE7094A034910681360086003B0BDE882
S214404BC0F08300BFB84300205935400029354000E7
S214404BD0094B4000DD354000EC4300202DE9F04F06
S214404BE0DFF88C8189B0DFF88CB1DBF80020D2F892
S214404BF00090B9F1000F02D0D268156800E04D462B
S214404C004E4A4F4C9047A0474E4F06463A6803944C
S214404C10904204D24C4A90474FF0010A01E04FF0D0
S214404C20000A3E60494CBAF1000F33D1B9F1000F8B
S214404C3026D0AE4224D3A047DBF80030DB68DC68E1
S214404C40434B201D9847E369012B15D1A169324695
S214404C502B46294420463F4EB04701280CD12A46D1
S214404C60CDF800A05346514620463B4DA84718B9BC
S214404C703A4B984700BFFDE7636A204698470AE0EC
S214404C80A91BD8F80000364B9847A04718B9354BB3
S214404C90984700E0A047039B98473B6805469842E4
S214404CA001D2294B98473D602F4FDFF8A490002350
S214404CB01A4605A9D8F80000B847002893D0079CA4
S214404CC01CB163690BB1201DC847059E022E22D039
S214404CD0032E2ED0002EEAD1A169069B2A461944FF
S214404CE02046DFF87090C8470128DED1636A204628
S214404CF09847E369012BD8D1A269069920460A4411
S214404D00009633463146144CA0470028CDD1134B6D
S214404D10984700BFFDE70699A16119B90F4B984720
S214404D2000BFFDE72B462A4629442046094CA047AB
S214404D30BBE720460D4B9847B7E700BF21424000EF
S214404D4031424000E4430020554B40006943400058
S214404D50593540002D4A4000094B4000DD354000A3
S214404D607D3D4000CD354000293C4000E5374000C1
S214404D70E8430020B843002070B518252A46144C56
S214404D8000211448A0472A4600211348A047134B49
S214404D9000240025C3E900456820114B9847114B75
S214404DA0C3E90001104BC3E90001104BC3E90601FB
S214404DB0C3E90845C3E90A45C3E90C45C3E90E45BE
S214404DC0C3E910451846BDE87040094B184700BF78
S214404DD071824000F8430020104400202844002000
S214404DE0F102400030440020F043002040440020C0
S214404DF08503400010B40448044C0023A4461A46D9
S214404E001946006810BC6047D04500202D3A400047
S214404E102DE9F0410D4616461C46C8B101281FD163
S214404E20104B0021284698470F4F104B40B128465C
S214404E30984702460B460E48C6E90023214605E041
S214404E40284698470B46214602460A48BC4604E098
S214404E5021460CCA044C0648A446BDE8F0416047CB
S214404E60BDE8F08145804000750F4000E573400086
S214404E704F1041005C1041002DE9F047089C8046E9
S214404E800F4620462749DFF8C89015461E46C847B5
S214404E9010BB25492046C84720B92448244BBDE8C6
S214404EA0F0471847B8F1000F0ED131462846214B3F
S214404EB09847214B98470B4621461D4C0246A44630
S214404EC01E48BDE8F0476047B8F1010F27D13A4683
S214404ED0314628461A4B0FE0B8F1000F03D1314651
S214404EE02846184BE4E7B8F1010F01D0BDE8F0873B
S214404EF03A4631462846144B98470D4D0E4B30B136
S214404F003846984702460B460C48214605E0384648
S214404F1098470B46214602460C48AC46D1E7BDE8CA
S214404F20F08700BF72104100781041007D104100AC
S214404F30750F400055094000E57340004F10410092
S214404F4001094000DD084000890840005C1041002F
S214404F50598C4000F0B587B006AC04E90F009DF8C8
S214404F600C30002B2ED0012B34D1049C002120463F
S214404F70194B9847194DD0B12046194B9847194CB4
S214404F80194B20600646194F98470022184BB847E1
S214404F90184B3246C3E9000100231748009302210C
S214404FA00068164EB047216815482B460EE020464E
S214404FB0144B984702460B462946134807B0BDE8AF
S214404FC0F0400847074B0E481968044B07B0BDE849
S214404FD0F040184707B0F0BD45804000750F4000D0
S214404FE05980400050010020A1734000E176400007
S214404FF000408F40480100202C460020094B4000CE
S2144050009A104100E5734000AF10410070B586B07D
S21440501006AC4FF0FF350E4E04E90F000095002316
S2144050201A4601210B4C3068A0470B4B98470B4B58
S2144050300B49D3E90023012088470A4B3668984736
S21440504000230246009519463046A04706B070BD7C
S2144050502C460020094B4000794D4000F04300208C
S214405060310640003142400030B585B08DE80F0033
S214405070054C9DE80F00054DA8479DE80F00A44647
S21440508005B0BDE830406047E51240000D50400096
S2144050902DE9F04F8E4EDFF8BC829FB000250022EF
S2144050A008210120B04748F8250058F82530884F99
S2144050B01BB91920874B9847FEE70022082101209C
S2144050C0B047854C44F8250054F825301BB91920C4
S2144050D0804B9847FEE7002208210120B0477F4BCF
S2144050E043F8250053F825209B461AB91920794BDA
S2144050F09847FEE70135032DD1D12A4600210120ED
S214405100B847774B18601D4620B100231A4619460B
S214405110744EB047286818B9734B984700BFFDE7F0
S21440512000231A461946714DA84703220021012044
S214405130B8476F4B059518601D4620B100231A46A8
S2144051401946684EB047286818B9674B984700BF5D
S214405150FDE700231A461946059DA847654B0122E0
S21440516014210093644D00236448A847644B0646C8
S2144051701860644B9847002502462B462946304621
S2144051800095614EB047614B9847614B1A68614B3A
S2144051901A6040B1604B6148984719204D4B98477C
S2144051A028465F4B984744A1D1E900015D4BC3E9CF
S2144051B0000143A1D1E90001C3E9020142A1D1E9BE
S2144051C00001C3E90401584B984749480023194653
S2144051D04FF0FF32059D0068A847544D1822002125
S2144051E05348A847182200215248A847524E12AAB0
S2144051F006A96820B04718AA05460CA96920B047FA
S21440520055EA000329D14D4B0CA906A89847CDE98D
S21440521002010323DFF83491DFF83481DFF838A148
S21440522006AD12AE0493D5E90623F5E80201D04751
S214405230434F0022434BB847D6E90623E9E902012B
S214405240F6E80201D0473F4B0022B847049BE8E906
S2144052500201013B0493E6D184E0A5B93A4B06A887
S2144052609847CDE90201394E394A04AB10AD0AAF32
S214405270F3E90201BB42E6E90201F5E90201E2E98F
S2144052800201F5D16EE0002868D12F4B0CA8984754
S214405290CDE902012D4E2E4A0AAF16AD0323013B3F
S2144052A0F7E90201E6E90201F5E90201E2E9020155
S2144052B0F5D157E0AFF30080FCA9F1D24D62503FE4
S2144052C0FA7E6ABC7493683FB81E85EB51B89E3F21
S2144052D0B139400049264000D4450020E045002032
S2144052E0504500202D3A4000DD354000293C400026
S2144052F0D0450020F54D4000B94A40005F084100C7
S2144053002C46002031424000094B4000810D4000B1
S2144053106045002038440020750F4000CC10410006
S2144053206D40400040440020794D4000718240006E
S214405330F843002010440020DD0B4000790940006F
S2144053408D7440000000E03FE1094000F04300203B
S21440535008440020204600202971400000220023F7
S214405360CDE90223DDE90223DFF8E880DFF8DCA0A0
S214405370C8E900230025314B002153F82500D047CB
S2144053802E4B2F494FEAC50953F82500002201232A
S21440539049442C4EB0475BF825000021D0472A49A7
S2144053A05BF825000123002249440135B047032D10
S2144053B0264FE0D1264D00212068B8470123002221
S2144053C024492068B047D5E900231D49CDE900238C
S2144053D021481D4A214B984700216068B847002263
S2144053E001231D496068B047D5E90001DFF8809089
S2144053F0C847154B8246D3E90401C8470546D8E955
S2144054000001C8475246164B29469847154DC5E9F0
S21440541000010021A068B8470123A0680022294661
S214405420B047114B1B78002B3FF4CFAE0F480023FC
S2144054301A4619460068B047C7E600BF2046002017
S214405440F84300202D3A40001044002035394000F3
S2144054504801002028440020304400200D0340002E
S214405460F9034000F0430020600A00205045002029
S214405470117A40002DE9F04F8DB00CAC04E90F00D6
S214405480DFF85C81434BD8F800009DF82C40424D35
S21440549098476423009300231A46012128683F4F0B
S2144054A0B8473F4B2E2098473E4E3F493F48B0476F
S2144054B00122022120463E4B9847AA46CDF814804A
S2144054C08146DFF8208100284AD13A4B3A493B488A
S2144054D0682C18BF1946B0470520C047384D494686
S2144054E02046A847012106902046A8470221834629
S2144054F02046A847069A334D04901046A8470246D1
S2144055000B460498CDE90623A847CDE90201584644
S214405510A847DDE90623CDE900012B48B047052022
S214405520C047DFF8C48049462046C047012181462F
S2144055302046C047022183462046C0470446484688
S214405540A847804620468946A847CDE902015846E6
S214405550A8474246CDE900014B461C48B04703E009
S2144055600520C0471A48B0472E201A4B98471A4B7A
S214405570DAF8004098476423009300230246194611
S2144055802046B847059B1868144B0DB0BDE8F04F51
S214405590184700BF814640002C460020094B40007B
S2144055A049264000750F4000E8104100F8104100C1
S2144055B0190C4000DF104100D7104100081141008F
S2144055C0DD084000E5734000271141005F114100AF
S2144055D0961141000D2640003142400029414000CE
S2144055E0AC4500205944400055094000DFB504ACA6
S2144055F004E90F009DF804308BB1012B1BD10298B3
S2144056000E4B98470E4B0F46064698470D4C324673
S2144056103B460D4908B10D4808E00D4806E00D4BE5
S2144056209847084C02460B4608480749A44604B02B
S214405630BDE8D040604704B0D0BD00BFE573400031
S214405640AD024000750F4000A71141004F104100C9
S2144056505C104100E502400010B586B006AC04E997
S2144056600F00064B9DF8142000939DF80C00002375
S2144056700499034CA04706B010BD00BFBB114100C3
S214405680794E400010B586B006AC04E90F00064BD4
S2144056909DF8142000939DF80C0001230499034CB8
S2144056A0A04706B010BD00BFC8114100794E40006B
S2144056B010B586B006AC04E90F00064B9DF81420E2
S2144056C000939DF80C0002230499034CA04706B0B3
S2144056D010BD00BFD5114100794E400010B586B0D0
S2144056E006AC04E90F00064B9DF8142000939DF885
S2144056F00C0000230499034CA04706B010BD00BF21
S214405700E2114100794E400010B586B006AC04E97F
S2144057100F00064B9DF8142000939DF80C000123C3
S2144057200499034CA04706B010BD00BFEE114100DF
S214405730794E400010B586B006AC04E90F00064B23
S2144057409DF8142000939DF80C0002230499034C06
S214405750A04706B010BD00BFFA114100794E400088
S21440576010B485B004AC04E90F00054C054BA446C4
S214405770054A02999DF8040005B010BC604700BF7A
S214405780114E4000061241004044002010B485B03F
S21440579004AC04E90F00054C054BA446054A0299A3
S2144057A09DF8040005B010BC604700BF114E400095
S2144057B00D1241004844002010B485B004AC04E902
S2144057C00F00054C054BA446054A02999DF8040077
S2144057D005B010BC604700BF114E40001312410098
S2144057E05044002010B40448044C0023A4461A46F3
S2144057F01946006810BC604730460020AD3B40006C
S21440580008B5044D044C1720A8474FF4FA70A0473B
S214405810F9E700BF152E40005944400008B50F4E2A
S2144058200F4D4FF47A70B04700234FF0FF321946C1
S21440583028680C4CA0470C4B98470C4C01460C482B
S214405840A0470C48A0470C4B0C4898470B48A0472D
S2144058500B4B984701460B48A047E2E759444000A7
S21440586030460020293C400051424000750F400021
S2144058701C12410035124100354540008844002046
S2144058801D3840005212410008B50A46034B0146F7
S21440589003489847034C1920A047FCE7F98040008E
S2144058A0621241004926400000BF7047024A136812
S2144058B001331360704700BF6045002008B5034BB6
S2144058C09847034C1920A047FCE700BFDD35400051
