:020000040040BA
:10000000384E0020CD324000CB324000CB32400091
:10001000CB324000CB324000CB3240000000000029
:100020000000000000000000000000000D3540004E
:10003000CB3240000000000085354000C135400053
:10004000CB324000CB324000CB324000CB324000BC
:10005000CB324000CB324000CB324000CB324000AC
:10006000E9224000F5224000CB324000712F4000D1
:10007000812F4000912F4000CB324000CB32400016
:10008000CB324000CB324000CB324000D11D40008B
:10009000DD1D4000C90F4000CB324000CB32400094
:1000A000CB324000CB324000CB324000CB3240005C
:1000B000CB324000CB324000CB324000CB3240004C
:1000C000CB32400010B5054C237833B9044B13B143
:1000D0000448AFF300800123237010BDF80900200D
:1000E0000000000058154100084B10B51BB108492D
:1000F0000848AFF300800848036803B910BD074BF8
:10010000002BFBD0BDE81040184700BF00000000E6
:10011000FC0900205815410058154100000000005E
:1001200010B5094B411E1C6811F8012F52B1A318DC
:100130005B7803F0040303F0FF00002BF4D12E2AB8
:10014000F2D000E0012010BD540100201FB50DF1D8
:10015000100E0EE90F000348034B05B05DF804EBE9
:10016000184700BFD4014100D50E40002DE9F041F1
:100170000746084C084EDFF82480256AB54205D0B2
:1001800021463846C04724340028F6D12846BDE829
:10019000F08100BF70FF40004D0140001981400018
:1001A0000146014B01481847D50E4000E6014100C9
:1001B0002DE9FF4700230293682300258DF80C30BA
:1001C0003B212F4B80468DF804509847002844D09F
:1001D0002C4940462C4EB0472B4604462B4FDFF8A7
:1001E000C890002C3DD003F1010A032B2CD8DFE886
:1001F00003F0020710182046254B9847054626E0D5
:100200002046C847E8B12046224B98478DF80400A5
:100210001DE02046C847A0B120461F4B98470290DA
:1002200015E02046C84760B120461A4B9847C0B237
:10023000012801D1692301E048B968238DF80C3009
:1002400005E02146154801E021461548B8470D490B
:100250000020B04753460446C3E740460C4B98473E
:1002600005463DB104AB43F8105D0FCBA84704B081
:10027000BDE8F08740460B4B04B0BDE8F047184797
:1002800049804000FC01410011994000D50E40001A
:100290006D014000F17B4000E97B4000FE01410020
:1002A00011024100A10140002101400070B500226F
:1002B0000023084E04460D46B04750B10022064BBD
:1002C00020462946054EB04718B1054B0120C3E929
:1002D000004570BDE97440000000F03FD574400057
:1002E000C8000020014BD3E900017047C80000207E
:1002F0007FB5044B694698476846034B984707B05B
:100300005DF804FBC9094000790940002DE9F34775
:10031000164B0546084690469847154B154CD3E9B1
:100320000067CDE90001D8E90423DDE90A01A0470F
:10033000D5E90023DFF848A0D04732463B46A04726
:100340003246804689463B460B4E00200B49B0475B
:10035000DDE90023A04702460B4640464946D04708
:10036000C5E9000102B0BDE8F08700BF790940008F
:10037000C8000020DD6F4000756C40000000F03FB9
:10038000796C400030B5164BD0E90045C3E9004513
:10039000D0E90245134BC3E90045D0E90445124BAF
:1003A000C3E90045D0E90645104BC3E90045D0E953
:1003B00008450F4BC3E90045D0E90A450D4BC3E999
:1003C0000045D0E90E45C3E90445D0E90C4500F1EC
:1003D0004001D1E90001C3E90245C3E9060130BD8E
:1003E000580A0020400A0020380A0020500A002045
:1003F000480A0020180A00202DE9F04F634B93B003
:10040000DFF8ACA10F900C46D3E90001CDE906015D
:100410001046D047804689462046D047DDE906236E
:100420005B4CA0475B4D42464B46A8475A4B5B4F3F
:10043000D3E90023B8475A4ECDE90A01D6E906238D
:1004400040464946CDE90423A847D6E90223CDE931
:100450000223D6E90423CDE90C01CDE90823DDE927
:100460000223A047DDE90823A0474E4BDFF844B143
:10047000D3E90023B84742464B46A847D6E90023B4
:10048000B847DDE90C23CDE90001DDE90201A04711
:10049000DDE90C23CDE90201DDE90801A047424B6B
:1004A000CDE90801D3E9002340464946A847DDE9E4
:1004B0000423B8473D4BCDE91001D3E90023DDE922
:1004C0000001B8478046894602460B46DDE9000137
:1004D000D84742464B46CDE90401DDE90801D8473B
:1004E00080460F988946D047DDE90A23A047CDE929
:1004F0000C0102460B46DDE90401A847DDE90A23A9
:10050000B84782468B46244B4046C3E900ABDDE941
:100510000C234946A847DDE90623B8471B4BC3E92E
:100520000001DDE90423DDE90001A84702460B468E
:10053000DDE90001A047DDE90423C6E90001DDE9AA
:100540000201A84702460B46DDE90201A0474246E8
:10055000C6E90201DDE900014B46A84702460B4609
:10056000DDE90801A0474246C6E90401DDE90201D0
:100570004B46A84702460B46DDE91001A047C6E9F5
:1005800006015046594613B0BDE8F08F480A0020D6
:10059000756C4000DD6F4000500A0020796C40000F
:1005A000180A0020580A0020400A0020380A0020BB
:1005B000356F4000317240000B2822D1B1F5003F69
:1005C0000FD0B1F5802F17D0B1F5803F19D10D4B69
:1005D0001B681BB10C4A1368013311E001220B4B5D
:1005E00008E00A4B1B681BB1074A1368013B07E090
:1005F000044B01221A607047024A00231360034A29
:100600001360704764450020684500206C45002059
:10061000034A00231360034A1360034A13607047C0
:10062000684500206C450020644500200000000063
:100630002DE9F843904699460D4C0E4F0E4E0F4D46
:1006400010B100220E4B02E007A3D3E9002340467D
:100650004946B84700220B4BB047A8472060BDE889
:10066000F88300BFAFF30080182D4454FB211940DC
:100670006845002031724000DD6F40001175400078
:10068000008076400000904010B50D4A0D4B0E4C96
:1006900038B11068984700220C4BA04700220C4B41
:1006A00007E0106898470022084BA04702A3D3E94F
:1006B0000023A04710BD00BF182D4454FB21194052
:1006C00068450020116F4000DD6F40000000503F82
:1006D000008076402DE9F743254CDFF8A890254FA0
:1006E000204600224FF48031C847DFF89C80204626
:1006F00001224FF48031C0471F4E70234FF48032E7
:1007000000970B212046B0471C4D20464FF4803106
:10071000A847204600224FF40031C8472046012256
:100720004FF40031C04770234FF4003200970B2183
:100730002046B04720464FF40031A847204600220B
:100740004FF48021C847204601224FF48021C04742
:1007500050234FF4802200970B212046B0474FF4DE
:1007600080212046A847064B03B0BDE8F043184758
:10077000000E0E40B9054000312F4000032D40000F
:1007800011064000A52C4000F52C400013B5054B88
:1007900004228DE80C0000231A460349034CA047AD
:1007A00002B010BDDF0C676526024100BD7F40002E
:1007B000F0B504460E4617461D4687B014220021A8
:1007C00001A80A4B98470A48012302938DF8144068
:1007D00000234FF0FF3201A9064C00688DF8047029
:1007E00003960495A04707B0F0BD00BFC17D40004F
:1007F00070450020211C400070B505460E4686B0AD
:1008000000242146142201A80B4B8DF80340984781
:100810000A4801230DF103020293039204934FF05F
:10082000FF32234601A9064C00688DF804608DF85C
:100830001450A04706B070BDC17D40007045002037
:10084000B91A400038B519210E4C0546A047B8B971
:100850001A212846A04798B91B212846A04778B9F5
:100860001C212846A04758B938212846A04738B946
:100870006A212846A04718B96B212846A04700B135
:10088000C0B238BDF907400070B50E4B04460E46A5
:1008900010460D491546984790B10C4928460C4B17
:1008A000984768B1682C14BF03240024094B3444D2
:1008B00003EBC4042846084B9847C4E90001012013
:1008C00070BD00BF957B40000000FAC40000FA44F0
:1008D000597B400000010020356F4000682814BF9C
:1008E0000320002008B5044B014403EBC101D1E90A
:1008F0000001024B984708BD0001002061754000CF
:1009000070B50E4B04460E4610460D4915469847E5
:1009100090B10C4928460C4B984768B1682C14BF1D
:1009200003240024094B344403EBC4042846084B39
:100930009847C4E90001012070BD00BF957B4000CD
:100940000000FAC40000FA44597B4000D0000020A7
:10095000356F4000682814BF0320002008B5044B01
:10096000014403EBC101D1E90001024B984708BDE6
:10097000D00000206175400010B50B4CD0E9002379
:1009800000F10801D1E90001A047084B984704A3F2
:10099000D3E90023064CA04710BD00BFAFF3008091
:1009A000F8C1631ADCA54C4031724000F159400097
:1009B000DD6F400008B50021014B984708BD00BF1E
:1009C000F9074000000000002DE9F34700230093E1
:1009D000ADF804302C4B0022C1E90023C1E9022309
:1009E000C1E90423294B05460C469847002843D10A
:1009F00006233B2269462846254EB04700283BD1B6
:100A00000646B5F16803234A18BF0123182505FBE4
:100A10000325214FDFF88480DFF88490DFF884A07D
:100A2000083D0DEB06031DF806205B7843EA022320
:100A30001BB2002B98B208DBB847C04710A3D3E91C
:100A40000023C847C4E900010CE04042C0F30E0097
:100A5000B847C0470AA3D3E90023C84701F10041C2
:100A600020606160F5E90223D4E90001D047023635
:100A7000062EE4E80201D4D102B0BDE8F08700BF41
:100A8000FCA9F1D24D6230400040CFC0B509400012
:100A9000B1074000000100206D774000356F400035
:100AA00031724000796C40002DE9F3470023009338
:100AB000ADF80430264B0022C1E90023C1E902232E
:100AC000C1E90423234B05460C46984700283CD136
:100AD00006234322694628461F4EB047002834D1DA
:100AE0000646B5F168031D4A18BF0123182505FB0A
:100AF00003251B4FDFF87080DFF87090DFF870A0DF
:100B0000083D0DEB06031DF806205B7843EA02233F
:100B10001BB2002B98B203DBB8471249C04707E06D
:100B20004042C0F30E00B8470E49C04700F10040F4
:100B3000C847C4E90001F5E90223D4E90001D04720
:100B40000236062EE4E80201DBD102B0BDE8F087F0
:100B50000040CFC0B5094000B1074000D0000020E0
:100B60006D7740000000034385794000356F4000F9
:100B7000796C4000000000002DE9F04F0446A1B060
:100B80004B4D0E4617460021182202A8A8471822EE
:100B9000002108A8A847182200210EA8A84718225B
:100BA000002114A8A847182200211AA8A847204607
:100BB000404B98470090002870D11FB93AA3D3E961
:100BC000002301E03C4B002220A901EBC60646E9C8
:100BD0000623B4F1680318BF01230193019A182377
:100BE000534336493648A3F1080210338D180B449D
:100BF000024400210020E5E902019D42E2E90201F0
:100C0000F9D1DFF8D490642502A920462D4B9847EE
:100C100008A920462C4B9847EB460DF1380814AF35
:100C20000DF1180A0326FBE90223D8E90001C847A1
:100C3000FAE90223E8E80201D7E90001C847013ECA
:100C4000E7E80201EFD16420204B9847013DDBD15A
:100C5000019B18245C43194DA4F10803184C1C4F48
:100C6000DFF878B00DF1300A0DF160091D440DF187
:100C700048081C4403260022164BFAE90201B84733
:100C8000F9E90223D8470022E5E90201F8E9020167
:100C9000104BB847013EE4E90201ECD1009821B0C5
:100CA000BDE8F08FAFF300800000000000408FC06F
:100CB000C17D4000B509400000408F400001002088
:100CC000D0000020C9094000A90A4000B9434000F3
:100CD0003172400000005940796C4000756C400052
:100CE00030B5204B85B00FCB8DE80F001E4B694609
:100CF0001E4898471E4B186018B91E4B984700BFF6
:100D0000FDE71D4A1D4919481D4B984710F0FF0F7C
:100D100005D01C481C4B98474FF0FF3020E01B4C7F
:100D20006820A047254640B96820194B984744B22F
:100D300044B1154B1748984704E01748124B9847A1
:100D40004FF0FF346920A84730B96920104B98470D
:100D500044B224B1114800E011480B4B984720469B
:100D600005B030BD34024100A119400000800140AF
:100D7000704500203D354000006CDC02801A060002
:100D8000C531400044024100D50E4000B509400085
:100D900045084000540241006D02410081024100BB
:100DA0009B02410037B500230193164B0C46984235
:100DB00006D1154D21461348A8470028FAD11EE058
:100DC000124B984206D1104D21461048A8470028E2
:100DD000FAD114E00E4B984206D10E4D01A90C48F1
:100DE000A8470028FAD108E00B4B984207D1094DDB
:100DF00001A90948A8470028FAD1019B237003B034
:100E000030BD00BF00060E409332400000080E4087
:100E100000400240B53240000080024038B5164B19
:100E20000C46984207D1154D21461348A847002883
:100E3000FAD1012038BD124B984206D10F4D214600
:100E40000F48A8470028FAD1F3E70E4B984206D185
:100E50000D4D21460B48A8470028FAD1E9E70B4B76
:100E6000984206D1084D21460848A8470028FAD1E3
:100E7000DFE7002038BD00BF00060E40853240008D
:100E800000080E4000400240A332400000800240B3
:100E900013B50A460023014604480093044C4FF062
:100EA000FF330068A04702B010BD00BFA845002076
:100EB0003D21400010B40A46044C01460448A446B3
:100EC0004FF0FF33006810BC604700BFBD214000F9
:100ED000A84500200FB473B50D4B06AC40F204409A
:100EE00054F8046B9847224601943146094B054655
:100EF0009847094B0146284698470446074B284621
:100F00009847204602B0BDE8704004B0704700BF6B
:100F10008136400021C14000910E4000453740001D
:100F200070B51B4B88B004931A4B1B4C1B681B4AB3
:100F300005930A23069301238DF81C3003238DF8B3
:100F40001D30174B174E01934FF4E13302934FF4CA
:100F500000630393144B00211C60144B144D1A6062
:100F6000144A154B1A6033689868A8473368002103
:100F70005868A847114B04AA01A920469847104B6E
:100F8000186018B90F4B984700BFFDE708B070BD57
:100F9000744500203001002000060E401D0E400068
:100FA000006CDC0280050020C8450020C4450020FC
:100FB0005D7E4000A50D4000C0450020911F40000F
:100FC000A84500203D354000004B1847AD274000A4
:100FD00010B50C4CDC210022B0206FF07F4384E878
:100FE0000F00094B98472046084B98470820084BAC
:100FF0009847084B9847BDE810404FF6FF70064BE6
:10100000184700BFB04500203D264000652840003D
:10101000E5254000C5274000292A40002DE9F04F72
:10102000444BA1B09847444D0020A847434C444A44
:101030000A210520A047DFF828814FF4FA70414BC0
:101040009847414E1822002104A8B047DFF814A1A8
:10105000DFF814B1002704A95AF8270001234FF044
:10106000FF3201EBC701D8470128DFF8FC9001D01F
:101070000020C0470137032FEDD1182200210AA814
:10108000B047DFF8E8A000270AA95AF82700012393
:101090004FF0FF3201EBC701C847012801D0002003
:1010A000C0470137032FEFD11822002110A8274F86
:1010B000B047002610A957F8260001234FF0FF3251
:1010C00001EBC601C847012801D00020C047013606
:1010D000032EEFD16FF07F40A8471D4EDC23B022D6
:1010E0001E210020B0470020A847DDE91423194E37
:1010F000CDE90223DDE906231749CDE90023DDE927
:10110000042316A8B04716AA1E210520A047DDE932
:101110000E231249CDE90223DDE90C2316A8CDE9FF
:101120000023DDE90A23B04716AA6E210520A04757
:1011300083E700BFD10F4000E1274000352B40007E
:10114000B0024100B9434000C17D4000E0450020AD
:10115000912A4000BD7F4000BD024100ED024100E8
:10116000CD3F400020460020893B4000D445002070
:1011700010B52E20054B9847054B01221A70054BE0
:10118000BDE810401868044B184700BF6D254000AB
:10119000600A0020AC450020894040007FB504ACC7
:1011A00004E90F009DF8043013B3012B31D1029CE8
:1011B00000212046184B9847184E194D88B11949FF
:1011C000194B20469847194B9847194B1860194BF3
:1011D0009847194B13499847B04702460B461748A2
:1011E00004E02046B0470B460246154829460CE06D
:1011F0000F4B18680F4B98470A490F4B9847074BFE
:10120000984702460B460D48054904B0BDE87040BA
:10121000084704B070BD00BF957B4000356F4000AB
:10122000D50E400000007A441D784000A97B4000A4
:10123000340100206D77400085794000380341007B
:101240005003410010B586B006AC04E90F000C4C09
:1012500023689BB10B4B18680B4B98472E200B4B08
:1012600098474FF0FF330A48009322680023022179
:101270000068084CA047084B02221A7006B010BD47
:1012800034010020AC450020E1454000A925400084
:101290004C450020694A4000600A00202DE9F047D3
:1012A000594CB2B0594D4FF0000ADFF87C81584ECE
:1012B00098F80030574F012B09D100234FF0FF322F
:1012C00019463068B847544888F800A0A84700235A
:1012D00019464FF0FF323068B847504E18220021AF
:1012E00020A8B047DFF844914FF0000820A959F832
:1012F000280001234FF0FF3201EBC801B847012855
:1013000001D01920A04708F10108B8F1030FEDD171
:101310001822002126A8B047DFF814914FF00008EA
:1013200026A959F8280001234FF0FF3201EBC8012C
:10133000B847012801D01920A04708F10108B8F1E9
:10134000030FEDD1182200212CA8DFF8E880B04768
:1013500000262CA958F8260001234FF0FF3201EB9C
:10136000C601B847012801D01920A0470136032E35
:10137000EFD1DDE92023DDE92867DDE92A890120B5
:101380002749CDE91E23DDE92223CDE91223DDE93A
:101390002423CDE91423DDE92C23CDE91623DDE94F
:1013A0002E23CDE91823DDE93023CDE91A23DDE929
:1013B0002623CDE91C238847DDE91C23CDE9100154
:1013C000CDE90A23DDE91A23CDE90E89CDE9082309
:1013D000DDE91823CDE90C67CDE90623DDE9162305
:1013E0001048CDE90423DDE91423CDE90223DDE92A
:1013F0001223CDE90023DDE91E23A84700283FF48E
:1014000054AF1920A0474DE7752D4000D50E400080
:1014100050450020893B400069034100C17D4000E8
:101420008906400070034100600A00202046002029
:10143000D4450020E045002070B590B03222002154
:1014400003A8174DA847174B174C009300231A46C3
:101450004FF47A711548A047154B164E18600024BA
:1014600001210DF10B00B0470128F9D19DF80B20A7
:101470000D2A09D1104B03A898473222002103A856
:10148000A84700231C46EBE710A9631C0C4404F892
:10149000342C0A4600211A4402F8341CF2E700BF3B
:1014A000C17D400071114000194A4000AF03410066
:1014B0004C450020B50E4000B101400070B50F480A
:1014C0000F4CA0473E2100200E4B98470E4DA847D9
:1014D0000028FCD00D4B98470D4A0E4B0E4D9A62DA
:1014E000A8470028FCD00D4B102098470C4B98477C
:1014F0002346BDE870400148184700BF006CDC027D
:1015000089000020E52F4000353040004530400084
:10151000013F072000040E4055304000A12F40003D
:101520004D33400010B500238B4207D01C010459F5
:10153000944201D1194601E00133F5E7084610BD98
:101540000B4610B55C1AA24205DD13F8014B84422C
:10155000F8D1012010BD002010BD00002DE9F041A0
:101560001446C20706460D4608D50120234B98476E
:10157000686018B9224B984700BFFDE706F00403E6
:1015800003F0FF02BBB10322002101201D4B98474D
:10159000286020B100231A4619461B4FB847286817
:1015A00018B9174B984700BFFDE700231A461946A4
:1015B000164DA84700E02A6033071AD5CCB10322A4
:1015C000002101200F4B9847206020B100231A46CC
:1015D00019460D4DA847206818B9094B984700BF18
:1015E000FDE70A4C0023A446BDE8F0411A4619461F
:1015F000604700232360BDE8F08100BFAD3A4000A2
:101600003D354000113940008D394000893B400094
:101610000F2910B503D9174B984700BFFDE70929DB
:1016200003D8144B984700BFFDE7C4B204F01F0273
:10163000012303FA02F2430900284FEA83034FEA29
:101640000111A8BF00F1604003F16043B8BF0A4830
:1016500003F56143B9BF04F00F04C9B2C9B200F584
:101660006140C3F88021B4BF015580F800131A60AF
:1016700010BD00BF3D35400014ED00E02DE9F04104
:10168000856904468D4217461E4602D1C36823B9B8
:1016900000E000D36168491B00E00021B14208D39B
:1016A00008D000231A4619462069DFF84080C04759
:1016B00000E00E4638460A4B3246A16998476368F7
:1016C00035449D42074F084B03D398472368A361D5
:1016D00001E09847A561B8473046BDE8F08100BFFA
:1016E000D57C40006D3540004D3540008D394000BF
:1016F00037B5436805460C460BB9002014E0684630
:101700000A4B98470023686822681946084DA84785
:1017100040B121466846074B98470128EDD100208B
:10172000206001E06FF0020003B030BD954740003B
:10173000893B4000BD4740002DE9F3411C46089B12
:101740000F4615469DF8246003B10360006828B178
:1017500000231A461946DFF85480C04701950097C8
:101760000E4B0F4D5EB14FF400712046984769460D
:10177000002220460B4B98474FF4807108E002216D
:1017800020469847694632462046074B9847012134
:101790002046A84702B0BDE8F08100BF192C4000E8
:1017A0000D2C4000E12B4000F72B4000893B40000E
:1017B00010B50B4609B1002010BD00680028FAD012
:1017C000034CA0470128F6D06FF0020010BD00BF07
:1017D000893B40002DE9F04FDFF8C0A14FEA001926
:1017E0005AF8094085B0644B06460025204603950B
:1017F0009847624B07462046984707EA000313F4D0
:1018000000580AEB090B01933DD04FF40071DBF84F
:1018100004005B4B98474FF400512046594B9847C2
:10182000236A5F0705D40135681CF9D14FF0010820
:1018300001E04FF00008544A02232360F300D0185F
:1018400052F8361042680A4412F8012C6263226A88
:10185000D10704D401356A1CF9D14FF001084B4A75
:1018600013445868934620B1002303AA1946484FF1
:10187000B847013507D05BF8360020B1002303AA32
:101880001946434DA847019BDB0447D50AEB0903E2
:10189000586802213A4B98474FF480512046394B03
:1018A00098470025236A9F0702D40135681CF9D1A7
:1018B000022335492360F30051F8360019444A6881
:1018C000216B024402F8021C216A890703D4013506
:1018D0006F1CF9D10DE0681C0BD0216B002502F8BC
:1018E000011C226AD10704D401356A1CF9D14FF0DA
:1018F0000108264A1344586828B1002303AA194650
:10190000DFF88CB0D847013508D0224B53F83600A9
:1019100020B1002303AA19461D4DA847019B13F4CB
:10192000507F02D1B8F1000F1ED0D14440F2022105
:10193000D9F80400124B9847019B4FF40051DB0586
:101940005CBF0223236020460E4DA84720464FF47B
:101950008051A8470D4B03EBC606706820B10023E9
:1019600003AA19460A4CA047039B0BB10A4B9847A0
:1019700005B0BDE8F08F00BF0B3240000F324000D1
:10198000192C4000053240006C0A0020740A002027
:101990000D3B4000640A00202D354000B803410093
:1019A0002DE9F347344D02AE032306F8043D024609
:1019B0008846324B012107462846984704460122B3
:1019C000314698F80C002E4B9847002C4CDC002830
:1019D0004CD02C4BE60003EB060A08222A4950465D
:1019E000DFF8D090C84718B1284B984700BFFDE7F3
:1019F000274B08221E4424493046C84718B1234BC0
:101A0000984700BFFDE7240105EB0409D9F8080059
:101A1000204B9847D9F8040040F202211E4B98470A
:101A200055F804904FF0FF3148461C4B98471C4B2B
:101A30004846984798F80C30032B02D14846194B7A
:101A400098473246514698F80D00174B98472C445A
:101A500048464FF45071154B9847D8F8081094F940
:101A60000C00134B984702E0002700E00746384679
:101A700002B0BDE8F08700BFB80341002515400063
:101A800041154000740A0020C80341003D35400064
:101A9000640A002065304000192C400005324000E7
:101AA00019324000B53140005D1540000132400060
:101AB00011164000717C40002DE9F04F85B0039273
:101AC000064602460D469A4601214B484B4B984725
:101AD000B0F1000B00F38880EB68002B00F08480ED
:101AE000DFF838814FEACB0708EB070903A948461E
:101AF000434B98470446002879D170602B7C1B0427
:101B000003F4FE026B681B0203F44073134373601B
:101B10006A685AB1012A2B7809D92B88022A5BBA44
:101B20009BB204D0AA7842EA032300E00346F360A4
:101B3000EA683148012A4FEA0B133AD150F8039072
:101B40004FF450712F4B48469847AB681B7873632E
:101B50000023326AD1050ED54FF4507148462A4B06
:101B60009847474400231A4619467868274CA047EF
:101B70006FF009003CE0550704D40133581CE8D14C
:101B80006FF0020402223260326AD20704D40133B9
:101B9000591CF9D16FF0020448464FF450711A4BAA
:101BA0009847474400231A4619467868174DA847B6
:101BB0001DE0174CA96827440344012044F83B105A
:101BC0007A605B680190013A4846CDF800A0114C5C
:101BD000A04730464FF400510B4B9847039A5146AB
:101BE00048460D4B984703E06FF0070000E02046A1
:101BF00005B0BDE8F08F00BFB803410025154000D7
:101C0000F116400005324000013240008D3940009D
:101C10006C0A002039174000B1174000740A0020F8
:101C20002DE9FF47054603920E46024699460121DB
:101C30005B485C4B9847B0F1000A00F3AA80F36858
:101C4000002B00F0A680DFF884814FEACA0703A9C1
:101C500008EB0700544B98470446002840F09C804E
:101C6000524B284698476C6073681B0203F440731C
:101C700043F48052337C1B0403F4FE0313436B6074
:101C800072685AB1012A337809D93388022A5BBABB
:101C90009BB204D0B27842EA032300E02346EB6013
:101CA000F268DFF8FCE0022A4FEA0A1352D85EF825
:101CB00003904FF4507148463D4B9847F368B06825
:101CC000012B06D103222A601A4600214FF0020E92
:101CD0000CE001222A600022F7E7012B1AD0B60798
:101CE0001DD5296B013B017001300021E3B12E6A43
:101CF00016F4807FF1D04FF4507148462D4B984731
:101D0000474400231A46194678682B4CA0476FF0C9
:101D1000090042E00AB9C5F800E01A46DFE70131E0
:101D20004E1CE3D16FF002044FF0FF332A6AD20752
:101D300003D4013BFAD16FF0020448464FF45071CE
:101D40001C4B9847474400231A46194678681A4D99
:101D5000A84721E0B1681948734440F83A10384464
:101D600042601748023A074400200190CDF80090E5
:101D700038465B68134CA04701232B6028464FF47C
:101D800080510C4B9847039A494638460E4B98476A
:101D900003E06FF0070000E0204604B0BDE8F087E4
:101DA000B803410025154000F116400013324000F1
:101DB00005324000013240008D3940006C0A00209D
:101DC000640A002039174000B1174000740A00204F
:101DD0000020014B184700BFD51740000120014BE0
:101DE000184700BFD517400070B51B4C1C2303FBE0
:101DF00000439D699A68954201D121B905E002D955
:101E0000AD1ADD6002E05968891AD9601C2141438E
:101E10006318DE685B6832449A4203D90F4B9847D7
:101E200000BFFDE70E4D040186B12B195E680A4B19
:101E300008311944002230460A4B984701213046A8
:101E4000094B984709212859084B02E02859084BAB
:101E50000921BDE8704018477C0A00203D3540004C
:101E6000D0034100F72B40000D2C40006D324000A4
:101E7000713240002DE9F3413A4A0301D758044634
:101E8000394B4FF000083846CDF804809847374B5F
:101E90000546384698470540EA0617D53846344B7C
:101EA00010219847334B03EBC40250681E4628B1FB
:101EB0004346414601AADFF8C080C04756F83400C7
:101EC00020B1002301AA19462B4EB0472B0726D577
:101ED0001C226243294EB318996919B9284B9847B7
:101EE00000BFFDE7012903D1254B984700BFFDE75F
:101EF0009868D968014458689960814228BFB258EF
:101F0000204628BF9A6000211E4B98471C2303FBE4
:101F10000466306978B1002301AA194609E055B971
:101F2000164A1C2303FB04231869A0B12B4629463B
:101F300001AA114EB04715F0E00F0CD03846124BF5
:101F400098470C4B03EBC404606820B1002301AA3E
:101F50001946094CA047019B0BB10C4B984702B0A6
:101F6000BDE8F081D0034100793240007532400075
:101F700071324000980A00200D3B40007C0A00208E
:101F80003D354000E91D40007D3240002D354000C8
:101F90002DE9F04FDFF8A08185B04FF00109174619
:101FA00004AD0246504B06468B464046494605F86E
:101FB000049D984704464A462946387B4B4B984730
:101FC000002C00F38980002800F08880484D1C23F5
:101FD00003FB04539B691BB1464B984700BFFDE7C9
:101FE0003046454B98474FEA04193046434B9847D3
:101FF00008EB0903D3F804A040F202215046404AFE
:1020000001939047019B98683E4B98473B7B012B7F
:1020100003D1594630463C4B98474FF0FF3130468C
:102020003A4B98473A493B4B002201EBC401787B7D
:1020300098473B68002B37D0374B00214FF0FF30DB
:1020400098471C235C432544DFF8A4B0286118B9E5
:10205000284B984700BFFDE73B6804F10801AB60DF
:102060007B680022EB6059442C4B504698473B68F4
:10207000AB61AB684BF804307A6813446B607B7BD0
:102080009B0708D50120264B9847686118B9194B62
:10209000984700BFFDE730460921224B98470121B0
:1020A0005046214B984704E01C2303FB04540123B2
:1020B000A36108EB0903B96893F90C001B4B98471F
:1020C000E02158F80900174B98473046184B9847BD
:1020D0003046184B984702E0002600E0064630469E
:1020E00005B0BDE8F08F00BF251540004115400048
:1020F0007C0A00203D3540005B32400067324000E2
:10210000192C4000653040002132400071324000FF
:10211000980A00205D15400069394000F72B400007
:10212000AD3A40006D3240000D2C400011164000C9
:102130005532400061324000D00341002DE9FF4795
:10214000174D039307468846914601210246154BD9
:1021500028460C9E9847B0F1000A1CDC124C03A9DB
:1021600004EBCA042046114B9847B0B905EB0A1599
:1021700001234A46019341466B68204600960C4D68
:10218000A847384610210B4B9847039A3146204602
:10219000094B984701E06FF0070004B0BDE8F087F5
:1021A000D003410025154000980A0020F116400098
:1021B000391740006D324000B11740002DE9F04F53
:1021C00087B00191039301213B4B174602463B48E0
:1021D00098471C2343433A490546CC18A2698946CF
:1021E0001AB9384B984700BFFDE7012A03D1354B98
:1021F000984700BFFDE7002858DC6268CB58D21A28
:10220000BA4253D304A8304B98476069DFF8D4A092
:1022100090B10023039A1946D047012846D103A95B
:1022200004A82A4B9847012806D100231A461946CC
:102230006069274CA04739E0204E1C2303FB05FBB7
:1022400006EB051300240293002309EB0B08194643
:10225000039AD8F81000D047029B019A5B68224489
:10226000196840463B1B1B4EB04724180AD01A4B36
:102270009847D8F80C301BB901212846174B9847CE
:10228000174B9847A7420AD81C2303FB059568699A
:1022900068B100231A4619460D4DA84707E003A967
:1022A00004A80A4B98470028CED0EDE7002420462A
:1022B00007B0BDE8F08F00BF25154000D0034100F6
:1022C0007C0A00203D35400095474000BD47400056
:1022D0008D3940007D1640004D354000E91D40001D
:1022E0006D354000893B40000020014B184700BF7E
:1022F000751E40000120014B184700BF751E4000AD
:1023000010B50446104B984780232360636820462D
:1023100043F0010363606368002143F010036360CE
:10232000636823F080036360084B98476368204626
:1023300023F0020363606368002123F004036360F9
:10234000034BBDE8104018478D30400099304000E5
:10235000AF3040002DE9F04104460D4618461549BE
:10236000154B16469847074600231A46296820460B
:10237000DFF85C80C0472968204608220F4B984749
:10238000FAB2296820460E4B984729682046082251
:102390000C4B98477208296820460B4B984706F06B
:1023A000010229682046BDE8F04182F00102074B96
:1023B000184700BF006CDC026F3140005B31400009
:1023C000853140001B314000EF30400005314000B6
:1023D0009B3140004368096813F0040F07D10329BB
:1023E00007D8012303FA01F1C943024B18470F290B
:1023F000FBD97047993040002DE9F0410E46144654
:1024000088B915460A4FDFF82C80611B002D314436
:1024100005DD3868D8F800309847013DF5E724EA33
:10242000E470BDE8F0814FF0FF30BDE8F08100BFFF
:10243000C8450020C0450020013802282DE9F041A0
:102440000E4610D80C460B4FDFF82C808D18AC428E
:10245000A4EB06000BD0386814F8011BD8F8003044
:1024600098470028F3DA4FF0FF30BDE8F081BDE86F
:10247000F08100BFC8450020C4450020344B4FF414
:10248000004210B50B205A60324CA0470C20A047E8
:102490000D20A047304C4FF060511720A0474FF05F
:1024A00060512E20A0474FF060511920A0472B49C2
:1024B0000F20A0472A491020A0472A4B4FF0006266
:1024C0004FF4C061284898474FF080510020A04742
:1024D0004FF080510820A0474FF000610320A04733
:1024E0004FF000610420A0474FF000610C20A0478E
:1024F0004FF000610D20A0474FF000610E20A04773
:102500004FF000611F20A0474FF080511E20A047D0
:102510004FF000610C20A0474FF000610D20A04754
:102520004FF000610E20A0474FF080511E20A047C1
:102530004FF060511C20A0474FF060511D20A04774
:102540002346BDE810404FF060514D20184700BFB2
:1025500050140E4065304000992D4000790000284D
:10256000590000284D2E4000000E0E402DE9F0418C
:1025700005460A4E0A4FDFF82C800024A359AB42CF
:1025800007D133195B682846012B01D1C04700E011
:10259000B8470834202CF1D1BDE8F081E0034100B8
:1025A000412D40005B2D40002DE9F04105460A4ECB
:1025B0000A4FDFF82C800024A359AB4207D133190E
:1025C0005B682846012B01D1C04700E0B8470834BA
:1025D000202CF1D1BDE8F081E00341005B2D4000EB
:1025E000412D4000F7B5144AC0F1110016461028DD
:1025F00028BF1020002808BF012000234FF40051FD
:10260000182451630194019D6F1E0197002DFAD18A
:1026100031630194019D6F1E0197002DFAD10133A2
:102620009842EED14FF400330193019B5A1E019260
:10263000002BFAD103B0F0BD00120E40074B4FF44F
:1026400000525A6382B04FF400330193019B5A1E2B
:102650000192002BFAD102B0704700BF00120E4069
:1026600082B0002307490193019A824208D2019364
:10267000019A8A42019A02F101020192F8D9F3E724
:1026800002B070479F86010030B50468AF2C84BF4C
:10269000AF2404601468AF2C84BFAF2414600C68AE
:1026A000DB2C84BFDB240C601C68DB2C84BFDB24A8
:1026B0001C6004681568AC4284BF056014600A6839
:1026C0001868824284BF08601A6030BD70B5064643
:1026D0000C4C0022022120460B4DA8470123236009
:1026E0001C200A4B98473146002302222046084E00
:1026F000B0470221216020462B46BDE87040802271
:10270000184700BF008000405B3140005B2D400057
:10271000C130400038B50546074C012323601C201A
:10272000064B98470023294602222046044DA8471D
:102730000223236038BD00BF00800040412D4000CF
:10274000C130400010B50C46034B98472046BDE809
:102750001040024B184700BFCD264000152740000F
:1027600073B50F4B01221A6005460E4B1C200C4618
:102770000D4E984700230193019BA3420AD2019971
:102780000023022235F811100548B047019B0133A0
:102790000193F1E7024B02221A6002B070BD00BF44
:1027A00000800040412D4000C1304000034BDA69F9
:1027B0009A61034B01221A70704700BF00800040ED
:1027C000000C002041F217010720014B184700BF01
:1027D0004527400000210720004B184745274000AF
:1027E000030A23F4FF6323F00702430903F4FC63A5
:1027F0001343C0F3C4001843044A80B2002322F8F4
:1028000013000133B02BFAD1704700BFA00A00209B
:102810002DE9F0411C460E4687B2013AB918094D20
:10282000C9B23620A847B6B2F9B23720013CA84752
:102830003119C9B23820A847F1B22B46BDE8F041A2
:10284000392018474527400070B50D46044CC1B2E9
:102850002020A047E9B22346BDE870402120184758
:10286000452740002DE9FF474FF0020804AF81469D
:102870005F4C1D2047F8048D5E4EA0474046B04790
:102880005D4B1D2098471420B0471D20A0475B4C8E
:102890003220B0478023C4F8008023604FF080735B
:1028A0002360574B00254FF40012C3F880202046C8
:1028B000C3F8802183F815531A60524B9847DFF80C
:1028C00064A12A463946204600954F4BD0473946E9
:1028D000204601274D4B98474D4B2760676198472D
:1028E0004C4C38464FF48E71A04740464FF48071EF
:1028F000A04741F230010320A04740F6080108201C
:10290000A04739460C20A04740F601210F20A047E0
:10291000B0212020A047DC212120A0474FF42061D6
:102920001020A04741F238011120A0473220B047C3
:1029300041F221111220A0474E211320A04746F258
:102940006F711420A04729463020A047DB21312099
:10295000A04729463220A04729463320A047DB2143
:102960003420A04729463520A047B0213620A04773
:1029700029463720A047DC213820A04729463920A6
:10298000A04729465020A04740F20A615120A047A5
:1029900040F60A515220A04740F203315320A0478D
:1029A00040F60D215420A04740F606215520A047AF
:1029B00029465620A04740F203315720A047294618
:1029C0005820A04729465920A04799E80C002946DD
:1029D0002846114CA047D9F80800104B98472846C4
:1029E00029460F4B9847284604B0BDE8F08700BF42
:1029F000412D4000612640005B2D400000800040DA
:102A000000E100E00123400020BCBE00D5234000CF
:102A1000D52740004527400011284000E12740000D
:102A20004928400055234000002170B5074B064659
:102A3000084698472220064B984749F24074054DB6
:102A40003046A847013CFBD170BD00BF492840007B
:102A5000CD26400015274000AF2808B50ED8DB2949
:102A60000CD889B280B2064B98472220054B984774
:102A7000054B1888054B9847002008BD012008BD6C
:102A800049284000CD264000A00A0020152740001C
:102A9000F0B585B0019204AA42F8103D13460390A8
:102AA000029101AA02A903A81C4CA047009B019A0D
:102AB0000398029901330132121A5B1A184EB0477B
:102AC000BDF80810BDF80C00164B9847164B222095
:102AD0009847039C019BB025191B009B029C013366
:102AE0001C1B01FB0444B4FBF5F5104F013D6B1CAE
:102AF0004FF0B00102D00E48B847F7E7B4FBF1F34E
:102B000001FB134111B10A48084B98470021DC230F
:102B1000B0220846B04705B0F0BD00BF892640008E
:102B20001128400049284000CD2640006127400080
:102B3000A00A00202DE9F04F80468B460446DFF8BE
:102B40009C9085B0571E17F8013F002B40D00A2BF0
:102B500003D10BF1100B4446F5E725466FF0010257
:102B60006243142101FB032304F10A0A0193019B30
:102B700003EB4506184B1E44A6F52072002311787E
:102B8000C3F107000141C80707D50BEB0301284635
:102B900003920293C847039A029B0133082BEED19C
:102BA000A6F27F2607230BF10F0231781941C907DE
:102BB00006D5D11A284603930292C847039B029A6E
:102BC000013B012BF1D101355545D0D10C34BAE789
:102BD00005B0BDE8F08F00BF00044100592A400055
:102BE00019B10B6883604B68C3601AB113688361C5
:102BF0005368C361704719B10B6803604B68436049
:102C00001AB11368036153684361704721F0FE01F4
:102C1000C905C90D0162704721F4FE7121F001015F
:102C20008905890D01627047B1F1C05F10B542643A
:102C30002DD007D8B1F1006F15D0B1F1805F1DD054
:102C400071BB10BDB1F1205F2BD005D8B1F1005F91
:102C500026D1036F13431FE0B1F1405F21D0B1F1E2
:102C6000605F1ED01CE0D343046F016F2140194008
:102C70000167446F416F21400B4010E0036F134325
:102C80000367416F436F0B4023EA020307E0016FC4
:102C9000036F0B4023EA02030367436F1343436749
:102CA000426010BDD30741644CBF4166016612F01B
:102CB0000A0F14BF01624162930702D5C0F8801069
:102CC00003E0130748BFC0F88410416101607047FA
:102CD00010B5029C41640CB1416600E001660BB185
:102CE000016500E041650AB1016300E041630161F3
:102CF000016010BD12B1C0F894107047C0F8901078
:102D00007047C36C01647047C06C7047806C70473B
:102D1000D3060ED59306C0F8B0104CBFC0F8D4103F
:102D2000C0F8D01053064CBFC0F8C010C0F8C41093
:102D30007047C0F8B4107047004B1847112D400081
:102D4000430903F5001303F2077300F01F0001228B
:102D50005B0202FA00F018637047430903F50013A1
:102D600003F2077300F01F0001225B0202FA00F079
:102D700058637047430903F5001303F207735B02BE
:102D8000996B00F01F00012202FA00F0014214BF0B
:102D90005863186370470000F7B545090E4605F5FE
:102DA000001501F0F04105F20775B1F1005F4FEA3F
:102DB00045251DD009D8B1F1805F19D0B1F1C05FB0
:102DC00016D0B1F1006F38D112E0B1F1405F1FD0E1
:102DD000B1F1605F1CD0B1F1205F2ED100F01F0176
:102DE0000124324604FA01F12846154B984722E0A7
:102DF00000F01F04012707FA04F422462846114B6D
:102E00009847F60702D42C66384617E06C66FBE755
:102E100006F0605200F01F01012402F1484006EA6A
:102E20000403424200934241C6F38003284604FA59
:102E300001F1054DA847204600E0002003B0F0BD99
:102E4000A52C4000292C4000D12C4000F7B502F001
:102E5000F045B5F1005F06460C46174617D009D875
:102E6000B5F1805F13D0B5F1C05F10D0B5F1006F40
:102E700027D10CE0B5F1405F13D0B5F1605F10D001
:102E8000B5F1205F1DD1104B984701201AE0224672
:102E900029460E4B9847F80701D43466F5E7746667
:102EA000F3E707F0605202F1484107F001034A429C
:102EB00000934A41C7F3800321463046044CA047A3
:102EC000E3E7002003B0F0BDA52C4000292C400012
:102ED000D12C4000F8B5134B04460F469847124BCF
:102EE00005462046984705401AD0104C04F160066C
:102EF00054F80C3CBB420FD154F8081C29420BD0AB
:102F000023683846984754F8083CA64225EA03054A
:102F100006D0103425B1EBE7A64201D01034E7E724
:102F2000F8BD00BF092D40000D2D4000140C0020FD
:102F3000F8B58E4611460B4A1468062C0FD80A4F76
:102F40002601BD1947F806E0069E0134AB60146007
:102F500069601A46EE60054B98470020F8BD0120D5
:102F6000F8BD00BF040C0020080C0020392D4000E3
:102F70000B210148014B1847000E0E40D52E400092
:102F80000C210148014B184700100E40D52E40007F
:102F90000D210148014B184700120E40D52E40006C
:102FA0000F4B1A6B22F07002104340F601021863B7
:102FB000986E0B49000703D4013AF9D101207047FC
:102FC0000A6B22F0030242F002020A6340F6010299
:102FD000996E090702D4013AFAD1EFE70020704751
:102FE00000040E4010B5104C30B1236A0F4A1A404D
:102FF0000F4B1343236210BD226A090222F45C13B3
:1030000023F0030343F45C1389B243F001030B4341
:103010002362A36E044ADB07FBD5136A43F09B735C
:1030200043F48033136210BD00040E40FCFFC8FE61
:1030300002003701024B986E00F48030704700BFE9
:1030400000040E40024B4FF000529A62704700BFDE
:1030500000040E40024B986E00F00200704700BF63
:1030600000040E401F284FF0010308D8064A03FA57
:1030700000F0916930EA010303D0106101E01846C5
:1030800070470020704700BF00040E401520014B20
:10309000184700BF653040004368090423F47023DB
:1030A0004360436801F470210B43436070474368F9
:1030B00023F07F434360436843EA01614160704706
:1030C00030B543F699240569AD0703D4013CFAD124
:1030D000012030BD4468A40706D5120402F4702212
:1030E00011430BB141F08071C160002030BD8900F7
:1030F00001440B6B12B143F0010301E023F0010323
:103100000B637047890001440B6B12B143F002035B
:1031100001E023F002030B637047042A09D100EB9E
:1031200081010B6B23F008030B630B6B43F004036B
:1031300011E04AB900EB81010B6B23F008030B632C
:103140000B6B23F0040306E0082A05D100EB810194
:103150000B6B43F008030B63704700EB81010B6BB3
:1031600023F0F0030B630B6B1A430A637047431E93
:103170001944B1FBF0F0431EFE2B94BF00B24FF098
:10318000FF30704700EB81010B6B23F47F430B632F
:103190000B6B43EA02220A63704710B500EB810112
:1031A000086B80B208630C6B44EA036343EA024293
:1031B0000A6310BD08230360202303600423036017
:1031C000704700000D4B994216D84900B2FBF1F24E
:1031D0000023043AFF2A04D9072B02D001335208F6
:1031E000F8E711021B0489B203F4E0230B43D2B2C7
:1031F0001A4302610020704701207047801A0600C0
:10320000416270478162036A7047006A7047C06A12
:103210007047006BC0B2704780230360036B704738
:10322000AC2310B503604A680B68B3FBF2F34FF6AA
:10323000FE721B095C1E94420AD803628B684360CD
:1032400040F20223C0F8203150230360002010BD5B
:10325000012010BD40230360704780230360704746
:10326000102303607047202303607047816070471C
:10327000C160704700697047406970474FF48073C0
:103280000360704743699B0746BFC161002001206E
:1032900070474369DB0743BF836900200B7001203F
:1032A000704743699B0743BFC1F30801C161002018
:1032B000012070474369DB0741BF83690020C3F3E6
:1032C00008030B6058BF01207047FEE708B5164A97
:1032D000164B9A4202D0043A154903E0154B164AA0
:1032E000002106E08B42F9D252F8040F43F8040B98
:1032F000F8E7934202D243F8041BFAE70F4B104A57
:1033000023F0604121F07F0103F16043B3F5C04F2A
:1033100091603EBF936843F000539360094B984718
:10332000094B9847FEE700BF5815410000000020F8
:10333000F4090020F8090020384600200000400071
:1033400000ED00E0F97B4000FD57400010B5294A30
:10335000294B116B01F0030101290CD002D3022982
:103360001AD035E0254949690C064CBF4FF400419D
:103370004FF4FA412BE0116AC8010BD420491960BF
:10338000116A01F07001102902D0202902D01FE03B
:103390001C491CE01C491AE0116AC9010BD41849E8
:1033A0001960116A01F07001102902D0202902D0A1
:1033B00003E0144900E014491960916A906AC1F36E
:1033C0000A441968C0B204FB0111B1FBF0F11960A5
:1033D000126B02F07002702A03BF1A680321B2FB5D
:1033E000F1F2044A1FBF126BC2F302111A68CA40FD
:1033F0001A6010BD00040E403801002010140E4069
:1034000000093D0000127A00001BB700074B1A6844
:103410000AB9074A1A601B68064A18448242A3BFC9
:10342000024A106018464FF0FF307047780C0020B9
:10343000384E0020FC5F00204FF0FF3070474FF403
:1034400000534B60002070470120704700207047F8
:1034500000F108034FF0FF3282604360C3600361F4
:1034600000230360704700230361704743685A6874
:103470004A6042688A605A68916059604160086198
:1034800003680133036070470A6810B5531C01D10B
:10349000036907E000F108035C682468A24201D3D5
:1034A0005B68F9E75A684A6091608B60596008610F
:1034B00003680133036010BD436882689A608368C3
:1034C00042685A6003695A68904204BF82685A6031
:1034D000002202611A68013A1A60186870470000F9
:1034E00003480068006880F3088862B600DF00BF08
:1034F00008ED00E04FF0807300E90A00002340F877
:103500000C3C40F8202C403870470000064B1968EE
:103510000868B0E8F00F80F309884FF0000080F3EE
:1035200011884EF00D0E704768430020024B4FF09B
:1035300080521A60704700BF04ED00E0EFF3118085
:103540004FF0A00181F311887047002008B5034BAC
:103550009847034A13680133136008BD3D354000A6
:103560003C01002080F3118870470000034B18686D
:103570000138186008B9024B184770473C01002019
:1035800065354000EFF309800C4B1A6820E9F00F15
:1035900010602DE908404FF0A00080F3118800F082
:1035A000D5FF4FF0000080F31188BDE8084019688E
:1035B0000868B0E8F00F80F309887047684300207E
:1035C00010B5064B4FF080521A60054B9847054BDB
:1035D0009847BDE810400020034B184704ED00E079
:1035E0003D354000BD414000653540004BF67F321F
:1035F000024B1A60072243F8042C704714E000E0E5
:1036000008B5084B1A6842F470021A601A6842F052
:1036100070421A60044B9847044B00201860044B1A
:10362000984708BD20ED00E0ED3540003C0100204A
:10363000E134400010B5104B1A68824201D21346A3
:10364000FAE759685C18A04201BF4068091818469B
:10365000596041684418A24208D1084C2468A2422B
:1036600004D05268114441601A681268984202609E
:1036700018BF186010BD00BF7442002070420020C7
:1036800070B5274B04469847264A116889B943F21A
:10369000E05543F2E456244B2448995103604160BD
:1036A00059512348234983E821000B681060103BDF
:1036B0000B602CB1103463071CBF24F007040834DE
:1036C00043F2EE53611E994221D8184B1D68696878
:1036D0008C4203D81268954206D118E02968002967
:1036E000F8D02B460D46F2E72A681E681A606B6810
:1036F00010361B1B202B04D9281943606C600E4B1D
:1037000098470C4A696813685B1A136000E000264A
:103710000A4B98470EB90A4B9847304670BD00BF18
:103720008141400070420020800C00207442002043
:10373000604200204001002035364000C942400070
:103740004557400010B5044678B1084B9847084AE1
:1037500054F80C1C1368A4F110000B441360054BC3
:103760009847BDE81040044B184710BD8141400008
:103770004001002035364000C9424000014B186826
:10378000704700BF4001002038B504461046226C47
:1037900032B92568FDB96068114B984765601AE039
:1037A000104B58B9A0689847A268236C134462680C
:1037B000A36093420FD32368A3600CE0E0689847AE
:1037C000236CE2685B4221681A448A42E2603EBF91
:1037D00062689B18E360A36B0133A36338BD00BF2D
:1037E000DD484000D57C4000034630B41C680846E4
:1037F0005CB1D9681A6C5D681144A942D96028BFD0
:10380000DC60D96830BC024B184730BC704700BF41
:10381000D57C40002DE9F04104461A4D1A4FDFF8DF
:103820007080A8472E4604F12405A36C002B09DD07
:10383000636A3BB12846B84700B1C047A36C013B5F
:10384000A364F2E74FF0FF33A364104D0E4FDFF88F
:103850004080A847B04704F11006636C002B09DDD7
:1038600023693BB13046B84700B1C047636C013BA8
:103870006364F2E74FF0FF3363642B46BDE8F04129
:10388000184700BF4D3540001D4740006D354000D2
:103890003548400038B50D46044618B9164B9847D0
:1038A00000BFFDE7154B9847206CE36B226843434C
:1038B000D1181B1A13446160E36000214FF0FF33FD
:1038C000A163A2606364A36455B923697BB104F169
:1038D00010000B4B9847012809D10A4B984706E086
:1038E00004F11000084DA84704F12400A847074B35
:1038F0009847012038BD00BF3D3540004D354000A0
:103900001D4740002D354000513440006D354000CA
:103910002DE9F0410E469046054668B150200E4F05
:10392000B847044640B106FB05F00130B8472060B7
:1039300030B92046094B9847094B984700BFFDE72F
:10394000E563266401212046064B984784F84D80A4
:103950002046BDE8F08100BF813640004537400079
:103960003D3540009538400010B502220C46054B0D
:103970000021984708B1846310BD034B984700BFEE
:10398000FDE700BF113940003D3540002DE9F04F03
:1039900087B00E4603929A46044618B9374B9847AB
:1039A00000BFFDE711B9036C002B60D1DFF8F48094
:1039B000334FC14600230193C047A16BE26BDFF890
:1039C000C0B09142019B11D22E4B52463146204647
:1039D0009847636A3BB104F124002B4B98470128B8
:1039E00001D12A4B9847D847012044E0039D15B9DF
:1039F000D84728463FE013B904A8254B9847B84755
:103A0000244B9847C847636CDFF89CB0013304BF70
:103A100000236364A36C204D013304BF0023A3641F
:103A2000B84703A904A81D4B9847D8B9C847A26B4B
:103A3000E36B02920193B847019B029A9A420DD11F
:103A4000039904F11000164B98472046D847A84721
:103A500008B10123AFE70D4B9847FAE72046D84756
:103A6000A847F6E72046D847A847002003E0034BC5
:103A7000984700BFFDE707B0BDE8F08F3D35400037
:103A80006D354000893740001D4740002D3540000E
:103A90009547400081414000C9424000BD47400079
:103AA000754640004D3540001538400070B5134B49
:103AB000064650209847044618B9114B984700BF56
:103AC000FDE701230025C3634FF0FF3385634560A5
:103AD0004364056083648560C560056480F84D605B
:103AE000084E1030B04704F12400B0472B462A4658
:103AF00029462046044DA847204670BD8136400027
:103B00003D354000513440008D3940002DE9F041F1
:103B100004460D4616469846174814B9804700BF1C
:103B2000FDE721B9236C13B1804700BFFDE7804753
:103B3000E16B0746A06B884217D2104B42462946DC
:103B400020469847A36C01330AD1636A5BB104F144
:103B500024000B4B984730B12EB10124346005E0AE
:103B6000A36C0133A364012400E000243846054B14
:103B700098472046BDE8F0813D3540008937400038
:103B80001D474000653540002DE9F04F85B00F46D8
:103B900001929A46044618B9424B984700BFFDE788
:103BA00011B9036C002B76D1DFF828813E4EC14657
:103BB00000230093C047A26BDFF8ECB0009B32B348
:103BC00039462046394BE5689847BAF1000F12D1C3
:103BD000A36B013BA363236813B9354B984760601F
:103BE00023698BB104F11000324B984701280BD1A7
:103BF000314B984708E0636AE5602BB104F124007B
:103C00002C4B98470028F3D1D847012047E0019D6D
:103C100015B9D847284642E013B902A8274B984760
:103C2000B047274B9847C847636CDFF8ACB0013307
:103C300004BF00236364A36C224D013304BF00233F
:103C4000A364B04701A902A81F4B9847F0B9C84721
:103C5000A36B0093B047009BA3B9236823B9C04767
:103C600060681A4B9847B047019904F12400184B3B
:103C700098472046D847A84708B1012399E70E4B3B
:103C80009847FAE72046D847A847F6E72046D8479E
:103C9000A847002003E0034B984700BFFDE705B0AD
:103CA000BDE8F08F3D3540006D354000E9374000FC
:103CB000414840001D4740002D35400095474000D9
:103CC00081414000C9424000BD4740006948400072
:103CD000754640004D3540001538400070B504462B
:103CE0000D4B0D469847636C013304BF002363649A
:103CF000A36C013304BF0023A364084B9847A36B54
:103D000023B9294604F12400054B98472046BDE815
:103D10007040044B184700BF4D3540006D354000E2
:103D2000D5464000153840002DE9FF4780460C4637
:103D300092464B6801F108065B68DFF868904B60BB
:103D4000B34204BF73684B604B68DF6863685B68AD
:103D50009E42636004BFE36863606368DD68296B4B
:103D60000A46531A12F8010B9BB2A528F9D0EA6A49
:103D7000296C9B088DE80C000291534605F1340232
:103D800005490648C84705494046054B9847AF4294
:103D9000DCD104B0BDE8F087800B410094420020E4
:103DA00009804000BD7F400010B50D4B04461A68E5
:103DB00050600C4A126890420B4A06D2BDE810408F
:103DC0000A490868196804311047094908681968E0
:103DD00004319047074B1A68944238BF1C6010BDED
:103DE0006843002088430020893440008C43002031
:103DF000B4430020440100202DE9F84F0A9E8A4672
:103E000015469946DDF830B0804618B9554B9847AD
:103E100000BFFDE7052E03D9524B984700BFFDE7D1
:103E20004C20514FB8470446002800F09780BBF162
:103E3000000F02D1A800B84700E05846206318B927
:103E400020464A4B984789E0AD002A46A521484BB9
:103E50009847236B043D51460A221D4404F1340067
:103E6000444B984704F1040A002384F83D3050463F
:103E7000DFF848B1E662A664D84704F11800D847D5
:103E800025F00705C6F10603A36124613A4B64627D
:103E90004A464146284698474307206003D0314BA5
:103EA000984700BFFDE70B9B03B11C60334B98475D
:103EB000334B344D1A68DFF8088101321A602F68DD
:103EC00007BB2C601B68012B24D1DFF8F8B008EB8E
:103ED00007001437D847782FDFF8E890F7D1DFF8DC
:103EE000E8B0294F5846C8473846C8472748C8470A
:103EF0002748C8472748C847274BC3F800B0274B77
:103F00001F6007E0264B1B6823B92B68DB6A9E42C3
:103F100028BF2C60234AE36A116814208B4222498F
:103F200088BF13600A6800FB0380226401320A60C4
:103F30001E4A11688B4288BF136051461C4B98473C
:103F40001C4B9847164B1B682BB12B68DB6A9E42B3
:103F500001D9194B98470120BDE8F88F4FF0FF3089
:103F6000BDE8F88F3D3540008136400045374000C0
:103F7000C17D400089844000F53440004D3540004B
:103F8000B043002068430020D84200207043002046
:103F9000C442002080420020B44300208C43002013
:103FA000BC420020C04200209443002090430020E7
:103FB0006D3440006D3540002D35400067344000C1
:103FC000EC42002051344000984300202DE9F0419C
:103FD0000446164B9847164B1A68A24200D014B9F3
:103FE0001D68002400E025462E1D3046114FB847BD
:103FF000AB6A13B105F11800B84731460E480F4BB4
:1040000098470F4A1368013313600E4A136801334F
:1040100013600D4B98470D4B1B6823B11CB9BDE8CD
:10402000F0410B4B1847BDE8F08100BF4D35400013
:1040300068430020B9344000C44200206D34400081
:104040006C430020944300206D354000BC420020AA
:104050002D35400008B518B9084B984700BFFDE75B
:104060004269074B9A4207D1806A064B984203D0B7
:10407000B0FA80F0400908BD002008BD3D35400081
:10408000804200207043002070B5044618B9164BDA
:10409000984700BFFDE7154B1A681E46904222D094
:1040A000134B98472046134B9847012817D1251DDD
:1040B000114B28469847114AE36A116814208B4235
:1040C00088BF13600E4A294600FB03200D4B98471A
:1040D0003368E26ADB6A9A4201D30B4B9847BDE82A
:1040E00070400A4B184770BD3D35400068430020C2
:1040F0004D35400055404000B93440009043002009
:10410000EC4200206D3440002D3540006D354000FC
:1041100030B5002485B0124D0394029401940094AC
:10412000234646220F491048A847012805460FD1CB
:104130000E4B9847012805460AD10D4B98470D4B69
:104140001D600D4B1C600D4B05B0BDE8304018479D
:104150001DB9074B984700BFFDE705B030BD00BF54
:10416000F93D4000920B410005444000CD4940001C
:104170003D354000BC42002088430020013640000D
:10418000024A136801331360704700BF8443002064
:1041900010B5044B9847044B1C68044B98472046C5
:1041A00010BD00BF4D354000884300206D354000F4
:1041B000014B1868704700BFB04300202DE9F0475D
:1041C000344B1B68002B56D1334B1A681E46013204
:1041D0001A601A68E2B9314B1A6812681AB1304B8A
:1041E000984700BFFDE72F4A1968106818601160F2
:1041F0002D490A6801320A601A6811682B4A11B900
:104200004FF0FF3303E01B68DB68DB685B6813601B
:10421000264C326823689A4233D3DFF88080DFF877
:10422000A090DFF8A0A0D8F800301B6813B94FF0B9
:10423000FF3307E0D8F80030DB68DD6832686B6870
:10424000934201D923601CE02F1D3846C847AB6A52
:1042500013B105F11800C847EB6ADAF80020142002
:104260009342134A88BFCAF8003000FB0320394646
:10427000104B9847D7E7104A1368013313600F4B70
:1042800098470D4B1B681BB9BDE8F0470B4B18470F
:10429000BDE8F0878443002088430020B443002019
:1042A0003D3540008C430020644300204401002041
:1042B000EC4200206D3440007C4200203557400025
:1042C000B9344000904300202DE9F8432B4C23687B
:1042D0001BB92B4B984700BFFDE72A4B9847236833
:1042E000013B236024680CB1002442E0264B1B688C
:1042F000002BF9D0254E264FDFF8B8803368F3B194
:10430000F368DD6805F1040905F11800B84748466F
:10431000B847EB6AD8F80020142093421D4A88BFA2
:10432000C8F8003000FB032049461B4B98471B4B45
:10433000EA6A1B68DB6A9A4228BF0124DEE7184D4F
:104340002B6843B12C46174E2B6833B1B047236816
:10435000013B2360F8E7012C06D1134B00221A60C1
:10436000124B9847012404E00F4B1B68012BBBD173
:10437000F3E70F4B98472046BDE8F88384430020BD
:104380003D3540004D354000B043002070430020D3
:10439000B9344000EC4200206D34400068430020F6
:1043A0007C420020BD414000AC4300202D35400040
:1043B0006D3540009043002010B518B9BDE810409D
:1043C000094B1847094B9847094B1B68C418094B00
:1043D0001868094B04309847084B20469847084B0B
:1043E00098470028EAD010BD2D354000814140009B
:1043F0008843002068430020B9344000A93D4000B4
:10440000C9424000174D80B52E46174F174C2B68F8
:10441000FBB1B847D4F80080154B9847B8F1000FAE
:10442000F5D0144B9847114BDFF86480DB68DC68EB
:10443000114B201D9847114A1368013B13603368E4
:10444000013B33600E4B9847206BC0472046C04766
:10445000DCE70C4B1B68012B01D90B4B98470B4B2E
:104460009847D2E76C43002081414000C4420020BD
:10447000C94240004D354000B9344000B0430020EF
:104480006D354000EC4200202D3540003157400092
:10449000453740002DE9F047214B0446984700235B
:1044A00003702049204B9847204B14221D68204B55
:1044B00090461F46013502FB0536DFF87C90143E1E
:1044C000013D08FB05F3FB581BB152223146204643
:1044D000C847143E002DF3D1164B1A68126822B15A
:1044E000196842222046144B9847144B1A681268E8
:1044F00022B11968422220460F4B984710490B6899
:104500001BB1442220460C4B98470E490B681BB147
:1045100053222046084B9847BDE8F0470A4B1847FE
:1045200081414000F40C410009804000C04200205D
:10453000EC420020B4430020293D40008C43002081
:10454000C442002080420020C942400038B51D4BC3
:104550001B681BB11C4B01221A6038BD1B4C226822
:10456000236812681B6B9A4204D820682168184B94
:1045700034319847174B184814251A6816496A436E
:1045800082584AB91A681AB9144B984700BFFDE718
:104590001A68013A1A60F0E70E4B1A681423534365
:1045A000C818456808336D680B4445609D4204BFD8
:1045B0006B684360142303FB02125368DB682360BB
:1045C00038BD00BF84430020AC4300206843002076
:1045D0001157400090430020EC4200203D35400040
:1045E0002DE9F0410446194D194B98472B68A34219
:1045F00000D014B92E68002400E02646371D384646
:10460000DFF86C80C047B36A13B106F11800C047E9
:10461000104E114B394630469847104B984794B985
:104620000F4B1B681BB1BDE8F0410E4B18470E4BFA
:1046300032681B689A4202D12C60BDE8F0810B4BB6
:10464000BDE8F0411847BDE8F08100BF6843002095
:104650004D354000804200206D3440006D354000F3
:10466000BC4200202D354000B04300204D454000A5
:10467000B934400070B50D4618B90E4B984700BFCD
:10468000FDE70D4C0D4B21681831984720680C4B05
:10469000043098476B1C06D121680A4804310A4B44
:1046A000BDE870401847094B1868094B2844BDE81D
:1046B000704018473D354000684300208934400071
:1046C000B9344000804200206D344000884300200F
:1046D000A93D400070B50D4618B90A4B984700BF78
:1046E000FDE7094C094B2168183198472068084BB1
:1046F00004309847074B1868074B2844BDE87040C2
:10470000184700BF3D354000684300206D3440002D
:10471000B934400088430020A93D4000F8B5C36883
:10472000DC681CB9134B984700BFFDE704F118067D
:104730003046114FB847114B114D1B6873B9261DF8
:104740003046B8470F4AE36A116814208B4288BF8D
:1047500013600D4A314600FB032001E031460B484F
:10476000A8470B4BE06A1B68DB6A984234BF002005
:104770000120F8BD3D354000B9344000844300209D
:104780006D34400090430020EC4200207043002034
:104790006843002008B518B9054B984700BFFDE7EE
:1047A000044B1B680360044B1B68436008BD00BFDB
:1047B0003D354000644300208843002038B50D4655
:1047C000044618B9154B984700BFFDE719B9134BBC
:1047D000984700BFFDE7124B98472B685A1C15D02D
:1047E000104A2168126891420F4A616802D010682D
:1047F00081420DD91268521A934209D90A4A2046B9
:104800001268521A9B1A2B60084B9847002400E04C
:104810000124074B9847204638BD00BF3D35400076
:104820004D354000644300208843002095474000F8
:104830006D354000014B01221A607047AC430020E7
:10484000014B1868704700BF68430020044B18688C
:1048500028B1044B1B68002B0CBF012002207047BD
:10486000BC420020844300202DE9F041044648B3B7
:10487000154DC36A2A68D26A934223D22A68D26A43
:10488000C2F1060282611148142202FB030362692D
:1048900006469A4213D1271D38460D4B98472B6880
:1048A0000C4ADB6A1168E3628B4288BF13601420F4
:1048B00000FB03603946BDE8F041074B18472B6801
:1048C000DB6AE362BDE8F08168430020EC4200202F
:1048D000B9344000904300206D34400070B5044668
:1048E000D0B1C26A836C9A4216D0051D28460B4B84
:1048F0009847A36C1420C3F10602A261084AE36240
:1049000011688B4288BF1360064A2946BDE8704093
:1049100000FB0320044B184770BD00BFB9344000B2
:1049200090430020EC4200206D3440002DE9F0411E
:104930000D4C0E4B984725688DB90D4F0D4E3846DE
:10494000DFF84480C0473046C0470B4B2A461F6003
:104950000A4B0C211E600520094B98472060094B2B
:10496000BDE8F041184700BFE84300204D35400046
:10497000BC430020D0430020B8430020EC4300207B
:10498000113940006D35400051344000914208B566
:104990004160006106D8D21A83699A420DD2011D86
:1049A000074B05E09A4201D2994206D2054B011D00
:1049B0001868054B9847002008BD012008BD00BFBE
:1049C000EC430020B8430020893440001FB50C4B55
:1049D00098470C4B1B6813B90B4B98470EE000230C
:1049E000052200920393029301938C220749084801
:1049F000084CA0470028EFD004B010BD00BFFDE771
:104A00002D494000E84300203D354000970B410010
:104A10003D4B4000F93D40002DE9F04180461746EE
:104A20001E460D4619B90C4B984700BFFDE72820DC
:104A30000A4B9847044658B1094B9847069BC4F85F
:104A400000806362A561E7612662201D054B9847DF
:104A50002046BDE8F08100BF3D3540008136400072
:104A60002D494000673440007FB50E4D064628684A
:104A70001C46A0B10191029203965BB90A4B98477C
:104A800001282346094E0CBF089A224601A928682E
:104A9000B04704E02246002301A9054CA04704B01A
:104AA00070BD00BFE84300204D4840008D394000F4
:104AB0000D3B40002DE9F7431A4E1B4FB0463368BB
:104AC0001A6832B3DA681568DB68DC6804F1040937
:104AD0004846B847636A20469847E369012BEED100
:104AE000A3692B449D4207D2636024614946D8F8EC
:104AF00000000E4B9847E2E70023204600932A4629
:104B000019460B4CA0470028D9D10A4B984700BF43
:104B1000FDE7094A034910681360086003B0BDE867
:104B2000F08300BFB8430020B9344000893440000E
:104B3000694A40003D354000EC4300202DE9F04F2C
:104B4000DFF88C8189B0DFF88CB1DBF80020D2F877
:104B50000090B9F1000F02D0D268156800E04D4610
:104B60004E4A4F4C9047A0474E4F06463A68039432
:104B7000904204D24C4A90474FF0010A01E04FF0B6
:104B8000000A3E60494CBAF1000F33D1B9F1000F71
:104B900026D0AE4224D3A047DBF80030DB68DC68C7
:104BA000434B201D9847E369012B15D1A16932467B
:104BB0002B46294420463F4EB04701280CD12A46B7
:104BC000CDF800A05346514620463B4DA84718B9A2
:104BD0003A4B984700BFFDE7636A204698470AE0D2
:104BE000A91BD8F80000364B9847A04718B9354B99
:104BF000984700E0A047039B98473B6805469842CA
:104C000001D2294B98473D602F4FDFF8A490002335
:104C10001A4605A9D8F80000B847002893D0079C89
:104C20001CB163690BB1201DC847059E022E22D01E
:104C3000032E2ED0002EEAD1A169069B2A461944E4
:104C40002046DFF87090C8470128DED1636A20460D
:104C50009847E369012BD8D1A269069920460A44F6
:104C6000009633463146144CA0470028CDD1134B53
:104C7000984700BFFDE70699A16119B90F4B984706
:104C800000BFFDE72B462A4629442046094CA04791
:104C9000BBE720460D4B9847B7E700BF8141400076
:104CA00091414000E4430020B54A4000C942400021
:104CB000B93440008D494000694A40003D3540000C
:104CC000DD3C40002D354000893B40004537400029
:104CD000E8430020B843002070B518252A46144C3C
:104CE00000211448A0472A4600211348A047134B2F
:104CF00000240025C3E900456820114B9847114B5B
:104D0000C3E90001104BC3E90001104BC3E90601E0
:104D1000C3E90845C3E90A45C3E90C45C3E90E45A3
:104D2000C3E910451846BDE87040094B184700BF5D
:104D3000C17D4000F843002010440020284400209A
:104D4000F102400030440020F043002040440020A5
:104D50008503400010B40448044C0023A4461A46BE
:104D60001946006810BC6047D04500208D394000CE
:104D70002DE9F0410D4616461C46C8B101281FD149
:104D8000104B0021284698470F4F104B40B1284642
:104D9000984702460B460E48C6E90023214605E027
:104DA000284698470B46214602460A48BC4604E07E
:104DB00021460CCA044C0648A446BDE8F0416047B1
:104DC000BDE8F081957B4000D50E4000356F400076
:104DD0009F0B4100AC0B41002DE9F047089C804639
:104DE0000F4620462749DFF8C89015461E46C8479B
:104DF00010BB25492046C84720B92448244BBDE8AC
:104E0000F0471847B8F1000F0ED131462846214B24
:104E10009847214B98470B4621461D4C0246A44615
:104E20001E48BDE8F0476047B8F1010F27D13A4668
:104E3000314628461A4B0FE0B8F1000F03D1314636
:104E40002846184BE4E7B8F1010F01D0BDE8F08720
:104E50003A4631462846144B98470D4D0E4B30B11B
:104E60003846984702460B460C48214605E038462E
:104E700098470B46214602460C48AC46D1E7BDE8B0
:104E8000F08700BFC20B4100C80B4100CD0B4100B1
:104E9000D50E400055094000356F40009F0B410082
:104EA00001094000DD08400089084000AC0B4100CA
:104EB000A9874000F0B587B006AC04E90F009DF863
:104EC0000C30002B2ED0012B34D1049C0021204625
:104ED000194B9847194DD0B12046194B9847194C9A
:104EE000194B20600646194F98470022184BB847C7
:104EF000184B3246C3E900010023174800930221F2
:104F00000068164EB047216815482B460EE0204633
:104F1000144B984702460B462946134807B0BDE894
:104F2000F0400847074B0E481968044B07B0BDE82E
:104F3000F040184707B0F0BD957B4000D50E40000B
:104F4000A97B400050010020F16E4000317240000A
:104F500000408F40480100202C460020694A400054
:104F6000EA0B4100356F4000FF0B410070B586B081
:104F700006AC4FF0FF350E4E04E90F0000950023FC
:104F80001A4601210B4C3068A0470B4B98470B4B3E
:104F90000B49D3E90023012088470A4B366898471C
:104FA00000230246009519463046A04706B070BD62
:104FB0002C460020694A4000D94C4000F0430020B4
:104FC000310640009141400030B585B08DE80F00BA
:104FD000054C9DE80F00054DA8479DE80F00A4462D
:104FE00005B0BDE830406047451240006D4F4000BD
:104FF0002DE9F04F9A4FDFF8D09285B000260022BD
:1050000008210120B84749F8260059F82630DFF872
:1050100050821BB91920934B9847FEE700220821C4
:105020000120B847904C44F8260054F826301BB9AC
:1050300019208C4B9847FEE7002208210120B84731
:105040008A4D45F8260055F8263002951BB91920DF
:10505000844B9847FEE70136032ED0D1324600211B
:105060000120C047824A1060924620B100231A46B0
:105070001946804EB047DAF8000018B97E4B9847C1
:1050800000BFFDE700231A4619467C4EB0470322B5
:1050900000210120C0477A4B18601F4620B1002331
:1050A0001A461946734DA847386818B9724B984785
:1050B00000BFFDE700231A461946B047714B012295
:1050C00014210093704E00237048B047704B074680
:1050D0001860704B984700260246334631463846E2
:1050E00000966D4FB8476D4B98476D4B1A686D4BE6
:1050F0001A6040B16C4B6D4898471920594B98473E
:1051000030466B4B984750A1D1E90001694B594E8D
:10511000C3E900014EA1D1E90001C3E902014EA19A
:10512000D1E90001C3E90401634B984754480023C7
:1051300019464FF0FF32514F0068B8475F4D1822B3
:1051400000215F48A8475E4968205E4B9847A94602
:1051500000275D4B002153F827005C4DA8475A4BB0
:10516000574953F8270001EBC701012300220137FB
:10517000B047032FA846ECD1182200215448C84755
:1051800053496820534B98470027029B002153F84E
:105190002700C047DFF838B1029B0BEBC70153F87B
:1051A000270000220123334D0137A847032FDFF8E2
:1051B0001C91EAD1484B42489847484FDFF8388164
:1051C000C7E9000100212068C847394601230022B1
:1051D0002068B047D8E900233949CDE90023404889
:1051E0005A46404B984700216068C8470123002277
:1051F0003B496068B047D8E900013B4DA8470390A0
:10520000DBE90401A8478046D7E90001A847039AD3
:10521000364B41469847364FC7E900010021A06848
:10522000C8470123A06800223946B047314B1B789C
:10523000002B3FF47BAF00231A461946DAF8000032
:105240000C4DA84772E700BFFCA9F1D24D62503F58
:10525000FA7E6ABC7493683FB81E85EB51B89E3FD6
:1052600011394000A9254000D4450020E045002028
:10527000504500208D3940003D354000893B4000BD
:10528000D0450020554D4000194A4000AF03410071
:105290002C46002091414000694A4000E10C40004A
:1052A0006045002038440020D50E40001C0C410011
:1052B000CD3F400040440020D94C4000C17D40001B
:1052C000F8430020C90940002046002095384000DE
:1052D00010440020A90A4000790940002844002019
:1052E000304400200D03400061754000F903400088
:1052F000F0430020600A0020480100202DE9F04F13
:105300008DB00CAC04E90F00DFF85C81434BD8F89A
:1053100000009DF82C40424D9847642300930023E1
:105320001A46012128683F4FB8473F4B2E20984727
:105330003E4E3F493F48B0470122022120463E4BA6
:105340009847AA46CDF814808146DFF820810028CE
:105350004AD13A4B3A493B48682C18BF1946B047E6
:105360000520C047384D49462046A84701210690F0
:105370002046A847022183462046A847069A334D77
:1053800004901046A84702460B460498CDE9062330
:10539000A847CDE902015846A847DDE90623CDE933
:1053A00000012B48B0470520C047DFF8C4804946BC
:1053B0002046C047012181462046C047022183463E
:1053C0002046C04704464846A847804620468946AE
:1053D000A847CDE902015846A8474246CDE9000159
:1053E0004B461C48B04703E00520C0471A48B04769
:1053F0002E201A4B98471A4BDAF80040984764233E
:1054000000930023024619462046B847059B1868BA
:10541000144B0DB0BDE8F04F184700BFE145400008
:105420002C460020694A4000A9254000D50E4000C6
:10543000380C4100480C4100790B40002F0C410012
:10544000270C4100580C4100DD084000356F40003A
:10545000770C4100AF0C4100E60C41006D25400087
:105460009141400089404000AC450020B9434000D4
:1054700055094000DFB504AC04E90F009DF8043085
:105480008BB1012B1BD102980E4B98470E4B0F4648
:10549000064698470D4C32463B460D4908B10D482B
:1054A00008E00D4806E00D4B9847084C02460B46B5
:1054B00008480749A44604B0BDE8D040604704B09E
:1054C000D0BD00BF356F4000AD024000D50E40009A
:1054D000F70C41009F0B4100AC0B4100E50240007E
:1054E00010B586B006AC04E90F00064B9DF81420F9
:1054F00000939DF80C0000230499034CA04706B0CC
:1055000010BD00BF0B0D4100D94D400010B586B055
:1055100006AC04E90F00064B9DF8142000939DF89B
:105520000C0001230499034CA04706B010BD00BF36
:10553000180D4100D94D400010B586B006AC04E905
:105540000F00064B9DF8142000939DF80C000223D9
:105550000499034CA04706B010BD00BF250D4100C3
:10556000D94D400010B586B006AC04E90F00064BDB
:105570009DF8142000939DF80C0000230499034C1F
:10558000A04706B010BD00BF320D4100D94D40000C
:1055900010B586B006AC04E90F00064B9DF8142048
:1055A00000939DF80C0001230499034CA04706B01A
:1055B00010BD00BF3E0D4100D94D400010B586B072
:1055C00006AC04E90F00064B9DF8142000939DF8EB
:1055D0000C0002230499034CA04706B010BD00BF85
:1055E0004A0D4100D94D400010B485B004AC04E927
:1055F0000F00054C054BA446054A02999DF804008E
:1056000005B010BC604700BF714D4000560D410011
:105610004044002010B485B004AC04E90F00054CF0
:10562000054BA446054A02999DF8040005B010BC3C
:10563000604700BF714D40005D0D410048440020AF
:1056400010B485B004AC04E90F00054C054BA4462A
:10565000054A02999DF8040005B010BC604700BFE0
:10566000714D4000630D41005044002010B40448C7
:10567000044C0023A4461A461946006810BC604733
:10568000304600200D3B400008B5044D044C172067
:10569000A8474FF4FA70A047F9E700BF752D400006
:1056A000B943400008B50F4E0F4D4FF47A70B04724
:1056B00000234FF0FF32194628680C4CA0470C4BD2
:1056C00098470C4C01460C48A0470C48A0470C4B8F
:1056D0000C4898470B48A0470B4B984701460B488E
:1056E000A047E2E7B943400030460020893B400034
:1056F000B1414000D50E40006C0D4100850D4100C8
:1057000095444000884400207D374000A20D4100B0
:1057100008B50A46034B014603489847034C192035
:10572000A047FCE7497C4000B20D4100A92540009C
:1057300000BF7047024A136801331360704700BF0F
:105740006045002008B5034B9847034C1920A0473B
:10575000FCE700BF3D354000A925400037B51C4B94
:105760004FF4004200930B2150231A4C1A48A047D3
:105770004FF400411848194B9847194B9847194A5C
:105780004FF400630025C2F880302946C2F880310A
:10579000012082F80B5313600322134B9847134ADE
:1057A0001060144620B12B462A462946104DA847C2
:1057B000206818B90F4B984700BFFDE70E4C002337
:1057C0001A461946A44603B0BDE83040604700BF02
:1057D0006D564000312F4000000E0E40032D40005A
:1057E000D506400000E100E01139400030460020BD
:1057F0008D3940003D354000893B400070B5534B2A
:1058000092B098474FF6FF03514A0025D168514C9A
:105810000B4043F0BF6343F40033D3604E4B9847D3
:105820004E4B4F4E1D604F4B98474F494F48A04736
:10583000322229464E4B05A898474E4B05A898475B
:1058400005A94D48A0474D4B984701230395029564
:10585000019500934FF480722B46494949484A4DBF
:10586000A847012804D04948A0471920B04701E0C3
:105870004748A047002303930293019300934622D5
:1058800044494548A847012804D04448A047192066
:10589000B04701E04248A04700230422009203934E
:1058A000029301934FF400723E493F48A8470128F4
:1058B00004D03E48A0471920B04701E03C48A0472B
:1058C0003C4A0023019202220092039302934FF478
:1058D000807239493948A847012804D03848A04780
:1058E0001920B04701E03748A047374A002301920A
:1058F00003220092039302934FF400723349344819
:10590000A847012804D03348A0471920B04701E038
:105910003148A0470023032200920393029301938E
:105920004FF400722D492E48A847012804D02D4875
:10593000A0471920B04701E02B48A0472B4B9847C0
:105940001920B047002012B070BD00BFBD14400048
:1059500000ED00E0497C40007D24400060450020CF
:10596000A9254000210F4000C90D4100DF0D410075
:10597000C17D40008D074000D60D41005D574000BD
:10598000E30D4100A5564000F93D4000EB0D4100FC
:105990000B0E4100220E410089564000270E4100A7
:1059A000480E41005C0E4100F14F4000620E410084
:1059B000820E4100AC450020970E41001D104000B2
:1059C0009D0E4100BD0E41003C450020D20E41001D
:1059D0009D124000D70E4100F70E41000B0F410011
:1059E00039144000100F4100300F410011414000B8
:1059F00030B5214A21F00043934287B01BDD1F4A96
:105A0000934205DD02460B4601F034F907B030BD84
:105A100002AA00F035F800F0030001281ED0022889
:105A200011D0DDE9042300B3DDE9020100F040FA02
:105A300001F10041EAE7002300930022002300F077
:105A400057FF07B030BD01230093DDE90201DDE916
:105A5000042300F04DFF01F10041D7E7DDE9042305
:105A6000DDE9020100F024FAD0E70124DDE90201BA
:105A7000009400F03DFFC9E7FB21E93FFFFFEF7F06
:105A80002DE9F04F944C21F00047A7428FB040F32E
:105A900081801446914A0E46974226DC84A3D3E9BE
:105AA0000023002940F3A08101F0E4F88C4B8046EC
:105AB0009F42894600F083807FA3D3E9002301F051
:105AC000D9F802460B464046C4E90023494601F096
:105AD000D1F879A3D3E9002301F0CCF80125C4E97A
